{
  "contractName": "AccessToken",
  "abi": [
    {
      "constant": true,
      "inputs": [],
      "name": "accessTokensCount",
      "outputs": [
        {
          "name": "",
          "type": "uint256"
        }
      ],
      "payable": false,
      "stateMutability": "view",
      "type": "function"
    },
    {
      "constant": true,
      "inputs": [
        {
          "name": "",
          "type": "address"
        }
      ],
      "name": "balanceOf",
      "outputs": [
        {
          "name": "",
          "type": "uint256"
        }
      ],
      "payable": false,
      "stateMutability": "view",
      "type": "function"
    },
    {
      "constant": true,
      "inputs": [],
      "name": "lastTokenIssueDate",
      "outputs": [
        {
          "name": "",
          "type": "uint256"
        }
      ],
      "payable": false,
      "stateMutability": "view",
      "type": "function"
    },
    {
      "inputs": [
        {
          "name": "_accessTokensCount",
          "type": "uint256"
        }
      ],
      "payable": false,
      "stateMutability": "nonpayable",
      "type": "constructor"
    }
  ],
  "bytecode": "0x608060405234801561001057600080fd5b506040516020806101bf8339810180604052602081101561003057600080fd5b81019080805190602001909291905050508060018190555050610167806100586000396000f3fe608060405260043610610057576000357c0100000000000000000000000000000000000000000000000000000000900463ffffffff16806355de8c7e1461005c57806370a0823114610087578063cededb30146100ec575b600080fd5b34801561006857600080fd5b50610071610117565b6040518082815260200191505060405180910390f35b34801561009357600080fd5b506100d6600480360360208110156100aa57600080fd5b81019080803573ffffffffffffffffffffffffffffffffffffffff16906020019092919050505061011d565b6040518082815260200191505060405180910390f35b3480156100f857600080fd5b50610101610135565b6040518082815260200191505060405180910390f35b60015481565b60026020528060005260406000206000915090505481565b6000548156fea165627a7a72305820426652d6a25a984548c6d6dc5cf77ad01052990ad77c3aa63a8060ecc7450d770029",
  "source": "pragma solidity >=0.4.21 <0.6.0;\r\n\r\ncontract AccessToken {\r\n\r\n  uint constant YEAR_SECONDS = 365 * 24 * 60 * 60;\r\n\r\n  uint public lastTokenIssueDate;\r\n\r\n  uint public accessTokensCount;\r\n\r\n  mapping(address => uint) public balanceOf;\r\n\r\n  constructor(uint _accessTokensCount) public {\r\n    accessTokensCount = _accessTokensCount;\r\n  }\r\n\r\n  modifier useToken(uint count) {\r\n      require(balanceOf[msg.sender] >= count, \"you have not enough token\");\r\n      _;\r\n      balanceOf[msg.sender] -= count;\r\n  }\r\n\r\n  function renewToken(address[] memory voters) internal {\r\n      if(lastTokenIssueDate > 0) {\r\n          uint endDate = lastTokenIssueDate + YEAR_SECONDS;\r\n          require(endDate < getTime(), \"you must renew tokens after one year\");\r\n      }\r\n      issueProposalToken(voters, accessTokensCount);\r\n      lastTokenIssueDate = getTime();\r\n  }\r\n\r\n  function issueProposalToken(address[] memory _voters, uint count) private {\r\n      for(uint i = 0; i < _voters.length; i++) {\r\n         balanceOf[_voters[i]] = count;\r\n      }\r\n  }\r\n\r\n  function getTime() internal view returns (uint) {\r\n        return block.timestamp;\r\n  }\r\n\r\n}",
  "sourcePath": "D:\\projects\\blockchain\\kuknos-dao\\contracts\\AccessToken.sol",
  "compiler": {
    "name": "solc",
    "version": "0.5.0+commit.1d4f565a.Emscripten.clang"
  },
  "schemaVersion": "3.0.9",
  "updatedAt": "2019-05-21T04:34:59.188Z",
  "devdoc": {
    "methods": {}
  },
  "userdoc": {
    "methods": {}
  }
}