{
  "contractName": "Anchors",
  "abi": [
    {
      "constant": true,
      "inputs": [],
      "name": "membersCount",
      "outputs": [
        {
          "name": "",
          "type": "uint256"
        }
      ],
      "payable": false,
      "stateMutability": "view",
      "type": "function"
    },
    {
      "constant": true,
      "inputs": [
        {
          "name": "",
          "type": "uint256"
        }
      ],
      "name": "anchors",
      "outputs": [
        {
          "name": "nameHash",
          "type": "bytes32"
        },
        {
          "name": "name",
          "type": "string"
        },
        {
          "name": "url",
          "type": "string"
        }
      ],
      "payable": false,
      "stateMutability": "view",
      "type": "function"
    },
    {
      "constant": true,
      "inputs": [
        {
          "name": "",
          "type": "uint256"
        }
      ],
      "name": "members",
      "outputs": [
        {
          "name": "",
          "type": "address"
        }
      ],
      "payable": false,
      "stateMutability": "view",
      "type": "function"
    },
    {
      "constant": true,
      "inputs": [],
      "name": "membersList",
      "outputs": [
        {
          "name": "",
          "type": "address[]"
        }
      ],
      "payable": false,
      "stateMutability": "view",
      "type": "function"
    },
    {
      "constant": true,
      "inputs": [],
      "name": "getAnchorsCount",
      "outputs": [
        {
          "name": "",
          "type": "uint256"
        }
      ],
      "payable": false,
      "stateMutability": "view",
      "type": "function"
    }
  ],
  "bytecode": "0x6080604052600260015534801561001557600080fd5b506104f5806100256000396000f3fe608060405234801561001057600080fd5b50600436106100575760003560e01c8063297f9af01461005c578063368b733e1461007a5780635daf08ca14610194578063d4c8ca9b14610202578063dd5042f414610220575b600080fd5b61006461027f565b6040518082815260200191505060405180910390f35b6100a66004803603602081101561009057600080fd5b810190808035906020019092919050505061028b565b604051808481526020018060200180602001838103835285818151815260200191508051906020019080838360005b838110156100f05780820151818401526020810190506100d5565b50505050905090810190601f16801561011d5780820380516001836020036101000a031916815260200191505b50838103825284818151815260200191508051906020019080838360005b8381101561015657808201518184015260208101905061013b565b50505050905090810190601f1680156101835780820380516001836020036101000a031916815260200191505b509550505050505060405180910390f35b6101c0600480360360208110156101aa57600080fd5b81019080803590602001909291905050506103f2565b604051808273ffffffffffffffffffffffffffffffffffffffff1673ffffffffffffffffffffffffffffffffffffffff16815260200191505060405180910390f35b61020a61042e565b6040518082815260200191505060405180910390f35b61022861043b565b6040518080602001828103825283818151815260200191508051906020019060200280838360005b8381101561026b578082015181840152602081019050610250565b505050509050019250505060405180910390f35b60008080549050905090565b6002818154811061029857fe5b9060005260206000209060030201600091509050806000015490806001018054600181600116156101000203166002900480601f01602080910402602001604051908101604052809291908181526020018280546001816001161561010002031660029004801561034a5780601f1061031f5761010080835404028352916020019161034a565b820191906000526020600020905b81548152906001019060200180831161032d57829003601f168201915b505050505090806002018054600181600116156101000203166002900480601f0160208091040260200160405190810160405280929190818152602001828054600181600116156101000203166002900480156103e85780601f106103bd576101008083540402835291602001916103e8565b820191906000526020600020905b8154815290600101906020018083116103cb57829003601f168201915b5050505050905083565b600081815481106103ff57fe5b906000526020600020016000915054906101000a900473ffffffffffffffffffffffffffffffffffffffff1681565b6000600280549050905090565b606060008054806020026020016040519081016040528092919081815260200182805480156104bf57602002820191906000526020600020905b8160009054906101000a900473ffffffffffffffffffffffffffffffffffffffff1673ffffffffffffffffffffffffffffffffffffffff1681526020019060010190808311610475575b505050505090509056fea165627a7a723058206d99373dc272650236c56437bd809e6fbb9d8b951914af8b2a9b566139a3c6410029",
  "source": "pragma solidity >=0.4.21 <0.6.0;\n\nimport \"./library/Utils.sol\";\nimport \"./Members.sol\";\nimport \"./AccessToken.sol\";\n\ncontract Anchors is Members {\n\n    struct Anchor {\n        bytes32 nameHash;\n        string name;\n        string url;\n    }\n\n    // each anchor maximum members count\n    uint maxmMembersCount = 2;\n\n    Anchor[] public anchors;\n\n    mapping( bytes32 => address[] ) anchorMembers;\n\n    function getAnchorsCount() public view returns(uint) {\n        return anchors.length;\n    }\n\n\n    function addAnchor(string memory _name, string memory _url, address[] memory _members) internal {\n        bytes32 nameHash = Utils.strToHash(_name);\n        require(!inAnchors(nameHash),\"dubpicate anchor\");\n        require(_members.length <= maxmMembersCount, \"members are more than valid memebers count\");\n        anchors.push(Anchor(nameHash, _name, _url));\n        for(uint i = 0; i < _members.length; i++){\n          addMemberForAnchor(nameHash, _members[i]);\n        }\n    }\n\n    function deleteAnchor(string memory name) internal {\n        bytes32 nameHash = Utils.strToHash(name);\n        require(anchors.length >= 0, \"anchors is emplty\");\n        address[] memory members = anchorMembers[nameHash];\n        for(uint i = 0; i < members.length; i++){\n          removeAnchorMember(nameHash, members[i]);\n        }\n\n        removeAnchorFromArray(anchors, getIndex(nameHash));\n    }\n\n    function addAnchorMember(bytes32 anchor, address member) internal {\n        getIndex(anchor);\n        require(anchorMembers[anchor].length <= maxmMembersCount, \"the anchor has maximum members\");\n        addMemberForAnchor(anchor, member);\n    }\n\n    function removeAnchorMember(bytes32 anchor, address member) internal {\n        getIndex(anchor);\n        Utils.removeAddressFromArray(anchorMembers[anchor], member);\n        deleteMember(member);\n    }\n\n    function changeAnchorMember(bytes32 anchor, address oldMember, address newMember) internal {\n        removeAnchorMember(anchor, oldMember);\n        addAnchorMember(anchor, newMember);\n    }\n\n    function addMemberForAnchor(bytes32 anchor, address member) private {\n        anchorMembers[anchor].push(member);\n        addMember(member);\n    }\n\n    function inAnchors(bytes32 name) private view returns (bool) {\n        return findAnchor(name) >= 0;\n    }\n\n    function findAnchor(bytes32 nameHash) private view returns (int) {\n        if(nameHash == Utils.strToHash(\"\")){\n            return -1;\n        }\n        for(uint i = 0; i < anchors.length; i++) {\n            if (anchors[i].nameHash == nameHash) {\n               return int(i);\n            }\n        }\n        return -1;\n    }\n\n    function removeAnchorFromArray(Anchor[] storage list, uint index ) private {\n        require(list.length > 0, \"address array is empty\");\n        if(index != list.length - 1){\n            list[index] = list[list.length - 1];\n        }\n        delete list[list.length - 1];\n        list.length--;\n    }\n\n    function getIndex(bytes32 anchor) private view returns(uint) {\n        int test = findAnchor(anchor);\n        require(test >= 0, \"anchor not exist\");\n        return uint(test);\n    }\n\n}",
  "sourcePath": "C:\\Users\\javad\\projects\\kuknus\\kuknos-dao\\contracts\\Anchors.sol",
  "compiler": {
    "name": "solc",
    "version": "0.5.8+commit.23d335f2.Emscripten.clang"
  },
  "schemaVersion": "3.0.11",
  "updatedAt": "2019-06-18T14:03:55.817Z",
  "devdoc": {
    "methods": {}
  },
  "userdoc": {
    "methods": {}
  }
}