{
  "contractName": "Anchors",
  "abi": [
    {
      "constant": true,
      "inputs": [],
      "name": "membersCount",
      "outputs": [
        {
          "name": "",
          "type": "uint256"
        }
      ],
      "payable": false,
      "stateMutability": "view",
      "type": "function"
    },
    {
      "constant": true,
      "inputs": [
        {
          "name": "",
          "type": "uint256"
        }
      ],
      "name": "members",
      "outputs": [
        {
          "name": "",
          "type": "address"
        }
      ],
      "payable": false,
      "stateMutability": "view",
      "type": "function"
    },
    {
      "constant": true,
      "inputs": [],
      "name": "membersList",
      "outputs": [
        {
          "name": "",
          "type": "address[]"
        }
      ],
      "payable": false,
      "stateMutability": "view",
      "type": "function"
    }
  ],
  "bytecode": "0x6080604052600260015534801561001557600080fd5b50610272806100256000396000f3fe608060405260043610610057576000357c0100000000000000000000000000000000000000000000000000000000900463ffffffff168063297f9af01461005c5780635daf08ca14610087578063dd5042f414610102575b600080fd5b34801561006857600080fd5b5061007161016e565b6040518082815260200191505060405180910390f35b34801561009357600080fd5b506100c0600480360360208110156100aa57600080fd5b810190808035906020019092919050505061017a565b604051808273ffffffffffffffffffffffffffffffffffffffff1673ffffffffffffffffffffffffffffffffffffffff16815260200191505060405180910390f35b34801561010e57600080fd5b506101176101b8565b6040518080602001828103825283818151815260200191508051906020019060200280838360005b8381101561015a57808201518184015260208101905061013f565b505050509050019250505060405180910390f35b60008080549050905090565b60008181548110151561018957fe5b906000526020600020016000915054906101000a900473ffffffffffffffffffffffffffffffffffffffff1681565b6060600080548060200260200160405190810160405280929190818152602001828054801561023c57602002820191906000526020600020905b8160009054906101000a900473ffffffffffffffffffffffffffffffffffffffff1673ffffffffffffffffffffffffffffffffffffffff16815260200190600101908083116101f2575b505050505090509056fea165627a7a7230582031b08b627470d821e45c70209812aef1e2e5fadc33a4fb3beb33b0690149c5620029",
  "source": "pragma solidity >=0.4.21 <0.6.0;\n\nimport \"./library/Utils.sol\";\nimport \"./Members.sol\";\nimport \"./AccessToken.sol\";\n\ncontract Anchors is Members {\n\n    struct Anchor {\n        bytes32 nameHash;\n        string name;\n        string url;\n    }\n\n    // each anchor maximum members count\n    uint maxmMembersCount = 2;\n\n    Anchor[] anchors;\n\n    mapping( bytes32 => address[] ) anchorMembers;\n\n    function addAnchor(string memory _name, string memory _url, address[] memory _members) internal {\n        bytes32 nameHash = Utils.strToHash(_name);\n        require(!inAnchors(nameHash),\"dubpicate anchor\");\n        require(_members.length <= maxmMembersCount, \"members are more than valid memebers count\");\n        anchors.push(Anchor(nameHash, _name, _url));\n        for(uint i = 0; i < _members.length; i++){\n          addMemberForAnchor(nameHash, _members[i]);\n        }\n    }\n\n    function deleteAnchor(string memory name) internal {\n        bytes32 nameHash = Utils.strToHash(name);\n        require(anchors.length >= 0, \"anchors is emplty\");\n        address[] memory members = anchorMembers[nameHash];\n        for(uint i = 0; i < members.length; i++){\n          removeAnchorMember(nameHash, members[i]);\n        }\n\n        removeAnchorFromArray(anchors, getIndex(nameHash));\n    }\n\n    function addAnchorMember(bytes32 anchor, address member) internal {\n        getIndex(anchor);\n        require(anchorMembers[anchor].length <= maxmMembersCount, \"the anchor has maximum members\");\n        addMemberForAnchor(anchor, member);\n    }\n\n    function removeAnchorMember(bytes32 anchor, address member) internal {\n        getIndex(anchor);\n        Utils.removeAddressFromArray(anchorMembers[anchor], member);\n        deleteMember(member);\n    }\n\n    function changeAnchorMember(bytes32 anchor, address oldMember, address newMember) internal {\n        removeAnchorMember(anchor, oldMember);\n        addAnchorMember(anchor, newMember);\n    }\n\n    function addMemberForAnchor(bytes32 anchor, address member) private {\n        anchorMembers[anchor].push(member);\n        addMember(member);\n    }\n\n    function inAnchors(bytes32 name) private view returns (bool) {\n        return findAnchor(name) >= 0;\n    }\n\n    function findAnchor(bytes32 nameHash) private view returns (int) {\n        if(nameHash == Utils.strToHash(\"\")){\n            return -1;\n        }\n        for(uint i = 0; i < anchors.length; i++) {\n            if (anchors[i].nameHash == nameHash) {\n               return int(i);\n            }\n        }\n        return -1;\n    }\n\n    function removeAnchorFromArray(Anchor[] storage list, uint index ) private {\n        require(list.length > 0, \"address array is empty\");\n        if(index != list.length - 1){\n            list[index] = list[list.length - 1];\n        }\n        delete list[list.length - 1];\n        list.length--;\n    }\n\n    function getIndex(bytes32 anchor) private view returns(uint) {\n        int test = findAnchor(anchor);\n        require(test >= 0, \"anchor not exist\");\n        return uint(test);\n    }\n\n}",
  "sourcePath": "D:\\projects\\blockchain\\kuknos-dao\\contracts\\Anchors.sol",
  "compiler": {
    "name": "solc",
    "version": "0.5.0+commit.1d4f565a.Emscripten.clang"
  },
  "schemaVersion": "3.0.9",
  "updatedAt": "2019-06-15T10:23:51.666Z",
  "devdoc": {
    "methods": {}
  },
  "userdoc": {
    "methods": {}
  }
}