{
  "contractName": "Anchors",
  "abi": [
    {
      "constant": true,
      "inputs": [],
      "name": "membersCount",
      "outputs": [
        {
          "name": "",
          "type": "uint256"
        }
      ],
      "payable": false,
      "stateMutability": "view",
      "type": "function"
    },
    {
      "constant": true,
      "inputs": [
        {
          "name": "",
          "type": "uint256"
        }
      ],
      "name": "anchors",
      "outputs": [
        {
          "name": "nameHash",
          "type": "bytes32"
        },
        {
          "name": "name",
          "type": "string"
        },
        {
          "name": "url",
          "type": "string"
        }
      ],
      "payable": false,
      "stateMutability": "view",
      "type": "function"
    },
    {
      "constant": true,
      "inputs": [
        {
          "name": "",
          "type": "uint256"
        }
      ],
      "name": "members",
      "outputs": [
        {
          "name": "",
          "type": "address"
        }
      ],
      "payable": false,
      "stateMutability": "view",
      "type": "function"
    },
    {
      "constant": true,
      "inputs": [
        {
          "name": "",
          "type": "bytes32"
        },
        {
          "name": "",
          "type": "uint256"
        }
      ],
      "name": "anchorMembers",
      "outputs": [
        {
          "name": "",
          "type": "address"
        }
      ],
      "payable": false,
      "stateMutability": "view",
      "type": "function"
    },
    {
      "constant": true,
      "inputs": [],
      "name": "membersList",
      "outputs": [
        {
          "name": "",
          "type": "address[]"
        }
      ],
      "payable": false,
      "stateMutability": "view",
      "type": "function"
    },
    {
      "constant": true,
      "inputs": [],
      "name": "getAnchorsCount",
      "outputs": [
        {
          "name": "",
          "type": "uint256"
        }
      ],
      "payable": false,
      "stateMutability": "view",
      "type": "function"
    }
  ],
  "bytecode": "0x6080604052600260015534801561001557600080fd5b506105c3806100256000396000f3fe608060405234801561001057600080fd5b50600436106100625760003560e01c8063297f9af014610067578063368b733e146100855780635daf08ca1461019f578063a773693f1461020d578063d4c8ca9b14610285578063dd5042f4146102a3575b600080fd5b61006f610302565b6040518082815260200191505060405180910390f35b6100b16004803603602081101561009b57600080fd5b810190808035906020019092919050505061030e565b604051808481526020018060200180602001838103835285818151815260200191508051906020019080838360005b838110156100fb5780820151818401526020810190506100e0565b50505050905090810190601f1680156101285780820380516001836020036101000a031916815260200191505b50838103825284818151815260200191508051906020019080838360005b83811015610161578082015181840152602081019050610146565b50505050905090810190601f16801561018e5780820380516001836020036101000a031916815260200191505b509550505050505060405180910390f35b6101cb600480360360208110156101b557600080fd5b8101908080359060200190929190505050610475565b604051808273ffffffffffffffffffffffffffffffffffffffff1673ffffffffffffffffffffffffffffffffffffffff16815260200191505060405180910390f35b6102436004803603604081101561022357600080fd5b8101908080359060200190929190803590602001909291905050506104b1565b604051808273ffffffffffffffffffffffffffffffffffffffff1673ffffffffffffffffffffffffffffffffffffffff16815260200191505060405180910390f35b61028d6104fc565b6040518082815260200191505060405180910390f35b6102ab610509565b6040518080602001828103825283818151815260200191508051906020019060200280838360005b838110156102ee5780820151818401526020810190506102d3565b505050509050019250505060405180910390f35b60008080549050905090565b6002818154811061031b57fe5b9060005260206000209060030201600091509050806000015490806001018054600181600116156101000203166002900480601f0160208091040260200160405190810160405280929190818152602001828054600181600116156101000203166002900480156103cd5780601f106103a2576101008083540402835291602001916103cd565b820191906000526020600020905b8154815290600101906020018083116103b057829003601f168201915b505050505090806002018054600181600116156101000203166002900480601f01602080910402602001604051908101604052809291908181526020018280546001816001161561010002031660029004801561046b5780601f106104405761010080835404028352916020019161046b565b820191906000526020600020905b81548152906001019060200180831161044e57829003601f168201915b5050505050905083565b6000818154811061048257fe5b906000526020600020016000915054906101000a900473ffffffffffffffffffffffffffffffffffffffff1681565b600360205281600052604060002081815481106104ca57fe5b906000526020600020016000915091509054906101000a900473ffffffffffffffffffffffffffffffffffffffff1681565b6000600280549050905090565b6060600080548060200260200160405190810160405280929190818152602001828054801561058d57602002820191906000526020600020905b8160009054906101000a900473ffffffffffffffffffffffffffffffffffffffff1673ffffffffffffffffffffffffffffffffffffffff1681526020019060010190808311610543575b505050505090509056fea165627a7a723058200f5acbf88161275c197c03cb5b4f997ff49cf08f54e0ca41e94a5a838456c5170029",
  "source": "pragma solidity >=0.4.21 <0.6.0;\n\nimport \"./library/Utils.sol\";\nimport \"./Members.sol\";\nimport \"./AccessToken.sol\";\n\ncontract Anchors is Members {\n\n    struct Anchor {\n        bytes32 nameHash;\n        string name;\n        string url;\n    }\n\n    // each anchor maximum members count\n    uint maxmMembersCount = 2;\n\n    Anchor[] public anchors;\n\n    mapping( bytes32 => address[] ) public anchorMembers;\n\n    function getAnchorsCount() public view returns(uint) {\n        return anchors.length;\n    }\n\n\n    function addAnchor(string memory _name, string memory _url, address[] memory _members) internal {\n        bytes32 nameHash = Utils.strToHash(_name);\n        require(!inAnchors(nameHash),\"dubpicate anchor\");\n        require(_members.length <= maxmMembersCount, \"members are more than valid memebers count\");\n        anchors.push(Anchor(nameHash, _name, _url));\n        for(uint i = 0; i < _members.length; i++){\n          addMemberForAnchor(nameHash, _members[i]);\n        }\n    }\n\n    function deleteAnchor(string memory name) internal {\n        bytes32 nameHash = Utils.strToHash(name);\n        require(anchors.length >= 0, \"anchors is emplty\");\n        address[] memory members = anchorMembers[nameHash];\n        for(uint i = 0; i < members.length; i++){\n          removeAnchorMember(nameHash, members[i]);\n        }\n\n        removeAnchorFromArray(anchors, getIndex(nameHash));\n    }\n\n    function addAnchorMember(bytes32 anchor, address member) internal {\n        getIndex(anchor);\n        require(anchorMembers[anchor].length <= maxmMembersCount, \"the anchor has maximum members\");\n        addMemberForAnchor(anchor, member);\n    }\n\n    function removeAnchorMember(bytes32 anchor, address member) internal {\n        getIndex(anchor);\n        Utils.removeAddressFromArray(anchorMembers[anchor], member);\n        deleteMember(member);\n    }\n\n    function changeAnchorMember(bytes32 anchor, address oldMember, address newMember) internal {\n        removeAnchorMember(anchor, oldMember);\n        addAnchorMember(anchor, newMember);\n    }\n\n    function addMemberForAnchor(bytes32 anchor, address member) private {\n        anchorMembers[anchor].push(member);\n        addMember(member);\n    }\n\n    function inAnchors(bytes32 name) private view returns (bool) {\n        return findAnchor(name) >= 0;\n    }\n\n    function findAnchor(bytes32 nameHash) private view returns (int) {\n        if(nameHash == Utils.strToHash(\"\")){\n            return -1;\n        }\n        for(uint i = 0; i < anchors.length; i++) {\n            if (anchors[i].nameHash == nameHash) {\n               return int(i);\n            }\n        }\n        return -1;\n    }\n\n    function removeAnchorFromArray(Anchor[] storage list, uint index ) private {\n        require(list.length > 0, \"address array is empty\");\n        if(index != list.length - 1){\n            list[index] = list[list.length - 1];\n        }\n        delete list[list.length - 1];\n        list.length--;\n    }\n\n    function getIndex(bytes32 anchor) private view returns(uint) {\n        int test = findAnchor(anchor);\n        require(test >= 0, \"anchor not exist\");\n        return uint(test);\n    }\n\n}",
  "sourcePath": "C:\\Users\\javad\\projects\\kuknus\\kuknos-dao\\contracts\\Anchors.sol",
  "compiler": {
    "name": "solc",
    "version": "0.5.8+commit.23d335f2.Emscripten.clang"
  },
  "schemaVersion": "3.0.11",
  "updatedAt": "2019-06-20T11:39:24.781Z",
  "devdoc": {
    "methods": {}
  },
  "userdoc": {
    "methods": {}
  }
}