{
  "contractName": "Anchors",
  "abi": [
    {
      "constant": true,
      "inputs": [],
      "name": "membersCount",
      "outputs": [
        {
          "name": "",
          "type": "uint256"
        }
      ],
      "payable": false,
      "stateMutability": "view",
      "type": "function"
    },
    {
      "constant": true,
      "inputs": [
        {
          "name": "",
          "type": "uint256"
        }
      ],
      "name": "anchors",
      "outputs": [
        {
          "name": "nameHash",
          "type": "bytes32"
        },
        {
          "name": "name",
          "type": "string"
        },
        {
          "name": "url",
          "type": "string"
        }
      ],
      "payable": false,
      "stateMutability": "view",
      "type": "function"
    },
    {
      "constant": true,
      "inputs": [
        {
          "name": "",
          "type": "uint256"
        }
      ],
      "name": "members",
      "outputs": [
        {
          "name": "",
          "type": "address"
        }
      ],
      "payable": false,
      "stateMutability": "view",
      "type": "function"
    },
    {
      "constant": true,
      "inputs": [
        {
          "name": "",
          "type": "bytes32"
        },
        {
          "name": "",
          "type": "uint256"
        }
      ],
      "name": "anchorMembers",
      "outputs": [
        {
          "name": "",
          "type": "address"
        }
      ],
      "payable": false,
      "stateMutability": "view",
      "type": "function"
    },
    {
      "constant": true,
      "inputs": [],
      "name": "membersList",
      "outputs": [
        {
          "name": "",
          "type": "address[]"
        }
      ],
      "payable": false,
      "stateMutability": "view",
      "type": "function"
    },
    {
      "constant": true,
      "inputs": [],
      "name": "getAnchorsCount",
      "outputs": [
        {
          "name": "",
          "type": "uint256"
        }
      ],
      "payable": false,
      "stateMutability": "view",
      "type": "function"
    }
  ],
  "bytecode": "0x6080604052600260015534801561001557600080fd5b5061052b806100256000396000f3fe6080604052600436106100775763ffffffff7c0100000000000000000000000000000000000000000000000000000000600035041663297f9af0811461007c578063368b733e146100a35780635daf08ca146101b2578063a773693f14610205578063d4c8ca9b14610235578063dd5042f41461024a575b600080fd5b34801561008857600080fd5b506100916102af565b60408051918252519081900360200190f35b3480156100af57600080fd5b506100cd600480360360208110156100c657600080fd5b50356102b5565b604051808481526020018060200180602001838103835285818151815260200191508051906020019080838360005b838110156101145781810151838201526020016100fc565b50505050905090810190601f1680156101415780820380516001836020036101000a031916815260200191505b50838103825284518152845160209182019186019080838360005b8381101561017457818101518382015260200161015c565b50505050905090810190601f1680156101a15780820380516001836020036101000a031916815260200191505b509550505050505060405180910390f35b3480156101be57600080fd5b506101dc600480360360208110156101d557600080fd5b5035610411565b6040805173ffffffffffffffffffffffffffffffffffffffff9092168252519081900360200190f35b34801561021157600080fd5b506101dc6004803603604081101561022857600080fd5b5080359060200135610446565b34801561024157600080fd5b5061009161048a565b34801561025657600080fd5b5061025f610490565b60408051602080825283518183015283519192839290830191858101910280838360005b8381101561029b578181015183820152602001610283565b505050509050019250505060405180910390f35b60005490565b60028054829081106102c357fe5b9060005260206000209060030201600091509050806000015490806001018054600181600116156101000203166002900480601f0160208091040260200160405190810160405280929190818152602001828054600181600116156101000203166002900480156103755780601f1061034a57610100808354040283529160200191610375565b820191906000526020600020905b81548152906001019060200180831161035857829003601f168201915b50505060028085018054604080516020601f60001961010060018716150201909416959095049283018590048502810185019091528181529596959450909250908301828280156104075780601f106103dc57610100808354040283529160200191610407565b820191906000526020600020905b8154815290600101906020018083116103ea57829003601f168201915b5050505050905083565b600080548290811061041f57fe5b60009182526020909120015473ffffffffffffffffffffffffffffffffffffffff16905081565b60036020528160005260406000208181548110151561046157fe5b60009182526020909120015473ffffffffffffffffffffffffffffffffffffffff169150829050565b60025490565b606060008054806020026020016040519081016040528092919081815260200182805480156104f557602002820191906000526020600020905b815473ffffffffffffffffffffffffffffffffffffffff1681526001909101906020018083116104ca575b505050505090509056fea165627a7a72305820b67be21d99887e118a70389ad1159c09672a91136eb3bb17e6eafeb9c40412600029",
  "source": "pragma solidity >=0.4.21 <0.6.0;\n\nimport \"./library/Utils.sol\";\nimport \"./Members.sol\";\nimport \"./AccessToken.sol\";\n\ncontract Anchors is Members {\n\n    struct Anchor {\n        bytes32 nameHash;\n        string name;\n        string url;\n    }\n\n    // each anchor maximum members count\n    uint maxmMembersCount = 2;\n\n    Anchor[] public anchors;\n\n    mapping( bytes32 => address[] ) public anchorMembers;\n\n    function getAnchorsCount() public view returns(uint) {\n        return anchors.length;\n    }\n\n\n    function addAnchor(string memory _name, string memory _url, address[] memory _members) internal {\n        bytes32 nameHash = Utils.strToHash(_name);\n        require(!inAnchors(nameHash),\"dubpicate anchor\");\n        require(_members.length <= maxmMembersCount, \"members are more than valid memebers count\");\n        anchors.push(Anchor(nameHash, _name, _url));\n        for(uint i = 0; i < _members.length; i++){\n          addMemberForAnchor(nameHash, _members[i]);\n        }\n    }\n\n    function deleteAnchor(string memory name) internal {\n        bytes32 nameHash = Utils.strToHash(name);\n        require(anchors.length >= 0, \"anchors is emplty\");\n        address[] memory members = anchorMembers[nameHash];\n        for(uint i = 0; i < members.length; i++){\n          removeAnchorMember(nameHash, members[i]);\n        }\n\n        removeAnchorFromArray(anchors, getIndex(nameHash));\n    }\n\n    function addAnchorMember(bytes32 anchor, address member) internal {\n        getIndex(anchor);\n        require(anchorMembers[anchor].length <= maxmMembersCount, \"the anchor has maximum members\");\n        addMemberForAnchor(anchor, member);\n    }\n\n    function removeAnchorMember(bytes32 anchor, address member) internal {\n        getIndex(anchor);\n        Utils.removeAddressFromArray(anchorMembers[anchor], member);\n        deleteMember(member);\n    }\n\n    function changeAnchorMember(bytes32 anchor, address oldMember, address newMember) internal {\n        removeAnchorMember(anchor, oldMember);\n        addAnchorMember(anchor, newMember);\n    }\n\n    function addMemberForAnchor(bytes32 anchor, address member) private {\n        anchorMembers[anchor].push(member);\n        addMember(member);\n    }\n\n    function inAnchors(bytes32 name) private view returns (bool) {\n        return findAnchor(name) >= 0;\n    }\n\n    function findAnchor(bytes32 nameHash) private view returns (int) {\n        if(nameHash == Utils.strToHash(\"\")){\n            return -1;\n        }\n        for(uint i = 0; i < anchors.length; i++) {\n            if (anchors[i].nameHash == nameHash) {\n               return int(i);\n            }\n        }\n        return -1;\n    }\n\n    function removeAnchorFromArray(Anchor[] storage list, uint index ) private {\n        require(list.length > 0, \"address array is empty\");\n        if(index != list.length - 1){\n            list[index] = list[list.length - 1];\n        }\n        delete list[list.length - 1];\n        list.length--;\n    }\n\n    function getIndex(bytes32 anchor) private view returns(uint) {\n        int test = findAnchor(anchor);\n        require(test >= 0, \"anchor not exist\");\n        return uint(test);\n    }\n\n}",
  "sourcePath": "C:\\Users\\mkhalilian\\projects\\kuknos-dao\\contracts\\Anchors.sol",
  "compiler": {
    "name": "solc",
    "version": "0.5.0+commit.1d4f565a.Emscripten.clang"
  },
  "schemaVersion": "3.0.9",
  "updatedAt": "2019-06-23T11:27:53.710Z",
  "devdoc": {
    "methods": {}
  },
  "userdoc": {
    "methods": {}
  }
}