{
  "contractName": "AnchorVoting",
  "abi": [
    {
      "constant": true,
      "inputs": [
        {
          "name": "",
          "type": "uint256"
        }
      ],
      "name": "addAnchorProposals",
      "outputs": [
        {
          "name": "name",
          "type": "string"
        },
        {
          "name": "url",
          "type": "string"
        },
        {
          "name": "executionTime",
          "type": "uint256"
        }
      ],
      "payable": false,
      "stateMutability": "view",
      "type": "function"
    },
    {
      "constant": true,
      "inputs": [],
      "name": "removeAnchorThreshold",
      "outputs": [
        {
          "name": "",
          "type": "uint256"
        }
      ],
      "payable": false,
      "stateMutability": "view",
      "type": "function"
    },
    {
      "constant": true,
      "inputs": [],
      "name": "addAnchorThreshold",
      "outputs": [
        {
          "name": "",
          "type": "uint256"
        }
      ],
      "payable": false,
      "stateMutability": "view",
      "type": "function"
    },
    {
      "inputs": [
        {
          "name": "_address",
          "type": "address"
        }
      ],
      "payable": false,
      "stateMutability": "nonpayable",
      "type": "constructor"
    },
    {
      "constant": false,
      "inputs": [
        {
          "name": "_anchorName",
          "type": "string"
        },
        {
          "name": "_anchorUrl",
          "type": "string"
        },
        {
          "name": "_members",
          "type": "address[]"
        },
        {
          "name": "_startDate",
          "type": "uint256"
        },
        {
          "name": "_endDate",
          "type": "uint256"
        },
        {
          "name": "_url",
          "type": "string"
        },
        {
          "name": "_hashCode",
          "type": "bytes32"
        }
      ],
      "name": "registerAddAnchorProposal",
      "outputs": [],
      "payable": false,
      "stateMutability": "nonpayable",
      "type": "function"
    }
  ],
  "bytecode": "0x608060405260006001556033600255605060035534801561001f57600080fd5b50604051602080610b038339810180604052602081101561003f57600080fd5b810190808051906020019092919050505080600460006101000a81548173ffffffffffffffffffffffffffffffffffffffff021916908373ffffffffffffffffffffffffffffffffffffffff16021790555050610a62806100a16000396000f3fe608060405260043610610062576000357c0100000000000000000000000000000000000000000000000000000000900463ffffffff1680639f016ab514610067578063bb60512f1461018e578063fa7b48ff146101b9578063fc37a9e814610461575b600080fd5b34801561007357600080fd5b506100a06004803603602081101561008a57600080fd5b810190808035906020019092919050505061048c565b604051808060200180602001848152602001838103835286818151815260200191508051906020019080838360005b838110156100ea5780820151818401526020810190506100cf565b50505050905090810190601f1680156101175780820380516001836020036101000a031916815260200191505b50838103825285818151815260200191508051906020019080838360005b83811015610150578082015181840152602081019050610135565b50505050905090810190601f16801561017d5780820380516001836020036101000a031916815260200191505b509550505050505060405180910390f35b34801561019a57600080fd5b506101a36105e6565b6040518082815260200191505060405180910390f35b3480156101c557600080fd5b5061045f600480360360e08110156101dc57600080fd5b81019080803590602001906401000000008111156101f957600080fd5b82018360208201111561020b57600080fd5b8035906020019184600183028401116401000000008311171561022d57600080fd5b91908080601f016020809104026020016040519081016040528093929190818152602001838380828437600081840152601f19601f8201169050808301925050505050505091929192908035906020019064010000000081111561029057600080fd5b8201836020820111156102a257600080fd5b803590602001918460018302840111640100000000831117156102c457600080fd5b91908080601f016020809104026020016040519081016040528093929190818152602001838380828437600081840152601f19601f8201169050808301925050505050505091929192908035906020019064010000000081111561032757600080fd5b82018360208201111561033957600080fd5b8035906020019184602083028401116401000000008311171561035b57600080fd5b919080806020026020016040519081016040528093929190818152602001838360200280828437600081840152601f19601f8201169050808301925050505050505091929192908035906020019092919080359060200190929190803590602001906401000000008111156103cf57600080fd5b8201836020820111156103e157600080fd5b8035906020019184600183028401116401000000008311171561040357600080fd5b91908080601f016020809104026020016040519081016040528093929190818152602001838380828437600081840152601f19601f820116905080830192505050505050509192919290803590602001909291905050506105ec565b005b34801561046d57600080fd5b506104766108be565b6040518082815260200191505060405180910390f35b6000602052806000526040600020600091509050806000018054600181600116156101000203166002900480601f0160208091040260200160405190810160405280929190818152602001828054600181600116156101000203166002900480156105385780601f1061050d57610100808354040283529160200191610538565b820191906000526020600020905b81548152906001019060200180831161051b57829003601f168201915b505050505090806001018054600181600116156101000203166002900480601f0160208091040260200160405190810160405280929190818152602001828054600181600116156101000203166002900480156105d65780601f106105ab576101008083540402835291602001916105d6565b820191906000526020600020905b8154815290600101906020018083116105b957829003601f168201915b5050505050908060030154905083565b60035481565b60008751111515610665576040517f08c379a00000000000000000000000000000000000000000000000000000000081526004018080602001828103825260168152602001807f73656c656374206e616d6520666f7220616e63686f720000000000000000000081525060200191505060405180910390fd5b6001600081548092919060010191905055506000600460009054906101000a900473ffffffffffffffffffffffffffffffffffffffff1673ffffffffffffffffffffffffffffffffffffffff166328bb6b46600154600060048111156106c757fe5b888888886040518763ffffffff167c01000000000000000000000000000000000000000000000000000000000281526004018087815260200180602001878152602001868152602001858152602001806020018481526020018381038352600a8152602001807f61646420616e63686f7200000000000000000000000000000000000000000000815250602001838103825285818151815260200191508051906020019080838360005b8381101561078c578082015181840152602081019050610771565b50505050905090810190601f1680156107b95780820380516001836020036101000a031916815260200191505b5098505050505050505050602060405180830381600087803b1580156107de57600080fd5b505af11580156107f2573d6000803e3d6000fd5b505050506040513d602081101561080857600080fd5b810190808051906020019092919050505090506080604051908101604052808981526020018881526020018781526020016000815250600080838152602001908152602001600020600082015181600001908051906020019061086c9291906108c4565b5060208201518160010190805190602001906108899291906108c4565b5060408201518160020190805190602001906108a6929190610944565b50606082015181600301559050505050505050505050565b60025481565b828054600181600116156101000203166002900490600052602060002090601f016020900481019282601f1061090557805160ff1916838001178555610933565b82800160010185558215610933579182015b82811115610932578251825591602001919060010190610917565b5b50905061094091906109ce565b5090565b8280548282559060005260206000209081019282156109bd579160200282015b828111156109bc5782518260006101000a81548173ffffffffffffffffffffffffffffffffffffffff021916908373ffffffffffffffffffffffffffffffffffffffff16021790555091602001919060010190610964565b5b5090506109ca91906109f3565b5090565b6109f091905b808211156109ec5760008160009055506001016109d4565b5090565b90565b610a3391905b80821115610a2f57600081816101000a81549073ffffffffffffffffffffffffffffffffffffffff0219169055506001016109f9565b5090565b9056fea165627a7a72305820dba240ce85a9312541d4b701194533e0381aa2efd5b83727e58acdf7892f8d550029",
  "source": "pragma solidity >=0.4.21 <0.6.0;\r\n\r\ninterface VotingContract {\r\n    function registerInternalProposal (\r\n        uint id,\r\n        string calldata title,\r\n        uint ProposalType,\r\n        uint startDate,\r\n        uint endDate,\r\n        string calldata url,\r\n        bytes32 hashCode\r\n    ) external returns (uint);\r\n\r\n    function addAnchor(string calldata _name, string calldata _url, address[] calldata _members) external;\r\n    function getProposalStatus(uint id) external view returns ( uint, uint, uint, address, bool, bool, uint, uint);\r\n}\r\n\r\ncontract AnchorVoting {\r\n\r\n    enum ProposalTypes { AddAnchor, RemoveAnchor, ChangeAnchorMember, RenewAccessToken, ChangeConfig }\r\n\r\n    struct AddAnchorProposal {\r\n        string name;\r\n        string url;\r\n        address[] members;\r\n        uint executionTime;\r\n    }\r\n\r\n    mapping ( uint => AddAnchorProposal ) public addAnchorProposals;\r\n\r\n    uint proposalCounts = 0;\r\n\r\n    uint public addAnchorThreshold = 51;\r\n\r\n    uint public removeAnchorThreshold = 80;\r\n\r\n    VotingContract mainContract;\r\n\r\n    constructor(address _address) public {\r\n        mainContract = VotingContract(_address);\r\n    }\r\n\r\n    function registerAddAnchorProposal(\r\n      string memory _anchorName,\r\n      string memory _anchorUrl,\r\n      address[] memory _members,\r\n      uint _startDate,\r\n      uint _endDate,\r\n      string memory _url,\r\n      bytes32 _hashCode\r\n      ) public {\r\n          require(bytes(_anchorName).length > 0, \"select name for anchor\");\r\n          proposalCounts++;\r\n          uint id = mainContract.registerInternalProposal(\r\n              proposalCounts,\r\n              \"add anchor\",\r\n              uint(ProposalTypes.AddAnchor),\r\n              _startDate,\r\n              _endDate,\r\n              _url,\r\n              _hashCode);\r\n          addAnchorProposals[id] = AddAnchorProposal(_anchorName, _anchorUrl, _members, 0);\r\n    }\r\n\r\n    function runAddAnchorProposal(uint _id) internal {\r\n        AddAnchorProposal memory proposal = addAnchorProposals[_id];\r\n        require(bytes(proposal.name).length > 0, \"propsal not found\");\r\n        require(proposal.executionTime == 0, \"the proposal executed before\");\r\n        uint upPercentage = checkProposalUpPercentage(_id);\r\n        if( upPercentage >= addAnchorThreshold ) {\r\n            mainContract.addAnchor(proposal.name, proposal.url, proposal.members);\r\n        }\r\n        addAnchorProposals[_id].executionTime = now;\r\n    }\r\n\r\n    function checkProposalUpPercentage(uint _id) internal view returns(uint) {\r\n        (,,, address contractAddress,, bool isFinished, uint upPercentage,) = mainContract.getProposalStatus(_id);\r\n        require(contractAddress == address(this), \"the propsal is not an internal proposal\");\r\n        require(isFinished,\"the propsal is not finished\");\r\n        return upPercentage;\r\n    }\r\n\r\n\r\n}",
  "sourcePath": "D:\\projects\\blockchain\\kuknos-dao\\contracts\\InternalVotings\\AnchorVoting.sol",
  "compiler": {
    "name": "solc",
    "version": "0.5.0+commit.1d4f565a.Emscripten.clang"
  },
  "schemaVersion": "3.0.9",
  "updatedAt": "2019-06-02T11:55:55.106Z",
  "devdoc": {
    "methods": {}
  },
  "userdoc": {
    "methods": {}
  }
}