{
  "contractName": "Config",
  "abi": [
    {
      "constant": true,
      "inputs": [],
      "name": "changeConfigThreshold",
      "outputs": [
        {
          "name": "",
          "type": "uint256"
        }
      ],
      "payable": false,
      "stateMutability": "view",
      "type": "function"
    },
    {
      "constant": true,
      "inputs": [],
      "name": "removeAnchorThreshold",
      "outputs": [
        {
          "name": "",
          "type": "uint256"
        }
      ],
      "payable": false,
      "stateMutability": "view",
      "type": "function"
    },
    {
      "constant": true,
      "inputs": [],
      "name": "changeAnchorMemberThreshold",
      "outputs": [
        {
          "name": "",
          "type": "uint256"
        }
      ],
      "payable": false,
      "stateMutability": "view",
      "type": "function"
    },
    {
      "constant": true,
      "inputs": [],
      "name": "renewAccessTokenThreshold",
      "outputs": [
        {
          "name": "",
          "type": "uint256"
        }
      ],
      "payable": false,
      "stateMutability": "view",
      "type": "function"
    },
    {
      "constant": true,
      "inputs": [],
      "name": "addAnchorThreshold",
      "outputs": [
        {
          "name": "",
          "type": "uint256"
        }
      ],
      "payable": false,
      "stateMutability": "view",
      "type": "function"
    }
  ],
  "bytecode": "0x60806040526033600055605060015560336002556033600355605060045534801561002957600080fd5b50610193806100396000396000f3fe60806040526004361061006d576000357c0100000000000000000000000000000000000000000000000000000000900463ffffffff1680636ee2e22514610072578063bb60512f1461009d578063d4e18e68146100c8578063fa019249146100f3578063fc37a9e81461011e575b600080fd5b34801561007e57600080fd5b50610087610149565b6040518082815260200191505060405180910390f35b3480156100a957600080fd5b506100b261014f565b6040518082815260200191505060405180910390f35b3480156100d457600080fd5b506100dd610155565b6040518082815260200191505060405180910390f35b3480156100ff57600080fd5b5061010861015b565b6040518082815260200191505060405180910390f35b34801561012a57600080fd5b50610133610161565b6040518082815260200191505060405180910390f35b60045481565b60015481565b60035481565b60025481565b6000548156fea165627a7a72305820443537fa72778f594790d63cea269f5f74bb5fab24d39c31d393f9d6a00a1d8a0029",
  "source": "pragma solidity >=0.4.21 <0.6.0;\n\ncontract Config {\n\n    uint public addAnchorThreshold = 51;\n\n    uint public removeAnchorThreshold = 80;\n\n    uint public renewAccessTokenThreshold = 51;\n\n    uint public changeAnchorMemberThreshold = 51;\n\n    uint public changeConfigThreshold = 80;\n\n    function setAddAnchorThreshold(uint value) internal {\n        addAnchorThreshold = value;\n    }\n\n    function setRemoveAnchorThreshold(uint value) internal {\n        removeAnchorThreshold = value;\n    }\n\n    function setRenewAccessTokenThreshold(uint value) internal {\n        renewAccessTokenThreshold = value;\n    }\n\n    function setcChangeAnchorMemberThreshold(uint value) internal {\n        changeAnchorMemberThreshold = value;\n    }\n\n    function setChangeConfig(uint value) internal {\n        changeConfigThreshold = value;\n    }\n}",
  "sourcePath": "D:\\projects\\blockchain\\kuknos-dao\\contracts\\Config.sol",
  "compiler": {
    "name": "solc",
    "version": "0.5.0+commit.1d4f565a.Emscripten.clang"
  },
  "schemaVersion": "3.0.9",
  "updatedAt": "2019-06-15T10:56:28.221Z",
  "devdoc": {
    "methods": {}
  },
  "userdoc": {
    "methods": {}
  }
}