{
  "contractName": "Config",
  "abi": [
    {
      "constant": true,
      "inputs": [],
      "name": "changeConfigThreshold",
      "outputs": [
        {
          "name": "",
          "type": "uint8"
        }
      ],
      "payable": false,
      "stateMutability": "view",
      "type": "function"
    },
    {
      "constant": true,
      "inputs": [],
      "name": "removeAnchorThreshold",
      "outputs": [
        {
          "name": "",
          "type": "uint8"
        }
      ],
      "payable": false,
      "stateMutability": "view",
      "type": "function"
    },
    {
      "constant": true,
      "inputs": [],
      "name": "changeAnchorMemberThreshold",
      "outputs": [
        {
          "name": "",
          "type": "uint8"
        }
      ],
      "payable": false,
      "stateMutability": "view",
      "type": "function"
    },
    {
      "constant": true,
      "inputs": [],
      "name": "renewAccessTokenThreshold",
      "outputs": [
        {
          "name": "",
          "type": "uint8"
        }
      ],
      "payable": false,
      "stateMutability": "view",
      "type": "function"
    },
    {
      "constant": true,
      "inputs": [],
      "name": "addAnchorThreshold",
      "outputs": [
        {
          "name": "",
          "type": "uint8"
        }
      ],
      "payable": false,
      "stateMutability": "view",
      "type": "function"
    }
  ],
  "bytecode": "0x608060405260008054603360ff199091161761ff0019166150001762ff00001916623300001763ff000000191663330000001764ff00000000191664500000000017905534801561004f57600080fd5b506101638061005f6000396000f3fe60806040526004361061006c5763ffffffff7c01000000000000000000000000000000000000000000000000000000006000350416636ee2e2258114610071578063bb60512f1461009c578063d4e18e68146100b1578063fa019249146100c6578063fc37a9e8146100db575b600080fd5b34801561007d57600080fd5b506100866100f0565b6040805160ff9092168252519081900360200190f35b3480156100a857600080fd5b50610086610101565b3480156100bd57600080fd5b5061008661010f565b3480156100d257600080fd5b5061008661011f565b3480156100e757600080fd5b5061008661012e565b600054640100000000900460ff1681565b600054610100900460ff1681565b6000546301000000900460ff1681565b60005462010000900460ff1681565b60005460ff168156fea165627a7a72305820e8b87879041ab251a4243274ebc9b06857835d2b86c639394c05e6aaa77b79fd0029",
  "source": "pragma solidity >=0.4.21 <0.6.0;\n\ncontract Config {\n\n    enum ChangeConfigType {\n        AddAnchorThreshold,\n        RemoveAnchorThreshold,\n        RenewAccessTokenThreshold,\n        ChangeAnchorMemberThreshold,\n        ChangeConfigThreshold\n    }\n\n    uint8 public addAnchorThreshold = 51;\n\n    uint8 public removeAnchorThreshold = 80;\n\n    uint8 public renewAccessTokenThreshold = 51;\n\n    uint8 public changeAnchorMemberThreshold = 51;\n\n    uint8 public changeConfigThreshold = 80;\n\n    function setConfig(ChangeConfigType configType, uint8 value) internal {\n\n        if(configType == ChangeConfigType.AddAnchorThreshold) {\n             addAnchorThreshold = value;\n        }\n\n        if(configType == ChangeConfigType.RemoveAnchorThreshold) {\n            removeAnchorThreshold = value;\n        }\n\n        if(configType == ChangeConfigType.RenewAccessTokenThreshold) {\n             renewAccessTokenThreshold = value;\n        }\n\n        if(configType == ChangeConfigType.ChangeAnchorMemberThreshold) {\n            changeAnchorMemberThreshold = value;\n        }\n\n        if(configType == ChangeConfigType.ChangeConfigThreshold) {\n            changeConfigThreshold = value;\n        }\n    }\n\n}",
  "sourcePath": "D:\\projects\\blockchain\\kuknos-dao\\contracts\\Config.sol",
  "compiler": {
    "name": "solc",
    "version": "0.5.0+commit.1d4f565a.Emscripten.clang"
  },
  "schemaVersion": "3.0.9",
  "updatedAt": "2019-06-22T09:22:18.345Z",
  "devdoc": {
    "methods": {}
  },
  "userdoc": {
    "methods": {}
  }
}