{
  "contractName": "Config",
  "abi": [
    {
      "constant": true,
      "inputs": [],
      "name": "kuknosThreshold",
      "outputs": [
        {
          "name": "",
          "type": "uint8"
        }
      ],
      "payable": false,
      "stateMutability": "view",
      "type": "function"
    },
    {
      "constant": true,
      "inputs": [],
      "name": "changeConfigThreshold",
      "outputs": [
        {
          "name": "",
          "type": "uint8"
        }
      ],
      "payable": false,
      "stateMutability": "view",
      "type": "function"
    },
    {
      "constant": true,
      "inputs": [],
      "name": "publicThreshold",
      "outputs": [
        {
          "name": "",
          "type": "uint8"
        }
      ],
      "payable": false,
      "stateMutability": "view",
      "type": "function"
    },
    {
      "constant": true,
      "inputs": [],
      "name": "removeAnchorThreshold",
      "outputs": [
        {
          "name": "",
          "type": "uint8"
        }
      ],
      "payable": false,
      "stateMutability": "view",
      "type": "function"
    },
    {
      "constant": true,
      "inputs": [],
      "name": "changeAnchorMemberThreshold",
      "outputs": [
        {
          "name": "",
          "type": "uint8"
        }
      ],
      "payable": false,
      "stateMutability": "view",
      "type": "function"
    },
    {
      "constant": true,
      "inputs": [],
      "name": "renewAccessTokenThreshold",
      "outputs": [
        {
          "name": "",
          "type": "uint8"
        }
      ],
      "payable": false,
      "stateMutability": "view",
      "type": "function"
    },
    {
      "constant": true,
      "inputs": [],
      "name": "addAnchorThreshold",
      "outputs": [
        {
          "name": "",
          "type": "uint8"
        }
      ],
      "payable": false,
      "stateMutability": "view",
      "type": "function"
    }
  ],
  "bytecode": "0x608060405260008054603360ff199091161761ff0019166150001762ff00001916623300001763ff000000191663330000001764ff0000000019166450000000001765ff00000000001916655000000000001766ff0000000000001916663300000000000017905534801561007357600080fd5b50610168806100836000396000f3fe608060405234801561001057600080fd5b506004361061007d5760003560e01c8063bb60512f1161005b578063bb60512f146100b0578063d4e18e68146100b8578063fa019249146100c0578063fc37a9e8146100c85761007d565b806319231250146100825780636ee2e225146100a0578063ae47b27c146100a8575b600080fd5b61008a6100d0565b6040805160ff9092168252519081900360200190f35b61008a6100e3565b61008a6100f4565b61008a610106565b61008a610114565b61008a610124565b61008a610133565b6000546601000000000000900460ff1681565b600054640100000000900460ff1681565b60005465010000000000900460ff1681565b600054610100900460ff1681565b6000546301000000900460ff1681565b60005462010000900460ff1681565b60005460ff168156fea165627a7a72305820d90d94377a5f675787bb6168adc186360f1fa70deff1b80e991e91e8996013e40029",
  "source": "pragma solidity >=0.4.21 <0.6.0;\n\ncontract Config {\n\n    enum ChangeConfigType {\n        AddAnchorThreshold,\n        RemoveAnchorThreshold,\n        RenewAccessTokenThreshold,\n        ChangeAnchorMemberThreshold,\n        ChangeConfigThreshold,\n        AccessTokensCount,\n        PublicThreshold,\n        KuknosThreshold\n    }\n\n    uint8 public addAnchorThreshold = 51;\n\n    uint8 public removeAnchorThreshold = 80;\n\n    uint8 public renewAccessTokenThreshold = 51;\n\n    uint8 public changeAnchorMemberThreshold = 51;\n\n    uint8 public changeConfigThreshold = 80;\n\n    uint8 public publicThreshold = 80;\n\n    uint8 public kuknosThreshold = 51;\n\n    function setConfig(ChangeConfigType configType, uint8 value) internal {\n\n        if(configType == ChangeConfigType.AddAnchorThreshold) {\n             addAnchorThreshold = value;\n        }\n\n        if(configType == ChangeConfigType.RemoveAnchorThreshold) {\n            removeAnchorThreshold = value;\n        }\n\n        if(configType == ChangeConfigType.RenewAccessTokenThreshold) {\n             renewAccessTokenThreshold = value;\n        }\n\n        if(configType == ChangeConfigType.ChangeAnchorMemberThreshold) {\n            changeAnchorMemberThreshold = value;\n        }\n\n        if(configType == ChangeConfigType.ChangeConfigThreshold) {\n            changeConfigThreshold = value;\n        }\n\n        if(configType == ChangeConfigType.PublicThreshold) {\n            publicThreshold = value;\n        }\n\n        if(configType == ChangeConfigType.KuknosThreshold) {\n            kuknosThreshold = value;\n        }\n    }\n\n}\n",
  "sourcePath": "C:\\Users\\javad\\projects\\kuknus\\kuknos-dao\\contracts\\Config.sol",
  "compiler": {
    "name": "solc",
    "version": "0.5.8+commit.23d335f2.Emscripten.clang"
  },
  "schemaVersion": "3.0.11",
  "updatedAt": "2019-06-30T13:24:37.536Z",
  "devdoc": {
    "methods": {}
  },
  "userdoc": {
    "methods": {}
  }
}