{
  "contractName": "KuknosDAO",
  "abi": [
    {
      "constant": false,
      "inputs": [],
      "name": "renewYearTokens",
      "outputs": [],
      "payable": false,
      "stateMutability": "nonpayable",
      "type": "function"
    },
    {
      "constant": true,
      "inputs": [
        {
          "name": "",
          "type": "uint256"
        }
      ],
      "name": "removeAnchorProposal",
      "outputs": [
        {
          "name": "name",
          "type": "string"
        },
        {
          "name": "executionTime",
          "type": "uint256"
        }
      ],
      "payable": false,
      "stateMutability": "view",
      "type": "function"
    },
    {
      "constant": true,
      "inputs": [],
      "name": "kuknosThreshold",
      "outputs": [
        {
          "name": "",
          "type": "uint8"
        }
      ],
      "payable": false,
      "stateMutability": "view",
      "type": "function"
    },
    {
      "constant": true,
      "inputs": [
        {
          "name": "",
          "type": "uint256"
        }
      ],
      "name": "renewAccessTockenProposal",
      "outputs": [
        {
          "name": "name",
          "type": "string"
        },
        {
          "name": "count",
          "type": "uint256"
        },
        {
          "name": "executionTime",
          "type": "uint256"
        }
      ],
      "payable": false,
      "stateMutability": "view",
      "type": "function"
    },
    {
      "constant": true,
      "inputs": [],
      "name": "membersCount",
      "outputs": [
        {
          "name": "",
          "type": "uint256"
        }
      ],
      "payable": false,
      "stateMutability": "view",
      "type": "function"
    },
    {
      "constant": false,
      "inputs": [
        {
          "name": "id",
          "type": "uint256"
        },
        {
          "name": "title",
          "type": "string"
        },
        {
          "name": "proposalType",
          "type": "uint32"
        },
        {
          "name": "startDate",
          "type": "uint32"
        },
        {
          "name": "endDate",
          "type": "uint32"
        },
        {
          "name": "url",
          "type": "string"
        },
        {
          "name": "hashCode",
          "type": "string"
        },
        {
          "name": "contractAddress",
          "type": "address"
        },
        {
          "name": "threshold",
          "type": "uint8"
        }
      ],
      "name": "registerProposal",
      "outputs": [
        {
          "name": "",
          "type": "uint256"
        }
      ],
      "payable": false,
      "stateMutability": "nonpayable",
      "type": "function"
    },
    {
      "constant": true,
      "inputs": [
        {
          "name": "",
          "type": "uint256"
        },
        {
          "name": "",
          "type": "address"
        }
      ],
      "name": "votesReceived",
      "outputs": [
        {
          "name": "vote",
          "type": "int8"
        },
        {
          "name": "description",
          "type": "string"
        }
      ],
      "payable": false,
      "stateMutability": "view",
      "type": "function"
    },
    {
      "constant": true,
      "inputs": [
        {
          "name": "",
          "type": "uint256"
        }
      ],
      "name": "anchors",
      "outputs": [
        {
          "name": "nameHash",
          "type": "bytes32"
        },
        {
          "name": "name",
          "type": "string"
        },
        {
          "name": "url",
          "type": "string"
        }
      ],
      "payable": false,
      "stateMutability": "view",
      "type": "function"
    },
    {
      "constant": true,
      "inputs": [
        {
          "name": "index",
          "type": "uint256"
        }
      ],
      "name": "getProposalStatus",
      "outputs": [
        {
          "name": "id",
          "type": "uint256"
        },
        {
          "name": "up",
          "type": "uint16"
        },
        {
          "name": "down",
          "type": "uint16"
        },
        {
          "name": "proposalType",
          "type": "uint32"
        },
        {
          "name": "contractAddress",
          "type": "address"
        },
        {
          "name": "isNotStarted",
          "type": "bool"
        },
        {
          "name": "isExpired",
          "type": "bool"
        },
        {
          "name": "upPercentage",
          "type": "uint16"
        },
        {
          "name": "downPercentage",
          "type": "uint16"
        },
        {
          "name": "isSucceed",
          "type": "bool"
        }
      ],
      "payable": false,
      "stateMutability": "view",
      "type": "function"
    },
    {
      "constant": true,
      "inputs": [],
      "name": "accessTokensCount",
      "outputs": [
        {
          "name": "",
          "type": "uint256"
        }
      ],
      "payable": false,
      "stateMutability": "view",
      "type": "function"
    },
    {
      "constant": true,
      "inputs": [
        {
          "name": "",
          "type": "uint256"
        }
      ],
      "name": "members",
      "outputs": [
        {
          "name": "",
          "type": "address"
        }
      ],
      "payable": false,
      "stateMutability": "view",
      "type": "function"
    },
    {
      "constant": true,
      "inputs": [
        {
          "name": "",
          "type": "uint256"
        }
      ],
      "name": "addOrUpdateAnchorProposals",
      "outputs": [
        {
          "name": "name",
          "type": "string"
        },
        {
          "name": "url",
          "type": "string"
        },
        {
          "name": "executionTime",
          "type": "uint256"
        }
      ],
      "payable": false,
      "stateMutability": "view",
      "type": "function"
    },
    {
      "constant": true,
      "inputs": [],
      "name": "internalProposalsCount",
      "outputs": [
        {
          "name": "",
          "type": "uint256"
        }
      ],
      "payable": false,
      "stateMutability": "view",
      "type": "function"
    },
    {
      "constant": true,
      "inputs": [],
      "name": "changeConfigThreshold",
      "outputs": [
        {
          "name": "",
          "type": "uint8"
        }
      ],
      "payable": false,
      "stateMutability": "view",
      "type": "function"
    },
    {
      "constant": true,
      "inputs": [
        {
          "name": "",
          "type": "address"
        }
      ],
      "name": "balanceOf",
      "outputs": [
        {
          "name": "",
          "type": "uint256"
        }
      ],
      "payable": false,
      "stateMutability": "view",
      "type": "function"
    },
    {
      "constant": false,
      "inputs": [],
      "name": "renounceOwnership",
      "outputs": [],
      "payable": false,
      "stateMutability": "nonpayable",
      "type": "function"
    },
    {
      "constant": true,
      "inputs": [
        {
          "name": "",
          "type": "uint256"
        }
      ],
      "name": "changeConfigProposal",
      "outputs": [
        {
          "name": "name",
          "type": "string"
        },
        {
          "name": "configType",
          "type": "uint8"
        },
        {
          "name": "value",
          "type": "uint8"
        },
        {
          "name": "executionTime",
          "type": "uint256"
        }
      ],
      "payable": false,
      "stateMutability": "view",
      "type": "function"
    },
    {
      "constant": true,
      "inputs": [],
      "name": "owner",
      "outputs": [
        {
          "name": "",
          "type": "address"
        }
      ],
      "payable": false,
      "stateMutability": "view",
      "type": "function"
    },
    {
      "constant": true,
      "inputs": [],
      "name": "getProposalsCount",
      "outputs": [
        {
          "name": "",
          "type": "uint256"
        }
      ],
      "payable": false,
      "stateMutability": "view",
      "type": "function"
    },
    {
      "constant": false,
      "inputs": [
        {
          "name": "_proposalIndex",
          "type": "uint256"
        },
        {
          "name": "_vote",
          "type": "int8"
        },
        {
          "name": "_description",
          "type": "string"
        }
      ],
      "name": "voteForProposal",
      "outputs": [],
      "payable": false,
      "stateMutability": "nonpayable",
      "type": "function"
    },
    {
      "constant": true,
      "inputs": [
        {
          "name": "",
          "type": "bytes32"
        },
        {
          "name": "",
          "type": "uint256"
        }
      ],
      "name": "anchorMembers",
      "outputs": [
        {
          "name": "",
          "type": "address"
        }
      ],
      "payable": false,
      "stateMutability": "view",
      "type": "function"
    },
    {
      "constant": true,
      "inputs": [],
      "name": "publicThreshold",
      "outputs": [
        {
          "name": "",
          "type": "uint8"
        }
      ],
      "payable": false,
      "stateMutability": "view",
      "type": "function"
    },
    {
      "constant": true,
      "inputs": [],
      "name": "removeAnchorThreshold",
      "outputs": [
        {
          "name": "",
          "type": "uint8"
        }
      ],
      "payable": false,
      "stateMutability": "view",
      "type": "function"
    },
    {
      "constant": true,
      "inputs": [
        {
          "name": "index",
          "type": "uint256"
        }
      ],
      "name": "getProposal",
      "outputs": [
        {
          "name": "title",
          "type": "string"
        },
        {
          "name": "proposalType",
          "type": "uint32"
        },
        {
          "name": "registerDate",
          "type": "uint32"
        },
        {
          "name": "startDate",
          "type": "uint32"
        },
        {
          "name": "endDate",
          "type": "uint32"
        },
        {
          "name": "author",
          "type": "address"
        },
        {
          "name": "url",
          "type": "string"
        },
        {
          "name": "hashCode",
          "type": "string"
        },
        {
          "name": "contractAddress",
          "type": "address"
        },
        {
          "name": "threshold",
          "type": "uint8"
        }
      ],
      "payable": false,
      "stateMutability": "view",
      "type": "function"
    },
    {
      "constant": true,
      "inputs": [],
      "name": "lastTokenIssueDate",
      "outputs": [
        {
          "name": "",
          "type": "uint256"
        }
      ],
      "payable": false,
      "stateMutability": "view",
      "type": "function"
    },
    {
      "constant": true,
      "inputs": [],
      "name": "getAnchorsCount",
      "outputs": [
        {
          "name": "",
          "type": "uint256"
        }
      ],
      "payable": false,
      "stateMutability": "view",
      "type": "function"
    },
    {
      "constant": true,
      "inputs": [],
      "name": "changeAnchorMemberThreshold",
      "outputs": [
        {
          "name": "",
          "type": "uint8"
        }
      ],
      "payable": false,
      "stateMutability": "view",
      "type": "function"
    },
    {
      "constant": true,
      "inputs": [],
      "name": "membersList",
      "outputs": [
        {
          "name": "",
          "type": "address[]"
        }
      ],
      "payable": false,
      "stateMutability": "view",
      "type": "function"
    },
    {
      "constant": false,
      "inputs": [
        {
          "name": "_newOwner",
          "type": "address"
        }
      ],
      "name": "transferOwnership",
      "outputs": [],
      "payable": false,
      "stateMutability": "nonpayable",
      "type": "function"
    },
    {
      "constant": true,
      "inputs": [],
      "name": "renewAccessTokenThreshold",
      "outputs": [
        {
          "name": "",
          "type": "uint8"
        }
      ],
      "payable": false,
      "stateMutability": "view",
      "type": "function"
    },
    {
      "constant": true,
      "inputs": [],
      "name": "addAnchorThreshold",
      "outputs": [
        {
          "name": "",
          "type": "uint8"
        }
      ],
      "payable": false,
      "stateMutability": "view",
      "type": "function"
    },
    {
      "inputs": [
        {
          "name": "_voterTokensCount",
          "type": "uint256"
        }
      ],
      "payable": false,
      "stateMutability": "nonpayable",
      "type": "constructor"
    },
    {
      "anonymous": false,
      "inputs": [
        {
          "indexed": true,
          "name": "previousOwner",
          "type": "address"
        }
      ],
      "name": "OwnershipRenounced",
      "type": "event"
    },
    {
      "anonymous": false,
      "inputs": [
        {
          "indexed": true,
          "name": "previousOwner",
          "type": "address"
        },
        {
          "indexed": true,
          "name": "newOwner",
          "type": "address"
        }
      ],
      "name": "OwnershipTransferred",
      "type": "event"
    },
    {
      "constant": true,
      "inputs": [
        {
          "name": "_id",
          "type": "uint256"
        }
      ],
      "name": "getAddOrUpdateAnchorProposalMembers",
      "outputs": [
        {
          "name": "members",
          "type": "address[]"
        }
      ],
      "payable": false,
      "stateMutability": "view",
      "type": "function"
    },
    {
      "constant": false,
      "inputs": [
        {
          "name": "_name",
          "type": "string"
        },
        {
          "name": "_url",
          "type": "string"
        },
        {
          "name": "_members",
          "type": "address[]"
        }
      ],
      "name": "addNewAnchor",
      "outputs": [],
      "payable": false,
      "stateMutability": "nonpayable",
      "type": "function"
    },
    {
      "constant": true,
      "inputs": [],
      "name": "contractIsActive",
      "outputs": [
        {
          "name": "",
          "type": "bool"
        }
      ],
      "payable": false,
      "stateMutability": "view",
      "type": "function"
    },
    {
      "constant": false,
      "inputs": [
        {
          "name": "_anchorName",
          "type": "string"
        },
        {
          "name": "_anchorUrl",
          "type": "string"
        },
        {
          "name": "_members",
          "type": "address[]"
        },
        {
          "name": "_startDate",
          "type": "uint32"
        },
        {
          "name": "_endDate",
          "type": "uint32"
        },
        {
          "name": "_url",
          "type": "string"
        },
        {
          "name": "_hashCode",
          "type": "string"
        },
        {
          "name": "_type",
          "type": "uint8"
        }
      ],
      "name": "registerAddOrUpdateAnchorProposal",
      "outputs": [],
      "payable": false,
      "stateMutability": "nonpayable",
      "type": "function"
    },
    {
      "constant": false,
      "inputs": [
        {
          "name": "_id",
          "type": "uint256"
        },
        {
          "name": "_type",
          "type": "uint8"
        }
      ],
      "name": "runAddOrUpdateAnchorProposal",
      "outputs": [],
      "payable": false,
      "stateMutability": "nonpayable",
      "type": "function"
    },
    {
      "constant": false,
      "inputs": [
        {
          "name": "_anchorName",
          "type": "string"
        },
        {
          "name": "_startDate",
          "type": "uint32"
        },
        {
          "name": "_endDate",
          "type": "uint32"
        },
        {
          "name": "_url",
          "type": "string"
        },
        {
          "name": "_hashCode",
          "type": "string"
        }
      ],
      "name": "registerRemoveAnchorProposal",
      "outputs": [],
      "payable": false,
      "stateMutability": "nonpayable",
      "type": "function"
    },
    {
      "constant": false,
      "inputs": [
        {
          "name": "_id",
          "type": "uint256"
        }
      ],
      "name": "runRemoveAnchorProposal",
      "outputs": [],
      "payable": false,
      "stateMutability": "nonpayable",
      "type": "function"
    },
    {
      "constant": false,
      "inputs": [
        {
          "name": "count",
          "type": "uint256"
        },
        {
          "name": "_startDate",
          "type": "uint32"
        },
        {
          "name": "_endDate",
          "type": "uint32"
        },
        {
          "name": "_url",
          "type": "string"
        },
        {
          "name": "_hashCode",
          "type": "string"
        }
      ],
      "name": "registerSetAccessTokenProposal",
      "outputs": [],
      "payable": false,
      "stateMutability": "nonpayable",
      "type": "function"
    },
    {
      "constant": false,
      "inputs": [
        {
          "name": "_id",
          "type": "uint256"
        }
      ],
      "name": "runSetAccessTockenProposal",
      "outputs": [],
      "payable": false,
      "stateMutability": "nonpayable",
      "type": "function"
    },
    {
      "constant": false,
      "inputs": [
        {
          "name": "newValue",
          "type": "uint8"
        },
        {
          "name": "_startDate",
          "type": "uint32"
        },
        {
          "name": "_endDate",
          "type": "uint32"
        },
        {
          "name": "_url",
          "type": "string"
        },
        {
          "name": "_hashCode",
          "type": "string"
        },
        {
          "name": "_configType",
          "type": "uint8"
        }
      ],
      "name": "addChangeConfigProposal",
      "outputs": [],
      "payable": false,
      "stateMutability": "nonpayable",
      "type": "function"
    },
    {
      "constant": false,
      "inputs": [
        {
          "name": "_id",
          "type": "uint256"
        }
      ],
      "name": "runChangeConfigProposal",
      "outputs": [],
      "payable": false,
      "stateMutability": "nonpayable",
      "type": "function"
    },
    {
      "constant": false,
      "inputs": [
        {
          "name": "_title",
          "type": "string"
        },
        {
          "name": "_type",
          "type": "uint8"
        },
        {
          "name": "_startDate",
          "type": "uint32"
        },
        {
          "name": "_endDate",
          "type": "uint32"
        },
        {
          "name": "_url",
          "type": "string"
        },
        {
          "name": "_hashCode",
          "type": "string"
        }
      ],
      "name": "addCustomProposal",
      "outputs": [],
      "payable": false,
      "stateMutability": "nonpayable",
      "type": "function"
    }
  ],
  "bytecode": "0x608060405260326002908155600555600a8054603360ff199091161761ff0019166150001762ff00001916623300001763ff000000191663330000001764ff0000000019166450000000001765ff00000000001916655000000000001766ff000000000000191666330000000000001790556000600f553480156200008357600080fd5b5060405160208062005d3983398101806040526020811015620000a557600080fd5b5051600080546001600160a01b031916331790558080620000cc620000db602090811b901c565b60015560025550620000df9050565b4290565b615c4a80620000ef6000396000f3fe608060405234801561001057600080fd5b50600436106102685760003560e01c806365a059d211610151578063b35d1b06116100c3578063d4e18e6811610087578063d4e18e68146116db578063dd5042f4146116e3578063dd67e108146116eb578063f2fde38b14611839578063fa0192491461185f578063fc37a9e81461186757610268565b8063b35d1b06146114ba578063bb60512f146114d7578063c7f758a8146114df578063cededb30146116cb578063d4c8ca9b146116d357610268565b80638da5cb5b116101155780638da5cb5b1461135f57806391ea179e1461136757806398e527d3146113d45780639aedd3fd146113dc578063a773693f1461148f578063ae47b27c146114b257610268565b806365a059d2146112a25780636ee2e225146112aa57806370a08231146112b2578063715018a6146112d85780638a71f0d2146112e057610268565b806333dd6bed116101ea5780634c211122116101ae5780634c21112214610e95578063511e9e6e14610eb257806351f3068914610ecf57806355de8c7e146111a05780635daf08ca146111a857806361412578146111e157610268565b806333dd6bed146109a7578063368b733e14610a1b5780633b33219714610b1d5780633ec4cd7214610c63578063401853b714610e0e57610268565b80631dc48e95116102315780631dc48e951461037357806324353bb614610540578063297f9af0146105e35780632cb23604146105fd57806330c3464c146107c157610268565b8062f18f561461026d57806306cdf57c146102775780630d60ea191461029d5780631351e4ac146102b95780631923125014610355575b600080fd5b61027561186f565b005b6102756004803603604081101561028d57600080fd5b508035906020013560ff16611967565b6102a5611d3c565b604080519115158252519081900360200190f35b6102d6600480360360208110156102cf57600080fd5b5035611d4c565b6040518080602001838152602001828103825284818151815260200191508051906020019080838360005b83811015610319578181015183820152602001610301565b50505050905090810190601f1680156103465780820380516001836020036101000a031916815260200191505b50935050505060405180910390f35b61035d611df3565b6040805160ff9092168252519081900360200190f35b610275600480360360c081101561038957600080fd5b810190602081018135600160201b8111156103a357600080fd5b8201836020820111156103b557600080fd5b803590602001918460018302840111600160201b831117156103d657600080fd5b91908080601f016020809104026020016040519081016040528093929190818152602001838380828437600092019190915250929560ff8535169563ffffffff6020870135811696604081013590911695509193509150608081019060600135600160201b81111561044757600080fd5b82018360208201111561045957600080fd5b803590602001918460018302840111600160201b8311171561047a57600080fd5b91908080601f0160208091040260200160405190810160405280939291908181526020018383808284376000920191909152509295949360208101935035915050600160201b8111156104cc57600080fd5b8201836020820111156104de57600080fd5b803590602001918460018302840111600160201b831117156104ff57600080fd5b91908080601f016020809104026020016040519081016040528093929190818152602001838380828437600092019190915250929550611e03945050505050565b61055d6004803603602081101561055657600080fd5b5035611f68565b6040518080602001848152602001838152602001828103825285818151815260200191508051906020019080838360005b838110156105a657818101518382015260200161058e565b50505050905090810190601f1680156105d35780820380516001836020036101000a031916815260200191505b5094505050505060405180910390f35b6105eb612015565b60408051918252519081900360200190f35b610275600480360360a081101561061357600080fd5b810190602081018135600160201b81111561062d57600080fd5b82018360208201111561063f57600080fd5b803590602001918460018302840111600160201b8311171561066057600080fd5b91908080601f016020809104026020016040519081016040528093929190818152602001838380828437600092019190915250929563ffffffff8535811696602087013590911695919450925060608101915060400135600160201b8111156106c857600080fd5b8201836020820111156106da57600080fd5b803590602001918460018302840111600160201b831117156106fb57600080fd5b91908080601f0160208091040260200160405190810160405280939291908181526020018383808284376000920191909152509295949360208101935035915050600160201b81111561074d57600080fd5b82018360208201111561075f57600080fd5b803590602001918460018302840111600160201b8311171561078057600080fd5b91908080601f01602080910402602001604051908101604052809392919081815260200183838082843760009201919091525092955061201b945050505050565b6105eb60048036036101208110156107d857600080fd5b81359190810190604081016020820135600160201b8111156107f957600080fd5b82018360208201111561080b57600080fd5b803590602001918460018302840111600160201b8311171561082c57600080fd5b91908080601f016020809104026020016040519081016040528093929190818152602001838380828437600092019190915250929563ffffffff8535811696602087013582169660408101359092169550919350909150608081019060600135600160201b81111561089d57600080fd5b8201836020820111156108af57600080fd5b803590602001918460018302840111600160201b831117156108d057600080fd5b91908080601f0160208091040260200160405190810160405280939291908181526020018383808284376000920191909152509295949360208101935035915050600160201b81111561092257600080fd5b82018360208201111561093457600080fd5b803590602001918460018302840111600160201b8311171561095557600080fd5b91908080601f016020809104026020016040519081016040528093929190818152602001838380828437600092019190915250929550505081356001600160a01b03169250506020013560ff166121b5565b6109d3600480360360408110156109bd57600080fd5b50803590602001356001600160a01b0316612561565b604051808360000b60000b8152602001806020018281038252838181518152602001915080519060200190808383600083811015610319578181015183820152602001610301565b610a3860048036036020811015610a3157600080fd5b5035612617565b604051808481526020018060200180602001838103835285818151815260200191508051906020019080838360005b83811015610a7f578181015183820152602001610a67565b50505050905090810190601f168015610aac5780820380516001836020036101000a031916815260200191505b50838103825284518152845160209182019186019080838360005b83811015610adf578181015183820152602001610ac7565b50505050905090810190601f168015610b0c5780820380516001836020036101000a031916815260200191505b509550505050505060405180910390f35b610275600480360360a0811015610b3357600080fd5b81359163ffffffff602082013581169260408301359091169190810190608081016060820135600160201b811115610b6a57600080fd5b820183602082011115610b7c57600080fd5b803590602001918460018302840111600160201b83111715610b9d57600080fd5b91908080601f0160208091040260200160405190810160405280939291908181526020018383808284376000920191909152509295949360208101935035915050600160201b811115610bef57600080fd5b820183602082011115610c0157600080fd5b803590602001918460018302840111600160201b83111715610c2257600080fd5b91908080601f016020809104026020016040519081016040528093929190818152602001838380828437600092019190915250929550612772945050505050565b61027560048036036060811015610c7957600080fd5b810190602081018135600160201b811115610c9357600080fd5b820183602082011115610ca557600080fd5b803590602001918460018302840111600160201b83111715610cc657600080fd5b91908080601f0160208091040260200160405190810160405280939291908181526020018383808284376000920191909152509295949360208101935035915050600160201b811115610d1857600080fd5b820183602082011115610d2a57600080fd5b803590602001918460018302840111600160201b83111715610d4b57600080fd5b91908080601f0160208091040260200160405190810160405280939291908181526020018383808284376000920191909152509295949360208101935035915050600160201b811115610d9d57600080fd5b820183602082011115610daf57600080fd5b803590602001918460208302840111600160201b83111715610dd057600080fd5b9190808060200260200160405190810160405280939291908181526020018383602002808284376000920191909152509295506128e0945050505050565b610e2b60048036036020811015610e2457600080fd5b503561293c565b604080519a8b5261ffff998a1660208c01529789168a89015263ffffffff90961660608a01526001600160a01b03909416608089015291151560a0880152151560c0870152841660e086015290921661010084015290151561012083015251908190036101400190f35b61027560048036036020811015610eab57600080fd5b5035612cde565b61027560048036036020811015610ec857600080fd5b5035612f6a565b6102756004803603610100811015610ee657600080fd5b810190602081018135600160201b811115610f0057600080fd5b820183602082011115610f1257600080fd5b803590602001918460018302840111600160201b83111715610f3357600080fd5b91908080601f0160208091040260200160405190810160405280939291908181526020018383808284376000920191909152509295949360208101935035915050600160201b811115610f8557600080fd5b820183602082011115610f9757600080fd5b803590602001918460018302840111600160201b83111715610fb857600080fd5b91908080601f0160208091040260200160405190810160405280939291908181526020018383808284376000920191909152509295949360208101935035915050600160201b81111561100a57600080fd5b82018360208201111561101c57600080fd5b803590602001918460208302840111600160201b8311171561103d57600080fd5b919080806020026020016040519081016040528093929190818152602001838360200280828437600092019190915250929563ffffffff8535811696602087013590911695919450925060608101915060400135600160201b8111156110a257600080fd5b8201836020820111156110b457600080fd5b803590602001918460018302840111600160201b831117156110d557600080fd5b91908080601f0160208091040260200160405190810160405280939291908181526020018383808284376000920191909152509295949360208101935035915050600160201b81111561112757600080fd5b82018360208201111561113957600080fd5b803590602001918460018302840111600160201b8311171561115a57600080fd5b91908080601f0160208091040260200160405190810160405280939291908181526020018383808284376000920191909152509295505050903560ff16915061318c9050565b6105eb613422565b6111c5600480360360208110156111be57600080fd5b5035613428565b604080516001600160a01b039092168252519081900360200190f35b6111fe600480360360208110156111f757600080fd5b503561344f565b604051808060200180602001848152602001838103835286818151815260200191508051906020019080838360005b8381101561124557818101518382015260200161122d565b50505050905090810190601f1680156112725780820380516001836020036101000a031916815260200191505b50838103825285518152855160209182019187019080838360008315610adf578181015183820152602001610ac7565b6105eb613594565b61035d61359a565b6105eb600480360360208110156112c857600080fd5b50356001600160a01b03166135aa565b6102756135bc565b6112fd600480360360208110156112f657600080fd5b5035613650565b604051808060200185600781111561131157fe5b60ff1681526020018460ff1660ff1681526020018381526020018281038252868181518152602001915080519060200190808383600083811015610adf578181015183820152602001610ac7565b6111c561370a565b6113846004803603602081101561137d57600080fd5b5035613719565b60408051602080825283518183015283519192839290830191858101910280838360005b838110156113c05781810151838201526020016113a8565b505050509050019250505060405180910390f35b6105eb613789565b610275600480360360608110156113f257600080fd5b813591602081013560000b91810190606081016040820135600160201b81111561141b57600080fd5b82018360208201111561142d57600080fd5b803590602001918460018302840111600160201b8311171561144e57600080fd5b91908080601f01602080910402602001604051908101604052809392919081815260200183838082843760009201919091525092955061378f945050505050565b6111c5600480360360408110156114a557600080fd5b5080359060200135613e09565b61035d613e3e565b610275600480360360208110156114d057600080fd5b5035613e50565b61035d6140b7565b6114fc600480360360208110156114f557600080fd5b50356140c5565b60405180806020018b63ffffffff1663ffffffff1681526020018a63ffffffff1663ffffffff1681526020018963ffffffff1663ffffffff1681526020018863ffffffff1663ffffffff168152602001876001600160a01b03166001600160a01b031681526020018060200180602001866001600160a01b03166001600160a01b031681526020018560ff1660ff16815260200184810384528e818151815260200191508051906020019080838360005b838110156115c55781810151838201526020016115ad565b50505050905090810190601f1680156115f25780820380516001836020036101000a031916815260200191505b5084810383528851815288516020918201918a019080838360005b8381101561162557818101518382015260200161160d565b50505050905090810190601f1680156116525780820380516001836020036101000a031916815260200191505b50848103825287518152875160209182019189019080838360005b8381101561168557818101518382015260200161166d565b50505050905090810190601f1680156116b25780820380516001836020036101000a031916815260200191505b509d505050505050505050505050505060405180910390f35b6105eb614435565b6105eb61443b565b61035d614441565b611384614451565b610275600480360360c081101561170157600080fd5b60ff8235169163ffffffff602082013581169260408301359091169190810190608081016060820135600160201b81111561173b57600080fd5b82018360208201111561174d57600080fd5b803590602001918460018302840111600160201b8311171561176e57600080fd5b91908080601f0160208091040260200160405190810160405280939291908181526020018383808284376000920191909152509295949360208101935035915050600160201b8111156117c057600080fd5b8201836020820111156117d257600080fd5b803590602001918460018302840111600160201b831117156117f357600080fd5b91908080601f0160208091040260200160405190810160405280939291908181526020018383808284376000920191909152509295505050903560ff1691506144b39050565b6102756004803603602081101561184f57600080fd5b50356001600160a01b031661468a565b61035d6146e2565b61035d6146f1565b6118776146fa565b6118b95760408051600160e51b62461bcd02815260206004820152601f6024820152600080516020615b91833981519152604482015290519081900360640190fd5b6118c23361470a565b61190057604051600160e51b62461bcd02815260040180806020018281038252602a815260200180615b67602a913960400191505060405180910390fd5b611965600480548060200260200160405190810160405280929190818152602001828054801561195957602002820191906000526020600020905b81546001600160a01b0316815260019091019060200180831161193b575b50505050506000614779565b565b61196f6146fa565b6119b15760408051600160e51b62461bcd02815260206004820152601f6024820152600080516020615b91833981519152604482015290519081900360640190fd5b6119ba3361470a565b6119f857604051600160e51b62461bcd02815260040180806020018281038252602a815260200180615b67602a913960400191505060405180910390fd5b6000816007811115611a0657fe5b1480611a1d57506001816007811115611a1b57fe5b145b611a695760408051600160e51b62461bcd0281526020600482015260126024820152600160701b7163686f6f73652076616c696465207479706502604482015290519081900360640190fd5b611a71615769565b6000838152600b60209081526040918290208251815460026001821615610100026000190190911604601f8101849004909302810160a090810190945260808101838152909391928492849190840182828015611b0f5780601f10611ae457610100808354040283529160200191611b0f565b820191906000526020600020905b815481529060010190602001808311611af257829003601f168201915b50505050508152602001600182018054600181600116156101000203166002900480601f016020809104026020016040519081016040528092919081815260200182805460018160011615610100020316600290048015611bb15780601f10611b8657610100808354040283529160200191611bb1565b820191906000526020600020905b815481529060010190602001808311611b9457829003601f168201915b5050505050815260200160028201805480602002602001604051908101604052809291908181526020018280548015611c1357602002820191906000526020600020905b81546001600160a01b03168152600190910190602001808311611bf5575b505050505081526020016003820154815250509050600081600001515111611c7c5760408051600160e51b62461bcd02815260206004820152601160248201526001607a1b701c1c9bdc1cd85b081b9bdd08199bdd5b9902604482015290519081900360640190fd5b606081015115611cc45760408051600160e51b62461bcd02815260206004820152601c6024820152600080516020615bff833981519152604482015290519081900360640190fd5b611cce83836147fc565b15611d1a576000826007811115611ce157fe5b1415611d0357611cfe81600001518260200151836040015161492e565b611d1a565b611d1a816000015182602001518360400151614945565b611d2261494e565b6000938452600b6020526040909320600301929092555050565b6000611d466146fa565b90505b90565b600c6020908152600091825260409182902080548351601f60026000196101006001861615020190931692909204918201849004840281018401909452808452909291839190830182828015611de35780601f10611db857610100808354040283529160200191611de3565b820191906000526020600020905b815481529060010190602001808311611dc657829003601f168201915b5050505050908060010154905082565b600a54600160301b900460ff1681565b611e0b6146fa565b611e4d5760408051600160e51b62461bcd02815260206004820152601f6024820152600080516020615b91833981519152604482015290519081900360640190fd5b611e563361470a565b611e9457604051600160e51b62461bcd02815260040180806020018281038252602a815260200180615b67602a913960400191505060405180910390fd5b6006856007811115611ea257fe5b1480611eb957506007856007811115611eb757fe5b145b611f055760408051600160e51b62461bcd0281526020600482015260126024820152600160701b7163686f6f73652076616c696465207479706502604482015290519081900360640190fd5b600f805460010190819055611f5f9087876007811115611f2157fe5b8787878760068d6007811115611f3357fe5b14611f4a57600a54600160301b900460ff16611f5a565b600a5465010000000000900460ff165b614952565b50505050505050565b600d6020908152600091825260409182902080548351601f60026000196101006001861615020190931692909204918201849004840281018401909452808452909291839190830182828015611fff5780601f10611fd457610100808354040283529160200191611fff565b820191906000526020600020905b815481529060010190602001808311611fe257829003601f168201915b5050505050908060010154908060020154905083565b60045490565b6120236146fa565b6120655760408051600160e51b62461bcd02815260206004820152601f6024820152600080516020615b91833981519152604482015290519081900360640190fd5b61206e3361470a565b6120ac57604051600160e51b62461bcd02815260040180806020018281038252602a815260200180615b67602a913960400191505060405180910390fd5b60008551116121055760408051600160e51b62461bcd02815260206004820152601660248201527f73656c656374206e616d6520666f7220616e63686f7200000000000000000000604482015290519081900360640190fd5b600f80546001019081905560408051808201909152600d81527f72656d6f766520616e63686f7200000000000000000000000000000000000000602082015260009161216691600288888888600a60019054906101000a900460ff16614952565b60408051808201825288815260006020808301829052848252600c8152929020815180519495509193909261219f928492910190615791565b5060208201518160010155905050505050505050565b60006121bf6146fa565b6122015760408051600160e51b62461bcd02815260206004820152601f6024820152600080516020615b91833981519152604482015290519081900360640190fd5b61220a3361470a565b61224857604051600160e51b62461bcd02815260040180806020018281038252602a815260200180615b67602a913960400191505060405180910390fd5b336000908152600360205260409020546001908111156122b25760408051600160e51b62461bcd02815260206004820152601960248201527f796f752068617665206e6f7420656e6f75676820746f6b656e00000000000000604482015290519081900360640190fd5b6001600160a01b0384163014156122fd57604051600160e51b62461bcd028152600401808060200182810382526038815260200180615ae76038913960400191505060405180910390fd5b60016008604051806101a001604052808e81526020018d81526020018c63ffffffff1681526020018b63ffffffff1681526020018a63ffffffff168152602001336001600160a01b0316815260200189815260200188815260200161236061494e565b63ffffffff16815260006020808301829052604083018290526001600160a01b038a16606084015260ff89166080909301929092528354600181810180875595835291839020845160069092020190815583830151805191936123c893850192910190615791565b5060408201516002820180546060850151608086015160a08701516001600160a01b0316600160601b026bffffffffffffffffffffffff63ffffffff928316600160401b026bffffffff000000000000000019948416600160201b0267ffffffff00000000199490981663ffffffff1990961695909517929092169590951791909116919091171691909117905560c08201518051612471916003840191602090910190615791565b5060e0820151805161248d916004840191602090910190615791565b5061010082015160059190910180546101208401516101408501516101608601516101809096015163ffffffff1990931663ffffffff9095169490941765ffff000000001916600160201b61ffff928316021767ffff0000000000001916600160301b919094160292909217600160401b600160e01b031916600160401b6001600160a01b039094169390930292909217600160e01b60ff021916600160e01b60ff9092169190910217905533600090815260036020526040902080549390930390925590039a9950505050505050505050565b600960209081526000928352604080842082529183528183208054600180830180548651600261010094831615949094026000190190911692909204601f81018690048602830186019096528582529190950b949193919290919083018282801561260d5780601f106125e25761010080835404028352916020019161260d565b820191906000526020600020905b8154815290600101906020018083116125f057829003601f168201915b5050505050905082565b6006818154811061262457fe5b9060005260206000209060030201600091509050806000015490806001018054600181600116156101000203166002900480601f0160208091040260200160405190810160405280929190818152602001828054600181600116156101000203166002900480156126d65780601f106126ab576101008083540402835291602001916126d6565b820191906000526020600020905b8154815290600101906020018083116126b957829003601f168201915b50505060028085018054604080516020601f60001961010060018716150201909416959095049283018590048502810185019091528181529596959450909250908301828280156127685780601f1061273d57610100808354040283529160200191612768565b820191906000526020600020905b81548152906001019060200180831161274b57829003601f168201915b5050505050905083565b61277a6146fa565b6127bc5760408051600160e51b62461bcd02815260206004820152601f6024820152600080516020615b91833981519152604482015290519081900360640190fd5b6127c53361470a565b61280357604051600160e51b62461bcd02815260040180806020018281038252602a815260200180615b67602a913960400191505060405180910390fd5b600f8054600101908190556040805180820190915260118152600160791b7039b2ba1030b1b1b2b9b9903a37b1b5b2b702602082015260009161285b91600488888888600a60029054906101000a900460ff16614952565b6040805160a081018252601160608201908152600160791b7039b2ba1030b1b1b2b9b9903a37b1b5b2b7026080830152815260208082018a90526000828401819052848152600d82529290922081518051949550919390926128c1928492910190615791565b5060208201516001820155604090910151600290910155505050505050565b6000546001600160a01b0316331461292c57604051600160e51b62461bcd028152600401808060200182810382526021815260200180615b466021913960400191505060405180910390fd5b61293783838361492e565b505050565b60008060008060008060008060008061295361580f565b60088c8154811061296057fe5b9060005260206000209060060201604051806101a001604052908160008201548152602001600182018054600181600116156101000203166002900480601f016020809104026020016040519081016040528092919081815260200182805460018160011615610100020316600290048015612a1d5780601f106129f257610100808354040283529160200191612a1d565b820191906000526020600020905b815481529060010190602001808311612a0057829003601f168201915b505050918352505060028281015463ffffffff808216602080860191909152600160201b83048216604080870191909152600160401b84049092166060860152600160601b9092046001600160a01b0316608085015260038501805482516101006001831615026000190190911694909404601f810184900484028501840190925281845260a09094019391830182828015612afa5780601f10612acf57610100808354040283529160200191612afa565b820191906000526020600020905b815481529060010190602001808311612add57829003601f168201915b505050918352505060048201805460408051602060026001851615610100026000190190941693909304601f8101849004840282018401909252818152938201939291830182828015612b8e5780601f10612b6357610100808354040283529160200191612b8e565b820191906000526020600020905b815481529060010190602001808311612b7157829003601f168201915b50505091835250506005919091015463ffffffff8082166020840152600160201b820461ffff908116604080860191909152600160301b84048216606080870191909152600160401b85046001600160a01b03166080870152600160e01b90940460ff1660a09095019490945261014085015161012086015186519587015161016088015195880151979850818301909316969094919316612c2e61494e565b10876080015163ffffffff16612c4261494e565b10158715612c65578789610120015160640261ffff1681612c5f57fe5b04612c68565b60005b8815612c8957888a610140015160640261ffff1681612c8357fe5b04612c8c565b60005b8915612cb8578a610180015160ff168a8c610120015160640261ffff1681612cb057fe5b041015612cbb565b60005b9b509b509b509b509b509b509b509b509b509b5050509193959799509193959799565b612ce66146fa565b612d285760408051600160e51b62461bcd02815260206004820152601f6024820152600080516020615b91833981519152604482015290519081900360640190fd5b612d313361470a565b612d6f57604051600160e51b62461bcd02815260040180806020018281038252602a815260200180615b67602a913960400191505060405180910390fd5b612d7761587d565b6000828152600e60209081526040918290208251815460026001821615610100026000190190911604601f8101849004909302810160a090810190945260808101838152909391928492849190840182828015612e155780601f10612dea57610100808354040283529160200191612e15565b820191906000526020600020905b815481529060010190602001808311612df857829003601f168201915b5050509183525050600182015460209091019060ff166007811115612e3657fe5b6007811115612e4157fe5b81526001820154610100900460ff166020820152600290910154604090910152805151909150612eb25760408051600160e51b62461bcd02815260206004820152601160248201526001607a1b701c1c9bdc1cd85b081b9bdd08199bdd5b9902604482015290519081900360640190fd5b606081015115612efa5760408051600160e51b62461bcd02815260206004820152601c6024820152600080516020615bff833981519152604482015290519081900360640190fd5b612f058260056147fc565b15612f4957600581602001516007811115612f1c57fe5b1415612f3757612f32816040015160ff16614ca9565b612f49565b612f4981602001518260400151614cae565b612f5161494e565b6000928352600d60205260409092206002019190915550565b612f726146fa565b612fb45760408051600160e51b62461bcd02815260206004820152601f6024820152600080516020615b91833981519152604482015290519081900360640190fd5b612fbd3361470a565b612ffb57604051600160e51b62461bcd02815260040180806020018281038252602a815260200180615b67602a913960400191505060405180910390fd5b6130036158a6565b6000828152600c60209081526040918290208251815460026001821615610100026000190190911604601f810184900490930281016060908101855293810183815290939192849284919084018282801561309f5780601f106130745761010080835404028352916020019161309f565b820191906000526020600020905b81548152906001019060200180831161308257829003601f168201915b5050505050815260200160018201548152505090506000816000015151116131085760408051600160e51b62461bcd02815260206004820152601160248201526001607a1b701c1c9bdc1cd85b081b9bdd08199bdd5b9902604482015290519081900360640190fd5b6020810151156131505760408051600160e51b62461bcd02815260206004820152601c6024820152600080516020615bff833981519152604482015290519081900360640190fd5b61315b8260026147fc565b1561316b57805161316b90614de6565b61317361494e565b6000928352600c60205260409092206001019190915550565b6131946146fa565b6131d65760408051600160e51b62461bcd02815260206004820152601f6024820152600080516020615b91833981519152604482015290519081900360640190fd5b6131df3361470a565b61321d57604051600160e51b62461bcd02815260040180806020018281038252602a815260200180615b67602a913960400191505060405180910390fd5b600081600781111561322b57fe5b14806132425750600181600781111561324057fe5b145b61328e5760408051600160e51b62461bcd0281526020600482015260126024820152600160701b7163686f6f73652076616c696465207479706502604482015290519081900360640190fd5b60008851116132e75760408051600160e51b62461bcd02815260206004820152601660248201527f73656c656374206e616d6520666f7220616e63686f7200000000000000000000604482015290519081900360640190fd5b600f80546001019081905560009061338c908284600781111561330657fe5b14613346576040518060400160405280600d81526020017f75706461746520616e63686f720000000000000000000000000000000000000081525061336d565b6040518060400160405280600a8152602001600160b11b6930b2321030b731b437b9028152505b84600781111561337957fe5b600a548a908a908a908a9060ff16614952565b604080516080810182528b815260208082018c90528183018b9052600060608301819052848152600b82529290922081518051949550919390926133d4928492910190615791565b5060208281015180516133ed9260018501920190615791565b50604082015180516134099160028401916020909101906158c0565b5060608201518160030155905050505050505050505050565b60025481565b6004818154811061343557fe5b6000918252602090912001546001600160a01b0316905081565b600b6020908152600091825260409182902080548351601f600260001961010060018616150201909316929092049182018490048402810184019094528084529092918391908301828280156134e65780601f106134bb576101008083540402835291602001916134e6565b820191906000526020600020905b8154815290600101906020018083116134c957829003601f168201915b505050505090806001018054600181600116156101000203166002900480601f0160208091040260200160405190810160405280929190818152602001828054600181600116156101000203166002900480156135845780601f1061355957610100808354040283529160200191613584565b820191906000526020600020905b81548152906001019060200180831161356757829003601f168201915b5050505050908060030154905083565b600f5481565b600a54600160201b900460ff1681565b60036020526000908152604090205481565b6000546001600160a01b0316331461360857604051600160e51b62461bcd028152600401808060200182810382526021815260200180615b466021913960400191505060405180910390fd5b600080546040516001600160a01b03909116917ff8df31144d9c2f0f6b59d69b8b98abd5459d07f2742c4df920b25aae33c6482091a2600080546001600160a01b0319169055565b600e6020908152600091825260409182902080548351601f600260001961010060018616150201909316929092049182018490048402810184019094528084529092918391908301828280156136e75780601f106136bc576101008083540402835291602001916136e7565b820191906000526020600020905b8154815290600101906020018083116136ca57829003601f168201915b505050506001830154600290930154919260ff8082169361010090920416915084565b6000546001600160a01b031681565b6000818152600b602090815260409182902060020180548351818402810184019094528084526060939283018282801561377c57602002820191906000526020600020905b81546001600160a01b0316815260019091019060200180831161375e575b505050505090505b919050565b60085490565b6137976146fa565b6137d95760408051600160e51b62461bcd02815260206004820152601f6024820152600080516020615b91833981519152604482015290519081900360640190fd5b6137e23361470a565b61382057604051600160e51b62461bcd02815260040180806020018281038252602a815260200180615b67602a913960400191505060405180910390fd5b61382861580f565b6008848154811061383557fe5b9060005260206000209060060201604051806101a001604052908160008201548152602001600182018054600181600116156101000203166002900480601f0160208091040260200160405190810160405280929190818152602001828054600181600116156101000203166002900480156138f25780601f106138c7576101008083540402835291602001916138f2565b820191906000526020600020905b8154815290600101906020018083116138d557829003601f168201915b505050918352505060028281015463ffffffff808216602080860191909152600160201b83048216604080870191909152600160401b84049092166060860152600160601b9092046001600160a01b0316608085015260038501805482516101006001831615026000190190911694909404601f810184900484028501840190925281845260a090940193918301828280156139cf5780601f106139a4576101008083540402835291602001916139cf565b820191906000526020600020905b8154815290600101906020018083116139b257829003601f168201915b505050918352505060048201805460408051602060026001851615610100026000190190941693909304601f8101849004840282018401909252818152938201939291830182828015613a635780601f10613a3857610100808354040283529160200191613a63565b820191906000526020600020905b815481529060010190602001808311613a4657829003601f168201915b50505091835250506005919091015463ffffffff81166020830152600160201b810461ffff9081166040840152600160301b8204166060830152600160401b81046001600160a01b039081166080840152600160e01b90910460ff1660a0928301529082015191925016613b215760408051600160e51b62461bcd02815260206004820152601260248201527f70726f706f73616c206e6f7420666f756e640000000000000000000000000000604482015290519081900360640190fd5b613b2961494e565b816060015163ffffffff1610613b895760408051600160e51b62461bcd02815260206004820152601560248201527f766f74696e67206973206e6f7420737461727465640000000000000000000000604482015290519081900360640190fd5b613b9161494e565b816080015163ffffffff1611613bf15760408051600160e51b62461bcd02815260206004820152601360248201527f766f74696e67207761732066696e697368656400000000000000000000000000604482015290519081900360640190fd5b6000848152600960209081526040808320338452909152812054810b900b15613c645760408051600160e51b62461bcd02815260206004820152601a60248201527f796f757220766f74652072656769737465726564206c61746572000000000000604482015290519081900360640190fd5b8260000b60001415613caa57604051600160e51b62461bcd02815260040180806020018281038252602a815260200180615abd602a913960400191505060405180910390fd5b60008360000b1315613d5e5760408051808201825260018082526020808301868152600089815260098352858120338252835294852084518154960b60ff1660ff19909616959095178555518051939493613d0c938501929190910190615791565b50905050600160088581548110613d1f57fe5b60009182526020909120600560069092020101805461ffff600160201b80830482169094011690920265ffff0000000019909216919091179055613e03565b60408051808201825260001981526020808201858152600088815260098352848120338252835293842083518154950b60ff1660ff19909516949094178455518051929392613db39260018501920190615791565b50905050600160088581548110613dc657fe5b60009182526020909120600560069092020101805461ffff600160301b80830482169094011690920267ffff000000000000199092169190911790555b50505050565b60076020528160005260406000208181548110613e2257fe5b6000918252602090912001546001600160a01b03169150829050565b600a5465010000000000900460ff1681565b613e586146fa565b613e9a5760408051600160e51b62461bcd02815260206004820152601f6024820152600080516020615b91833981519152604482015290519081900360640190fd5b613ea33361470a565b613ee157604051600160e51b62461bcd02815260040180806020018281038252602a815260200180615b67602a913960400191505060405180910390fd5b613ee9615921565b6000828152600d60209081526040918290208251815460026001821615610100026000190190911604601f81018490049093028101608090810190945260608101838152909391928492849190840182828015613f875780601f10613f5c57610100808354040283529160200191613f87565b820191906000526020600020905b815481529060010190602001808311613f6a57829003601f168201915b50505050508152602001600182015481526020016002820154815250509050600081600001515111613ffa5760408051600160e51b62461bcd02815260206004820152601160248201526001607a1b701c1c9bdc1cd85b081b9bdd08199bdd5b9902604482015290519081900360640190fd5b6040810151156140425760408051600160e51b62461bcd02815260206004820152601c6024820152600080516020615bff833981519152604482015290519081900360640190fd5b61404d8260046147fc565b15612f4957612f4960048054806020026020016040519081016040528092919081815260200182805480156140ab57602002820191906000526020600020905b81546001600160a01b0316815260019091019060200180831161408d575b50505050506001614779565b600a54610100900460ff1681565b606060008060008060006060806000806140dd61580f565b60088c815481106140ea57fe5b9060005260206000209060060201604051806101a001604052908160008201548152602001600182018054600181600116156101000203166002900480601f0160208091040260200160405190810160405280929190818152602001828054600181600116156101000203166002900480156141a75780601f1061417c576101008083540402835291602001916141a7565b820191906000526020600020905b81548152906001019060200180831161418a57829003601f168201915b505050918352505060028281015463ffffffff808216602080860191909152600160201b83048216604080870191909152600160401b84049092166060860152600160601b9092046001600160a01b0316608085015260038501805482516101006001831615026000190190911694909404601f810184900484028501840190925281845260a090940193918301828280156142845780601f1061425957610100808354040283529160200191614284565b820191906000526020600020905b81548152906001019060200180831161426757829003601f168201915b505050918352505060048201805460408051602060026001851615610100026000190190941693909304601f81018490048402820184019092528181529382019392918301828280156143185780601f106142ed57610100808354040283529160200191614318565b820191906000526020600020905b8154815290600101906020018083116142fb57829003601f168201915b505050505081526020016005820160009054906101000a900463ffffffff1663ffffffff1663ffffffff1681526020016005820160049054906101000a900461ffff1661ffff1661ffff1681526020016005820160069054906101000a900461ffff1661ffff1661ffff1681526020016005820160089054906101000a90046001600160a01b03166001600160a01b03166001600160a01b0316815260200160058201601c9054906101000a900460ff1660ff1660ff1681525050905080602001518160400151826101000151836060015184608001518560a001518660c001518760e001518861016001518961018001518999508393508292509a509a509a509a509a509a509a509a509a509a50509193959799509193959799565b60015481565b60065490565b600a546301000000900460ff1681565b606060048054806020026020016040519081016040528092919081815260200182805480156144a957602002820191906000526020600020905b81546001600160a01b0316815260019091019060200180831161448b575b5050505050905090565b6144bb6146fa565b6144fd5760408051600160e51b62461bcd02815260206004820152601f6024820152600080516020615b91833981519152604482015290519081900360640190fd5b6145063361470a565b61454457604051600160e51b62461bcd02815260040180806020018281038252602a815260200180615b67602a913960400191505060405180910390fd5b600f80546001019081905560408051808201909152600d81527f6368616e676520636f6e6669670000000000000000000000000000000000000060208201526000916145a591600589898989600a60049054906101000a900460ff16614952565b6040805160c08101909152600d608082019081527f636f6e666967206368616e67650000000000000000000000000000000000000060a08301528152909150602081018360078111156145f457fe5b815260ff891660208083019190915260006040928301819052848152600e82529190912082518051919261462d92849290910190615791565b50602082015160018083018054909160ff199091169083600781111561464f57fe5b0217905550604082015160018201805460ff9092166101000261ff001990921691909117905560609091015160029091015550505050505050565b6000546001600160a01b031633146146d657604051600160e51b62461bcd028152600401808060200182810382526021815260200180615b466021913960400191505060405180910390fd5b6146df81614ea1565b50565b600a5462010000900460ff1681565b600a5460ff1681565b6000546001600160a01b03161590565b600080614771600480548060200260200160405190810160405280929190818152602001828054801561476657602002820191906000526020600020905b81546001600160a01b03168152600190910190602001808311614748575b505050505084614f5a565b121592915050565b6000600154118015614789575080155b156147e1576001546301e133800161479f61494e565b81106147df57604051600160e51b62461bcd028152600401808060200182810382526024815260200180615bdb6024913960400191505060405180910390fd5b505b6147ed82600254614fc6565b6147f561494e565b6001555050565b600080600080600061480d8761293c565b995050509750509650965050505085600781111561482757fe5b8463ffffffff16146148835760408051600160e51b62461bcd02815260206004820152600d60248201527f74797065206d69736d6174636800000000000000000000000000000000000000604482015290519081900360640190fd5b6001600160a01b03831630146148cd57604051600160e51b62461bcd028152600401808060200182810382526027815260200180615b1f6027913960400191505060405180910390fd5b816149225760408051600160e51b62461bcd02815260206004820152601b60248201527f7468652070726f7073616c206973206e6f742066696e69736865640000000000604482015290519081900360640190fd5b93505050505b92915050565b614939838383614ff7565b61293781600254614fc6565b61292c83614de6565b4290565b600061495c6146fa565b61499e5760408051600160e51b62461bcd02815260206004820152601f6024820152600080516020615b91833981519152604482015290519081900360640190fd5b6149a73361470a565b6149e557604051600160e51b62461bcd02815260040180806020018281038252602a815260200180615b67602a913960400191505060405180910390fd5b33600090815260036020526040902054600190811115614a4f5760408051600160e51b62461bcd02815260206004820152601960248201527f796f752068617665206e6f7420656e6f75676820746f6b656e00000000000000604482015290519081900360640190fd5b60016008604051806101a001604052808d81526020018c81526020018b63ffffffff1681526020018a63ffffffff1681526020018963ffffffff168152602001336001600160a01b03168152602001888152602001878152602001614ab261494e565b63ffffffff168152600060208083018290526040830182905230606084015260ff8916608090930192909252835460018181018087559583529183902084516006909202019081558383015180519193614b1193850192910190615791565b5060408201516002820180546060850151608086015160a08701516001600160a01b0316600160601b026bffffffffffffffffffffffff63ffffffff928316600160401b026bffffffff000000000000000019948416600160201b0267ffffffff00000000199490981663ffffffff1990961695909517929092169590951791909116919091171691909117905560c08201518051614bba916003840191602090910190615791565b5060e08201518051614bd6916004840191602090910190615791565b5061010082015160059190910180546101208401516101408501516101608601516101809096015163ffffffff1990931663ffffffff9095169490941765ffff000000001916600160201b61ffff928316021767ffff0000000000001916600160301b919094160292909217600160401b600160e01b031916600160401b6001600160a01b039094169390930292909217600160e01b60ff021916600160e01b60ff9092169190910217905533600090815260036020526040902080549390930390925590039998505050505050505050565b600255565b6000826007811115614cbc57fe5b1415614cd257600a805460ff191660ff83161790555b6001826007811115614ce057fe5b1415614cfb57600a805461ff00191661010060ff8416021790555b6002826007811115614d0957fe5b1415614d2657600a805462ff000019166201000060ff8416021790555b6003826007811115614d3457fe5b1415614d5357600a805463ff0000001916630100000060ff8416021790555b6004826007811115614d6157fe5b1415614d8157600a805464ff000000001916600160201b60ff8416021790555b6006826007811115614d8f57fe5b1415614db257600a805465ff000000000019166501000000000060ff8416021790555b6007826007811115614dc057fe5b1415614de257600a805466ff0000000000001916600160301b60ff8416021790555b5050565b6000614df182615192565b9050600081815260076020908152604091829020805483518184028101840190945280845260609392830182828015614e5357602002820191906000526020600020905b81546001600160a01b03168152600190910190602001808311614e35575b50939450600093505050505b8151811015614e8d57614e8583838381518110614e7857fe5b6020026020010151615224565b600101614e5f565b506129376006614e9c8461524f565b6152b6565b6001600160a01b038116614eff5760408051600160e51b62461bcd02815260206004820152601b60248201527f6f776e6572206d7573742062652076616c696420616464726573730000000000604482015290519081900360640190fd5b600080546040516001600160a01b03808516939216917f8be0079c531659141344cd1fd0a4f28419497f9722a3daafe3b4186f6b6457e091a3600080546001600160a01b0319166001600160a01b0392909216919091179055565b60006001600160a01b038216614f735750600019614928565b60005b8351811015614fbb57826001600160a01b0316848281518110614f9557fe5b60200260200101516001600160a01b03161415614fb3579050614928565b600101614f76565b506000199392505050565b60005b825181101561293757614fef838281518110614fe157fe5b6020026020010151836153fe565b600101614fc9565b600061500284615192565b905061500d8161541a565b156150625760408051600160e51b62461bcd02815260206004820152601060248201527f64756270696361746520616e63686f7200000000000000000000000000000000604482015290519081900360640190fd5b600554825111156150a757604051600160e51b62461bcd02815260040180806020018281038252602a815260200180615bb1602a913960400191505060405180910390fd5b6040805160608101825282815260208082018781529282018690526006805460018101808355600092909252835160039091027ff652222313e28459528d920b65115c16c04f3efc82aaedc97be59f3f377c0d3f81019182559451805192959193615139937ff652222313e28459528d920b65115c16c04f3efc82aaedc97be59f3f377c0d4090930192910190615791565b5060408201518051615155916002840191602090910190615791565b506000925050505b825181101561518b576151838284838151811061517657fe5b6020026020010151615426565b60010161515d565b5050505050565b6000816040516020018080602001828103825283818151815260200191508051906020019080838360005b838110156151d55781810151838201526020016151bd565b50505050905090810190601f1680156152025780820380516001836020036101000a031916815260200191505b5092505050604051602081830303815290604052805190602001209050919050565b61522d8261524f565b5060008281526007602052604090206152469082615466565b614de281615530565b60008061525b8361553b565b905060008112156149285760408051600160e51b62461bcd02815260206004820152601060248201527f616e63686f72206e6f7420657869737400000000000000000000000000000000604482015290519081900360640190fd5b815461530c5760408051600160e51b62461bcd02815260206004820152601660248201527f6164647265737320617272617920697320656d70747900000000000000000000604482015290519081900360640190fd5b81546000190181146153ac5781548290600019810190811061532a57fe5b906000526020600020906003020182828154811061534457fe5b90600052602060002090600302016000820154816000015560018201816001019080546001816001161561010002031660029004615383929190615942565b50600282810180546153a8928481019291600019610100600183161502011604615942565b5050505b8154829060001981019081106153be57fe5b600091825260208220600390910201818155906153de60018301826159b7565b6153ec6002830160006159b7565b505081546129378360001983016159fb565b6001600160a01b03909116600090815260036020526040902055565b6000806147718361553b565b60008281526007602090815260408220805460018101825590835291200180546001600160a01b0319166001600160a01b038316179055614de2816155b1565b60006154cb838054806020026020016040519081016040528092919081815260200182805480156154c057602002820191906000526020600020905b81546001600160a01b031681526001909101906020018083116154a2575b505050505083614f5a565b905060008112156155265760408051600160e51b62461bcd02815260206004820152601160248201527f61646472657373206e6f7420666f756e64000000000000000000000000000000604482015290519081900360640190fd5b6129378382615661565b6146df600482615466565b600061555560405180602001604052806000815250615192565b8214156155655750600019613784565b60005b6006548110156155a757826006828154811061558057fe5b906000526020600020906003020160000154141561559f579050613784565b600101615568565b5060001992915050565b6155ba8161470a565b1561560f5760408051600160e51b62461bcd02815260206004820152601060248201527f647562706963617465206d656d62657200000000000000000000000000000000604482015290519081900360640190fd5b600480546001810182556000919091527f8a35acfbc15ff81a39ae7d344fd709f28e8600b4aa8c65c6b64bfe7fe36bd19b0180546001600160a01b0319166001600160a01b0392909216919091179055565b81546156b75760408051600160e51b62461bcd02815260206004820152601660248201527f6164647265737320617272617920697320656d70747900000000000000000000604482015290519081900360640190fd5b815460001901811461572e578154829060001981019081106156d557fe5b9060005260206000200160009054906101000a90046001600160a01b03168282815481106156ff57fe5b9060005260206000200160006101000a8154816001600160a01b0302191690836001600160a01b031602179055505b81548290600019810190811061574057fe5b600091825260209091200180546001600160a01b03191690558154612937836000198301615a27565b6040518060800160405280606081526020016060815260200160608152602001600081525090565b828054600181600116156101000203166002900490600052602060002090601f016020900481019282601f106157d257805160ff19168380011785556157ff565b828001600101855582156157ff579182015b828111156157ff5782518255916020019190600101906157e4565b5061580b929150615a47565b5090565b604080516101a08101825260008082526060602083018190529282018190528282018190526080820181905260a0820181905260c0820183905260e0820192909252610100810182905261012081018290526101408101829052610160810182905261018081019190915290565b604080516080810190915260608152602081016000815260006020820181905260409091015290565b604051806040016040528060608152602001600081525090565b828054828255906000526020600020908101928215615915579160200282015b8281111561591557825182546001600160a01b0319166001600160a01b039091161782556020909201916001909101906158e0565b5061580b929150615a61565b60405180606001604052806060815260200160008152602001600081525090565b828054600181600116156101000203166002900490600052602060002090601f016020900481019282601f1061597b57805485556157ff565b828001600101855582156157ff57600052602060002091601f016020900482015b828111156157ff57825482559160010191906001019061599c565b50805460018160011615610100020316600290046000825580601f106159dd57506146df565b601f0160209004906000526020600020908101906146df9190615a47565b815481835581811115612937576003028160030283600052602060002091820191016129379190615a85565b815481835581811115612937576000838152602090206129379181019083015b611d4991905b8082111561580b5760008155600101615a4d565b611d4991905b8082111561580b5780546001600160a01b0319168155600101615a67565b611d4991905b8082111561580b576000808255615aa560018301826159b7565b615ab36002830160006159b7565b50600301615a8b56fe796f75206d75737420736574207570206f7220646f776e20776974682031206f72202d312076616c75657573696e6720696e7465726e616c20636f6e747261637420666f722065787465726e616c2070726f706f73616c20697320696e76616c69647468652070726f7073616c206973206e6f7420616e20696e7465726e616c2070726f706f73616c6f6e6c79206f776e65722063616e2063616c6c20746869732066756e6374696f6e6f6e6c792076616c6964206d656d626572732063616e20646f2074686973207472616e73616374696f6e7468697320636f6e747261637420697320696e20636f6e666967206d6f6465006d656d6265727320617265206d6f7265207468616e2076616c6964206d656d656265727320636f756e74796f75206d7573742072656e657720746f6b656e73206166746572206f6e6520796561727468652070726f706f73616c206578656375746564206265666f726500000000a165627a7a723058206a0082c91870534a2db59c6f7b81fb40f6920527820f78d4fa22561b79a4d7ab0029",
  "source": "pragma solidity >=0.4.21 <0.6.0;\n\nimport \"./Voting.sol\";\nimport \"./Config.sol\";\n\ncontract KuknosDAO is Voting, Config {\n\n    enum ProposalTypes { AddAnchor, UpdateAnchor, RemoveAnchor, ChangeAnchorMember, RenewAccessToken, ChangeConfig, Public, kuknos }\n\n    struct AddAnchorProposal {\n        string name;\n        string url;\n        address[] members;\n        uint executionTime;\n    }\n\n    struct RemoveAnchorProposal {\n        string name;\n        uint executionTime;\n    }\n\n    struct RenewAccessTockenProposal {\n        string name;\n        uint count;\n        uint executionTime;\n    }\n\n    struct ChangeConfigProposal {\n        string name;\n        ChangeConfigType configType;\n        uint8 value;\n        uint executionTime;\n    }\n\n    mapping ( uint => AddAnchorProposal ) public addOrUpdateAnchorProposals;\n\n    mapping ( uint => RemoveAnchorProposal ) public removeAnchorProposal;\n\n    mapping ( uint => RenewAccessTockenProposal ) public renewAccessTockenProposal;\n\n    mapping ( uint => ChangeConfigProposal ) public changeConfigProposal;\n\n    uint public internalProposalsCount = 0;\n\n    constructor(uint _voterTokensCount) public Voting(_voterTokensCount) {\n    }\n\n    function getAddOrUpdateAnchorProposalMembers(uint _id) public view returns (address[] memory members) {\n        return addOrUpdateAnchorProposals[_id].members;\n    }\n\n    function addNewAnchor(string memory _name, string memory _url, address[] memory _members) public onlyOwner {\n        addAnchorWithToken(_name, _url, _members);\n    }\n\n    function addAnchorWithToken(string memory _name, string memory _url, address[] memory _members) internal {\n        addAnchor(_name, _url, _members);\n        issueAccessToken(_members, accessTokensCount);\n    }\n\n    function contractIsActive() public view returns(bool) {\n        return contractHasNoOwener();\n    }\n\n    function updateAnchorWithToken(string memory _name, string memory _url, address[] memory _members) internal {\n        deleteAnchor(_name);\n        addAnchorWithToken(_name, _url, _members);\n    }\n\n\n\n    function checkProposalResult(uint _id, ProposalTypes pType) internal view returns(bool) {\n        (,,,uint32 proposalType, address contractAddress,, bool isFinished,,,bool successful) = getProposalStatus(_id);\n        require(proposalType == uint(pType), \"type mismatch\");\n        require(contractAddress == address(this), \"the propsal is not an internal proposal\");\n        require(isFinished,\"the propsal is not finished\");\n        return successful;\n    }\n\n    // Add new Anchor Proposal\n    function registerAddOrUpdateAnchorProposal(\n      string memory _anchorName,\n      string memory _anchorUrl,\n      address[] memory _members,\n      uint32 _startDate,\n      uint32 _endDate,\n      string memory _url,\n      string memory _hashCode,\n      ProposalTypes _type\n      ) public onlyMembers {\n          require(_type == ProposalTypes.AddAnchor || _type == ProposalTypes.UpdateAnchor, \"choose valide type\");\n          require(bytes(_anchorName).length > 0, \"select name for anchor\");\n          internalProposalsCount++;\n          uint id = registerInternalProposal(\n              internalProposalsCount,\n              _type == ProposalTypes.AddAnchor ? \"add anchor\" : \"update anchor\",\n              uint32(_type),\n              _startDate,\n              _endDate,\n              _url,\n              _hashCode,\n              addAnchorThreshold);\n          addOrUpdateAnchorProposals[id] = AddAnchorProposal(_anchorName, _anchorUrl, _members, 0);\n    }\n\n    function runAddOrUpdateAnchorProposal(uint _id, ProposalTypes _type) public onlyMembers {\n        require(_type == ProposalTypes.AddAnchor || _type == ProposalTypes.UpdateAnchor, \"choose valide type\");\n        AddAnchorProposal memory proposal = addOrUpdateAnchorProposals[_id];\n        require(bytes(proposal.name).length > 0, \"propsal not found\");\n        require(proposal.executionTime == 0, \"the proposal executed before\");\n        if (checkProposalResult(_id, ProposalTypes(_type))) {\n            if(_type == ProposalTypes.AddAnchor){\n                addAnchorWithToken(proposal.name, proposal.url, proposal.members);\n            }else{\n                updateAnchorWithToken(proposal.name, proposal.url, proposal.members);\n            }\n        }\n        addOrUpdateAnchorProposals[_id].executionTime = getTime();\n    }\n\n    // Remove an anchor proposal\n    function registerRemoveAnchorProposal(\n      string memory _anchorName,\n      uint32 _startDate,\n      uint32 _endDate,\n      string memory _url,\n      string memory _hashCode\n      ) public onlyMembers {\n          require(bytes(_anchorName).length > 0, \"select name for anchor\");\n          internalProposalsCount++;\n          uint id = registerInternalProposal(\n              internalProposalsCount,\n              \"remove anchor\",\n              uint32(ProposalTypes.RemoveAnchor),\n              _startDate,\n              _endDate,\n              _url,\n              _hashCode,\n              removeAnchorThreshold);\n          removeAnchorProposal[id] = RemoveAnchorProposal(_anchorName, 0);\n    }\n\n    function runRemoveAnchorProposal(uint _id) public onlyMembers {\n        RemoveAnchorProposal memory proposal = removeAnchorProposal[_id];\n        require(bytes(proposal.name).length > 0, \"propsal not found\");\n        require(proposal.executionTime == 0, \"the proposal executed before\");\n        if (checkProposalResult(_id, ProposalTypes.RemoveAnchor)) {\n            deleteAnchor(proposal.name);\n        }\n        removeAnchorProposal[_id].executionTime = getTime();\n    }\n\n    // set AccessToken proposal\n    function registerSetAccessTokenProposal(\n      uint count,\n      uint32 _startDate,\n      uint32 _endDate,\n      string memory _url,\n      string memory _hashCode\n      ) public onlyMembers {\n          internalProposalsCount++;\n          uint id = registerInternalProposal(\n              internalProposalsCount,\n              \"set access tocken\",\n              uint32(ProposalTypes.RenewAccessToken),\n              _startDate,\n              _endDate,\n              _url,\n              _hashCode,\n              renewAccessTokenThreshold);\n          renewAccessTockenProposal[id] = RenewAccessTockenProposal(\"set access tocken\", count, 0);\n    }\n\n    function runSetAccessTockenProposal(uint _id) public onlyMembers {\n        RenewAccessTockenProposal memory proposal = renewAccessTockenProposal[_id];\n        require(bytes(proposal.name).length > 0, \"propsal not found\");\n        require(proposal.executionTime == 0, \"the proposal executed before\");\n        if (checkProposalResult(_id, ProposalTypes.RenewAccessToken)) {\n            renewToken(members, true);\n        }\n        renewAccessTockenProposal[_id].executionTime = getTime();\n    }\n\n    // set AccessToken proposal\n    function addChangeConfigProposal(\n      uint8 newValue,\n      uint32 _startDate,\n      uint32 _endDate,\n      string memory _url,\n      string memory _hashCode,\n      ChangeConfigType _configType\n      ) public onlyMembers {\n          internalProposalsCount++;\n          uint id = registerInternalProposal(\n              internalProposalsCount,\n              \"change config\",\n              uint32(ProposalTypes.ChangeConfig),\n              _startDate,\n              _endDate,\n              _url,\n              _hashCode,\n              changeConfigThreshold);\n          changeConfigProposal[id] = ChangeConfigProposal(\"config change\",_configType, newValue, 0);\n    }\n\n    function runChangeConfigProposal(uint _id) public onlyMembers {\n        ChangeConfigProposal memory proposal = changeConfigProposal[_id];\n        require(bytes(proposal.name).length > 0, \"propsal not found\");\n        require(proposal.executionTime == 0, \"the proposal executed before\");\n        if (checkProposalResult(_id, ProposalTypes.ChangeConfig)) {\n            if(proposal.configType == ChangeConfigType.AccessTokensCount){\n                setAccessTokensCount(proposal.value);\n            }else{\n                setConfig(proposal.configType, proposal.value);\n            }\n        }\n        renewAccessTockenProposal[_id].executionTime = getTime();\n    }\n\n    function addCustomProposal(\n      string memory _title,\n      ProposalTypes _type,\n      uint32 _startDate,\n      uint32 _endDate,\n      string memory _url,\n      string memory _hashCode\n      ) public onlyMembers {\n          require(_type == ProposalTypes.Public || _type == ProposalTypes.kuknos, \"choose valide type\");\n          internalProposalsCount++;\n          registerInternalProposal(\n              internalProposalsCount,\n              _title,\n              uint32(_type),\n              _startDate,\n              _endDate,\n              _url,\n              _hashCode,\n              _type == ProposalTypes.Public ? publicThreshold : kuknosThreshold\n              );\n    }\n\n}",
  "sourcePath": "C:/Users/javad/projects/kuknus/kuknos-dao/contracts/KuknosDAO.sol",
  "compiler": {
    "name": "solc",
    "version": "0.5.8+commit.23d335f2.Emscripten.clang"
  },
  "schemaVersion": "3.0.11",
  "updatedAt": "2019-06-30T13:24:37.544Z",
  "devdoc": {
    "methods": {
      "renounceOwnership()": {
        "details": "Allows the current owner to relinquish control of the contract."
      },
      "transferOwnership(address)": {
        "details": "Allows the current owner to transfer control of the contract to a newOwner.",
        "params": {
          "_newOwner": "The address to transfer ownership to."
        }
      }
    }
  },
  "userdoc": {
    "methods": {
      "renounceOwnership()": {
        "notice": "Renouncing to ownership will leave the contract without an owner. It will not be possible to call the functions with the `onlyOwner` modifier anymore."
      }
    }
  }
}