{
  "contractName": "KuknosDAO",
  "abi": [
    {
      "constant": false,
      "inputs": [],
      "name": "renewYearTokens",
      "outputs": [],
      "payable": false,
      "stateMutability": "nonpayable",
      "type": "function"
    },
    {
      "constant": true,
      "inputs": [
        {
          "name": "",
          "type": "uint256"
        }
      ],
      "name": "removeAnchorProposal",
      "outputs": [
        {
          "name": "name",
          "type": "string"
        },
        {
          "name": "executionTime",
          "type": "uint256"
        }
      ],
      "payable": false,
      "stateMutability": "view",
      "type": "function"
    },
    {
      "constant": true,
      "inputs": [
        {
          "name": "",
          "type": "uint256"
        }
      ],
      "name": "renewAccessTockenProposal",
      "outputs": [
        {
          "name": "name",
          "type": "string"
        },
        {
          "name": "count",
          "type": "uint256"
        },
        {
          "name": "executionTime",
          "type": "uint256"
        }
      ],
      "payable": false,
      "stateMutability": "view",
      "type": "function"
    },
    {
      "constant": true,
      "inputs": [],
      "name": "membersCount",
      "outputs": [
        {
          "name": "",
          "type": "uint256"
        }
      ],
      "payable": false,
      "stateMutability": "view",
      "type": "function"
    },
    {
      "constant": false,
      "inputs": [
        {
          "name": "id",
          "type": "uint256"
        },
        {
          "name": "title",
          "type": "string"
        },
        {
          "name": "proposalType",
          "type": "uint32"
        },
        {
          "name": "startDate",
          "type": "uint32"
        },
        {
          "name": "endDate",
          "type": "uint32"
        },
        {
          "name": "url",
          "type": "string"
        },
        {
          "name": "hashCode",
          "type": "string"
        },
        {
          "name": "contractAddress",
          "type": "address"
        },
        {
          "name": "threshold",
          "type": "uint8"
        }
      ],
      "name": "registerProposal",
      "outputs": [],
      "payable": false,
      "stateMutability": "nonpayable",
      "type": "function"
    },
    {
      "constant": true,
      "inputs": [
        {
          "name": "",
          "type": "uint256"
        },
        {
          "name": "",
          "type": "address"
        }
      ],
      "name": "votesReceived",
      "outputs": [
        {
          "name": "",
          "type": "int8"
        }
      ],
      "payable": false,
      "stateMutability": "view",
      "type": "function"
    },
    {
      "constant": true,
      "inputs": [
        {
          "name": "",
          "type": "uint256"
        }
      ],
      "name": "anchors",
      "outputs": [
        {
          "name": "nameHash",
          "type": "bytes32"
        },
        {
          "name": "name",
          "type": "string"
        },
        {
          "name": "url",
          "type": "string"
        }
      ],
      "payable": false,
      "stateMutability": "view",
      "type": "function"
    },
    {
      "constant": true,
      "inputs": [
        {
          "name": "index",
          "type": "uint256"
        }
      ],
      "name": "getProposalStatus",
      "outputs": [
        {
          "name": "id",
          "type": "uint256"
        },
        {
          "name": "up",
          "type": "uint16"
        },
        {
          "name": "down",
          "type": "uint16"
        },
        {
          "name": "proposalType",
          "type": "uint32"
        },
        {
          "name": "contractAddress",
          "type": "address"
        },
        {
          "name": "isNotStarted",
          "type": "bool"
        },
        {
          "name": "isExpired",
          "type": "bool"
        },
        {
          "name": "upPercentage",
          "type": "uint16"
        },
        {
          "name": "downPercentage",
          "type": "uint16"
        },
        {
          "name": "isSucceed",
          "type": "bool"
        }
      ],
      "payable": false,
      "stateMutability": "view",
      "type": "function"
    },
    {
      "constant": true,
      "inputs": [],
      "name": "accessTokensCount",
      "outputs": [
        {
          "name": "",
          "type": "uint256"
        }
      ],
      "payable": false,
      "stateMutability": "view",
      "type": "function"
    },
    {
      "constant": false,
      "inputs": [
        {
          "name": "_proposalIndex",
          "type": "uint256"
        },
        {
          "name": "_vote",
          "type": "int8"
        }
      ],
      "name": "voteForProposal",
      "outputs": [],
      "payable": false,
      "stateMutability": "nonpayable",
      "type": "function"
    },
    {
      "constant": true,
      "inputs": [
        {
          "name": "",
          "type": "uint256"
        }
      ],
      "name": "members",
      "outputs": [
        {
          "name": "",
          "type": "address"
        }
      ],
      "payable": false,
      "stateMutability": "view",
      "type": "function"
    },
    {
      "constant": true,
      "inputs": [],
      "name": "internalProposalsCount",
      "outputs": [
        {
          "name": "",
          "type": "uint256"
        }
      ],
      "payable": false,
      "stateMutability": "view",
      "type": "function"
    },
    {
      "constant": true,
      "inputs": [],
      "name": "changeConfigThreshold",
      "outputs": [
        {
          "name": "",
          "type": "uint8"
        }
      ],
      "payable": false,
      "stateMutability": "view",
      "type": "function"
    },
    {
      "constant": true,
      "inputs": [
        {
          "name": "",
          "type": "address"
        }
      ],
      "name": "balanceOf",
      "outputs": [
        {
          "name": "",
          "type": "uint256"
        }
      ],
      "payable": false,
      "stateMutability": "view",
      "type": "function"
    },
    {
      "constant": false,
      "inputs": [],
      "name": "renounceOwnership",
      "outputs": [],
      "payable": false,
      "stateMutability": "nonpayable",
      "type": "function"
    },
    {
      "constant": true,
      "inputs": [
        {
          "name": "",
          "type": "uint256"
        }
      ],
      "name": "changeConfigProposal",
      "outputs": [
        {
          "name": "name",
          "type": "string"
        },
        {
          "name": "value",
          "type": "uint8"
        },
        {
          "name": "executionTime",
          "type": "uint256"
        }
      ],
      "payable": false,
      "stateMutability": "view",
      "type": "function"
    },
    {
      "constant": true,
      "inputs": [],
      "name": "owner",
      "outputs": [
        {
          "name": "",
          "type": "address"
        }
      ],
      "payable": false,
      "stateMutability": "view",
      "type": "function"
    },
    {
      "constant": true,
      "inputs": [],
      "name": "getProposalsCount",
      "outputs": [
        {
          "name": "",
          "type": "uint256"
        }
      ],
      "payable": false,
      "stateMutability": "view",
      "type": "function"
    },
    {
      "constant": true,
      "inputs": [
        {
          "name": "",
          "type": "uint256"
        }
      ],
      "name": "addAnchorProposals",
      "outputs": [
        {
          "name": "name",
          "type": "string"
        },
        {
          "name": "url",
          "type": "string"
        },
        {
          "name": "executionTime",
          "type": "uint256"
        }
      ],
      "payable": false,
      "stateMutability": "view",
      "type": "function"
    },
    {
      "constant": true,
      "inputs": [
        {
          "name": "",
          "type": "bytes32"
        },
        {
          "name": "",
          "type": "uint256"
        }
      ],
      "name": "anchorMembers",
      "outputs": [
        {
          "name": "",
          "type": "address"
        }
      ],
      "payable": false,
      "stateMutability": "view",
      "type": "function"
    },
    {
      "constant": true,
      "inputs": [],
      "name": "removeAnchorThreshold",
      "outputs": [
        {
          "name": "",
          "type": "uint8"
        }
      ],
      "payable": false,
      "stateMutability": "view",
      "type": "function"
    },
    {
      "constant": true,
      "inputs": [
        {
          "name": "index",
          "type": "uint256"
        }
      ],
      "name": "getProposal",
      "outputs": [
        {
          "name": "title",
          "type": "string"
        },
        {
          "name": "proposalType",
          "type": "uint32"
        },
        {
          "name": "registerDate",
          "type": "uint32"
        },
        {
          "name": "startDate",
          "type": "uint32"
        },
        {
          "name": "endDate",
          "type": "uint32"
        },
        {
          "name": "author",
          "type": "address"
        },
        {
          "name": "url",
          "type": "string"
        },
        {
          "name": "hashCode",
          "type": "string"
        },
        {
          "name": "contractAddress",
          "type": "address"
        },
        {
          "name": "threshold",
          "type": "uint8"
        }
      ],
      "payable": false,
      "stateMutability": "view",
      "type": "function"
    },
    {
      "constant": true,
      "inputs": [],
      "name": "lastTokenIssueDate",
      "outputs": [
        {
          "name": "",
          "type": "uint256"
        }
      ],
      "payable": false,
      "stateMutability": "view",
      "type": "function"
    },
    {
      "constant": true,
      "inputs": [],
      "name": "getAnchorsCount",
      "outputs": [
        {
          "name": "",
          "type": "uint256"
        }
      ],
      "payable": false,
      "stateMutability": "view",
      "type": "function"
    },
    {
      "constant": true,
      "inputs": [],
      "name": "changeAnchorMemberThreshold",
      "outputs": [
        {
          "name": "",
          "type": "uint8"
        }
      ],
      "payable": false,
      "stateMutability": "view",
      "type": "function"
    },
    {
      "constant": true,
      "inputs": [],
      "name": "membersList",
      "outputs": [
        {
          "name": "",
          "type": "address[]"
        }
      ],
      "payable": false,
      "stateMutability": "view",
      "type": "function"
    },
    {
      "constant": false,
      "inputs": [
        {
          "name": "_newOwner",
          "type": "address"
        }
      ],
      "name": "transferOwnership",
      "outputs": [],
      "payable": false,
      "stateMutability": "nonpayable",
      "type": "function"
    },
    {
      "constant": true,
      "inputs": [],
      "name": "renewAccessTokenThreshold",
      "outputs": [
        {
          "name": "",
          "type": "uint8"
        }
      ],
      "payable": false,
      "stateMutability": "view",
      "type": "function"
    },
    {
      "constant": true,
      "inputs": [],
      "name": "addAnchorThreshold",
      "outputs": [
        {
          "name": "",
          "type": "uint8"
        }
      ],
      "payable": false,
      "stateMutability": "view",
      "type": "function"
    },
    {
      "inputs": [
        {
          "name": "_voterTokensCount",
          "type": "uint256"
        }
      ],
      "payable": false,
      "stateMutability": "nonpayable",
      "type": "constructor"
    },
    {
      "anonymous": false,
      "inputs": [
        {
          "indexed": true,
          "name": "previousOwner",
          "type": "address"
        }
      ],
      "name": "OwnershipRenounced",
      "type": "event"
    },
    {
      "anonymous": false,
      "inputs": [
        {
          "indexed": true,
          "name": "previousOwner",
          "type": "address"
        },
        {
          "indexed": true,
          "name": "newOwner",
          "type": "address"
        }
      ],
      "name": "OwnershipTransferred",
      "type": "event"
    },
    {
      "constant": false,
      "inputs": [
        {
          "name": "_name",
          "type": "string"
        },
        {
          "name": "_url",
          "type": "string"
        },
        {
          "name": "_members",
          "type": "address[]"
        }
      ],
      "name": "addNewAnchor",
      "outputs": [],
      "payable": false,
      "stateMutability": "nonpayable",
      "type": "function"
    },
    {
      "constant": true,
      "inputs": [],
      "name": "contractIsActive",
      "outputs": [
        {
          "name": "",
          "type": "bool"
        }
      ],
      "payable": false,
      "stateMutability": "view",
      "type": "function"
    },
    {
      "constant": false,
      "inputs": [
        {
          "name": "_anchorName",
          "type": "string"
        },
        {
          "name": "_anchorUrl",
          "type": "string"
        },
        {
          "name": "_members",
          "type": "address[]"
        },
        {
          "name": "_startDate",
          "type": "uint32"
        },
        {
          "name": "_endDate",
          "type": "uint32"
        },
        {
          "name": "_url",
          "type": "string"
        },
        {
          "name": "_hashCode",
          "type": "string"
        }
      ],
      "name": "registerAddAnchorProposal",
      "outputs": [],
      "payable": false,
      "stateMutability": "nonpayable",
      "type": "function"
    },
    {
      "constant": false,
      "inputs": [
        {
          "name": "_id",
          "type": "uint256"
        }
      ],
      "name": "runAddAnchorProposal",
      "outputs": [],
      "payable": false,
      "stateMutability": "nonpayable",
      "type": "function"
    },
    {
      "constant": false,
      "inputs": [
        {
          "name": "_anchorName",
          "type": "string"
        },
        {
          "name": "_startDate",
          "type": "uint32"
        },
        {
          "name": "_endDate",
          "type": "uint32"
        },
        {
          "name": "_url",
          "type": "string"
        },
        {
          "name": "_hashCode",
          "type": "string"
        }
      ],
      "name": "registerRemoveAnchorProposal",
      "outputs": [],
      "payable": false,
      "stateMutability": "nonpayable",
      "type": "function"
    },
    {
      "constant": false,
      "inputs": [
        {
          "name": "_id",
          "type": "uint256"
        }
      ],
      "name": "runRemoveAnchorProposal",
      "outputs": [],
      "payable": false,
      "stateMutability": "nonpayable",
      "type": "function"
    },
    {
      "constant": false,
      "inputs": [
        {
          "name": "count",
          "type": "uint256"
        },
        {
          "name": "_startDate",
          "type": "uint32"
        },
        {
          "name": "_endDate",
          "type": "uint32"
        },
        {
          "name": "_url",
          "type": "string"
        },
        {
          "name": "_hashCode",
          "type": "string"
        }
      ],
      "name": "registerSetAccessTokenProposal",
      "outputs": [],
      "payable": false,
      "stateMutability": "nonpayable",
      "type": "function"
    },
    {
      "constant": false,
      "inputs": [
        {
          "name": "_id",
          "type": "uint256"
        }
      ],
      "name": "runSetAccessTockenProposal",
      "outputs": [],
      "payable": false,
      "stateMutability": "nonpayable",
      "type": "function"
    },
    {
      "constant": false,
      "inputs": [
        {
          "name": "newValue",
          "type": "uint8"
        },
        {
          "name": "_startDate",
          "type": "uint32"
        },
        {
          "name": "_endDate",
          "type": "uint32"
        },
        {
          "name": "_url",
          "type": "string"
        },
        {
          "name": "_hashCode",
          "type": "string"
        }
      ],
      "name": "addChangeConfigProposal",
      "outputs": [],
      "payable": false,
      "stateMutability": "nonpayable",
      "type": "function"
    },
    {
      "constant": false,
      "inputs": [
        {
          "name": "_id",
          "type": "uint256"
        }
      ],
      "name": "runChangeConfigProposal",
      "outputs": [],
      "payable": false,
      "stateMutability": "nonpayable",
      "type": "function"
    }
  ],
  "bytecode": "0x608060405260326002908155600555600a8054603360ff199091161761ff0019166150001762ff00001916623300001763ff000000191663330000001764ff0000000019166450000000001790556000600f553480156200005f57600080fd5b506040516020806200535a833981018060405260208110156200008157600080fd5b5051600080546001600160a01b031916331790558080620000a8620000b7602090811b901c565b60015560025550620000bb9050565b4290565b61528f80620000cb6000396000f3fe608060405234801561001057600080fd5b506004361061023c5760003560e01c806370a082311161013b578063bb60512f116100b8578063d4e18e681161007c578063d4e18e68146114cf578063dd5042f4146114d7578063f2fde38b1461152f578063fa01924914611555578063fc37a9e81461155d5761023c565b8063bb60512f146112ae578063c78b395f146112b6578063c7f758a8146112d3578063cededb30146114bf578063d4c8ca9b146114c75761023c565b80639a07772a116100ff5780639a07772a14610d995780639f016ab514610ee2578063a773693f14610fa3578063b35d1b0614610fc6578063b4a3802514610fe35761023c565b806370a0823114610cf0578063715018a614610d165780638a71f0d214610d1e5780638da5cb5b14610d8957806398e527d314610d915761023c565b80633b332197116101c957806355de8c7e1161018d57806355de8c7e14610c635780635ab09f5914610c6b5780635daf08ca14610c9157806365a059d214610cca5780636ee2e22514610cd25761023c565b80633b332197146108b15780633ec4cd72146109f7578063401853b714610ba25780634c21112214610c29578063511e9e6e14610c465761023c565b8063297f9af011610210578063297f9af0146103a65780632cb23604146103c057806330c3464c1461058457806333dd6bed1461076a578063368b733e146107af5761023c565b8062f18f56146102415780630d60ea191461024b5780631351e4ac1461026757806324353bb614610303575b600080fd5b610249611565565b005b61025361165d565b604080519115158252519081900360200190f35b6102846004803603602081101561027d57600080fd5b503561166d565b6040518080602001838152602001828103825284818151815260200191508051906020019080838360005b838110156102c75781810151838201526020016102af565b50505050905090810190601f1680156102f45780820380516001836020036101000a031916815260200191505b50935050505060405180910390f35b6103206004803603602081101561031957600080fd5b5035611714565b6040518080602001848152602001838152602001828103825285818151815260200191508051906020019080838360005b83811015610369578181015183820152602001610351565b50505050905090810190601f1680156103965780820380516001836020036101000a031916815260200191505b5094505050505060405180910390f35b6103ae6117c1565b60408051918252519081900360200190f35b610249600480360360a08110156103d657600080fd5b810190602081018135600160201b8111156103f057600080fd5b82018360208201111561040257600080fd5b803590602001918460018302840111600160201b8311171561042357600080fd5b91908080601f016020809104026020016040519081016040528093929190818152602001838380828437600092019190915250929563ffffffff8535811696602087013590911695919450925060608101915060400135600160201b81111561048b57600080fd5b82018360208201111561049d57600080fd5b803590602001918460018302840111600160201b831117156104be57600080fd5b91908080601f0160208091040260200160405190810160405280939291908181526020018383808284376000920191909152509295949360208101935035915050600160201b81111561051057600080fd5b82018360208201111561052257600080fd5b803590602001918460018302840111600160201b8311171561054357600080fd5b91908080601f0160208091040260200160405190810160405280939291908181526020018383808284376000920191909152509295506117c7945050505050565b610249600480360361012081101561059b57600080fd5b81359190810190604081016020820135600160201b8111156105bc57600080fd5b8201836020820111156105ce57600080fd5b803590602001918460018302840111600160201b831117156105ef57600080fd5b91908080601f016020809104026020016040519081016040528093929190818152602001838380828437600092019190915250929563ffffffff8535811696602087013582169660408101359092169550919350909150608081019060600135600160201b81111561066057600080fd5b82018360208201111561067257600080fd5b803590602001918460018302840111600160201b8311171561069357600080fd5b91908080601f0160208091040260200160405190810160405280939291908181526020018383808284376000920191909152509295949360208101935035915050600160201b8111156106e557600080fd5b8201836020820111156106f757600080fd5b803590602001918460018302840111600160201b8311171561071857600080fd5b91908080601f016020809104026020016040519081016040528093929190818152602001838380828437600092019190915250929550505081356001600160a01b03169250506020013560ff16611964565b6107966004803603604081101561078057600080fd5b50803590602001356001600160a01b0316611d07565b60408051600092830b90920b8252519081900360200190f35b6107cc600480360360208110156107c557600080fd5b5035611d26565b604051808481526020018060200180602001838103835285818151815260200191508051906020019080838360005b838110156108135781810151838201526020016107fb565b50505050905090810190601f1680156108405780820380516001836020036101000a031916815260200191505b50838103825284518152845160209182019186019080838360005b8381101561087357818101518382015260200161085b565b50505050905090810190601f1680156108a05780820380516001836020036101000a031916815260200191505b509550505050505060405180910390f35b610249600480360360a08110156108c757600080fd5b81359163ffffffff602082013581169260408301359091169190810190608081016060820135600160201b8111156108fe57600080fd5b82018360208201111561091057600080fd5b803590602001918460018302840111600160201b8311171561093157600080fd5b91908080601f0160208091040260200160405190810160405280939291908181526020018383808284376000920191909152509295949360208101935035915050600160201b81111561098357600080fd5b82018360208201111561099557600080fd5b803590602001918460018302840111600160201b831117156109b657600080fd5b91908080601f016020809104026020016040519081016040528093929190818152602001838380828437600092019190915250929550611e81945050505050565b61024960048036036060811015610a0d57600080fd5b810190602081018135600160201b811115610a2757600080fd5b820183602082011115610a3957600080fd5b803590602001918460018302840111600160201b83111715610a5a57600080fd5b91908080601f0160208091040260200160405190810160405280939291908181526020018383808284376000920191909152509295949360208101935035915050600160201b811115610aac57600080fd5b820183602082011115610abe57600080fd5b803590602001918460018302840111600160201b83111715610adf57600080fd5b91908080601f0160208091040260200160405190810160405280939291908181526020018383808284376000920191909152509295949360208101935035915050600160201b811115610b3157600080fd5b820183602082011115610b4357600080fd5b803590602001918460208302840111600160201b83111715610b6457600080fd5b919080806020026020016040519081016040528093929190818152602001838360200280828437600092019190915250929550611fef945050505050565b610bbf60048036036020811015610bb857600080fd5b503561204b565b604080519a8b5261ffff998a1660208c01529789168a89015263ffffffff90961660608a01526001600160a01b03909416608089015291151560a0880152151560c0870152841660e086015290921661010084015290151561012083015251908190036101400190f35b61024960048036036020811015610c3f57600080fd5b50356123c3565b61024960048036036020811015610c5c57600080fd5b503561264a565b6103ae61286c565b61024960048036036040811015610c8157600080fd5b508035906020013560000b612872565b610cae60048036036020811015610ca757600080fd5b5035612e84565b604080516001600160a01b039092168252519081900360200190f35b6103ae612eab565b610cda612eb1565b6040805160ff9092168252519081900360200190f35b6103ae60048036036020811015610d0657600080fd5b50356001600160a01b0316612ec1565b610249612ed3565b610d3b60048036036020811015610d3457600080fd5b5035612f67565b60405180806020018460ff1660ff1681526020018381526020018281038252858181518152602001915080519060200190808383600083811015610369578181015183820152602001610351565b610cae613018565b6103ae613027565b610249600480360360a0811015610daf57600080fd5b60ff8235169163ffffffff602082013581169260408301359091169190810190608081016060820135600160201b811115610de957600080fd5b820183602082011115610dfb57600080fd5b803590602001918460018302840111600160201b83111715610e1c57600080fd5b91908080601f0160208091040260200160405190810160405280939291908181526020018383808284376000920191909152509295949360208101935035915050600160201b811115610e6e57600080fd5b820183602082011115610e8057600080fd5b803590602001918460018302840111600160201b83111715610ea157600080fd5b91908080601f01602080910402602001604051908101604052809392919081815260200183838082843760009201919091525092955061302d945050505050565b610eff60048036036020811015610ef857600080fd5b50356131a8565b604051808060200180602001848152602001838103835286818151815260200191508051906020019080838360005b83811015610f46578181015183820152602001610f2e565b50505050905090810190601f168015610f735780820380516001836020036101000a031916815260200191505b5083810382528551815285516020918201918701908083836000831561087357818101518382015260200161085b565b610cae60048036036040811015610fb957600080fd5b50803590602001356132ed565b61024960048036036020811015610fdc57600080fd5b5035613322565b610249600480360360e0811015610ff957600080fd5b810190602081018135600160201b81111561101357600080fd5b82018360208201111561102557600080fd5b803590602001918460018302840111600160201b8311171561104657600080fd5b91908080601f0160208091040260200160405190810160405280939291908181526020018383808284376000920191909152509295949360208101935035915050600160201b81111561109857600080fd5b8201836020820111156110aa57600080fd5b803590602001918460018302840111600160201b831117156110cb57600080fd5b91908080601f0160208091040260200160405190810160405280939291908181526020018383808284376000920191909152509295949360208101935035915050600160201b81111561111d57600080fd5b82018360208201111561112f57600080fd5b803590602001918460208302840111600160201b8311171561115057600080fd5b919080806020026020016040519081016040528093929190818152602001838360200280828437600092019190915250929563ffffffff8535811696602087013590911695919450925060608101915060400135600160201b8111156111b557600080fd5b8201836020820111156111c757600080fd5b803590602001918460018302840111600160201b831117156111e857600080fd5b91908080601f0160208091040260200160405190810160405280939291908181526020018383808284376000920191909152509295949360208101935035915050600160201b81111561123a57600080fd5b82018360208201111561124c57600080fd5b803590602001918460018302840111600160201b8311171561126d57600080fd5b91908080601f01602080910402602001604051908101604052809392919081815260200183838082843760009201919091525092955061351f945050505050565b610cda6136e8565b610249600480360360208110156112cc57600080fd5b50356136f6565b6112f0600480360360208110156112e957600080fd5b5035613a2a565b60405180806020018b63ffffffff1663ffffffff1681526020018a63ffffffff1663ffffffff1681526020018963ffffffff1663ffffffff1681526020018863ffffffff1663ffffffff168152602001876001600160a01b03166001600160a01b031681526020018060200180602001866001600160a01b03166001600160a01b031681526020018560ff1660ff16815260200184810384528e818151815260200191508051906020019080838360005b838110156113b95781810151838201526020016113a1565b50505050905090810190601f1680156113e65780820380516001836020036101000a031916815260200191505b5084810383528851815288516020918201918a019080838360005b83811015611419578181015183820152602001611401565b50505050905090810190601f1680156114465780820380516001836020036101000a031916815260200191505b50848103825287518152875160209182019189019080838360005b83811015611479578181015183820152602001611461565b50505050905090810190601f1680156114a65780820380516001836020036101000a031916815260200191505b509d505050505050505050505050505060405180910390f35b6103ae613d9a565b6103ae613da0565b610cda613da6565b6114df613db6565b60408051602080825283518183015283519192839290830191858101910280838360005b8381101561151b578181015183820152602001611503565b505050509050019250505060405180910390f35b6102496004803603602081101561154557600080fd5b50356001600160a01b0316613e18565b610cda613e70565b610cda613e7f565b61156d613e88565b6115af5760408051600160e51b62461bcd02815260206004820152601f60248201526000805160206151d6833981519152604482015290519081900360640190fd5b6115b833613e98565b6115f657604051600160e51b62461bcd02815260040180806020018281038252602a8152602001806151ac602a913960400191505060405180910390fd5b61165b600480548060200260200160405190810160405280929190818152602001828054801561164f57602002820191906000526020600020905b81546001600160a01b03168152600190910190602001808311611631575b50505050506000613f09565b565b6000611667613e88565b90505b90565b600c6020908152600091825260409182902080548351601f600260001961010060018616150201909316929092049182018490048402810184019094528084529092918391908301828280156117045780601f106116d957610100808354040283529160200191611704565b820191906000526020600020905b8154815290600101906020018083116116e757829003601f168201915b5050505050908060010154905082565b600d6020908152600091825260409182902080548351601f600260001961010060018616150201909316929092049182018490048402810184019094528084529092918391908301828280156117ab5780601f10611780576101008083540402835291602001916117ab565b820191906000526020600020905b81548152906001019060200180831161178e57829003601f168201915b5050505050908060010154908060020154905083565b60045490565b6117cf613e88565b6118115760408051600160e51b62461bcd02815260206004820152601f60248201526000805160206151d6833981519152604482015290519081900360640190fd5b61181a33613e98565b61185857604051600160e51b62461bcd02815260040180806020018281038252602a8152602001806151ac602a913960400191505060405180910390fd5b60008551116118b15760408051600160e51b62461bcd02815260206004820152601660248201527f73656c656374206e616d6520666f7220616e63686f7200000000000000000000604482015290519081900360640190fd5b600f805460019081019182905560408051808201909152600d81527f72656d6f766520616e63686f720000000000000000000000000000000000000060208201526000926119159290919088888888600a60019054906101000a900460ff16613f8c565b60408051808201825288815260006020808301829052848252600c8152929020815180519495509193909261194e928492910190614db3565b5060208201518160010155905050505050505050565b61196c613e88565b6119ae5760408051600160e51b62461bcd02815260206004820152601f60248201526000805160206151d6833981519152604482015290519081900360640190fd5b6119b733613e98565b6119f557604051600160e51b62461bcd02815260040180806020018281038252602a8152602001806151ac602a913960400191505060405180910390fd5b33600090815260036020526040902054600190811115611a5f5760408051600160e51b62461bcd02815260206004820152601960248201527f796f752068617665206e6f7420656e6f75676820746f6b656e00000000000000604482015290519081900360640190fd5b6001600160a01b038316301415611aaa57604051600160e51b62461bcd02815260040180806020018281038252603881526020018061512c6038913960400191505060405180910390fd5b6008604051806101a001604052808c81526020018b81526020018a63ffffffff1681526020018963ffffffff1681526020018863ffffffff168152602001336001600160a01b03168152602001878152602001868152602001611b0b6142df565b63ffffffff16815260006020808301829052604083018290526001600160a01b038816606084015260ff8716608090930192909252835460018181018087559583529183902084516006909202019081558383015180519193611b7393850192910190614db3565b5060408201516002820180546060850151608086015160a08701516001600160a01b0316600160601b026bffffffffffffffffffffffff63ffffffff928316600160401b026bffffffff000000000000000019948416600160201b0267ffffffff00000000199490981663ffffffff1990961695909517929092169590951791909116919091171691909117905560c08201518051611c1c916003840191602090910190614db3565b5060e08201518051611c38916004840191602090910190614db3565b5061010082015160059190910180546101208401516101408501516101608601516101809096015163ffffffff1990931663ffffffff9095169490941765ffff000000001916600160201b61ffff928316021767ffff0000000000001916600160301b919094160292909217600160401b600160e01b031916600160401b6001600160a01b039094169390930292909217600160e01b60ff021916600160e01b60ff90921691909102179055503360009081526003602052604090208054919091039055505050505050505050565b6009602090815260009283526040808420909152908252812054900b81565b60068181548110611d3357fe5b9060005260206000209060030201600091509050806000015490806001018054600181600116156101000203166002900480601f016020809104026020016040519081016040528092919081815260200182805460018160011615610100020316600290048015611de55780601f10611dba57610100808354040283529160200191611de5565b820191906000526020600020905b815481529060010190602001808311611dc857829003601f168201915b50505060028085018054604080516020601f6000196101006001871615020190941695909504928301859004850281018501909152818152959695945090925090830182828015611e775780601f10611e4c57610100808354040283529160200191611e77565b820191906000526020600020905b815481529060010190602001808311611e5a57829003601f168201915b5050505050905083565b611e89613e88565b611ecb5760408051600160e51b62461bcd02815260206004820152601f60248201526000805160206151d6833981519152604482015290519081900360640190fd5b611ed433613e98565b611f1257604051600160e51b62461bcd02815260040180806020018281038252602a8152602001806151ac602a913960400191505060405180910390fd5b600f8054600101908190556040805180820190915260118152600160791b7039b2ba1030b1b1b2b9b9903a37b1b5b2b7026020820152600091611f6a91600388888888600a60029054906101000a900460ff16613f8c565b6040805160a081018252601160608201908152600160791b7039b2ba1030b1b1b2b9b9903a37b1b5b2b7026080830152815260208082018a90526000828401819052848152600d8252929092208151805194955091939092611fd0928492910190614db3565b5060208201516001820155604090910151600290910155505050505050565b6000546001600160a01b0316331461203b57604051600160e51b62461bcd02815260040180806020018281038252602181526020018061518b6021913960400191505060405180910390fd5b6120468383836142e3565b505050565b600080600080600080600080600080612062614e31565b60088c8154811061206f57fe5b9060005260206000209060060201604051806101a001604052908160008201548152602001600182018054600181600116156101000203166002900480601f01602080910402602001604051908101604052809291908181526020018280546001816001161561010002031660029004801561212c5780601f106121015761010080835404028352916020019161212c565b820191906000526020600020905b81548152906001019060200180831161210f57829003601f168201915b505050918352505060028281015463ffffffff808216602080860191909152600160201b83048216604080870191909152600160401b84049092166060860152600160601b9092046001600160a01b0316608085015260038501805482516101006001831615026000190190911694909404601f810184900484028501840190925281845260a090940193918301828280156122095780601f106121de57610100808354040283529160200191612209565b820191906000526020600020905b8154815290600101906020018083116121ec57829003601f168201915b505050918352505060048201805460408051602060026001851615610100026000190190941693909304601f810184900484028201840190925281815293820193929183018282801561229d5780601f106122725761010080835404028352916020019161229d565b820191906000526020600020905b81548152906001019060200180831161228057829003601f168201915b50505091835250506005919091015463ffffffff8082166020840152600160201b820461ffff908116604080860191909152600160301b84048216606080870191909152600160401b85046001600160a01b03166080870152600160e01b90940460ff1660a0909501949094526101408501516101208601518651958701516101608801519588015197985081830190931696909491931661233d6142df565b10876080015163ffffffff166123516142df565b10158789610120015160640261ffff168161236857fe5b04888a610140015160640261ffff168161237e57fe5b048a610180015160ff168a8c610120015160640261ffff168161239d57fe5b0410159b509b509b509b509b509b509b509b509b509b5050509193959799509193959799565b6123cb613e88565b61240d5760408051600160e51b62461bcd02815260206004820152601f60248201526000805160206151d6833981519152604482015290519081900360640190fd5b61241633613e98565b61245457604051600160e51b62461bcd02815260040180806020018281038252602a8152602001806151ac602a913960400191505060405180910390fd5b61245c614e9f565b6000828152600e60209081526040918290208251815460026001821615610100026000190190911604601f810184900490930281016080908101909452606081018381529093919284928491908401828280156124fa5780601f106124cf576101008083540402835291602001916124fa565b820191906000526020600020905b8154815290600101906020018083116124dd57829003601f168201915b5050509183525050600182015460ff16602082015260029091015460409091015280515190915061256c5760408051600160e51b62461bcd02815260206004820152601160248201526001607a1b701c1c9bdc1cd85b081b9bdd08199bdd5b9902604482015290519081900360640190fd5b6040810151156125b45760408051600160e51b62461bcd02815260206004820152601c6024820152600080516020615244833981519152604482015290519081900360640190fd5b6125bf8260046142fa565b1561262957612629600480548060200260200160405190810160405280929190818152602001828054801561261d57602002820191906000526020600020905b81546001600160a01b031681526001909101906020018083116125ff575b50505050506001613f09565b6126316142df565b6000928352600d60205260409092206002019190915550565b612652613e88565b6126945760408051600160e51b62461bcd02815260206004820152601f60248201526000805160206151d6833981519152604482015290519081900360640190fd5b61269d33613e98565b6126db57604051600160e51b62461bcd02815260040180806020018281038252602a8152602001806151ac602a913960400191505060405180910390fd5b6126e3614ec3565b6000828152600c60209081526040918290208251815460026001821615610100026000190190911604601f810184900490930281016060908101855293810183815290939192849284919084018282801561277f5780601f106127545761010080835404028352916020019161277f565b820191906000526020600020905b81548152906001019060200180831161276257829003601f168201915b5050505050815260200160018201548152505090506000816000015151116127e85760408051600160e51b62461bcd02815260206004820152601160248201526001607a1b701c1c9bdc1cd85b081b9bdd08199bdd5b9902604482015290519081900360640190fd5b6020810151156128305760408051600160e51b62461bcd02815260206004820152601c6024820152600080516020615244833981519152604482015290519081900360640190fd5b61283b8260016142fa565b1561284b57805161284b9061442c565b6128536142df565b6000928352600c60205260409092206001019190915550565b60025481565b61287a613e88565b6128bc5760408051600160e51b62461bcd02815260206004820152601f60248201526000805160206151d6833981519152604482015290519081900360640190fd5b6128c533613e98565b61290357604051600160e51b62461bcd02815260040180806020018281038252602a8152602001806151ac602a913960400191505060405180910390fd5b61290b614e31565b6008838154811061291857fe5b9060005260206000209060060201604051806101a001604052908160008201548152602001600182018054600181600116156101000203166002900480601f0160208091040260200160405190810160405280929190818152602001828054600181600116156101000203166002900480156129d55780601f106129aa576101008083540402835291602001916129d5565b820191906000526020600020905b8154815290600101906020018083116129b857829003601f168201915b505050918352505060028281015463ffffffff808216602080860191909152600160201b83048216604080870191909152600160401b84049092166060860152600160601b9092046001600160a01b0316608085015260038501805482516101006001831615026000190190911694909404601f810184900484028501840190925281845260a09094019391830182828015612ab25780601f10612a8757610100808354040283529160200191612ab2565b820191906000526020600020905b815481529060010190602001808311612a9557829003601f168201915b505050918352505060048201805460408051602060026001851615610100026000190190941693909304601f8101849004840282018401909252818152938201939291830182828015612b465780601f10612b1b57610100808354040283529160200191612b46565b820191906000526020600020905b815481529060010190602001808311612b2957829003601f168201915b50505091835250506005919091015463ffffffff81166020830152600160201b810461ffff9081166040840152600160301b8204166060830152600160401b81046001600160a01b039081166080840152600160e01b90910460ff1660a0928301529082015191925016612c045760408051600160e51b62461bcd02815260206004820152601260248201527f70726f706f73616c206e6f7420666f756e640000000000000000000000000000604482015290519081900360640190fd5b612c0c6142df565b816060015163ffffffff1610612c6c5760408051600160e51b62461bcd02815260206004820152601560248201527f766f74696e67206973206e6f7420737461727465640000000000000000000000604482015290519081900360640190fd5b612c746142df565b816080015163ffffffff1611612cd45760408051600160e51b62461bcd02815260206004820152601360248201527f766f74696e67207761732066696e697368656400000000000000000000000000604482015290519081900360640190fd5b6000838152600960209081526040808320338452909152812054810b900b15612d475760408051600160e51b62461bcd02815260206004820152601a60248201527f796f757220766f74652072656769737465726564206c61746572000000000000604482015290519081900360640190fd5b8160000b60001415612d8d57604051600160e51b62461bcd02815260040180806020018281038252602a815260200180615102602a913960400191505060405180910390fd5b60008260000b1315612e0d5760008381526009602090815260408083203384529091529020805460ff191660019081179091556008805485908110612dce57fe5b60009182526020909120600560069092020101805461ffff600160201b80830482169094011690920265ffff0000000019909216919091179055612046565b60008381526009602090815260408083203384529091529020805460ff191660ff179055600880546001919085908110612e4357fe5b60009182526020909120600560069092020101805461ffff600160301b80830482169094011690920267ffff00000000000019909216919091179055505050565b60048181548110612e9157fe5b6000918252602090912001546001600160a01b0316905081565b600f5481565b600a54600160201b900460ff1681565b60036020526000908152604090205481565b6000546001600160a01b03163314612f1f57604051600160e51b62461bcd02815260040180806020018281038252602181526020018061518b6021913960400191505060405180910390fd5b600080546040516001600160a01b03909116917ff8df31144d9c2f0f6b59d69b8b98abd5459d07f2742c4df920b25aae33c6482091a2600080546001600160a01b0319169055565b600e6020908152600091825260409182902080548351601f60026000196101006001861615020190931692909204918201849004840281018401909452808452909291839190830182828015612ffe5780601f10612fd357610100808354040283529160200191612ffe565b820191906000526020600020905b815481529060010190602001808311612fe157829003601f168201915b505050506001830154600290930154919260ff1691905083565b6000546001600160a01b031681565b60085490565b613035613e88565b6130775760408051600160e51b62461bcd02815260206004820152601f60248201526000805160206151d6833981519152604482015290519081900360640190fd5b61308033613e98565b6130be57604051600160e51b62461bcd02815260040180806020018281038252602a8152602001806151ac602a913960400191505060405180910390fd5b600f80546001019081905560408051808201909152600d8152600160981b6c6368616e676520636f6e66696702602082015260009161311291600488888888600a60049054906101000a900460ff16613f8c565b6040805160a081018252600d60608201908152600160981b6c6368616e676520636f6e666967026080830152815260ff89166020808301919091526000828401819052848152600e8252929092208151805194955091939092613179928492910190614db3565b50602082015160018201805460ff191660ff909216919091179055604090910151600290910155505050505050565b600b6020908152600091825260409182902080548351601f6002600019610100600186161502019093169290920491820184900484028101840190945280845290929183919083018282801561323f5780601f106132145761010080835404028352916020019161323f565b820191906000526020600020905b81548152906001019060200180831161322257829003601f168201915b505050505090806001018054600181600116156101000203166002900480601f0160208091040260200160405190810160405280929190818152602001828054600181600116156101000203166002900480156132dd5780601f106132b2576101008083540402835291602001916132dd565b820191906000526020600020905b8154815290600101906020018083116132c057829003601f168201915b5050505050908060030154905083565b6007602052816000526040600020818154811061330657fe5b6000918252602090912001546001600160a01b03169150829050565b61332a613e88565b61336c5760408051600160e51b62461bcd02815260206004820152601f60248201526000805160206151d6833981519152604482015290519081900360640190fd5b61337533613e98565b6133b357604051600160e51b62461bcd02815260040180806020018281038252602a8152602001806151ac602a913960400191505060405180910390fd5b6133bb614edd565b6000828152600d60209081526040918290208251815460026001821615610100026000190190911604601f810184900490930281016080908101909452606081018381529093919284928491908401828280156134595780601f1061342e57610100808354040283529160200191613459565b820191906000526020600020905b81548152906001019060200180831161343c57829003601f168201915b505050505081526020016001820154815260200160028201548152505090506000816000015151116134cc5760408051600160e51b62461bcd02815260206004820152601160248201526001607a1b701c1c9bdc1cd85b081b9bdd08199bdd5b9902604482015290519081900360640190fd5b6040810151156135145760408051600160e51b62461bcd02815260206004820152601c6024820152600080516020615244833981519152604482015290519081900360640190fd5b6125bf8260036142fa565b613527613e88565b6135695760408051600160e51b62461bcd02815260206004820152601f60248201526000805160206151d6833981519152604482015290519081900360640190fd5b61357233613e98565b6135b057604051600160e51b62461bcd02815260040180806020018281038252602a8152602001806151ac602a913960400191505060405180910390fd5b60008751116136095760408051600160e51b62461bcd02815260206004820152601660248201527f73656c656374206e616d6520666f7220616e63686f7200000000000000000000604482015290519081900360640190fd5b600f80546001019081905560408051808201909152600a8152600160b11b6930b2321030b731b437b90260208201526000916136539183600a54899089908990899060ff16613f8c565b604080516080810182528a815260208082018b90528183018a9052600060608301819052848152600b825292909220815180519495509193909261369b928492910190614db3565b5060208281015180516136b49260018501920190614db3565b50604082015180516136d0916002840191602090910190614efe565b50606082015181600301559050505050505050505050565b600a54610100900460ff1681565b6136fe613e88565b6137405760408051600160e51b62461bcd02815260206004820152601f60248201526000805160206151d6833981519152604482015290519081900360640190fd5b61374933613e98565b61378757604051600160e51b62461bcd02815260040180806020018281038252602a8152602001806151ac602a913960400191505060405180910390fd5b61378f614f5f565b6000828152600b60209081526040918290208251815460026001821615610100026000190190911604601f8101849004909302810160a09081019094526080810183815290939192849284919084018282801561382d5780601f106138025761010080835404028352916020019161382d565b820191906000526020600020905b81548152906001019060200180831161381057829003601f168201915b50505050508152602001600182018054600181600116156101000203166002900480601f0160208091040260200160405190810160405280929190818152602001828054600181600116156101000203166002900480156138cf5780601f106138a4576101008083540402835291602001916138cf565b820191906000526020600020905b8154815290600101906020018083116138b257829003601f168201915b505050505081526020016002820180548060200260200160405190810160405280929190818152602001828054801561393157602002820191906000526020600020905b81546001600160a01b03168152600190910190602001808311613913575b50505050508152602001600382015481525050905060008160000151511161399a5760408051600160e51b62461bcd02815260206004820152601160248201526001607a1b701c1c9bdc1cd85b081b9bdd08199bdd5b9902604482015290519081900360640190fd5b6060810151156139e25760408051600160e51b62461bcd02815260206004820152601c6024820152600080516020615244833981519152604482015290519081900360640190fd5b6139ed8260006142fa565b15613a0957613a098160000151826020015183604001516142e3565b613a116142df565b6000928352600b60205260409092206003019190915550565b60606000806000806000606080600080613a42614e31565b60088c81548110613a4f57fe5b9060005260206000209060060201604051806101a001604052908160008201548152602001600182018054600181600116156101000203166002900480601f016020809104026020016040519081016040528092919081815260200182805460018160011615610100020316600290048015613b0c5780601f10613ae157610100808354040283529160200191613b0c565b820191906000526020600020905b815481529060010190602001808311613aef57829003601f168201915b505050918352505060028281015463ffffffff808216602080860191909152600160201b83048216604080870191909152600160401b84049092166060860152600160601b9092046001600160a01b0316608085015260038501805482516101006001831615026000190190911694909404601f810184900484028501840190925281845260a09094019391830182828015613be95780601f10613bbe57610100808354040283529160200191613be9565b820191906000526020600020905b815481529060010190602001808311613bcc57829003601f168201915b505050918352505060048201805460408051602060026001851615610100026000190190941693909304601f8101849004840282018401909252818152938201939291830182828015613c7d5780601f10613c5257610100808354040283529160200191613c7d565b820191906000526020600020905b815481529060010190602001808311613c6057829003601f168201915b505050505081526020016005820160009054906101000a900463ffffffff1663ffffffff1663ffffffff1681526020016005820160049054906101000a900461ffff1661ffff1661ffff1681526020016005820160069054906101000a900461ffff1661ffff1661ffff1681526020016005820160089054906101000a90046001600160a01b03166001600160a01b03166001600160a01b0316815260200160058201601c9054906101000a900460ff1660ff1660ff1681525050905080602001518160400151826101000151836060015184608001518560a001518660c001518760e001518861016001518961018001518999508393508292509a509a509a509a509a509a509a509a509a509a50509193959799509193959799565b60015481565b60065490565b600a546301000000900460ff1681565b60606004805480602002602001604051908101604052809291908181526020018280548015613e0e57602002820191906000526020600020905b81546001600160a01b03168152600190910190602001808311613df0575b5050505050905090565b6000546001600160a01b03163314613e6457604051600160e51b62461bcd02815260040180806020018281038252602181526020018061518b6021913960400191505060405180910390fd5b613e6d816144e7565b50565b600a5462010000900460ff1681565b600a5460ff1681565b6000546001600160a01b03161590565b600080613eff6004805480602002602001604051908101604052809291908181526020018280548015613ef457602002820191906000526020600020905b81546001600160a01b03168152600190910190602001808311613ed6575b5050505050846145a0565b121590505b919050565b6000600154118015613f19575080155b15613f71576001546301e1338001613f2f6142df565b8110613f6f57604051600160e51b62461bcd0281526004018080602001828103825260248152602001806152206024913960400191505060405180910390fd5b505b613f7d8260025461460c565b613f856142df565b6001555050565b6000613f96613e88565b613fd85760408051600160e51b62461bcd02815260206004820152601f60248201526000805160206151d6833981519152604482015290519081900360640190fd5b613fe133613e98565b61401f57604051600160e51b62461bcd02815260040180806020018281038252602a8152602001806151ac602a913960400191505060405180910390fd5b336000908152600360205260409020546001908111156140895760408051600160e51b62461bcd02815260206004820152601960248201527f796f752068617665206e6f7420656e6f75676820746f6b656e00000000000000604482015290519081900360640190fd5b6008604051806101a001604052808c81526020018b81526020018a63ffffffff1681526020018963ffffffff1681526020018863ffffffff168152602001336001600160a01b031681526020018781526020018681526020016140ea6142df565b63ffffffff168152600060208083018290526040830182905230606084015260ff881660809093019290925283546001818101808755958352918390208451600690920201908155838301518051919361414993850192910190614db3565b5060408201516002820180546060850151608086015160a08701516001600160a01b0316600160601b026bffffffffffffffffffffffff63ffffffff928316600160401b026bffffffff000000000000000019948416600160201b0267ffffffff00000000199490981663ffffffff1990961695909517929092169590951791909116919091171691909117905560c082015180516141f2916003840191602090910190614db3565b5060e0820151805161420e916004840191602090910190614db3565b5061010082015160059190910180546101208401516101408501516101608601516101809096015163ffffffff1990931663ffffffff9095169490941765ffff000000001916600160201b61ffff928316021767ffff0000000000001916600160301b919094160292909217600160401b600160e01b031916600160401b6001600160a01b039094169390930292909217600160e01b60ff021916600160e01b60ff909216919091021790553360009081526003602052604090208054929092039091559998505050505050505050565b4290565b6142ee83838361463d565b6120468160025461460c565b600080600080600061430b8761204b565b995050509750509650965050505085600481111561432557fe5b8463ffffffff16146143815760408051600160e51b62461bcd02815260206004820152600d60248201527f74797065206d69736d6174636800000000000000000000000000000000000000604482015290519081900360640190fd5b6001600160a01b03831630146143cb57604051600160e51b62461bcd0281526004018080602001828103825260278152602001806151646027913960400191505060405180910390fd5b816144205760408051600160e51b62461bcd02815260206004820152601b60248201527f7468652070726f7073616c206973206e6f742066696e69736865640000000000604482015290519081900360640190fd5b93505050505b92915050565b6000614437826147d8565b905060008181526007602090815260409182902080548351818402810184019094528084526060939283018282801561449957602002820191906000526020600020905b81546001600160a01b0316815260019091019060200180831161447b575b50939450600093505050505b81518110156144d3576144cb838383815181106144be57fe5b602002602001015161486a565b6001016144a5565b5061204660066144e284614899565b614900565b6001600160a01b0381166145455760408051600160e51b62461bcd02815260206004820152601b60248201527f6f776e6572206d7573742062652076616c696420616464726573730000000000604482015290519081900360640190fd5b600080546040516001600160a01b03808516939216917f8be0079c531659141344cd1fd0a4f28419497f9722a3daafe3b4186f6b6457e091a3600080546001600160a01b0319166001600160a01b0392909216919091179055565b60006001600160a01b0382166145b95750600019614426565b60005b835181101561460157826001600160a01b03168482815181106145db57fe5b60200260200101516001600160a01b031614156145f9579050614426565b6001016145bc565b506000199392505050565b60005b82518110156120465761463583828151811061462757fe5b602002602001015183614a48565b60010161460f565b6000614648846147d8565b905061465381614a64565b156146a85760408051600160e51b62461bcd02815260206004820152601060248201527f64756270696361746520616e63686f7200000000000000000000000000000000604482015290519081900360640190fd5b600554825111156146ed57604051600160e51b62461bcd02815260040180806020018281038252602a8152602001806151f6602a913960400191505060405180910390fd5b6040805160608101825282815260208082018781529282018690526006805460018101808355600092909252835160039091027ff652222313e28459528d920b65115c16c04f3efc82aaedc97be59f3f377c0d3f8101918255945180519295919361477f937ff652222313e28459528d920b65115c16c04f3efc82aaedc97be59f3f377c0d4090930192910190614db3565b506040820151805161479b916002840191602090910190614db3565b506000925050505b82518110156147d1576147c9828483815181106147bc57fe5b6020026020010151614a70565b6001016147a3565b5050505050565b6000816040516020018080602001828103825283818151815260200191508051906020019080838360005b8381101561481b578181015183820152602001614803565b50505050905090810190601f1680156148485780820380516001836020036101000a031916815260200191505b5092505050604051602081830303815290604052805190602001209050919050565b61487382614899565b50600082815260076020526040902061488c9082614ab0565b61489581614b7a565b5050565b6000806148a583614b85565b905060008112156144265760408051600160e51b62461bcd02815260206004820152601060248201527f616e63686f72206e6f7420657869737400000000000000000000000000000000604482015290519081900360640190fd5b81546149565760408051600160e51b62461bcd02815260206004820152601660248201527f6164647265737320617272617920697320656d70747900000000000000000000604482015290519081900360640190fd5b81546000190181146149f65781548290600019810190811061497457fe5b906000526020600020906003020182828154811061498e57fe5b906000526020600020906003020160008201548160000155600182018160010190805460018160011615610100020316600290046149cd929190614f87565b50600282810180546149f2928481019291600019610100600183161502011604614f87565b5050505b815482906000198101908110614a0857fe5b60009182526020822060039091020181815590614a286001830182614ffc565b614a36600283016000614ffc565b50508154612046836000198301615040565b6001600160a01b03909116600090815260036020526040902055565b600080613eff83614b85565b60008281526007602090815260408220805460018101825590835291200180546001600160a01b0319166001600160a01b03831617905561489581614bfb565b6000614b1583805480602002602001604051908101604052809291908181526020018280548015614b0a57602002820191906000526020600020905b81546001600160a01b03168152600190910190602001808311614aec575b5050505050836145a0565b90506000811215614b705760408051600160e51b62461bcd02815260206004820152601160248201527f61646472657373206e6f7420666f756e64000000000000000000000000000000604482015290519081900360640190fd5b6120468382614cab565b613e6d600482614ab0565b6000614b9f604051806020016040528060008152506147d8565b821415614baf5750600019613f04565b60005b600654811015614bf1578260068281548110614bca57fe5b9060005260206000209060030201600001541415614be9579050613f04565b600101614bb2565b5060001992915050565b614c0481613e98565b15614c595760408051600160e51b62461bcd02815260206004820152601060248201527f647562706963617465206d656d62657200000000000000000000000000000000604482015290519081900360640190fd5b600480546001810182556000919091527f8a35acfbc15ff81a39ae7d344fd709f28e8600b4aa8c65c6b64bfe7fe36bd19b0180546001600160a01b0319166001600160a01b0392909216919091179055565b8154614d015760408051600160e51b62461bcd02815260206004820152601660248201527f6164647265737320617272617920697320656d70747900000000000000000000604482015290519081900360640190fd5b8154600019018114614d7857815482906000198101908110614d1f57fe5b9060005260206000200160009054906101000a90046001600160a01b0316828281548110614d4957fe5b9060005260206000200160006101000a8154816001600160a01b0302191690836001600160a01b031602179055505b815482906000198101908110614d8a57fe5b600091825260209091200180546001600160a01b0319169055815461204683600019830161506c565b828054600181600116156101000203166002900490600052602060002090601f016020900481019282601f10614df457805160ff1916838001178555614e21565b82800160010185558215614e21579182015b82811115614e21578251825591602001919060010190614e06565b50614e2d92915061508c565b5090565b604080516101a08101825260008082526060602083018190529282018190528282018190526080820181905260a0820181905260c0820183905260e0820192909252610100810182905261012081018290526101408101829052610160810182905261018081019190915290565b604051806060016040528060608152602001600060ff168152602001600081525090565b604051806040016040528060608152602001600081525090565b60405180606001604052806060815260200160008152602001600081525090565b828054828255906000526020600020908101928215614f53579160200282015b82811115614f5357825182546001600160a01b0319166001600160a01b03909116178255602090920191600190910190614f1e565b50614e2d9291506150a6565b6040518060800160405280606081526020016060815260200160608152602001600081525090565b828054600181600116156101000203166002900490600052602060002090601f016020900481019282601f10614fc05780548555614e21565b82800160010185558215614e2157600052602060002091601f016020900482015b82811115614e21578254825591600101919060010190614fe1565b50805460018160011615610100020316600290046000825580601f106150225750613e6d565b601f016020900490600052602060002090810190613e6d919061508c565b8154818355818111156120465760030281600302836000526020600020918201910161204691906150ca565b815481835581811115612046576000838152602090206120469181019083015b61166a91905b80821115614e2d5760008155600101615092565b61166a91905b80821115614e2d5780546001600160a01b03191681556001016150ac565b61166a91905b80821115614e2d5760008082556150ea6001830182614ffc565b6150f8600283016000614ffc565b506003016150d056fe796f75206d75737420736574207570206f7220646f776e20776974682031206f72202d312076616c75657573696e6720696e7465726e616c20636f6e747261637420666f722065787465726e616c2070726f706f73616c20697320696e76616c69647468652070726f7073616c206973206e6f7420616e20696e7465726e616c2070726f706f73616c6f6e6c79206f776e65722063616e2063616c6c20746869732066756e6374696f6e6f6e6c792076616c6964206d656d626572732063616e20646f2074686973207472616e73616374696f6e7468697320636f6e747261637420697320696e20636f6e666967206d6f6465006d656d6265727320617265206d6f7265207468616e2076616c6964206d656d656265727320636f756e74796f75206d7573742072656e657720746f6b656e73206166746572206f6e6520796561727468652070726f706f73616c206578656375746564206265666f726500000000a165627a7a723058208aa4543f4d450066a4c7b5aeadd3f2c0e8be2e601cca75158ee37fde6c8f6c600029",
  "source": "pragma solidity >=0.4.21 <0.6.0;\n\nimport \"./Voting.sol\";\nimport \"./Config.sol\";\n\ncontract KuknosDAO is Voting, Config {\n\n    enum ProposalTypes { AddAnchor, RemoveAnchor, ChangeAnchorMember, RenewAccessToken, ChangeConfig }\n\n    struct AddAnchorProposal {\n        string name;\n        string url;\n        address[] members;\n        uint executionTime;\n    }\n\n    struct RemoveAnchorProposal {\n        string name;\n        uint executionTime;\n    }\n\n    struct RenewAccessTockenProposal {\n        string name;\n        uint count;\n        uint executionTime;\n    }\n\n    struct ChangeConfigProposal {\n        string name;\n        uint8 value;\n        uint executionTime;\n    }\n\n    mapping ( uint => AddAnchorProposal ) public addAnchorProposals;\n\n    mapping ( uint => RemoveAnchorProposal ) public removeAnchorProposal;\n\n    mapping ( uint => RenewAccessTockenProposal ) public renewAccessTockenProposal;\n\n    mapping ( uint => ChangeConfigProposal ) public changeConfigProposal;\n\n    uint public internalProposalsCount = 0;\n\n    constructor(uint _voterTokensCount) public Voting(_voterTokensCount) {\n    }\n\n    function addNewAnchor(string memory _name, string memory _url, address[] memory _members) public onlyOwner {\n        addAnchorWithToken(_name, _url, _members);\n    }\n\n    function addAnchorWithToken(string memory _name, string memory _url, address[] memory _members) internal {\n        addAnchor(_name, _url, _members);\n        issueAccessToken(_members, accessTokensCount);\n    }\n\n    function contractIsActive() public view returns(bool) {\n        return contractHasNoOwener();\n    }\n\n\n    function checkProposalResult(uint _id, ProposalTypes pType) internal view returns(bool) {\n        (,,,uint32 proposalType, address contractAddress,, bool isFinished,,,bool successFull) = getProposalStatus(_id);\n        require(proposalType == uint(pType), \"type mismatch\");\n        require(contractAddress == address(this), \"the propsal is not an internal proposal\");\n        require(isFinished,\"the propsal is not finished\");\n        return successFull;\n    }\n\n    // Add new Anchor Proposal\n    function registerAddAnchorProposal(\n      string memory _anchorName,\n      string memory _anchorUrl,\n      address[] memory _members,\n      uint32 _startDate,\n      uint32 _endDate,\n      string memory _url,\n      string memory _hashCode\n      ) public onlyMembers {\n          require(bytes(_anchorName).length > 0, \"select name for anchor\");\n          internalProposalsCount++;\n          uint id = registerInternalProposal(\n              internalProposalsCount,\n              \"add anchor\",\n              uint32(ProposalTypes.AddAnchor),\n              _startDate,\n              _endDate,\n              _url,\n              _hashCode,\n              addAnchorThreshold);\n          addAnchorProposals[id] = AddAnchorProposal(_anchorName, _anchorUrl, _members, 0);\n    }\n\n    function runAddAnchorProposal(uint _id) public onlyMembers {\n        AddAnchorProposal memory proposal = addAnchorProposals[_id];\n        require(bytes(proposal.name).length > 0, \"propsal not found\");\n        require(proposal.executionTime == 0, \"the proposal executed before\");\n        if (checkProposalResult(_id, ProposalTypes.AddAnchor)) {\n            addAnchorWithToken(proposal.name, proposal.url, proposal.members);\n        }\n        addAnchorProposals[_id].executionTime = getTime();\n    }\n\n    // Remove an anchor proposal\n    function registerRemoveAnchorProposal(\n      string memory _anchorName,\n      uint32 _startDate,\n      uint32 _endDate,\n      string memory _url,\n      string memory _hashCode\n      ) public onlyMembers {\n          require(bytes(_anchorName).length > 0, \"select name for anchor\");\n          internalProposalsCount++;\n          uint id = registerInternalProposal(\n              internalProposalsCount,\n              \"remove anchor\",\n              uint32(ProposalTypes.RemoveAnchor),\n              _startDate,\n              _endDate,\n              _url,\n              _hashCode,\n              removeAnchorThreshold);\n          removeAnchorProposal[id] = RemoveAnchorProposal(_anchorName, 0);\n    }\n\n    function runRemoveAnchorProposal(uint _id) public onlyMembers {\n        RemoveAnchorProposal memory proposal = removeAnchorProposal[_id];\n        require(bytes(proposal.name).length > 0, \"propsal not found\");\n        require(proposal.executionTime == 0, \"the proposal executed before\");\n        if (checkProposalResult(_id, ProposalTypes.RemoveAnchor)) {\n            deleteAnchor(proposal.name);\n        }\n        removeAnchorProposal[_id].executionTime = getTime();\n    }\n\n    // set AccessToken proposal\n    function registerSetAccessTokenProposal(\n      uint count,\n      uint32 _startDate,\n      uint32 _endDate,\n      string memory _url,\n      string memory _hashCode\n      ) public onlyMembers {\n          internalProposalsCount++;\n          uint id = registerInternalProposal(\n              internalProposalsCount,\n              \"set access tocken\",\n              uint32(ProposalTypes.RenewAccessToken),\n              _startDate,\n              _endDate,\n              _url,\n              _hashCode,\n              renewAccessTokenThreshold);\n          renewAccessTockenProposal[id] = RenewAccessTockenProposal(\"set access tocken\", count, 0);\n    }\n\n    function runSetAccessTockenProposal(uint _id) public onlyMembers {\n        RenewAccessTockenProposal memory proposal = renewAccessTockenProposal[_id];\n        require(bytes(proposal.name).length > 0, \"propsal not found\");\n        require(proposal.executionTime == 0, \"the proposal executed before\");\n        if (checkProposalResult(_id, ProposalTypes.RenewAccessToken)) {\n            renewToken(members, true);\n        }\n        renewAccessTockenProposal[_id].executionTime = getTime();\n    }\n\n\n    // set AccessToken proposal\n    function addChangeConfigProposal(\n      uint8 newValue,\n      uint32 _startDate,\n      uint32 _endDate,\n      string memory _url,\n      string memory _hashCode\n      ) public onlyMembers {\n          internalProposalsCount++;\n          uint id = registerInternalProposal(\n              internalProposalsCount,\n              \"change config\",\n              uint32(ProposalTypes.ChangeConfig),\n              _startDate,\n              _endDate,\n              _url,\n              _hashCode,\n              changeConfigThreshold);\n          changeConfigProposal[id] = ChangeConfigProposal(\"change config\", newValue, 0);\n    }\n\n    function runChangeConfigProposal(uint _id) public onlyMembers {\n        ChangeConfigProposal memory proposal = changeConfigProposal[_id];\n        require(bytes(proposal.name).length > 0, \"propsal not found\");\n        require(proposal.executionTime == 0, \"the proposal executed before\");\n        if (checkProposalResult(_id, ProposalTypes.ChangeConfig)) {\n            renewToken(members, true);\n        }\n        renewAccessTockenProposal[_id].executionTime = getTime();\n    }\n\n\n}",
  "sourcePath": "/home/user/Projects/kuknos-dao/contracts/KuknosDAO.sol",
  "compiler": {
    "name": "solc",
    "version": "0.5.8+commit.23d335f2.Emscripten.clang"
  },
  "schemaVersion": "3.0.11",
  "updatedAt": "2019-06-23T11:14:55.126Z",
  "devdoc": {
    "methods": {
      "renounceOwnership()": {
        "details": "Allows the current owner to relinquish control of the contract."
      },
      "transferOwnership(address)": {
        "details": "Allows the current owner to transfer control of the contract to a newOwner.",
        "params": {
          "_newOwner": "The address to transfer ownership to."
        }
      }
    }
  },
  "userdoc": {
    "methods": {
      "renounceOwnership()": {
        "notice": "Renouncing to ownership will leave the contract without an owner. It will not be possible to call the functions with the `onlyOwner` modifier anymore."
      }
    }
  }
}