{
  "contractName": "KuknosDAO",
  "abi": [
    {
      "constant": false,
      "inputs": [],
      "name": "renewYearTokens",
      "outputs": [],
      "payable": false,
      "stateMutability": "nonpayable",
      "type": "function"
    },
    {
      "constant": false,
      "inputs": [
        {
          "name": "id",
          "type": "uint256"
        },
        {
          "name": "title",
          "type": "string"
        },
        {
          "name": "proposalType",
          "type": "uint256"
        },
        {
          "name": "startDate",
          "type": "uint256"
        },
        {
          "name": "endDate",
          "type": "uint256"
        },
        {
          "name": "url",
          "type": "string"
        },
        {
          "name": "hashCode",
          "type": "string"
        },
        {
          "name": "contractAddress",
          "type": "address"
        }
      ],
      "name": "registerProposal",
      "outputs": [],
      "payable": false,
      "stateMutability": "nonpayable",
      "type": "function"
    },
    {
      "constant": true,
      "inputs": [
        {
          "name": "",
          "type": "uint256"
        }
      ],
      "name": "removeAnchorProposal",
      "outputs": [
        {
          "name": "name",
          "type": "string"
        },
        {
          "name": "executionTime",
          "type": "uint256"
        }
      ],
      "payable": false,
      "stateMutability": "view",
      "type": "function"
    },
    {
      "constant": true,
      "inputs": [
        {
          "name": "",
          "type": "uint256"
        }
      ],
      "name": "renewAccessTockenProposal",
      "outputs": [
        {
          "name": "name",
          "type": "string"
        },
        {
          "name": "count",
          "type": "uint256"
        },
        {
          "name": "executionTime",
          "type": "uint256"
        }
      ],
      "payable": false,
      "stateMutability": "view",
      "type": "function"
    },
    {
      "constant": true,
      "inputs": [],
      "name": "membersCount",
      "outputs": [
        {
          "name": "",
          "type": "uint256"
        }
      ],
      "payable": false,
      "stateMutability": "view",
      "type": "function"
    },
    {
      "constant": true,
      "inputs": [
        {
          "name": "",
          "type": "uint256"
        },
        {
          "name": "",
          "type": "address"
        }
      ],
      "name": "votesReceived",
      "outputs": [
        {
          "name": "",
          "type": "int8"
        }
      ],
      "payable": false,
      "stateMutability": "view",
      "type": "function"
    },
    {
      "constant": true,
      "inputs": [
        {
          "name": "index",
          "type": "uint256"
        }
      ],
      "name": "getProposalStatus",
      "outputs": [
        {
          "name": "",
          "type": "uint256"
        },
        {
          "name": "",
          "type": "uint256"
        },
        {
          "name": "",
          "type": "uint256"
        },
        {
          "name": "",
          "type": "uint256"
        },
        {
          "name": "",
          "type": "address"
        },
        {
          "name": "",
          "type": "bool"
        },
        {
          "name": "",
          "type": "bool"
        },
        {
          "name": "",
          "type": "uint256"
        },
        {
          "name": "",
          "type": "uint256"
        }
      ],
      "payable": false,
      "stateMutability": "view",
      "type": "function"
    },
    {
      "constant": true,
      "inputs": [],
      "name": "accessTokensCount",
      "outputs": [
        {
          "name": "",
          "type": "uint256"
        }
      ],
      "payable": false,
      "stateMutability": "view",
      "type": "function"
    },
    {
      "constant": false,
      "inputs": [
        {
          "name": "_proposalIndex",
          "type": "uint256"
        },
        {
          "name": "_vote",
          "type": "int8"
        }
      ],
      "name": "voteForProposal",
      "outputs": [],
      "payable": false,
      "stateMutability": "nonpayable",
      "type": "function"
    },
    {
      "constant": true,
      "inputs": [
        {
          "name": "",
          "type": "uint256"
        }
      ],
      "name": "members",
      "outputs": [
        {
          "name": "",
          "type": "address"
        }
      ],
      "payable": false,
      "stateMutability": "view",
      "type": "function"
    },
    {
      "constant": true,
      "inputs": [],
      "name": "internalProposalsCount",
      "outputs": [
        {
          "name": "",
          "type": "uint256"
        }
      ],
      "payable": false,
      "stateMutability": "view",
      "type": "function"
    },
    {
      "constant": true,
      "inputs": [],
      "name": "changeConfigThreshold",
      "outputs": [
        {
          "name": "",
          "type": "uint256"
        }
      ],
      "payable": false,
      "stateMutability": "view",
      "type": "function"
    },
    {
      "constant": true,
      "inputs": [
        {
          "name": "",
          "type": "address"
        }
      ],
      "name": "balanceOf",
      "outputs": [
        {
          "name": "",
          "type": "uint256"
        }
      ],
      "payable": false,
      "stateMutability": "view",
      "type": "function"
    },
    {
      "constant": false,
      "inputs": [],
      "name": "renounceOwnership",
      "outputs": [],
      "payable": false,
      "stateMutability": "nonpayable",
      "type": "function"
    },
    {
      "constant": true,
      "inputs": [],
      "name": "owner",
      "outputs": [
        {
          "name": "",
          "type": "address"
        }
      ],
      "payable": false,
      "stateMutability": "view",
      "type": "function"
    },
    {
      "constant": true,
      "inputs": [],
      "name": "getProposalsCount",
      "outputs": [
        {
          "name": "",
          "type": "uint256"
        }
      ],
      "payable": false,
      "stateMutability": "view",
      "type": "function"
    },
    {
      "constant": true,
      "inputs": [
        {
          "name": "",
          "type": "uint256"
        }
      ],
      "name": "addAnchorProposals",
      "outputs": [
        {
          "name": "name",
          "type": "string"
        },
        {
          "name": "url",
          "type": "string"
        },
        {
          "name": "executionTime",
          "type": "uint256"
        }
      ],
      "payable": false,
      "stateMutability": "view",
      "type": "function"
    },
    {
      "constant": true,
      "inputs": [],
      "name": "removeAnchorThreshold",
      "outputs": [
        {
          "name": "",
          "type": "uint256"
        }
      ],
      "payable": false,
      "stateMutability": "view",
      "type": "function"
    },
    {
      "constant": true,
      "inputs": [
        {
          "name": "index",
          "type": "uint256"
        }
      ],
      "name": "getProposal",
      "outputs": [
        {
          "name": "",
          "type": "uint256"
        },
        {
          "name": "",
          "type": "string"
        },
        {
          "name": "",
          "type": "uint256"
        },
        {
          "name": "",
          "type": "uint256"
        },
        {
          "name": "",
          "type": "uint256"
        },
        {
          "name": "",
          "type": "address"
        },
        {
          "name": "",
          "type": "string"
        },
        {
          "name": "",
          "type": "string"
        },
        {
          "name": "",
          "type": "uint256"
        },
        {
          "name": "",
          "type": "uint256"
        },
        {
          "name": "",
          "type": "uint256"
        },
        {
          "name": "",
          "type": "address"
        }
      ],
      "payable": false,
      "stateMutability": "view",
      "type": "function"
    },
    {
      "constant": true,
      "inputs": [],
      "name": "lastTokenIssueDate",
      "outputs": [
        {
          "name": "",
          "type": "uint256"
        }
      ],
      "payable": false,
      "stateMutability": "view",
      "type": "function"
    },
    {
      "constant": true,
      "inputs": [],
      "name": "changeAnchorMemberThreshold",
      "outputs": [
        {
          "name": "",
          "type": "uint256"
        }
      ],
      "payable": false,
      "stateMutability": "view",
      "type": "function"
    },
    {
      "constant": true,
      "inputs": [],
      "name": "membersList",
      "outputs": [
        {
          "name": "",
          "type": "address[]"
        }
      ],
      "payable": false,
      "stateMutability": "view",
      "type": "function"
    },
    {
      "constant": false,
      "inputs": [
        {
          "name": "_newOwner",
          "type": "address"
        }
      ],
      "name": "transferOwnership",
      "outputs": [],
      "payable": false,
      "stateMutability": "nonpayable",
      "type": "function"
    },
    {
      "constant": true,
      "inputs": [],
      "name": "renewAccessTokenThreshold",
      "outputs": [
        {
          "name": "",
          "type": "uint256"
        }
      ],
      "payable": false,
      "stateMutability": "view",
      "type": "function"
    },
    {
      "constant": true,
      "inputs": [],
      "name": "addAnchorThreshold",
      "outputs": [
        {
          "name": "",
          "type": "uint256"
        }
      ],
      "payable": false,
      "stateMutability": "view",
      "type": "function"
    },
    {
      "inputs": [
        {
          "name": "_voterTokensCount",
          "type": "uint256"
        }
      ],
      "payable": false,
      "stateMutability": "nonpayable",
      "type": "constructor"
    },
    {
      "anonymous": false,
      "inputs": [
        {
          "indexed": true,
          "name": "previousOwner",
          "type": "address"
        }
      ],
      "name": "OwnershipRenounced",
      "type": "event"
    },
    {
      "anonymous": false,
      "inputs": [
        {
          "indexed": true,
          "name": "previousOwner",
          "type": "address"
        },
        {
          "indexed": true,
          "name": "newOwner",
          "type": "address"
        }
      ],
      "name": "OwnershipTransferred",
      "type": "event"
    },
    {
      "constant": false,
      "inputs": [
        {
          "name": "_name",
          "type": "string"
        },
        {
          "name": "_url",
          "type": "string"
        },
        {
          "name": "_members",
          "type": "address[]"
        }
      ],
      "name": "addNewAnchor",
      "outputs": [],
      "payable": false,
      "stateMutability": "nonpayable",
      "type": "function"
    },
    {
      "constant": true,
      "inputs": [],
      "name": "contractIsActive",
      "outputs": [
        {
          "name": "",
          "type": "bool"
        }
      ],
      "payable": false,
      "stateMutability": "view",
      "type": "function"
    },
    {
      "constant": false,
      "inputs": [
        {
          "name": "_anchorName",
          "type": "string"
        },
        {
          "name": "_anchorUrl",
          "type": "string"
        },
        {
          "name": "_members",
          "type": "address[]"
        },
        {
          "name": "_startDate",
          "type": "uint256"
        },
        {
          "name": "_endDate",
          "type": "uint256"
        },
        {
          "name": "_url",
          "type": "string"
        },
        {
          "name": "_hashCode",
          "type": "string"
        }
      ],
      "name": "registerAddAnchorProposal",
      "outputs": [],
      "payable": false,
      "stateMutability": "nonpayable",
      "type": "function"
    },
    {
      "constant": false,
      "inputs": [
        {
          "name": "_anchorName",
          "type": "string"
        },
        {
          "name": "_startDate",
          "type": "uint256"
        },
        {
          "name": "_endDate",
          "type": "uint256"
        },
        {
          "name": "_url",
          "type": "string"
        },
        {
          "name": "_hashCode",
          "type": "string"
        }
      ],
      "name": "registerRemoveAnchorProposal",
      "outputs": [],
      "payable": false,
      "stateMutability": "nonpayable",
      "type": "function"
    },
    {
      "constant": false,
      "inputs": [
        {
          "name": "count",
          "type": "uint256"
        },
        {
          "name": "_startDate",
          "type": "uint256"
        },
        {
          "name": "_endDate",
          "type": "uint256"
        },
        {
          "name": "_url",
          "type": "string"
        },
        {
          "name": "_hashCode",
          "type": "string"
        }
      ],
      "name": "registerSetAccessTokenProposal",
      "outputs": [],
      "payable": false,
      "stateMutability": "nonpayable",
      "type": "function"
    }
  ],
  "bytecode": "0x6080604052603260025560026005556033600a556050600b556033600c556033600d556050600e5560006012553480156200003957600080fd5b5060405160208062004f6d833981018060405260208110156200005b57600080fd5b81019080805190602001909291905050508080336000806101000a81548173ffffffffffffffffffffffffffffffffffffffff021916908373ffffffffffffffffffffffffffffffffffffffff16021790555080600281905550506200015a60048054806020026020016040519081016040528092919081815260200182805480156200013e57602002820191906000526020600020905b8160009054906101000a900473ffffffffffffffffffffffffffffffffffffffff1673ffffffffffffffffffffffffffffffffffffffff1681526020019060010190808311620000f3575b5050505050600062000162640100000000026401000000009004565b505062000324565b600060015411801562000173575080155b156200023e5760006301e133806001540190506200019f6200027e640100000000026401000000009004565b811015156200023c576040517f08c379a00000000000000000000000000000000000000000000000000000000081526004018080602001828103825260248152602001807f796f75206d7573742072656e657720746f6b656e73206166746572206f6e652081526020017f796561720000000000000000000000000000000000000000000000000000000081525060400191505060405180910390fd5b505b6200025b8260025462000286640100000000026401000000009004565b620002746200027e640100000000026401000000009004565b6001819055505050565b600042905090565b60008090505b8251811015620002d757620002c98382815181101515620002a957fe5b9060200190602002015183620002dc640100000000026401000000009004565b80806001019150506200028c565b505050565b80600360008473ffffffffffffffffffffffffffffffffffffffff1673ffffffffffffffffffffffffffffffffffffffff168152602001908152602001600020819055505050565b614c3980620003346000396000f3fe60806040526004361061017f576000357c0100000000000000000000000000000000000000000000000000000000900463ffffffff168062f18f561461018457806306a481f21461019b5780630d60ea19146103da5780631351e4ac1461040957806324353bb6146104c4578063297f9af01461058657806333dd6bed146105b15780633ec4cd7214610626578063401853b71461081957806355de8c7e146108d45780635ab09f59146108ff5780635daf08ca1461094757806365a059d2146109c25780636ee2e225146109ed57806370258eee14610a1857806370a0823114610c22578063715018a614610c8757806377cb780c14610c9e5780638da5cb5b14610fd357806398e527d31461102a5780639f016ab514611055578063bb60512f1461117c578063c7f758a8146111a7578063cd47d33e146113ca578063cededb3014611547578063d4e18e6814611572578063dd5042f41461159d578063f2fde38b14611609578063fa0192491461165a578063fc37a9e814611685575b600080fd5b34801561019057600080fd5b506101996116b0565b005b3480156101a757600080fd5b506103d860048036036101008110156101bf57600080fd5b8101908080359060200190929190803590602001906401000000008111156101e657600080fd5b8201836020820111156101f857600080fd5b8035906020019184600183028401116401000000008311171561021a57600080fd5b91908080601f016020809104026020016040519081016040528093929190818152602001838380828437600081840152601f19601f8201169050808301925050505050505091929192908035906020019092919080359060200190929190803590602001909291908035906020019064010000000081111561029b57600080fd5b8201836020820111156102ad57600080fd5b803590602001918460018302840111640100000000831117156102cf57600080fd5b91908080601f016020809104026020016040519081016040528093929190818152602001838380828437600081840152601f19601f8201169050808301925050505050505091929192908035906020019064010000000081111561033257600080fd5b82018360208201111561034457600080fd5b8035906020019184600183028401116401000000008311171561036657600080fd5b91908080601f016020809104026020016040519081016040528093929190818152602001838380828437600081840152601f19601f820116905080830192505050505050509192919290803573ffffffffffffffffffffffffffffffffffffffff169060200190929190505050611862565b005b3480156103e657600080fd5b506103ef611d43565b604051808215151515815260200191505060405180910390f35b34801561041557600080fd5b506104426004803603602081101561042c57600080fd5b8101908080359060200190929190505050611d52565b6040518080602001838152602001828103825284818151815260200191508051906020019080838360005b8381101561048857808201518184015260208101905061046d565b50505050905090810190601f1680156104b55780820380516001836020036101000a031916815260200191505b50935050505060405180910390f35b3480156104d057600080fd5b506104fd600480360360208110156104e757600080fd5b8101908080359060200190929190505050611e0e565b6040518080602001848152602001838152602001828103825285818151815260200191508051906020019080838360005b8381101561054957808201518184015260208101905061052e565b50505050905090810190601f1680156105765780820380516001836020036101000a031916815260200191505b5094505050505060405180910390f35b34801561059257600080fd5b5061059b611ed0565b6040518082815260200191505060405180910390f35b3480156105bd57600080fd5b5061060a600480360360408110156105d457600080fd5b8101908080359060200190929190803573ffffffffffffffffffffffffffffffffffffffff169060200190929190505050611edd565b604051808260000b60000b815260200191505060405180910390f35b34801561063257600080fd5b506108176004803603606081101561064957600080fd5b810190808035906020019064010000000081111561066657600080fd5b82018360208201111561067857600080fd5b8035906020019184600183028401116401000000008311171561069a57600080fd5b91908080601f016020809104026020016040519081016040528093929190818152602001838380828437600081840152601f19601f820116905080830192505050505050509192919290803590602001906401000000008111156106fd57600080fd5b82018360208201111561070f57600080fd5b8035906020019184600183028401116401000000008311171561073157600080fd5b91908080601f016020809104026020016040519081016040528093929190818152602001838380828437600081840152601f19601f8201169050808301925050505050505091929192908035906020019064010000000081111561079457600080fd5b8201836020820111156107a657600080fd5b803590602001918460208302840111640100000000831117156107c857600080fd5b919080806020026020016040519081016040528093929190818152602001838360200280828437600081840152601f19601f820116905080830192505050505050509192919290505050611f0c565b005b34801561082557600080fd5b506108526004803603602081101561083c57600080fd5b8101908080359060200190929190505050612006565b604051808a81526020018981526020018881526020018781526020018673ffffffffffffffffffffffffffffffffffffffff1673ffffffffffffffffffffffffffffffffffffffff1681526020018515151515815260200184151515158152602001838152602001828152602001995050505050505050505060405180910390f35b3480156108e057600080fd5b506108e96123b3565b6040518082815260200191505060405180910390f35b34801561090b57600080fd5b506109456004803603604081101561092257600080fd5b8101908080359060200190929190803560000b90602001909291905050506123b9565b005b34801561095357600080fd5b506109806004803603602081101561096a57600080fd5b8101908080359060200190929190505050612c79565b604051808273ffffffffffffffffffffffffffffffffffffffff1673ffffffffffffffffffffffffffffffffffffffff16815260200191505060405180910390f35b3480156109ce57600080fd5b506109d7612cb7565b6040518082815260200191505060405180910390f35b3480156109f957600080fd5b50610a02612cbd565b6040518082815260200191505060405180910390f35b348015610a2457600080fd5b50610c20600480360360a0811015610a3b57600080fd5b8101908080359060200190640100000000811115610a5857600080fd5b820183602082011115610a6a57600080fd5b80359060200191846001830284011164010000000083111715610a8c57600080fd5b91908080601f016020809104026020016040519081016040528093929190818152602001838380828437600081840152601f19601f820116905080830192505050505050509192919290803590602001909291908035906020019092919080359060200190640100000000811115610b0357600080fd5b820183602082011115610b1557600080fd5b80359060200191846001830284011164010000000083111715610b3757600080fd5b91908080601f016020809104026020016040519081016040528093929190818152602001838380828437600081840152601f19601f82011690508083019250505050505050919291929080359060200190640100000000811115610b9a57600080fd5b820183602082011115610bac57600080fd5b80359060200191846001830284011164010000000083111715610bce57600080fd5b91908080601f016020809104026020016040519081016040528093929190818152602001838380828437600081840152601f19601f820116905080830192505050505050509192919290505050612cc3565b005b348015610c2e57600080fd5b50610c7160048036036020811015610c4557600080fd5b81019080803573ffffffffffffffffffffffffffffffffffffffff169060200190929190505050612f1e565b6040518082815260200191505060405180910390f35b348015610c9357600080fd5b50610c9c612f36565b005b348015610caa57600080fd5b50610fd1600480360360e0811015610cc157600080fd5b8101908080359060200190640100000000811115610cde57600080fd5b820183602082011115610cf057600080fd5b80359060200191846001830284011164010000000083111715610d1257600080fd5b91908080601f016020809104026020016040519081016040528093929190818152602001838380828437600081840152601f19601f82011690508083019250505050505050919291929080359060200190640100000000811115610d7557600080fd5b820183602082011115610d8757600080fd5b80359060200191846001830284011164010000000083111715610da957600080fd5b91908080601f016020809104026020016040519081016040528093929190818152602001838380828437600081840152601f19601f82011690508083019250505050505050919291929080359060200190640100000000811115610e0c57600080fd5b820183602082011115610e1e57600080fd5b80359060200191846020830284011164010000000083111715610e4057600080fd5b919080806020026020016040519081016040528093929190818152602001838360200280828437600081840152601f19601f820116905080830192505050505050509192919290803590602001909291908035906020019092919080359060200190640100000000811115610eb457600080fd5b820183602082011115610ec657600080fd5b80359060200191846001830284011164010000000083111715610ee857600080fd5b91908080601f016020809104026020016040519081016040528093929190818152602001838380828437600081840152601f19601f82011690508083019250505050505050919291929080359060200190640100000000811115610f4b57600080fd5b820183602082011115610f5d57600080fd5b80359060200191846001830284011164010000000083111715610f7f57600080fd5b91908080601f016020809104026020016040519081016040528093929190818152602001838380828437600081840152601f19601f8201169050808301925050505050505091929192905050506130c7565b005b348015610fdf57600080fd5b50610fe861336b565b604051808273ffffffffffffffffffffffffffffffffffffffff1673ffffffffffffffffffffffffffffffffffffffff16815260200191505060405180910390f35b34801561103657600080fd5b5061103f613390565b6040518082815260200191505060405180910390f35b34801561106157600080fd5b5061108e6004803603602081101561107857600080fd5b810190808035906020019092919050505061339d565b604051808060200180602001848152602001838103835286818151815260200191508051906020019080838360005b838110156110d85780820151818401526020810190506110bd565b50505050905090810190601f1680156111055780820380516001836020036101000a031916815260200191505b50838103825285818151815260200191508051906020019080838360005b8381101561113e578082015181840152602081019050611123565b50505050905090810190601f16801561116b5780820380516001836020036101000a031916815260200191505b509550505050505060405180910390f35b34801561118857600080fd5b506111916134f7565b6040518082815260200191505060405180910390f35b3480156111b357600080fd5b506111e0600480360360208110156111ca57600080fd5b81019080803590602001909291905050506134fd565b604051808d8152602001806020018c81526020018b81526020018a81526020018973ffffffffffffffffffffffffffffffffffffffff1673ffffffffffffffffffffffffffffffffffffffff16815260200180602001806020018881526020018781526020018681526020018573ffffffffffffffffffffffffffffffffffffffff1673ffffffffffffffffffffffffffffffffffffffff16815260200184810384528f818151815260200191508051906020019080838360005b838110156112b657808201518184015260208101905061129b565b50505050905090810190601f1680156112e35780820380516001836020036101000a031916815260200191505b5084810383528a818151815260200191508051906020019080838360005b8381101561131c578082015181840152602081019050611301565b50505050905090810190601f1680156113495780820380516001836020036101000a031916815260200191505b50848103825289818151815260200191508051906020019080838360005b83811015611382578082015181840152602081019050611367565b50505050905090810190601f1680156113af5780820380516001836020036101000a031916815260200191505b509f5050505050505050505050505050505060405180910390f35b3480156113d657600080fd5b50611545600480360360a08110156113ed57600080fd5b810190808035906020019092919080359060200190929190803590602001909291908035906020019064010000000081111561142857600080fd5b82018360208201111561143a57600080fd5b8035906020019184600183028401116401000000008311171561145c57600080fd5b91908080601f016020809104026020016040519081016040528093929190818152602001838380828437600081840152601f19601f820116905080830192505050505050509192919290803590602001906401000000008111156114bf57600080fd5b8201836020820111156114d157600080fd5b803590602001918460018302840111640100000000831117156114f357600080fd5b91908080601f016020809104026020016040519081016040528093929190818152602001838380828437600081840152601f19601f82011690508083019250505050505050919291929050505061388d565b005b34801561155357600080fd5b5061155c613ab5565b6040518082815260200191505060405180910390f35b34801561157e57600080fd5b50611587613abb565b6040518082815260200191505060405180910390f35b3480156115a957600080fd5b506115b2613ac1565b6040518080602001828103825283818151815260200191508051906020019060200280838360005b838110156115f55780820151818401526020810190506115da565b505050509050019250505060405180910390f35b34801561161557600080fd5b506116586004803603602081101561162c57600080fd5b81019080803573ffffffffffffffffffffffffffffffffffffffff169060200190929190505050613b4f565b005b34801561166657600080fd5b5061166f613c45565b6040518082815260200191505060405180910390f35b34801561169157600080fd5b5061169a613c4b565b6040518082815260200191505060405180910390f35b6116b8613c51565b151561172c576040517f08c379a000000000000000000000000000000000000000000000000000000000815260040180806020018281038252601f8152602001807f7468697320636f6e747261637420697320696e20636f6e666967206d6f64650081525060200191505060405180910390fd5b61173533613ca8565b15156117cf576040517f08c379a000000000000000000000000000000000000000000000000000000000815260040180806020018281038252602a8152602001807f6f6e6c792076616c6964206d656d626572732063616e20646f2074686973207481526020017f72616e73616374696f6e0000000000000000000000000000000000000000000081525060400191505060405180910390fd5b611860600480548060200260200160405190810160405280929190818152602001828054801561185457602002820191906000526020600020905b8160009054906101000a900473ffffffffffffffffffffffffffffffffffffffff1673ffffffffffffffffffffffffffffffffffffffff168152602001906001019080831161180a575b50505050506000613d44565b565b61186a613c51565b15156118de576040517f08c379a000000000000000000000000000000000000000000000000000000000815260040180806020018281038252601f8152602001807f7468697320636f6e747261637420697320696e20636f6e666967206d6f64650081525060200191505060405180910390fd5b6118e733613ca8565b1515611981576040517f08c379a000000000000000000000000000000000000000000000000000000000815260040180806020018281038252602a8152602001807f6f6e6c792076616c6964206d656d626572732063616e20646f2074686973207481526020017f72616e73616374696f6e0000000000000000000000000000000000000000000081525060400191505060405180910390fd5b600180600360003373ffffffffffffffffffffffffffffffffffffffff1673ffffffffffffffffffffffffffffffffffffffff1681526020019081526020016000205410151515611a3a576040517f08c379a00000000000000000000000000000000000000000000000000000000081526004018080602001828103825260198152602001807f796f752068617665206e6f7420656e6f75676820746f6b656e0000000000000081525060200191505060405180910390fd5b3073ffffffffffffffffffffffffffffffffffffffff168273ffffffffffffffffffffffffffffffffffffffff1614151515611b04576040517f08c379a00000000000000000000000000000000000000000000000000000000081526004018080602001828103825260388152602001807f7573696e6720696e7465726e616c20636f6e747261637420666f72206578746581526020017f726e616c2070726f706f73616c20697320696e76616c6964000000000000000081525060400191505060405180910390fd5b6008610180604051908101604052808b81526020018a81526020018981526020018881526020018781526020013373ffffffffffffffffffffffffffffffffffffffff168152602001868152602001858152602001611b61613e2a565b815260200160008152602001600081526020018473ffffffffffffffffffffffffffffffffffffffff168152509080600181540180825580915050906001820390600052602060002090600c020160009091929091909150600082015181600001556020820151816001019080519060200190611bdf929190614a0d565b5060408201518160020155606082015181600301556080820151816004015560a08201518160050160006101000a81548173ffffffffffffffffffffffffffffffffffffffff021916908373ffffffffffffffffffffffffffffffffffffffff16021790555060c0820151816006019080519060200190611c61929190614a0d565b5060e0820151816007019080519060200190611c7e929190614a0d565b506101008201518160080155610120820151816009015561014082015181600a015561016082015181600b0160006101000a81548173ffffffffffffffffffffffffffffffffffffffff021916908373ffffffffffffffffffffffffffffffffffffffff16021790555050505080600360003373ffffffffffffffffffffffffffffffffffffffff1673ffffffffffffffffffffffffffffffffffffffff16815260200190815260200160002060008282540392505081905550505050505050505050565b6000611d4d613c51565b905090565b6010602052806000526040600020600091509050806000018054600181600116156101000203166002900480601f016020809104026020016040519081016040528092919081815260200182805460018160011615610100020316600290048015611dfe5780601f10611dd357610100808354040283529160200191611dfe565b820191906000526020600020905b815481529060010190602001808311611de157829003601f168201915b5050505050908060010154905082565b6011602052806000526040600020600091509050806000018054600181600116156101000203166002900480601f016020809104026020016040519081016040528092919081815260200182805460018160011615610100020316600290048015611eba5780601f10611e8f57610100808354040283529160200191611eba565b820191906000526020600020905b815481529060010190602001808311611e9d57829003601f168201915b5050505050908060010154908060020154905083565b6000600480549050905090565b60096020528160005260406000206020528060005260406000206000915091509054906101000a900460000b81565b6000809054906101000a900473ffffffffffffffffffffffffffffffffffffffff1673ffffffffffffffffffffffffffffffffffffffff163373ffffffffffffffffffffffffffffffffffffffff16141515611ff6576040517f08c379a00000000000000000000000000000000000000000000000000000000081526004018080602001828103825260218152602001807f6f6e6c79206f776e65722063616e2063616c6c20746869732066756e6374696f81526020017f6e0000000000000000000000000000000000000000000000000000000000000081525060400191505060405180910390fd5b612001838383613e32565b505050565b600080600080600080600080600061201c614a8d565b60088b81548110151561202b57fe5b90600052602060002090600c0201610180604051908101604052908160008201548152602001600182018054600181600116156101000203166002900480601f0160208091040260200160405190810160405280929190818152602001828054600181600116156101000203166002900480156120e95780601f106120be576101008083540402835291602001916120e9565b820191906000526020600020905b8154815290600101906020018083116120cc57829003601f168201915b505050505081526020016002820154815260200160038201548152602001600482015481526020016005820160009054906101000a900473ffffffffffffffffffffffffffffffffffffffff1673ffffffffffffffffffffffffffffffffffffffff1673ffffffffffffffffffffffffffffffffffffffff168152602001600682018054600181600116156101000203166002900480601f0160208091040260200160405190810160405280929190818152602001828054600181600116156101000203166002900480156121ff5780601f106121d4576101008083540402835291602001916121ff565b820191906000526020600020905b8154815290600101906020018083116121e257829003601f168201915b50505050508152602001600782018054600181600116156101000203166002900480601f0160208091040260200160405190810160405280929190818152602001828054600181600116156101000203166002900480156122a15780601f10612276576101008083540402835291602001916122a1565b820191906000526020600020905b81548152906001019060200180831161228457829003601f168201915b505050505081526020016008820154815260200160098201548152602001600a8201548152602001600b820160009054906101000a900473ffffffffffffffffffffffffffffffffffffffff1673ffffffffffffffffffffffffffffffffffffffff1673ffffffffffffffffffffffffffffffffffffffff16815250509050600081610140015182610120015101905081600001518261012001518361014001518460400151856101600151866060015161235a613e2a565b108760800151612368613e2a565b10158760648a61012001510281151561237d57fe5b048860648b61014001510281151561239157fe5b049a509a509a509a509a509a509a509a509a5050509193959799909294969850565b60025481565b6123c1613c51565b1515612435576040517f08c379a000000000000000000000000000000000000000000000000000000000815260040180806020018281038252601f8152602001807f7468697320636f6e747261637420697320696e20636f6e666967206d6f64650081525060200191505060405180910390fd5b61243e33613ca8565b15156124d8576040517f08c379a000000000000000000000000000000000000000000000000000000000815260040180806020018281038252602a8152602001807f6f6e6c792076616c6964206d656d626572732063616e20646f2074686973207481526020017f72616e73616374696f6e0000000000000000000000000000000000000000000081525060400191505060405180910390fd5b6124e0614a8d565b6008838154811015156124ef57fe5b90600052602060002090600c0201610180604051908101604052908160008201548152602001600182018054600181600116156101000203166002900480601f0160208091040260200160405190810160405280929190818152602001828054600181600116156101000203166002900480156125ad5780601f10612582576101008083540402835291602001916125ad565b820191906000526020600020905b81548152906001019060200180831161259057829003601f168201915b505050505081526020016002820154815260200160038201548152602001600482015481526020016005820160009054906101000a900473ffffffffffffffffffffffffffffffffffffffff1673ffffffffffffffffffffffffffffffffffffffff1673ffffffffffffffffffffffffffffffffffffffff168152602001600682018054600181600116156101000203166002900480601f0160208091040260200160405190810160405280929190818152602001828054600181600116156101000203166002900480156126c35780601f10612698576101008083540402835291602001916126c3565b820191906000526020600020905b8154815290600101906020018083116126a657829003601f168201915b50505050508152602001600782018054600181600116156101000203166002900480601f0160208091040260200160405190810160405280929190818152602001828054600181600116156101000203166002900480156127655780601f1061273a57610100808354040283529160200191612765565b820191906000526020600020905b81548152906001019060200180831161274857829003601f168201915b505050505081526020016008820154815260200160098201548152602001600a8201548152602001600b820160009054906101000a900473ffffffffffffffffffffffffffffffffffffffff1673ffffffffffffffffffffffffffffffffffffffff1673ffffffffffffffffffffffffffffffffffffffff16815250509050600073ffffffffffffffffffffffffffffffffffffffff168160a0015173ffffffffffffffffffffffffffffffffffffffff161415151561288d576040517f08c379a00000000000000000000000000000000000000000000000000000000081526004018080602001828103825260128152602001807f70726f706f73616c206e6f7420666f756e64000000000000000000000000000081525060200191505060405180910390fd5b612895613e2a565b816060015110151561290f576040517f08c379a00000000000000000000000000000000000000000000000000000000081526004018080602001828103825260158152602001807f766f74696e67206973206e6f742073746172746564000000000000000000000081525060200191505060405180910390fd5b612917613e2a565b8160800151111515612991576040517f08c379a00000000000000000000000000000000000000000000000000000000081526004018080602001828103825260138152602001807f766f74696e67207761732066696e69736865640000000000000000000000000081525060200191505060405180910390fd5b60006009600085815260200190815260200160002060003373ffffffffffffffffffffffffffffffffffffffff1673ffffffffffffffffffffffffffffffffffffffff16815260200190815260200160002060009054906101000a900460000b60000b141515612a69576040517f08c379a000000000000000000000000000000000000000000000000000000000815260040180806020018281038252601a8152602001807f796f757220766f74652072656769737465726564206c6174657200000000000081525060200191505060405180910390fd5b60008260000b14151515612b0b576040517f08c379a000000000000000000000000000000000000000000000000000000000815260040180806020018281038252602a8152602001807f796f75206d75737420736574207570206f7220646f776e20776974682031206f81526020017f72202d312076616c75650000000000000000000000000000000000000000000081525060400191505060405180910390fd5b60008260000b1315612bb85760016009600085815260200190815260200160002060003373ffffffffffffffffffffffffffffffffffffffff1673ffffffffffffffffffffffffffffffffffffffff16815260200190815260200160002060006101000a81548160ff021916908360000b60ff1602179055506001600884815481101515612b9557fe5b90600052602060002090600c020160090160008282540192505081905550612c74565b7fffffffffffffffffffffffffffffffffffffffffffffffffffffffffffffffff6009600085815260200190815260200160002060003373ffffffffffffffffffffffffffffffffffffffff1673ffffffffffffffffffffffffffffffffffffffff16815260200190815260200160002060006101000a81548160ff021916908360000b60ff1602179055506001600884815481101515612c5557fe5b90600052602060002090600c0201600a01600082825401925050819055505b505050565b600481815481101515612c8857fe5b906000526020600020016000915054906101000a900473ffffffffffffffffffffffffffffffffffffffff1681565b60125481565b600e5481565b612ccb613c51565b1515612d3f576040517f08c379a000000000000000000000000000000000000000000000000000000000815260040180806020018281038252601f8152602001807f7468697320636f6e747261637420697320696e20636f6e666967206d6f64650081525060200191505060405180910390fd5b612d4833613ca8565b1515612de2576040517f08c379a000000000000000000000000000000000000000000000000000000000815260040180806020018281038252602a8152602001807f6f6e6c792076616c6964206d656d626572732063616e20646f2074686973207481526020017f72616e73616374696f6e0000000000000000000000000000000000000000000081525060400191505060405180910390fd5b60008551111515612e5b576040517f08c379a00000000000000000000000000000000000000000000000000000000081526004018080602001828103825260168152602001807f73656c656374206e616d6520666f7220616e63686f720000000000000000000081525060200191505060405180910390fd5b6012600081548092919060010191905055506000612ec16012546040805190810160405280600d81526020017f72656d6f766520616e63686f720000000000000000000000000000000000000081525060016004811115612eb857fe5b88888888614032565b905060408051908101604052808781526020016000815250601060008381526020019081526020016000206000820151816000019080519060200190612f08929190614a0d565b5060208201518160010155905050505050505050565b60036020528060005260406000206000915090505481565b6000809054906101000a900473ffffffffffffffffffffffffffffffffffffffff1673ffffffffffffffffffffffffffffffffffffffff163373ffffffffffffffffffffffffffffffffffffffff16141515613020576040517f08c379a00000000000000000000000000000000000000000000000000000000081526004018080602001828103825260218152602001807f6f6e6c79206f776e65722063616e2063616c6c20746869732066756e6374696f81526020017f6e0000000000000000000000000000000000000000000000000000000000000081525060400191505060405180910390fd5b6000809054906101000a900473ffffffffffffffffffffffffffffffffffffffff1673ffffffffffffffffffffffffffffffffffffffff167ff8df31144d9c2f0f6b59d69b8b98abd5459d07f2742c4df920b25aae33c6482060405160405180910390a260008060006101000a81548173ffffffffffffffffffffffffffffffffffffffff021916908373ffffffffffffffffffffffffffffffffffffffff160217905550565b6130cf613c51565b1515613143576040517f08c379a000000000000000000000000000000000000000000000000000000000815260040180806020018281038252601f8152602001807f7468697320636f6e747261637420697320696e20636f6e666967206d6f64650081525060200191505060405180910390fd5b61314c33613ca8565b15156131e6576040517f08c379a000000000000000000000000000000000000000000000000000000000815260040180806020018281038252602a8152602001807f6f6e6c792076616c6964206d656d626572732063616e20646f2074686973207481526020017f72616e73616374696f6e0000000000000000000000000000000000000000000081525060400191505060405180910390fd5b6000875111151561325f576040517f08c379a00000000000000000000000000000000000000000000000000000000081526004018080602001828103825260168152602001807f73656c656374206e616d6520666f7220616e63686f720000000000000000000081525060200191505060405180910390fd5b60126000815480929190600101919050555060006132c56012546040805190810160405280600a81526020017f61646420616e63686f7200000000000000000000000000000000000000000000815250600060048111156132bc57fe5b88888888614032565b90506080604051908101604052808981526020018881526020018781526020016000815250600f60008381526020019081526020016000206000820151816000019080519060200190613319929190614a0d565b506020820151816001019080519060200190613336929190614a0d565b506040820151816002019080519060200190613353929190614b1b565b50606082015181600301559050505050505050505050565b6000809054906101000a900473ffffffffffffffffffffffffffffffffffffffff1681565b6000600880549050905090565b600f602052806000526040600020600091509050806000018054600181600116156101000203166002900480601f0160208091040260200160405190810160405280929190818152602001828054600181600116156101000203166002900480156134495780601f1061341e57610100808354040283529160200191613449565b820191906000526020600020905b81548152906001019060200180831161342c57829003601f168201915b505050505090806001018054600181600116156101000203166002900480601f0160208091040260200160405190810160405280929190818152602001828054600181600116156101000203166002900480156134e75780601f106134bc576101008083540402835291602001916134e7565b820191906000526020600020905b8154815290600101906020018083116134ca57829003601f168201915b5050505050908060030154905083565b600b5481565b60006060600080600080606080600080600080613518614a8d565b60088e81548110151561352757fe5b90600052602060002090600c0201610180604051908101604052908160008201548152602001600182018054600181600116156101000203166002900480601f0160208091040260200160405190810160405280929190818152602001828054600181600116156101000203166002900480156135e55780601f106135ba576101008083540402835291602001916135e5565b820191906000526020600020905b8154815290600101906020018083116135c857829003601f168201915b505050505081526020016002820154815260200160038201548152602001600482015481526020016005820160009054906101000a900473ffffffffffffffffffffffffffffffffffffffff1673ffffffffffffffffffffffffffffffffffffffff1673ffffffffffffffffffffffffffffffffffffffff168152602001600682018054600181600116156101000203166002900480601f0160208091040260200160405190810160405280929190818152602001828054600181600116156101000203166002900480156136fb5780601f106136d0576101008083540402835291602001916136fb565b820191906000526020600020905b8154815290600101906020018083116136de57829003601f168201915b50505050508152602001600782018054600181600116156101000203166002900480601f01602080910402602001604051908101604052809291908181526020018280546001816001161561010002031660029004801561379d5780601f106137725761010080835404028352916020019161379d565b820191906000526020600020905b81548152906001019060200180831161378057829003601f168201915b505050505081526020016008820154815260200160098201548152602001600a8201548152602001600b820160009054906101000a900473ffffffffffffffffffffffffffffffffffffffff1673ffffffffffffffffffffffffffffffffffffffff1673ffffffffffffffffffffffffffffffffffffffff16815250509050806000015181602001518260400151836060015184608001518560a001518660c001518760e001518861010001518961012001518a61014001518b61016001518a9a508595508494509c509c509c509c509c509c509c509c509c509c509c509c505091939597999b5091939597999b565b613895613c51565b1515613909576040517f08c379a000000000000000000000000000000000000000000000000000000000815260040180806020018281038252601f8152602001807f7468697320636f6e747261637420697320696e20636f6e666967206d6f64650081525060200191505060405180910390fd5b61391233613ca8565b15156139ac576040517f08c379a000000000000000000000000000000000000000000000000000000000815260040180806020018281038252602a8152602001807f6f6e6c792076616c6964206d656d626572732063616e20646f2074686973207481526020017f72616e73616374696f6e0000000000000000000000000000000000000000000081525060400191505060405180910390fd5b6012600081548092919060010191905055506000613a126012546040805190810160405280601181526020017f7365742061636365737320746f636b656e00000000000000000000000000000081525060036004811115613a0957fe5b88888888614032565b90506060604051908101604052806040805190810160405280601181526020017f7365742061636365737320746f636b656e00000000000000000000000000000081525081526020018781526020016000815250601160008381526020019081526020016000206000820151816000019080519060200190613a95929190614a0d565b506020820151816001015560408201518160020155905050505050505050565b60015481565b600d5481565b60606004805480602002602001604051908101604052809291908181526020018280548015613b4557602002820191906000526020600020905b8160009054906101000a900473ffffffffffffffffffffffffffffffffffffffff1673ffffffffffffffffffffffffffffffffffffffff1681526020019060010190808311613afb575b5050505050905090565b6000809054906101000a900473ffffffffffffffffffffffffffffffffffffffff1673ffffffffffffffffffffffffffffffffffffffff163373ffffffffffffffffffffffffffffffffffffffff16141515613c39576040517f08c379a00000000000000000000000000000000000000000000000000000000081526004018080602001828103825260218152602001807f6f6e6c79206f776e65722063616e2063616c6c20746869732066756e6374696f81526020017f6e0000000000000000000000000000000000000000000000000000000000000081525060400191505060405180910390fd5b613c428161444d565b50565b600c5481565b600a5481565b60008073ffffffffffffffffffffffffffffffffffffffff166000809054906101000a900473ffffffffffffffffffffffffffffffffffffffff1673ffffffffffffffffffffffffffffffffffffffff1614905090565b600080613d3b6004805480602002602001604051908101604052809291908181526020018280548015613d3057602002820191906000526020600020905b8160009054906101000a900473ffffffffffffffffffffffffffffffffffffffff1673ffffffffffffffffffffffffffffffffffffffff1681526020019060010190808311613ce6575b5050505050846145b0565b12159050919050565b6000600154118015613d54575080155b15613e0c5760006301e13380600154019050613d6e613e2a565b81101515613e0a576040517f08c379a00000000000000000000000000000000000000000000000000000000081526004018080602001828103825260248152602001807f796f75206d7573742072656e657720746f6b656e73206166746572206f6e652081526020017f796561720000000000000000000000000000000000000000000000000000000081525060400191505060405180910390fd5b505b613e18826002546146a9565b613e20613e2a565b6001819055505050565b600042905090565b6000613e3d846146eb565b9050613e4881614780565b151515613ebd576040517f08c379a00000000000000000000000000000000000000000000000000000000081526004018080602001828103825260108152602001807f64756270696361746520616e63686f720000000000000000000000000000000081525060200191505060405180910390fd5b600554825111151515613f5e576040517f08c379a000000000000000000000000000000000000000000000000000000000815260040180806020018281038252602a8152602001807f6d656d6265727320617265206d6f7265207468616e2076616c6964206d656d6581526020017f6265727320636f756e740000000000000000000000000000000000000000000081525060400191505060405180910390fd5b60066060604051908101604052808381526020018681526020018581525090806001815401808255809150509060018203906000526020600020906003020160009091929091909150600082015181600001556020820151816001019080519060200190613fcd929190614a0d565b506040820151816002019080519060200190613fea929190614a0d565b5050505060008090505b825181101561402b5761401e82848381518110151561400f57fe5b90602001906020020151614795565b8080600101915050613ff4565b5050505050565b600061403c613c51565b15156140b0576040517f08c379a000000000000000000000000000000000000000000000000000000000815260040180806020018281038252601f8152602001807f7468697320636f6e747261637420697320696e20636f6e666967206d6f64650081525060200191505060405180910390fd5b6140b933613ca8565b1515614153576040517f08c379a000000000000000000000000000000000000000000000000000000000815260040180806020018281038252602a8152602001807f6f6e6c792076616c6964206d656d626572732063616e20646f2074686973207481526020017f72616e73616374696f6e0000000000000000000000000000000000000000000081525060400191505060405180910390fd5b600180600360003373ffffffffffffffffffffffffffffffffffffffff1673ffffffffffffffffffffffffffffffffffffffff168152602001908152602001600020541015151561420c576040517f08c379a00000000000000000000000000000000000000000000000000000000081526004018080602001828103825260198152602001807f796f752068617665206e6f7420656e6f75676820746f6b656e0000000000000081525060200191505060405180910390fd5b6008610180604051908101604052808b81526020018a81526020018981526020018881526020018781526020013373ffffffffffffffffffffffffffffffffffffffff168152602001868152602001858152602001614269613e2a565b815260200160008152602001600081526020013073ffffffffffffffffffffffffffffffffffffffff168152509080600181540180825580915050906001820390600052602060002090600c0201600090919290919091506000820151816000015560208201518160010190805190602001906142e7929190614a0d565b5060408201518160020155606082015181600301556080820151816004015560a08201518160050160006101000a81548173ffffffffffffffffffffffffffffffffffffffff021916908373ffffffffffffffffffffffffffffffffffffffff16021790555060c0820151816006019080519060200190614369929190614a0d565b5060e0820151816007019080519060200190614386929190614a0d565b506101008201518160080155610120820151816009015561014082015181600a015561016082015181600b0160006101000a81548173ffffffffffffffffffffffffffffffffffffffff021916908373ffffffffffffffffffffffffffffffffffffffff1602179055505050915080600360003373ffffffffffffffffffffffffffffffffffffffff1673ffffffffffffffffffffffffffffffffffffffff1681526020019081526020016000206000828254039250508190555050979650505050505050565b600073ffffffffffffffffffffffffffffffffffffffff168173ffffffffffffffffffffffffffffffffffffffff16141515156144f2576040517f08c379a000000000000000000000000000000000000000000000000000000000815260040180806020018281038252601b8152602001807f6f776e6572206d7573742062652076616c69642061646472657373000000000081525060200191505060405180910390fd5b8073ffffffffffffffffffffffffffffffffffffffff166000809054906101000a900473ffffffffffffffffffffffffffffffffffffffff1673ffffffffffffffffffffffffffffffffffffffff167f8be0079c531659141344cd1fd0a4f28419497f9722a3daafe3b4186f6b6457e060405160405180910390a3806000806101000a81548173ffffffffffffffffffffffffffffffffffffffff021916908373ffffffffffffffffffffffffffffffffffffffff16021790555050565b60008073ffffffffffffffffffffffffffffffffffffffff168273ffffffffffffffffffffffffffffffffffffffff16141561460e577fffffffffffffffffffffffffffffffffffffffffffffffffffffffffffffffff90506146a3565b60008090505b835181101561467e578273ffffffffffffffffffffffffffffffffffffffff16848281518110151561464257fe5b9060200190602002015173ffffffffffffffffffffffffffffffffffffffff16141561467157809150506146a3565b8080600101915050614614565b507fffffffffffffffffffffffffffffffffffffffffffffffffffffffffffffffff90505b92915050565b60008090505b82518110156146e6576146d983828151811015156146c957fe5b9060200190602002015183614819565b80806001019150506146af565b505050565b6000816040516020018080602001828103825283818151815260200191508051906020019080838360005b83811015614731578082015181840152602081019050614716565b50505050905090810190601f16801561475e5780820380516001836020036101000a031916815260200191505b5092505050604051602081830303815290604052805190602001209050919050565b60008061478c83614861565b12159050919050565b600760008381526020019081526020016000208190806001815401808255809150509060018203906000526020600020016000909192909190916101000a81548173ffffffffffffffffffffffffffffffffffffffff021916908373ffffffffffffffffffffffffffffffffffffffff1602179055505061481581614926565b5050565b80600360008473ffffffffffffffffffffffffffffffffffffffff1673ffffffffffffffffffffffffffffffffffffffff168152602001908152602001600020819055505050565b600061487c60206040519081016040528060008152506146eb565b8214156148ab577fffffffffffffffffffffffffffffffffffffffffffffffffffffffffffffffff9050614921565b60008090505b6006805490508110156148fc57826006828154811015156148ce57fe5b90600052602060002090600302016000015414156148ef5780915050614921565b80806001019150506148b1565b507fffffffffffffffffffffffffffffffffffffffffffffffffffffffffffffffff90505b919050565b61492f33613ca8565b1515156149a4576040517f08c379a00000000000000000000000000000000000000000000000000000000081526004018080602001828103825260108152602001807f647562706963617465206d656d6265720000000000000000000000000000000081525060200191505060405180910390fd5b60048190806001815401808255809150509060018203906000526020600020016000909192909190916101000a81548173ffffffffffffffffffffffffffffffffffffffff021916908373ffffffffffffffffffffffffffffffffffffffff1602179055505050565b828054600181600116156101000203166002900490600052602060002090601f016020900481019282601f10614a4e57805160ff1916838001178555614a7c565b82800160010185558215614a7c579182015b82811115614a7b578251825591602001919060010190614a60565b5b509050614a899190614ba5565b5090565b610180604051908101604052806000815260200160608152602001600081526020016000815260200160008152602001600073ffffffffffffffffffffffffffffffffffffffff1681526020016060815260200160608152602001600081526020016000815260200160008152602001600073ffffffffffffffffffffffffffffffffffffffff1681525090565b828054828255906000526020600020908101928215614b94579160200282015b82811115614b935782518260006101000a81548173ffffffffffffffffffffffffffffffffffffffff021916908373ffffffffffffffffffffffffffffffffffffffff16021790555091602001919060010190614b3b565b5b509050614ba19190614bca565b5090565b614bc791905b80821115614bc3576000816000905550600101614bab565b5090565b90565b614c0a91905b80821115614c0657600081816101000a81549073ffffffffffffffffffffffffffffffffffffffff021916905550600101614bd0565b5090565b9056fea165627a7a72305820788c19f6b36f0ff9d0ec479719229e6839a2148ddbe2b6f40734aad870b3b6f20029",
  "source": "pragma solidity >=0.4.21 <0.6.0;\n\nimport \"./Voting.sol\";\nimport \"./Config.sol\";\n\ncontract KuknosDAO is Voting, Config {\n\n    enum ProposalTypes { AddAnchor, RemoveAnchor, ChangeAnchorMember, RenewAccessToken, ChangeConfig }\n\n    struct AddAnchorProposal {\n        string name;\n        string url;\n        address[] members;\n        uint executionTime;\n    }\n\n    struct RemoveAnchorProposal {\n        string name;\n        uint executionTime;\n    }\n\n    struct RenewAccessTockenProposal {\n        string name;\n        uint count;\n        uint executionTime;\n    }\n\n    mapping ( uint => AddAnchorProposal ) public addAnchorProposals;\n\n    mapping ( uint => RemoveAnchorProposal ) public removeAnchorProposal;\n\n    mapping ( uint => RenewAccessTockenProposal ) public renewAccessTockenProposal;\n\n    uint public internalProposalsCount = 0;\n\n    constructor(uint _voterTokensCount) public Voting(_voterTokensCount) {\n    }\n\n    function addNewAnchor(string memory _name, string memory _url, address[] memory _members) public onlyOwner {\n        addAnchor(_name, _url, _members);\n    }\n\n    function contractIsActive() public view returns(bool) {\n        return contractHasNoOwener();\n    }\n\n\n    function checkProposalUpPercentage(uint _id, ProposalTypes pType) internal view returns(uint) {\n        (,,,uint proposalType, address contractAddress,, bool isFinished, uint upPercentage,) = getProposalStatus(_id);\n        require(proposalType == uint(pType), \"type mismatch\");\n        require(contractAddress == address(this), \"the propsal is not an internal proposal\");\n        require(isFinished,\"the propsal is not finished\");\n        return upPercentage;\n    }\n\n    // Add new Anchor Proposal\n    function registerAddAnchorProposal(\n      string memory _anchorName,\n      string memory _anchorUrl,\n      address[] memory _members,\n      uint _startDate,\n      uint _endDate,\n      string memory _url,\n      string memory _hashCode\n      ) public onlyMembers {\n          require(bytes(_anchorName).length > 0, \"select name for anchor\");\n          internalProposalsCount++;\n          uint id = registerInternalProposal(\n              internalProposalsCount,\n              \"add anchor\",\n              uint(ProposalTypes.AddAnchor),\n              _startDate,\n              _endDate,\n              _url,\n              _hashCode);\n          addAnchorProposals[id] = AddAnchorProposal(_anchorName, _anchorUrl, _members, 0);\n    }\n\n    function runAddAnchorProposal(uint _id) internal onlyMembers {\n        AddAnchorProposal memory proposal = addAnchorProposals[_id];\n        require(bytes(proposal.name).length > 0, \"propsal not found\");\n        require(proposal.executionTime == 0, \"the proposal executed before\");\n        uint upPercentage = checkProposalUpPercentage(_id, ProposalTypes.AddAnchor);\n        if (upPercentage >= addAnchorThreshold) {\n            addAnchor(proposal.name, proposal.url, proposal.members);\n        }\n        addAnchorProposals[_id].executionTime = getTime();\n    }\n\n    // Remove an anchor proposal\n    function registerRemoveAnchorProposal(\n      string memory _anchorName,\n      uint _startDate,\n      uint _endDate,\n      string memory _url,\n      string memory _hashCode\n      ) public onlyMembers {\n          require(bytes(_anchorName).length > 0, \"select name for anchor\");\n          internalProposalsCount++;\n          uint id = registerInternalProposal(\n              internalProposalsCount,\n              \"remove anchor\",\n              uint(ProposalTypes.RemoveAnchor),\n              _startDate,\n              _endDate,\n              _url,\n              _hashCode);\n          removeAnchorProposal[id] = RemoveAnchorProposal(_anchorName, 0);\n    }\n\n    function runRemoveAnchorProposal(uint _id) internal onlyMembers {\n        RemoveAnchorProposal memory proposal = removeAnchorProposal[_id];\n        require(bytes(proposal.name).length > 0, \"propsal not found\");\n        require(proposal.executionTime == 0, \"the proposal executed before\");\n        uint upPercentage = checkProposalUpPercentage(_id, ProposalTypes.RemoveAnchor);\n        if (upPercentage >= removeAnchorThreshold) {\n            deleteAnchor(proposal.name);\n        }\n        removeAnchorProposal[_id].executionTime = getTime();\n    }\n\n    // set AccessToken proposal\n    function registerSetAccessTokenProposal(\n      uint count,\n      uint _startDate,\n      uint _endDate,\n      string memory _url,\n      string memory _hashCode\n      ) public onlyMembers {\n          internalProposalsCount++;\n          uint id = registerInternalProposal(\n              internalProposalsCount,\n              \"set access tocken\",\n              uint(ProposalTypes.RenewAccessToken),\n              _startDate,\n              _endDate,\n              _url,\n              _hashCode);\n          renewAccessTockenProposal[id] = RenewAccessTockenProposal(\"set access tocken\", count, 0);\n    }\n\n    function runSetAccessTockenProposal(uint _id) internal onlyMembers {\n        RenewAccessTockenProposal memory proposal = renewAccessTockenProposal[_id];\n        require(bytes(proposal.name).length > 0, \"propsal not found\");\n        require(proposal.executionTime == 0, \"the proposal executed before\");\n        uint upPercentage = checkProposalUpPercentage(_id, ProposalTypes.RenewAccessToken);\n        if (upPercentage >= renewAccessTokenThreshold) {\n            renewToken(members, true);\n        }\n        renewAccessTockenProposal[_id].executionTime = getTime();\n    }\n\n\n}",
  "sourcePath": "D:/projects/blockchain/kuknos-dao/contracts/KuknosDAO.sol",
  "compiler": {
    "name": "solc",
    "version": "0.5.0+commit.1d4f565a.Emscripten.clang"
  },
  "schemaVersion": "3.0.9",
  "updatedAt": "2019-06-15T10:56:28.857Z",
  "devdoc": {
    "methods": {
      "renounceOwnership()": {
        "details": "Allows the current owner to relinquish control of the contract."
      },
      "transferOwnership(address)": {
        "details": "Allows the current owner to transfer control of the contract to a newOwner.",
        "params": {
          "_newOwner": "The address to transfer ownership to."
        }
      }
    }
  },
  "userdoc": {
    "methods": {
      "renounceOwnership()": {
        "notice": "Renouncing to ownership will leave the contract without an owner. It will not be possible to call the functions with the `onlyOwner` modifier anymore."
      }
    }
  }
}