{
  "contractName": "KuknosDAO",
  "abi": [
    {
      "constant": false,
      "inputs": [],
      "name": "renewYearTokens",
      "outputs": [],
      "payable": false,
      "stateMutability": "nonpayable",
      "type": "function"
    },
    {
      "constant": true,
      "inputs": [
        {
          "name": "",
          "type": "uint256"
        }
      ],
      "name": "removeAnchorProposal",
      "outputs": [
        {
          "name": "name",
          "type": "string"
        },
        {
          "name": "executionTime",
          "type": "uint256"
        }
      ],
      "payable": false,
      "stateMutability": "view",
      "type": "function"
    },
    {
      "constant": true,
      "inputs": [
        {
          "name": "",
          "type": "uint256"
        }
      ],
      "name": "renewAccessTockenProposal",
      "outputs": [
        {
          "name": "name",
          "type": "string"
        },
        {
          "name": "count",
          "type": "uint256"
        },
        {
          "name": "executionTime",
          "type": "uint256"
        }
      ],
      "payable": false,
      "stateMutability": "view",
      "type": "function"
    },
    {
      "constant": true,
      "inputs": [],
      "name": "membersCount",
      "outputs": [
        {
          "name": "",
          "type": "uint256"
        }
      ],
      "payable": false,
      "stateMutability": "view",
      "type": "function"
    },
    {
      "constant": false,
      "inputs": [
        {
          "name": "id",
          "type": "uint256"
        },
        {
          "name": "title",
          "type": "string"
        },
        {
          "name": "proposalType",
          "type": "uint32"
        },
        {
          "name": "startDate",
          "type": "uint32"
        },
        {
          "name": "endDate",
          "type": "uint32"
        },
        {
          "name": "url",
          "type": "string"
        },
        {
          "name": "hashCode",
          "type": "string"
        },
        {
          "name": "contractAddress",
          "type": "address"
        },
        {
          "name": "threshold",
          "type": "uint8"
        }
      ],
      "name": "registerProposal",
      "outputs": [],
      "payable": false,
      "stateMutability": "nonpayable",
      "type": "function"
    },
    {
      "constant": true,
      "inputs": [
        {
          "name": "",
          "type": "uint256"
        },
        {
          "name": "",
          "type": "address"
        }
      ],
      "name": "votesReceived",
      "outputs": [
        {
          "name": "",
          "type": "int8"
        }
      ],
      "payable": false,
      "stateMutability": "view",
      "type": "function"
    },
    {
      "constant": true,
      "inputs": [
        {
          "name": "",
          "type": "uint256"
        }
      ],
      "name": "anchors",
      "outputs": [
        {
          "name": "nameHash",
          "type": "bytes32"
        },
        {
          "name": "name",
          "type": "string"
        },
        {
          "name": "url",
          "type": "string"
        }
      ],
      "payable": false,
      "stateMutability": "view",
      "type": "function"
    },
    {
      "constant": true,
      "inputs": [
        {
          "name": "index",
          "type": "uint256"
        }
      ],
      "name": "getProposalStatus",
      "outputs": [
        {
          "name": "id",
          "type": "uint256"
        },
        {
          "name": "up",
          "type": "uint16"
        },
        {
          "name": "down",
          "type": "uint16"
        },
        {
          "name": "proposalType",
          "type": "uint32"
        },
        {
          "name": "contractAddress",
          "type": "address"
        },
        {
          "name": "isNotStarted",
          "type": "bool"
        },
        {
          "name": "isExpired",
          "type": "bool"
        },
        {
          "name": "upPercentage",
          "type": "uint16"
        },
        {
          "name": "downPercentage",
          "type": "uint16"
        },
        {
          "name": "isSucceed",
          "type": "bool"
        }
      ],
      "payable": false,
      "stateMutability": "view",
      "type": "function"
    },
    {
      "constant": true,
      "inputs": [],
      "name": "accessTokensCount",
      "outputs": [
        {
          "name": "",
          "type": "uint256"
        }
      ],
      "payable": false,
      "stateMutability": "view",
      "type": "function"
    },
    {
      "constant": false,
      "inputs": [
        {
          "name": "_proposalIndex",
          "type": "uint256"
        },
        {
          "name": "_vote",
          "type": "int8"
        }
      ],
      "name": "voteForProposal",
      "outputs": [],
      "payable": false,
      "stateMutability": "nonpayable",
      "type": "function"
    },
    {
      "constant": true,
      "inputs": [
        {
          "name": "",
          "type": "uint256"
        }
      ],
      "name": "members",
      "outputs": [
        {
          "name": "",
          "type": "address"
        }
      ],
      "payable": false,
      "stateMutability": "view",
      "type": "function"
    },
    {
      "constant": true,
      "inputs": [],
      "name": "internalProposalsCount",
      "outputs": [
        {
          "name": "",
          "type": "uint256"
        }
      ],
      "payable": false,
      "stateMutability": "view",
      "type": "function"
    },
    {
      "constant": true,
      "inputs": [],
      "name": "changeConfigThreshold",
      "outputs": [
        {
          "name": "",
          "type": "uint8"
        }
      ],
      "payable": false,
      "stateMutability": "view",
      "type": "function"
    },
    {
      "constant": true,
      "inputs": [
        {
          "name": "",
          "type": "address"
        }
      ],
      "name": "balanceOf",
      "outputs": [
        {
          "name": "",
          "type": "uint256"
        }
      ],
      "payable": false,
      "stateMutability": "view",
      "type": "function"
    },
    {
      "constant": false,
      "inputs": [],
      "name": "renounceOwnership",
      "outputs": [],
      "payable": false,
      "stateMutability": "nonpayable",
      "type": "function"
    },
    {
      "constant": true,
      "inputs": [
        {
          "name": "",
          "type": "uint256"
        }
      ],
      "name": "changeConfigProposal",
      "outputs": [
        {
          "name": "name",
          "type": "string"
        },
        {
          "name": "value",
          "type": "uint8"
        },
        {
          "name": "executionTime",
          "type": "uint256"
        }
      ],
      "payable": false,
      "stateMutability": "view",
      "type": "function"
    },
    {
      "constant": true,
      "inputs": [],
      "name": "owner",
      "outputs": [
        {
          "name": "",
          "type": "address"
        }
      ],
      "payable": false,
      "stateMutability": "view",
      "type": "function"
    },
    {
      "constant": true,
      "inputs": [],
      "name": "getProposalsCount",
      "outputs": [
        {
          "name": "",
          "type": "uint256"
        }
      ],
      "payable": false,
      "stateMutability": "view",
      "type": "function"
    },
    {
      "constant": true,
      "inputs": [
        {
          "name": "",
          "type": "uint256"
        }
      ],
      "name": "addAnchorProposals",
      "outputs": [
        {
          "name": "name",
          "type": "string"
        },
        {
          "name": "url",
          "type": "string"
        },
        {
          "name": "executionTime",
          "type": "uint256"
        }
      ],
      "payable": false,
      "stateMutability": "view",
      "type": "function"
    },
    {
      "constant": true,
      "inputs": [
        {
          "name": "",
          "type": "bytes32"
        },
        {
          "name": "",
          "type": "uint256"
        }
      ],
      "name": "anchorMembers",
      "outputs": [
        {
          "name": "",
          "type": "address"
        }
      ],
      "payable": false,
      "stateMutability": "view",
      "type": "function"
    },
    {
      "constant": true,
      "inputs": [],
      "name": "removeAnchorThreshold",
      "outputs": [
        {
          "name": "",
          "type": "uint8"
        }
      ],
      "payable": false,
      "stateMutability": "view",
      "type": "function"
    },
    {
      "constant": true,
      "inputs": [
        {
          "name": "index",
          "type": "uint256"
        }
      ],
      "name": "getProposal",
      "outputs": [
        {
          "name": "title",
          "type": "string"
        },
        {
          "name": "proposalType",
          "type": "uint32"
        },
        {
          "name": "registerDate",
          "type": "uint32"
        },
        {
          "name": "startDate",
          "type": "uint32"
        },
        {
          "name": "endDate",
          "type": "uint32"
        },
        {
          "name": "author",
          "type": "address"
        },
        {
          "name": "url",
          "type": "string"
        },
        {
          "name": "hashCode",
          "type": "string"
        },
        {
          "name": "contractAddress",
          "type": "address"
        },
        {
          "name": "threshold",
          "type": "uint8"
        }
      ],
      "payable": false,
      "stateMutability": "view",
      "type": "function"
    },
    {
      "constant": true,
      "inputs": [],
      "name": "lastTokenIssueDate",
      "outputs": [
        {
          "name": "",
          "type": "uint256"
        }
      ],
      "payable": false,
      "stateMutability": "view",
      "type": "function"
    },
    {
      "constant": true,
      "inputs": [],
      "name": "getAnchorsCount",
      "outputs": [
        {
          "name": "",
          "type": "uint256"
        }
      ],
      "payable": false,
      "stateMutability": "view",
      "type": "function"
    },
    {
      "constant": true,
      "inputs": [],
      "name": "changeAnchorMemberThreshold",
      "outputs": [
        {
          "name": "",
          "type": "uint8"
        }
      ],
      "payable": false,
      "stateMutability": "view",
      "type": "function"
    },
    {
      "constant": true,
      "inputs": [],
      "name": "membersList",
      "outputs": [
        {
          "name": "",
          "type": "address[]"
        }
      ],
      "payable": false,
      "stateMutability": "view",
      "type": "function"
    },
    {
      "constant": false,
      "inputs": [
        {
          "name": "_newOwner",
          "type": "address"
        }
      ],
      "name": "transferOwnership",
      "outputs": [],
      "payable": false,
      "stateMutability": "nonpayable",
      "type": "function"
    },
    {
      "constant": true,
      "inputs": [],
      "name": "renewAccessTokenThreshold",
      "outputs": [
        {
          "name": "",
          "type": "uint8"
        }
      ],
      "payable": false,
      "stateMutability": "view",
      "type": "function"
    },
    {
      "constant": true,
      "inputs": [],
      "name": "addAnchorThreshold",
      "outputs": [
        {
          "name": "",
          "type": "uint8"
        }
      ],
      "payable": false,
      "stateMutability": "view",
      "type": "function"
    },
    {
      "inputs": [
        {
          "name": "_voterTokensCount",
          "type": "uint256"
        }
      ],
      "payable": false,
      "stateMutability": "nonpayable",
      "type": "constructor"
    },
    {
      "anonymous": false,
      "inputs": [
        {
          "indexed": true,
          "name": "previousOwner",
          "type": "address"
        }
      ],
      "name": "OwnershipRenounced",
      "type": "event"
    },
    {
      "anonymous": false,
      "inputs": [
        {
          "indexed": true,
          "name": "previousOwner",
          "type": "address"
        },
        {
          "indexed": true,
          "name": "newOwner",
          "type": "address"
        }
      ],
      "name": "OwnershipTransferred",
      "type": "event"
    },
    {
      "constant": false,
      "inputs": [
        {
          "name": "_name",
          "type": "string"
        },
        {
          "name": "_url",
          "type": "string"
        },
        {
          "name": "_members",
          "type": "address[]"
        }
      ],
      "name": "addNewAnchor",
      "outputs": [],
      "payable": false,
      "stateMutability": "nonpayable",
      "type": "function"
    },
    {
      "constant": true,
      "inputs": [],
      "name": "contractIsActive",
      "outputs": [
        {
          "name": "",
          "type": "bool"
        }
      ],
      "payable": false,
      "stateMutability": "view",
      "type": "function"
    },
    {
      "constant": false,
      "inputs": [
        {
          "name": "_anchorName",
          "type": "string"
        },
        {
          "name": "_anchorUrl",
          "type": "string"
        },
        {
          "name": "_members",
          "type": "address[]"
        },
        {
          "name": "_startDate",
          "type": "uint32"
        },
        {
          "name": "_endDate",
          "type": "uint32"
        },
        {
          "name": "_url",
          "type": "string"
        },
        {
          "name": "_hashCode",
          "type": "string"
        }
      ],
      "name": "registerAddAnchorProposal",
      "outputs": [],
      "payable": false,
      "stateMutability": "nonpayable",
      "type": "function"
    },
    {
      "constant": false,
      "inputs": [
        {
          "name": "_id",
          "type": "uint256"
        }
      ],
      "name": "runAddAnchorProposal",
      "outputs": [],
      "payable": false,
      "stateMutability": "nonpayable",
      "type": "function"
    },
    {
      "constant": false,
      "inputs": [
        {
          "name": "_anchorName",
          "type": "string"
        },
        {
          "name": "_startDate",
          "type": "uint32"
        },
        {
          "name": "_endDate",
          "type": "uint32"
        },
        {
          "name": "_url",
          "type": "string"
        },
        {
          "name": "_hashCode",
          "type": "string"
        }
      ],
      "name": "registerRemoveAnchorProposal",
      "outputs": [],
      "payable": false,
      "stateMutability": "nonpayable",
      "type": "function"
    },
    {
      "constant": false,
      "inputs": [
        {
          "name": "_id",
          "type": "uint256"
        }
      ],
      "name": "runRemoveAnchorProposal",
      "outputs": [],
      "payable": false,
      "stateMutability": "nonpayable",
      "type": "function"
    },
    {
      "constant": false,
      "inputs": [
        {
          "name": "count",
          "type": "uint256"
        },
        {
          "name": "_startDate",
          "type": "uint32"
        },
        {
          "name": "_endDate",
          "type": "uint32"
        },
        {
          "name": "_url",
          "type": "string"
        },
        {
          "name": "_hashCode",
          "type": "string"
        }
      ],
      "name": "registerSetAccessTokenProposal",
      "outputs": [],
      "payable": false,
      "stateMutability": "nonpayable",
      "type": "function"
    },
    {
      "constant": false,
      "inputs": [
        {
          "name": "_id",
          "type": "uint256"
        }
      ],
      "name": "runSetAccessTockenProposal",
      "outputs": [],
      "payable": false,
      "stateMutability": "nonpayable",
      "type": "function"
    },
    {
      "constant": false,
      "inputs": [
        {
          "name": "newValue",
          "type": "uint8"
        },
        {
          "name": "_startDate",
          "type": "uint32"
        },
        {
          "name": "_endDate",
          "type": "uint32"
        },
        {
          "name": "_url",
          "type": "string"
        },
        {
          "name": "_hashCode",
          "type": "string"
        }
      ],
      "name": "addChangeConfigProposal",
      "outputs": [],
      "payable": false,
      "stateMutability": "nonpayable",
      "type": "function"
    },
    {
      "constant": false,
      "inputs": [
        {
          "name": "_id",
          "type": "uint256"
        }
      ],
      "name": "runChangeConfigProposal",
      "outputs": [],
      "payable": false,
      "stateMutability": "nonpayable",
      "type": "function"
    }
  ],
  "bytecode": "0x608060405260326002908155600555600a8054603360ff199091161761ff0019166150001762ff00001916623300001763ff000000191663330000001764ff0000000019166450000000001790556000600f553480156200005f57600080fd5b50604051602080620058c0833981018060405260208110156200008157600080fd5b505160008054600160a060020a0319163317905560025561581880620000a86000396000f3fe6080604052600436106101c85763ffffffff60e060020a600035041662f18f5681146101cd5780630d60ea19146101e45780631351e4ac1461020d57806324353bb6146102b6578063297f9af0146103665780632cb236041461038d57806330c3464c1461056457806333dd6bed1461075d578063368b733e146107af5780633b332197146108be5780633ec4cd7214610a15578063401853b714610bd35780634c21112214610c67578063511e9e6e14610c9157806355de8c7e14610cbb5780635ab09f5914610cd05780635daf08ca14610d0357806365a059d214610d495780636ee2e22514610d5e57806370a0823114610d89578063715018a614610dbc5780638a71f0d214610dd15780638da5cb5b14610e4957806398e527d314610e5e5780639a07772a14610e735780639f016ab514610fcd578063a773693f1461109d578063b35d1b06146110cd578063b4a38025146110f7578063bb60512f146113d9578063c78b395f146113ee578063c7f758a814611418578063cededb3014611611578063d4c8ca9b14611626578063d4e18e681461163b578063dd5042f414611650578063f2fde38b146116b5578063fa019249146116e8578063fc37a9e8146116fd575b600080fd5b3480156101d957600080fd5b506101e2611712565b005b3480156101f057600080fd5b506101f9611826565b604080519115158252519081900360200190f35b34801561021957600080fd5b506102376004803603602081101561023057600080fd5b5035611836565b6040518080602001838152602001828103825284818151815260200191508051906020019080838360005b8381101561027a578181015183820152602001610262565b50505050905090810190601f1680156102a75780820380516001836020036101000a031916815260200191505b50935050505060405180910390f35b3480156102c257600080fd5b506102e0600480360360208110156102d957600080fd5b50356118dd565b6040518080602001848152602001838152602001828103825285818151815260200191508051906020019080838360005b83811015610329578181015183820152602001610311565b50505050905090810190601f1680156103565780820380516001836020036101000a031916815260200191505b5094505050505060405180910390f35b34801561037257600080fd5b5061037b61198a565b60408051918252519081900360200190f35b34801561039957600080fd5b506101e2600480360360a08110156103b057600080fd5b8101906020810181356401000000008111156103cb57600080fd5b8201836020820111156103dd57600080fd5b803590602001918460018302840111640100000000831117156103ff57600080fd5b91908080601f016020809104026020016040519081016040528093929190818152602001838380828437600092019190915250929563ffffffff853581169660208701359091169591945092506060810191506040013564010000000081111561046857600080fd5b82018360208201111561047a57600080fd5b8035906020019184600183028401116401000000008311171561049c57600080fd5b91908080601f01602080910402602001604051908101604052809392919081815260200183838082843760009201919091525092959493602081019350359150506401000000008111156104ef57600080fd5b82018360208201111561050157600080fd5b8035906020019184600183028401116401000000008311171561052357600080fd5b91908080601f016020809104026020016040519081016040528093929190818152602001838380828437600092019190915250929550611990945050505050565b34801561057057600080fd5b506101e2600480360361012081101561058857600080fd5b813591908101906040810160208201356401000000008111156105aa57600080fd5b8201836020820111156105bc57600080fd5b803590602001918460018302840111640100000000831117156105de57600080fd5b91908080601f016020809104026020016040519081016040528093929190818152602001838380828437600092019190915250929563ffffffff853581169660208701358216966040810135909216955091935090915060808101906060013564010000000081111561065057600080fd5b82018360208201111561066257600080fd5b8035906020019184600183028401116401000000008311171561068457600080fd5b91908080601f01602080910402602001604051908101604052809392919081815260200183838082843760009201919091525092959493602081019350359150506401000000008111156106d757600080fd5b8201836020820111156106e957600080fd5b8035906020019184600183028401116401000000008311171561070b57600080fd5b91908080601f01602080910402602001604051908101604052809392919081815260200183838082843760009201919091525092955050508135600160a060020a03169250506020013560ff16611b49565b34801561076957600080fd5b506107966004803603604081101561078057600080fd5b5080359060200135600160a060020a0316611f85565b60408051600092830b90920b8252519081900360200190f35b3480156107bb57600080fd5b506107d9600480360360208110156107d257600080fd5b5035611fa4565b604051808481526020018060200180602001838103835285818151815260200191508051906020019080838360005b83811015610820578181015183820152602001610808565b50505050905090810190601f16801561084d5780820380516001836020036101000a031916815260200191505b50838103825284518152845160209182019186019080838360005b83811015610880578181015183820152602001610868565b50505050905090810190601f1680156108ad5780820380516001836020036101000a031916815260200191505b509550505050505060405180910390f35b3480156108ca57600080fd5b506101e2600480360360a08110156108e157600080fd5b81359163ffffffff60208201358116926040830135909116919081019060808101606082013564010000000081111561091957600080fd5b82018360208201111561092b57600080fd5b8035906020019184600183028401116401000000008311171561094d57600080fd5b91908080601f01602080910402602001604051908101604052809392919081815260200183838082843760009201919091525092959493602081019350359150506401000000008111156109a057600080fd5b8201836020820111156109b257600080fd5b803590602001918460018302840111640100000000831117156109d457600080fd5b91908080601f016020809104026020016040519081016040528093929190818152602001838380828437600092019190915250929550612100945050505050565b348015610a2157600080fd5b506101e260048036036060811015610a3857600080fd5b810190602081018135640100000000811115610a5357600080fd5b820183602082011115610a6557600080fd5b80359060200191846001830284011164010000000083111715610a8757600080fd5b91908080601f0160208091040260200160405190810160405280939291908181526020018383808284376000920191909152509295949360208101935035915050640100000000811115610ada57600080fd5b820183602082011115610aec57600080fd5b80359060200191846001830284011164010000000083111715610b0e57600080fd5b91908080601f0160208091040260200160405190810160405280939291908181526020018383808284376000920191909152509295949360208101935035915050640100000000811115610b6157600080fd5b820183602082011115610b7357600080fd5b80359060200191846020830284011164010000000083111715610b9557600080fd5b91908080602002602001604051908101604052809392919081815260200183836020028082843760009201919091525092955061229c945050505050565b348015610bdf57600080fd5b50610bfd60048036036020811015610bf657600080fd5b5035612334565b604080519a8b5261ffff998a1660208c01529789168a89015263ffffffff90961660608a0152600160a060020a03909416608089015291151560a0880152151560c0870152841660e086015290921661010084015290151561012083015251908190036101400190f35b348015610c7357600080fd5b506101e260048036036020811015610c8a57600080fd5b50356126cc565b348015610c9d57600080fd5b506101e260048036036020811015610cb457600080fd5b5035612969565b348015610cc757600080fd5b5061037b612ba0565b348015610cdc57600080fd5b506101e260048036036040811015610cf357600080fd5b508035906020013560000b612ba6565b348015610d0f57600080fd5b50610d2d60048036036020811015610d2657600080fd5b503561322f565b60408051600160a060020a039092168252519081900360200190f35b348015610d5557600080fd5b5061037b613257565b348015610d6a57600080fd5b50610d7361325d565b6040805160ff9092168252519081900360200190f35b348015610d9557600080fd5b5061037b60048036036020811015610dac57600080fd5b5035600160a060020a031661326e565b348015610dc857600080fd5b506101e2613280565b348015610ddd57600080fd5b50610dfb60048036036020811015610df457600080fd5b5035613350565b60405180806020018460ff1660ff1681526020018381526020018281038252858181518152602001915080519060200190808383600083811015610329578181015183820152602001610311565b348015610e5557600080fd5b50610d2d613401565b348015610e6a57600080fd5b5061037b613410565b348015610e7f57600080fd5b506101e2600480360360a0811015610e9657600080fd5b60ff8235169163ffffffff602082013581169260408301359091169190810190608081016060820135640100000000811115610ed157600080fd5b820183602082011115610ee357600080fd5b80359060200191846001830284011164010000000083111715610f0557600080fd5b91908080601f0160208091040260200160405190810160405280939291908181526020018383808284376000920191909152509295949360208101935035915050640100000000811115610f5857600080fd5b820183602082011115610f6a57600080fd5b80359060200191846001830284011164010000000083111715610f8c57600080fd5b91908080601f016020809104026020016040519081016040528093929190818152602001838380828437600092019190915250929550613416945050505050565b348015610fd957600080fd5b50610ff760048036036020811015610ff057600080fd5b50356135c7565b604051808060200180602001848152602001838103835286818151815260200191508051906020019080838360005b8381101561103e578181015183820152602001611026565b50505050905090810190601f16801561106b5780820380516001836020036101000a031916815260200191505b508381038252855181528551602091820191870190808383600083811015610880578181015183820152602001610868565b3480156110a957600080fd5b50610d2d600480360360408110156110c057600080fd5b508035906020013561370c565b3480156110d957600080fd5b506101e2600480360360208110156110f057600080fd5b5035613743565b34801561110357600080fd5b506101e2600480360360e081101561111a57600080fd5b81019060208101813564010000000081111561113557600080fd5b82018360208201111561114757600080fd5b8035906020019184600183028401116401000000008311171561116957600080fd5b91908080601f01602080910402602001604051908101604052809392919081815260200183838082843760009201919091525092959493602081019350359150506401000000008111156111bc57600080fd5b8201836020820111156111ce57600080fd5b803590602001918460018302840111640100000000831117156111f057600080fd5b91908080601f016020809104026020016040519081016040528093929190818152602001838380828437600092019190915250929594936020810193503591505064010000000081111561124357600080fd5b82018360208201111561125557600080fd5b8035906020019184602083028401116401000000008311171561127757600080fd5b919080806020026020016040519081016040528093929190818152602001838360200280828437600092019190915250929563ffffffff85358116966020870135909116959194509250606081019150604001356401000000008111156112dd57600080fd5b8201836020820111156112ef57600080fd5b8035906020019184600183028401116401000000008311171561131157600080fd5b91908080601f016020809104026020016040519081016040528093929190818152602001838380828437600092019190915250929594936020810193503591505064010000000081111561136457600080fd5b82018360208201111561137657600080fd5b8035906020019184600183028401116401000000008311171561139857600080fd5b91908080601f016020809104026020016040519081016040528093929190818152602001838380828437600092019190915250929550613952945050505050565b3480156113e557600080fd5b50610d73613b47565b3480156113fa57600080fd5b506101e26004803603602081101561141157600080fd5b5035613b55565b34801561142457600080fd5b506114426004803603602081101561143b57600080fd5b5035613e9e565b60405180806020018b63ffffffff1663ffffffff1681526020018a63ffffffff1663ffffffff1681526020018963ffffffff1663ffffffff1681526020018863ffffffff1663ffffffff16815260200187600160a060020a0316600160a060020a03168152602001806020018060200186600160a060020a0316600160a060020a031681526020018560ff1660ff16815260200184810384528e818151815260200191508051906020019080838360005b8381101561150b5781810151838201526020016114f3565b50505050905090810190601f1680156115385780820380516001836020036101000a031916815260200191505b5084810383528851815288516020918201918a019080838360005b8381101561156b578181015183820152602001611553565b50505050905090810190601f1680156115985780820380516001836020036101000a031916815260200191505b50848103825287518152875160209182019189019080838360005b838110156115cb5781810151838201526020016115b3565b50505050905090810190601f1680156115f85780820380516001836020036101000a031916815260200191505b509d505050505050505050505050505060405180910390f35b34801561161d57600080fd5b5061037b61421f565b34801561163257600080fd5b5061037b614225565b34801561164757600080fd5b50610d7361422b565b34801561165c57600080fd5b5061166561423b565b60408051602080825283518183015283519192839290830191858101910280838360005b838110156116a1578181015183820152602001611689565b505050509050019250505060405180910390f35b3480156116c157600080fd5b506101e2600480360360208110156116d857600080fd5b5035600160a060020a031661429d565b3480156116f457600080fd5b50610d73614331565b34801561170957600080fd5b50610d73614340565b61171a614349565b151561175e576040805160e560020a62461bcd02815260206004820152601f602482015260008051602061576d833981519152604482015290519081900360640190fd5b61176733614359565b15156117bf576040805160e560020a62461bcd02815260206004820152602a602482015260008051602061578d83398151915260448201526000805160206157ad833981519152606482015290519081900360840190fd5b611824600480548060200260200160405190810160405280929190818152602001828054801561181857602002820191906000526020600020905b8154600160a060020a031681526001909101906020018083116117fa575b505050505060006143ca565b565b6000611830614349565b90505b90565b600c6020908152600091825260409182902080548351601f600260001961010060018616150201909316929092049182018490048402810184019094528084529092918391908301828280156118cd5780601f106118a2576101008083540402835291602001916118cd565b820191906000526020600020905b8154815290600101906020018083116118b057829003601f168201915b5050505050908060010154905082565b600d6020908152600091825260409182902080548351601f600260001961010060018616150201909316929092049182018490048402810184019094528084529092918391908301828280156119745780601f1061194957610100808354040283529160200191611974565b820191906000526020600020905b81548152906001019060200180831161195757829003601f168201915b5050505050908060010154908060020154905083565b60045490565b611998614349565b15156119dc576040805160e560020a62461bcd02815260206004820152601f602482015260008051602061576d833981519152604482015290519081900360640190fd5b6119e533614359565b1515611a3d576040805160e560020a62461bcd02815260206004820152602a602482015260008051602061578d83398151915260448201526000805160206157ad833981519152606482015290519081900360840190fd5b8451600010611a96576040805160e560020a62461bcd02815260206004820152601660248201527f73656c656374206e616d6520666f7220616e63686f7200000000000000000000604482015290519081900360640190fd5b600f805460019081019182905560408051808201909152600d81527f72656d6f766520616e63686f72000000000000000000000000000000000000006020820152600092611afa9290919088888888600a60019054906101000a900460ff16614488565b60408051808201825288815260006020808301829052848252600c81529290208151805194955091939092611b339284929101906153fd565b5060208201518160010155905050505050505050565b611b51614349565b1515611b95576040805160e560020a62461bcd02815260206004820152601f602482015260008051602061576d833981519152604482015290519081900360640190fd5b611b9e33614359565b1515611bf6576040805160e560020a62461bcd02815260206004820152602a602482015260008051602061578d83398151915260448201526000805160206157ad833981519152606482015290519081900360840190fd5b33600090815260036020526040902054600190811115611c60576040805160e560020a62461bcd02815260206004820152601960248201527f796f752068617665206e6f7420656e6f75676820746f6b656e00000000000000604482015290519081900360640190fd5b600160a060020a038316301415611ce7576040805160e560020a62461bcd02815260206004820152603860248201527f7573696e6720696e7465726e616c20636f6e747261637420666f72206578746560448201527f726e616c2070726f706f73616c20697320696e76616c69640000000000000000606482015290519081900360840190fd5b60086101a0604051908101604052808c81526020018b81526020018a63ffffffff1681526020018963ffffffff1681526020018863ffffffff16815260200133600160a060020a03168152602001878152602001868152602001611d49614838565b63ffffffff1681526000602080830182905260408301829052600160a060020a038816606084015260ff8716608090930192909252835460018181018087559583529183902084516006909202019081558383015180519193611db1938501929101906153fd565b5060408201516002820180546060850151608086015160a0870151600160a060020a03166c01000000000000000000000000026bffffffffffffffffffffffff63ffffffff92831668010000000000000000026bffffffff0000000000000000199484166401000000000267ffffffff00000000199490981663ffffffff1990961695909517929092169590951791909116919091171691909117905560c08201518051611e699160038401916020909101906153fd565b5060e08201518051611e859160048401916020909101906153fd565b5061010082015160059190910180546101208401516101408501516101608601516101809096015163ffffffff1990931663ffffffff9095169490941765ffff00000000191664010000000061ffff928316021767ffff000000000000191666010000000000009190941602929092177bffffffffffffffffffffffffffffffffffffffff0000000000000000191668010000000000000000600160a060020a0390941693909302929092177cff00000000000000000000000000000000000000000000000000000000191660e060020a60ff90921691909102179055503360009081526003602052604090208054919091039055505050505050505050565b6009602090815260009283526040808420909152908252812054900b81565b6006805482908110611fb257fe5b9060005260206000209060030201600091509050806000015490806001018054600181600116156101000203166002900480601f0160208091040260200160405190810160405280929190818152602001828054600181600116156101000203166002900480156120645780601f1061203957610100808354040283529160200191612064565b820191906000526020600020905b81548152906001019060200180831161204757829003601f168201915b50505060028085018054604080516020601f60001961010060018716150201909416959095049283018590048502810185019091528181529596959450909250908301828280156120f65780601f106120cb576101008083540402835291602001916120f6565b820191906000526020600020905b8154815290600101906020018083116120d957829003601f168201915b5050505050905083565b612108614349565b151561214c576040805160e560020a62461bcd02815260206004820152601f602482015260008051602061576d833981519152604482015290519081900360640190fd5b61215533614359565b15156121ad576040805160e560020a62461bcd02815260206004820152602a602482015260008051602061578d83398151915260448201526000805160206157ad833981519152606482015290519081900360840190fd5b600f80546001019081905560408051808201909152601181527f7365742061636365737320746f636b656e000000000000000000000000000000602082015260009161220e91600388888888600a60029054906101000a900460ff16614488565b6040805160a0810182526011606082019081527f7365742061636365737320746f636b656e0000000000000000000000000000006080830152815260208082018a90526000828401819052848152600d825292909220815180519495509193909261227d9284929101906153fd565b5060208201516001820155604090910151600290910155505050505050565b600054600160a060020a03163314612324576040805160e560020a62461bcd02815260206004820152602160248201527f6f6e6c79206f776e65722063616e2063616c6c20746869732066756e6374696f60448201527f6e00000000000000000000000000000000000000000000000000000000000000606482015290519081900360840190fd5b61232f83838361483c565b505050565b60008060008060008060008060008061234b61547b565b600880548d90811061235957fe5b90600052602060002090600602016101a0604051908101604052908160008201548152602001600182018054600181600116156101000203166002900480601f0160208091040260200160405190810160405280929190818152602001828054600181600116156101000203166002900480156124175780601f106123ec57610100808354040283529160200191612417565b820191906000526020600020905b8154815290600101906020018083116123fa57829003601f168201915b505050918352505060028281015463ffffffff8082166020808601919091526401000000008304821660408087019190915268010000000000000000840490921660608601526c01000000000000000000000000909204600160a060020a0316608085015260038501805482516101006001831615026000190190911694909404601f810184900484028501840190925281845260a090940193918301828280156125035780601f106124d857610100808354040283529160200191612503565b820191906000526020600020905b8154815290600101906020018083116124e657829003601f168201915b505050918352505060048201805460408051602060026001851615610100026000190190941693909304601f81018490048402820184019092528181529382019392918301828280156125975780601f1061256c57610100808354040283529160200191612597565b820191906000526020600020905b81548152906001019060200180831161257a57829003601f168201915b50505091835250506005919091015463ffffffff8082166020840152640100000000820461ffff908116604080860191909152660100000000000084048216606080870191909152680100000000000000008504600160a060020a0316608087015260e060020a90940460ff1660a09095019490945261014085015161012086015186519587015161016088015195880151979850818301909316969094919316612640614838565b10876080015163ffffffff16612654614838565b10158789610120015160640261ffff1681151561266d57fe5b04888a610140015160640261ffff1681151561268557fe5b048a610180015160ff168a8c610120015160640261ffff168115156126a657fe5b0410159b509b509b509b509b509b509b509b509b509b5050509193959799509193959799565b6126d4614349565b1515612718576040805160e560020a62461bcd02815260206004820152601f602482015260008051602061576d833981519152604482015290519081900360640190fd5b61272133614359565b1515612779576040805160e560020a62461bcd02815260206004820152602a602482015260008051602061578d83398151915260448201526000805160206157ad833981519152606482015290519081900360840190fd5b6127816154e9565b6000828152600e60209081526040918290208251815460026001821615610100026000190190911604601f8101849004909302810160809081019094526060810183815290939192849284919084018282801561281f5780601f106127f45761010080835404028352916020019161281f565b820191906000526020600020905b81548152906001019060200180831161280257829003601f168201915b5050509183525050600182015460ff16602082015260029091015460409091015280515190915060001061288b576040805160e560020a62461bcd028152602060048201526011602482015260008051602061574d833981519152604482015290519081900360640190fd5b6040810151156128d3576040805160e560020a62461bcd02815260206004820152601c60248201526000805160206157cd833981519152604482015290519081900360640190fd5b6128de826004614853565b1561294857612948600480548060200260200160405190810160405280929190818152602001828054801561293c57602002820191906000526020600020905b8154600160a060020a0316815260019091019060200180831161291e575b505050505060016143ca565b612950614838565b6000928352600d60205260409092206002019190915550565b612971614349565b15156129b5576040805160e560020a62461bcd02815260206004820152601f602482015260008051602061576d833981519152604482015290519081900360640190fd5b6129be33614359565b1515612a16576040805160e560020a62461bcd02815260206004820152602a602482015260008051602061578d83398151915260448201526000805160206157ad833981519152606482015290519081900360840190fd5b612a1e61550e565b6000828152600c60209081526040918290208251815460026001821615610100026000190190911604601f8101849004909302810160609081018552938101838152909391928492849190840182828015612aba5780601f10612a8f57610100808354040283529160200191612aba565b820191906000526020600020905b815481529060010190602001808311612a9d57829003601f168201915b5050505050815260200160018201548152505090506000816000015151111515612b1c576040805160e560020a62461bcd028152602060048201526011602482015260008051602061574d833981519152604482015290519081900360640190fd5b602081015115612b64576040805160e560020a62461bcd02815260206004820152601c60248201526000805160206157cd833981519152604482015290519081900360640190fd5b612b6f826001614853565b15612b7f578051612b7f906149c3565b612b87614838565b6000928352600c60205260409092206001019190915550565b60025481565b612bae614349565b1515612bf2576040805160e560020a62461bcd02815260206004820152601f602482015260008051602061576d833981519152604482015290519081900360640190fd5b612bfb33614359565b1515612c53576040805160e560020a62461bcd02815260206004820152602a602482015260008051602061578d83398151915260448201526000805160206157ad833981519152606482015290519081900360840190fd5b612c5b61547b565b6008805484908110612c6957fe5b90600052602060002090600602016101a0604051908101604052908160008201548152602001600182018054600181600116156101000203166002900480601f016020809104026020016040519081016040528092919081815260200182805460018160011615610100020316600290048015612d275780601f10612cfc57610100808354040283529160200191612d27565b820191906000526020600020905b815481529060010190602001808311612d0a57829003601f168201915b505050918352505060028281015463ffffffff8082166020808601919091526401000000008304821660408087019190915268010000000000000000840490921660608601526c01000000000000000000000000909204600160a060020a0316608085015260038501805482516101006001831615026000190190911694909404601f810184900484028501840190925281845260a09094019391830182828015612e135780601f10612de857610100808354040283529160200191612e13565b820191906000526020600020905b815481529060010190602001808311612df657829003601f168201915b505050918352505060048201805460408051602060026001851615610100026000190190941693909304601f8101849004840282018401909252818152938201939291830182828015612ea75780601f10612e7c57610100808354040283529160200191612ea7565b820191906000526020600020905b815481529060010190602001808311612e8a57829003601f168201915b50505091835250506005919091015463ffffffff81166020830152640100000000810461ffff908116604084015266010000000000008204166060830152680100000000000000008104600160a060020a03908116608084015260e060020a90910460ff1660a09283015290820151919250161515612f70576040805160e560020a62461bcd02815260206004820152601260248201527f70726f706f73616c206e6f7420666f756e640000000000000000000000000000604482015290519081900360640190fd5b612f78614838565b606082015163ffffffff1610612fd8576040805160e560020a62461bcd02815260206004820152601560248201527f766f74696e67206973206e6f7420737461727465640000000000000000000000604482015290519081900360640190fd5b612fe0614838565b608082015163ffffffff1611613040576040805160e560020a62461bcd02815260206004820152601360248201527f766f74696e67207761732066696e697368656400000000000000000000000000604482015290519081900360640190fd5b6000838152600960209081526040808320338452909152812054810b900b156130b3576040805160e560020a62461bcd02815260206004820152601a60248201527f796f757220766f74652072656769737465726564206c61746572000000000000604482015290519081900360640190fd5b600082900b1515613134576040805160e560020a62461bcd02815260206004820152602a60248201527f796f75206d75737420736574207570206f7220646f776e20776974682031206f60448201527f72202d312076616c756500000000000000000000000000000000000000000000606482015290519081900360840190fd5b60008260000b13156131b55760008381526009602090815260408083203384529091529020805460ff19166001908117909155600880548590811061317557fe5b60009182526020909120600560069092020101805461ffff64010000000080830482169094011690920265ffff000000001990921691909117905561232f565b60008381526009602090815260408083203384529091529020805460ff191660ff1790556008805460019190859081106131eb57fe5b60009182526020909120600560069092020101805461ffff660100000000000080830482169094011690920267ffff00000000000019909216919091179055505050565b600480548290811061323d57fe5b600091825260209091200154600160a060020a0316905081565b600f5481565b600a54640100000000900460ff1681565b60036020526000908152604090205481565b600054600160a060020a03163314613308576040805160e560020a62461bcd02815260206004820152602160248201527f6f6e6c79206f776e65722063616e2063616c6c20746869732066756e6374696f60448201527f6e00000000000000000000000000000000000000000000000000000000000000606482015290519081900360840190fd5b60008054604051600160a060020a03909116917ff8df31144d9c2f0f6b59d69b8b98abd5459d07f2742c4df920b25aae33c6482091a260008054600160a060020a0319169055565b600e6020908152600091825260409182902080548351601f600260001961010060018616150201909316929092049182018490048402810184019094528084529092918391908301828280156133e75780601f106133bc576101008083540402835291602001916133e7565b820191906000526020600020905b8154815290600101906020018083116133ca57829003601f168201915b505050506001830154600290930154919260ff1691905083565b600054600160a060020a031681565b60085490565b61341e614349565b1515613462576040805160e560020a62461bcd02815260206004820152601f602482015260008051602061576d833981519152604482015290519081900360640190fd5b61346b33614359565b15156134c3576040805160e560020a62461bcd02815260206004820152602a602482015260008051602061578d83398151915260448201526000805160206157ad833981519152606482015290519081900360840190fd5b600f80546001019081905560408051808201909152600d81527f6368616e676520636f6e66696700000000000000000000000000000000000000602082015260009161352491600488888888600a60049054906101000a900460ff16614488565b6040805160a081018252600d606082019081527f6368616e676520636f6e666967000000000000000000000000000000000000006080830152815260ff89166020808301919091526000828401819052848152600e82529290922081518051949550919390926135989284929101906153fd565b50602082015160018201805460ff191660ff909216919091179055604090910151600290910155505050505050565b600b6020908152600091825260409182902080548351601f6002600019610100600186161502019093169290920491820184900484028101840190945280845290929183919083018282801561365e5780601f106136335761010080835404028352916020019161365e565b820191906000526020600020905b81548152906001019060200180831161364157829003601f168201915b505050505090806001018054600181600116156101000203166002900480601f0160208091040260200160405190810160405280929190818152602001828054600181600116156101000203166002900480156136fc5780601f106136d1576101008083540402835291602001916136fc565b820191906000526020600020905b8154815290600101906020018083116136df57829003601f168201915b5050505050908060030154905083565b60076020528160005260406000208181548110151561372757fe5b600091825260209091200154600160a060020a03169150829050565b61374b614349565b151561378f576040805160e560020a62461bcd02815260206004820152601f602482015260008051602061576d833981519152604482015290519081900360640190fd5b61379833614359565b15156137f0576040805160e560020a62461bcd02815260206004820152602a602482015260008051602061578d83398151915260448201526000805160206157ad833981519152606482015290519081900360840190fd5b6137f8615526565b6000828152600d60209081526040918290208251815460026001821615610100026000190190911604601f810184900490930281016080908101909452606081018381529093919284928491908401828280156138965780601f1061386b57610100808354040283529160200191613896565b820191906000526020600020905b81548152906001019060200180831161387957829003601f168201915b5050509183525050600182015460208201526002909101546040909101528051519091506000106138ff576040805160e560020a62461bcd028152602060048201526011602482015260008051602061574d833981519152604482015290519081900360640190fd5b604081015115613947576040805160e560020a62461bcd02815260206004820152601c60248201526000805160206157cd833981519152604482015290519081900360640190fd5b6128de826003614853565b61395a614349565b151561399e576040805160e560020a62461bcd02815260206004820152601f602482015260008051602061576d833981519152604482015290519081900360640190fd5b6139a733614359565b15156139ff576040805160e560020a62461bcd02815260206004820152602a602482015260008051602061578d83398151915260448201526000805160206157ad833981519152606482015290519081900360840190fd5b8651600010613a58576040805160e560020a62461bcd02815260206004820152601660248201527f73656c656374206e616d6520666f7220616e63686f7200000000000000000000604482015290519081900360640190fd5b600f80546001019081905560408051808201909152600a81527f61646420616e63686f72000000000000000000000000000000000000000000006020820152600091613ab29183600a54899089908990899060ff16614488565b604080516080810182528a815260208082018b90528183018a9052600060608301819052848152600b8252929092208151805194955091939092613afa9284929101906153fd565b506020828101518051613b1392600185019201906153fd565b5060408201518051613b2f916002840191602090910190615548565b50606082015181600301559050505050505050505050565b600a54610100900460ff1681565b613b5d614349565b1515613ba1576040805160e560020a62461bcd02815260206004820152601f602482015260008051602061576d833981519152604482015290519081900360640190fd5b613baa33614359565b1515613c02576040805160e560020a62461bcd02815260206004820152602a602482015260008051602061578d83398151915260448201526000805160206157ad833981519152606482015290519081900360840190fd5b613c0a6155a9565b6000828152600b60209081526040918290208251815460026001821615610100026000190190911604601f8101849004909302810160a090810190945260808101838152909391928492849190840182828015613ca85780601f10613c7d57610100808354040283529160200191613ca8565b820191906000526020600020905b815481529060010190602001808311613c8b57829003601f168201915b50505050508152602001600182018054600181600116156101000203166002900480601f016020809104026020016040519081016040528092919081815260200182805460018160011615610100020316600290048015613d4a5780601f10613d1f57610100808354040283529160200191613d4a565b820191906000526020600020905b815481529060010190602001808311613d2d57829003601f168201915b5050505050815260200160028201805480602002602001604051908101604052809291908181526020018280548015613dac57602002820191906000526020600020905b8154600160a060020a03168152600190910190602001808311613d8e575b5050505050815260200160038201548152505090506000816000015151111515613e0e576040805160e560020a62461bcd028152602060048201526011602482015260008051602061574d833981519152604482015290519081900360640190fd5b606081015115613e56576040805160e560020a62461bcd02815260206004820152601c60248201526000805160206157cd833981519152604482015290519081900360640190fd5b613e61826000614853565b15613e7d57613e7d81600001518260200151836040015161483c565b613e85614838565b6000928352600b60205260409092206003019190915550565b60606000806000806000606080600080613eb661547b565b600880548d908110613ec457fe5b90600052602060002090600602016101a0604051908101604052908160008201548152602001600182018054600181600116156101000203166002900480601f016020809104026020016040519081016040528092919081815260200182805460018160011615610100020316600290048015613f825780601f10613f5757610100808354040283529160200191613f82565b820191906000526020600020905b815481529060010190602001808311613f6557829003601f168201915b505050918352505060028281015463ffffffff8082166020808601919091526401000000008304821660408087019190915268010000000000000000840490921660608601526c01000000000000000000000000909204600160a060020a0316608085015260038501805482516101006001831615026000190190911694909404601f810184900484028501840190925281845260a0909401939183018282801561406e5780601f106140435761010080835404028352916020019161406e565b820191906000526020600020905b81548152906001019060200180831161405157829003601f168201915b505050918352505060048201805460408051602060026001851615610100026000190190941693909304601f81018490048402820184019092528181529382019392918301828280156141025780601f106140d757610100808354040283529160200191614102565b820191906000526020600020905b8154815290600101906020018083116140e557829003601f168201915b505050505081526020016005820160009054906101000a900463ffffffff1663ffffffff1663ffffffff1681526020016005820160049054906101000a900461ffff1661ffff1661ffff1681526020016005820160069054906101000a900461ffff1661ffff1661ffff1681526020016005820160089054906101000a9004600160a060020a0316600160a060020a0316600160a060020a0316815260200160058201601c9054906101000a900460ff1660ff1660ff1681525050905080602001518160400151826101000151836060015184608001518560a001518660c001518760e001518861016001518961018001518999508393508292509a509a509a509a509a509a509a509a509a509a50509193959799509193959799565b60015481565b60065490565b600a546301000000900460ff1681565b6060600480548060200260200160405190810160405280929190818152602001828054801561429357602002820191906000526020600020905b8154600160a060020a03168152600190910190602001808311614275575b5050505050905090565b600054600160a060020a03163314614325576040805160e560020a62461bcd02815260206004820152602160248201527f6f6e6c79206f776e65722063616e2063616c6c20746869732066756e6374696f60448201527f6e00000000000000000000000000000000000000000000000000000000000000606482015290519081900360840190fd5b61432e81614ade565b50565b600a5462010000900460ff1681565b600a5460ff1681565b600054600160a060020a03161590565b6000806143c060048054806020026020016040519081016040528092919081815260200182805480156143b557602002820191906000526020600020905b8154600160a060020a03168152600190910190602001808311614397575b505050505084614b99565b121590505b919050565b60006001541180156143da575080155b1561446d576001546301e13380016143f0614838565b811061446b576040805160e560020a62461bcd028152602060048201526024808201527f796f75206d7573742072656e657720746f6b656e73206166746572206f6e652060448201527f7965617200000000000000000000000000000000000000000000000000000000606482015290519081900360840190fd5b505b61447982600254614c0b565b614481614838565b6001555050565b6000614492614349565b15156144d6576040805160e560020a62461bcd02815260206004820152601f602482015260008051602061576d833981519152604482015290519081900360640190fd5b6144df33614359565b1515614537576040805160e560020a62461bcd02815260206004820152602a602482015260008051602061578d83398151915260448201526000805160206157ad833981519152606482015290519081900360840190fd5b336000908152600360205260409020546001908111156145a1576040805160e560020a62461bcd02815260206004820152601960248201527f796f752068617665206e6f7420656e6f75676820746f6b656e00000000000000604482015290519081900360640190fd5b60086101a0604051908101604052808c81526020018b81526020018a63ffffffff1681526020018963ffffffff1681526020018863ffffffff16815260200133600160a060020a03168152602001878152602001868152602001614603614838565b63ffffffff168152600060208083018290526040830182905230606084015260ff8816608090930192909252835460018181018087559583529183902084516006909202019081558383015180519193614662938501929101906153fd565b5060408201516002820180546060850151608086015160a0870151600160a060020a03166c01000000000000000000000000026bffffffffffffffffffffffff63ffffffff92831668010000000000000000026bffffffff0000000000000000199484166401000000000267ffffffff00000000199490981663ffffffff1990961695909517929092169590951791909116919091171691909117905560c0820151805161471a9160038401916020909101906153fd565b5060e082015180516147369160048401916020909101906153fd565b5061010082015160059190910180546101208401516101408501516101608601516101809096015163ffffffff1990931663ffffffff9095169490941765ffff00000000191664010000000061ffff928316021767ffff000000000000191666010000000000009190941602929092177bffffffffffffffffffffffffffffffffffffffff0000000000000000191668010000000000000000600160a060020a0390941693909302929092177cff00000000000000000000000000000000000000000000000000000000191660e060020a60ff909216919091021790553360009081526003602052604090208054929092039091559998505050505050505050565b4290565b614847838383614c40565b61232f81600254614c0b565b600080600080600061486487612334565b995050509750509650965050505085600481111561487e57fe5b63ffffffff8516146148da576040805160e560020a62461bcd02815260206004820152600d60248201527f74797065206d69736d6174636800000000000000000000000000000000000000604482015290519081900360640190fd5b600160a060020a0383163014614960576040805160e560020a62461bcd02815260206004820152602760248201527f7468652070726f7073616c206973206e6f7420616e20696e7465726e616c207060448201527f726f706f73616c00000000000000000000000000000000000000000000000000606482015290519081900360840190fd5b8115156149b7576040805160e560020a62461bcd02815260206004820152601b60248201527f7468652070726f7073616c206973206e6f742066696e69736865640000000000604482015290519081900360640190fd5b93505050505b92915050565b60006149ce82614e1b565b60065490915060001115614a2c576040805160e560020a62461bcd02815260206004820152601160248201527f616e63686f727320697320656d706c7479000000000000000000000000000000604482015290519081900360640190fd5b600081815260076020908152604091829020805483518184028101840190945280845260609392830182828015614a8c57602002820191906000526020600020905b8154600160a060020a03168152600190910190602001808311614a6e575b50939450600093505050505b8151811015614aca57614ac2838383815181101515614ab357fe5b90602001906020020151614ead565b600101614a98565b5061232f6006614ad984614edc565b614f43565b600160a060020a0381161515614b3e576040805160e560020a62461bcd02815260206004820152601b60248201527f6f776e6572206d7573742062652076616c696420616464726573730000000000604482015290519081900360640190fd5b60008054604051600160a060020a03808516939216917f8be0079c531659141344cd1fd0a4f28419497f9722a3daafe3b4186f6b6457e091a360008054600160a060020a031916600160a060020a0392909216919091179055565b6000600160a060020a0382161515614bb457506000196149bd565b60005b8351811015614c005782600160a060020a03168482815181101515614bd857fe5b90602001906020020151600160a060020a03161415614bf85790506149bd565b600101614bb7565b506000199392505050565b60005b825181101561232f57614c388382815181101515614c2857fe5b9060200190602002015183615090565b600101614c0e565b6000614c4b84614e1b565b9050614c56816150ac565b15614cab576040805160e560020a62461bcd02815260206004820152601060248201527f64756270696361746520616e63686f7200000000000000000000000000000000604482015290519081900360640190fd5b60055482511115614d2c576040805160e560020a62461bcd02815260206004820152602a60248201527f6d656d6265727320617265206d6f7265207468616e2076616c6964206d656d6560448201527f6265727320636f756e7400000000000000000000000000000000000000000000606482015290519081900360840190fd5b6040805160608101825282815260208082018781529282018690526006805460018101808355600092909252835160039091027ff652222313e28459528d920b65115c16c04f3efc82aaedc97be59f3f377c0d3f81019182559451805192959193614dbe937ff652222313e28459528d920b65115c16c04f3efc82aaedc97be59f3f377c0d40909301929101906153fd565b5060408201518051614dda9160028401916020909101906153fd565b506000925050505b8251811015614e1457614e0c828483815181101515614dfd57fe5b906020019060200201516150b8565b600101614de2565b5050505050565b6000816040516020018080602001828103825283818151815260200191508051906020019080838360005b83811015614e5e578181015183820152602001614e46565b50505050905090810190601f168015614e8b5780820380516001836020036101000a031916815260200191505b5092505050604051602081830303815290604052805190602001209050919050565b614eb682614edc565b506000828152600760205260409020614ecf90826150f8565b614ed8816151c2565b5050565b600080614ee8836151cd565b905060008112156149bd576040805160e560020a62461bcd02815260206004820152601060248201527f616e63686f72206e6f7420657869737400000000000000000000000000000000604482015290519081900360640190fd5b8154600010614f9c576040805160e560020a62461bcd02815260206004820152601660248201527f6164647265737320617272617920697320656d70747900000000000000000000604482015290519081900360640190fd5b815460001901811461503e57815482906000198101908110614fba57fe5b90600052602060002090600302018282815481101515614fd657fe5b906000526020600020906003020160008201548160000155600182018160010190805460018160011615610100020316600290046150159291906155d2565b506002828101805461503a9284810192916000196101006001831615020116046155d2565b5050505b81548290600019810190811061505057fe5b600091825260208220600390910201818155906150706001830182615647565b61507e600283016000615647565b5050815461232f83600019830161568b565b600160a060020a03909116600090815260036020526040902055565b6000806143c0836151cd565b6000828152600760209081526040822080546001810182559083529120018054600160a060020a031916600160a060020a038316179055614ed881615246565b600061515d8380548060200260200160405190810160405280929190818152602001828054801561515257602002820191906000526020600020905b8154600160a060020a03168152600190910190602001808311615134575b505050505083614b99565b905060008112156151b8576040805160e560020a62461bcd02815260206004820152601160248201527f61646472657373206e6f7420666f756e64000000000000000000000000000000604482015290519081900360640190fd5b61232f83826152f6565b61432e6004826150f8565b60006151e86020604051908101604052806000815250614e1b565b8214156151f857506000196143c5565b60005b60065481101561523c578260068281548110151561521557fe5b90600052602060002090600302016000015414156152345790506143c5565b6001016151fb565b5060001992915050565b61524f33614359565b156152a4576040805160e560020a62461bcd02815260206004820152601060248201527f647562706963617465206d656d62657200000000000000000000000000000000604482015290519081900360640190fd5b600480546001810182556000919091527f8a35acfbc15ff81a39ae7d344fd709f28e8600b4aa8c65c6b64bfe7fe36bd19b018054600160a060020a031916600160a060020a0392909216919091179055565b815460001061534f576040805160e560020a62461bcd02815260206004820152601660248201527f6164647265737320617272617920697320656d70747900000000000000000000604482015290519081900360640190fd5b81546000190181146153c25781548290600019810190811061536d57fe5b6000918252602090912001548254600160a060020a039091169083908390811061539357fe5b9060005260206000200160006101000a815481600160a060020a030219169083600160a060020a031602179055505b8154829060001981019081106153d457fe5b60009182526020909120018054600160a060020a0319169055815461232f8360001983016156b7565b828054600181600116156101000203166002900490600052602060002090601f016020900481019282601f1061543e57805160ff191683800117855561546b565b8280016001018555821561546b579182015b8281111561546b578251825591602001919060010190615450565b506154779291506156d7565b5090565b604080516101a08101825260008082526060602083018190529282018190528282018190526080820181905260a0820181905260c0820183905260e0820192909252610100810182905261012081018290526101408101829052610160810182905261018081019190915290565b60606040519081016040528060608152602001600060ff168152602001600081525090565b60408051808201909152606081526000602082015290565b6060604051908101604052806060815260200160008152602001600081525090565b82805482825590600052602060002090810192821561559d579160200282015b8281111561559d5782518254600160a060020a031916600160a060020a03909116178255602090920191600190910190615568565b506154779291506156f1565b608060405190810160405280606081526020016060815260200160608152602001600081525090565b828054600181600116156101000203166002900490600052602060002090601f016020900481019282601f1061560b578054855561546b565b8280016001018555821561546b57600052602060002091601f016020900482015b8281111561546b57825482559160010191906001019061562c565b50805460018160011615610100020316600290046000825580601f1061566d575061432e565b601f01602090049060005260206000209081019061432e91906156d7565b81548183558181111561232f5760030281600302836000526020600020918201910161232f9190615715565b81548183558181111561232f5760008381526020902061232f9181019083015b61183391905b8082111561547757600081556001016156dd565b61183391905b80821115615477578054600160a060020a03191681556001016156f7565b61183391905b808211156154775760008082556157356001830182615647565b615743600283016000615647565b5060030161571b56fe70726f7073616c206e6f7420666f756e640000000000000000000000000000007468697320636f6e747261637420697320696e20636f6e666967206d6f6465006f6e6c792076616c6964206d656d626572732063616e20646f2074686973207472616e73616374696f6e000000000000000000000000000000000000000000007468652070726f706f73616c206578656375746564206265666f726500000000a165627a7a7230582030f81431782ee15598668e5b84cfe646813ab40d00124932366c391117fab8570029",
  "source": "pragma solidity >=0.4.21 <0.6.0;\n\nimport \"./Voting.sol\";\nimport \"./Config.sol\";\n\ncontract KuknosDAO is Voting, Config {\n\n    enum ProposalTypes { AddAnchor, RemoveAnchor, ChangeAnchorMember, RenewAccessToken, ChangeConfig }\n\n    struct AddAnchorProposal {\n        string name;\n        string url;\n        address[] members;\n        uint executionTime;\n    }\n\n    struct RemoveAnchorProposal {\n        string name;\n        uint executionTime;\n    }\n\n    struct RenewAccessTockenProposal {\n        string name;\n        uint count;\n        uint executionTime;\n    }\n\n    struct ChangeConfigProposal {\n        string name;\n        uint8 value;\n        uint executionTime;\n    }\n\n    mapping ( uint => AddAnchorProposal ) public addAnchorProposals;\n\n    mapping ( uint => RemoveAnchorProposal ) public removeAnchorProposal;\n\n    mapping ( uint => RenewAccessTockenProposal ) public renewAccessTockenProposal;\n\n    mapping ( uint => ChangeConfigProposal ) public changeConfigProposal;\n\n    uint public internalProposalsCount = 0;\n\n    constructor(uint _voterTokensCount) public Voting(_voterTokensCount) {\n    }\n\n    function addNewAnchor(string memory _name, string memory _url, address[] memory _members) public onlyOwner {\n        addAnchorWithToken(_name, _url, _members);\n    }\n\n    function addAnchorWithToken(string memory _name, string memory _url, address[] memory _members) internal {\n        addAnchor(_name, _url, _members);\n        issueAccessToken(_members, accessTokensCount);\n    }\n\n    function contractIsActive() public view returns(bool) {\n        return contractHasNoOwener();\n    }\n\n\n    function checkProposalResult(uint _id, ProposalTypes pType) internal view returns(bool) {\n        (,,,uint32 proposalType, address contractAddress,, bool isFinished,,,bool successFull) = getProposalStatus(_id);\n        require(proposalType == uint(pType), \"type mismatch\");\n        require(contractAddress == address(this), \"the propsal is not an internal proposal\");\n        require(isFinished,\"the propsal is not finished\");\n        return successFull;\n    }\n\n    // Add new Anchor Proposal\n    function registerAddAnchorProposal(\n      string memory _anchorName,\n      string memory _anchorUrl,\n      address[] memory _members,\n      uint32 _startDate,\n      uint32 _endDate,\n      string memory _url,\n      string memory _hashCode\n      ) public onlyMembers {\n          require(bytes(_anchorName).length > 0, \"select name for anchor\");\n          internalProposalsCount++;\n          uint id = registerInternalProposal(\n              internalProposalsCount,\n              \"add anchor\",\n              uint32(ProposalTypes.AddAnchor),\n              _startDate,\n              _endDate,\n              _url,\n              _hashCode,\n              addAnchorThreshold);\n          addAnchorProposals[id] = AddAnchorProposal(_anchorName, _anchorUrl, _members, 0);\n    }\n\n    function runAddAnchorProposal(uint _id) public onlyMembers {\n        AddAnchorProposal memory proposal = addAnchorProposals[_id];\n        require(bytes(proposal.name).length > 0, \"propsal not found\");\n        require(proposal.executionTime == 0, \"the proposal executed before\");\n        if (checkProposalResult(_id, ProposalTypes.AddAnchor)) {\n            addAnchorWithToken(proposal.name, proposal.url, proposal.members);\n        }\n        addAnchorProposals[_id].executionTime = getTime();\n    }\n\n    // Remove an anchor proposal\n    function registerRemoveAnchorProposal(\n      string memory _anchorName,\n      uint32 _startDate,\n      uint32 _endDate,\n      string memory _url,\n      string memory _hashCode\n      ) public onlyMembers {\n          require(bytes(_anchorName).length > 0, \"select name for anchor\");\n          internalProposalsCount++;\n          uint id = registerInternalProposal(\n              internalProposalsCount,\n              \"remove anchor\",\n              uint32(ProposalTypes.RemoveAnchor),\n              _startDate,\n              _endDate,\n              _url,\n              _hashCode,\n              removeAnchorThreshold);\n          removeAnchorProposal[id] = RemoveAnchorProposal(_anchorName, 0);\n    }\n\n    function runRemoveAnchorProposal(uint _id) public onlyMembers {\n        RemoveAnchorProposal memory proposal = removeAnchorProposal[_id];\n        require(bytes(proposal.name).length > 0, \"propsal not found\");\n        require(proposal.executionTime == 0, \"the proposal executed before\");\n        if (checkProposalResult(_id, ProposalTypes.RemoveAnchor)) {\n            deleteAnchor(proposal.name);\n        }\n        removeAnchorProposal[_id].executionTime = getTime();\n    }\n\n    // set AccessToken proposal\n    function registerSetAccessTokenProposal(\n      uint count,\n      uint32 _startDate,\n      uint32 _endDate,\n      string memory _url,\n      string memory _hashCode\n      ) public onlyMembers {\n          internalProposalsCount++;\n          uint id = registerInternalProposal(\n              internalProposalsCount,\n              \"set access tocken\",\n              uint32(ProposalTypes.RenewAccessToken),\n              _startDate,\n              _endDate,\n              _url,\n              _hashCode,\n              renewAccessTokenThreshold);\n          renewAccessTockenProposal[id] = RenewAccessTockenProposal(\"set access tocken\", count, 0);\n    }\n\n    function runSetAccessTockenProposal(uint _id) public onlyMembers {\n        RenewAccessTockenProposal memory proposal = renewAccessTockenProposal[_id];\n        require(bytes(proposal.name).length > 0, \"propsal not found\");\n        require(proposal.executionTime == 0, \"the proposal executed before\");\n        if (checkProposalResult(_id, ProposalTypes.RenewAccessToken)) {\n            renewToken(members, true);\n        }\n        renewAccessTockenProposal[_id].executionTime = getTime();\n    }\n\n\n    // set AccessToken proposal\n    function addChangeConfigProposal(\n      uint8 newValue,\n      uint32 _startDate,\n      uint32 _endDate,\n      string memory _url,\n      string memory _hashCode\n      ) public onlyMembers {\n          internalProposalsCount++;\n          uint id = registerInternalProposal(\n              internalProposalsCount,\n              \"change config\",\n              uint32(ProposalTypes.ChangeConfig),\n              _startDate,\n              _endDate,\n              _url,\n              _hashCode,\n              changeConfigThreshold);\n          changeConfigProposal[id] = ChangeConfigProposal(\"change config\", newValue, 0);\n    }\n\n    function runChangeConfigProposal(uint _id) public onlyMembers {\n        ChangeConfigProposal memory proposal = changeConfigProposal[_id];\n        require(bytes(proposal.name).length > 0, \"propsal not found\");\n        require(proposal.executionTime == 0, \"the proposal executed before\");\n        if (checkProposalResult(_id, ProposalTypes.ChangeConfig)) {\n            renewToken(members, true);\n        }\n        renewAccessTockenProposal[_id].executionTime = getTime();\n    }\n\n\n}",
  "sourcePath": "D:/projects/blockchain/kuknos-dao/contracts/KuknosDAO.sol",
  "compiler": {
    "name": "solc",
    "version": "0.5.0+commit.1d4f565a.Emscripten.clang"
  },
  "schemaVersion": "3.0.9",
  "updatedAt": "2019-06-22T09:22:19.035Z",
  "devdoc": {
    "methods": {
      "renounceOwnership()": {
        "details": "Allows the current owner to relinquish control of the contract."
      },
      "transferOwnership(address)": {
        "details": "Allows the current owner to transfer control of the contract to a newOwner.",
        "params": {
          "_newOwner": "The address to transfer ownership to."
        }
      }
    }
  },
  "userdoc": {
    "methods": {
      "renounceOwnership()": {
        "notice": "Renouncing to ownership will leave the contract without an owner. It will not be possible to call the functions with the `onlyOwner` modifier anymore."
      }
    }
  }
}