{
  "contractName": "KuknosDAO",
  "abi": [
    {
      "constant": false,
      "inputs": [],
      "name": "renewYearTokens",
      "outputs": [],
      "payable": false,
      "stateMutability": "nonpayable",
      "type": "function"
    },
    {
      "constant": true,
      "inputs": [
        {
          "name": "",
          "type": "uint256"
        }
      ],
      "name": "removeAnchorProposal",
      "outputs": [
        {
          "name": "name",
          "type": "string"
        },
        {
          "name": "executionTime",
          "type": "uint256"
        }
      ],
      "payable": false,
      "stateMutability": "view",
      "type": "function"
    },
    {
      "constant": true,
      "inputs": [
        {
          "name": "",
          "type": "uint256"
        }
      ],
      "name": "renewAccessTockenProposal",
      "outputs": [
        {
          "name": "name",
          "type": "string"
        },
        {
          "name": "count",
          "type": "uint256"
        },
        {
          "name": "executionTime",
          "type": "uint256"
        }
      ],
      "payable": false,
      "stateMutability": "view",
      "type": "function"
    },
    {
      "constant": true,
      "inputs": [],
      "name": "membersCount",
      "outputs": [
        {
          "name": "",
          "type": "uint256"
        }
      ],
      "payable": false,
      "stateMutability": "view",
      "type": "function"
    },
    {
      "constant": false,
      "inputs": [
        {
          "name": "id",
          "type": "uint256"
        },
        {
          "name": "title",
          "type": "string"
        },
        {
          "name": "proposalType",
          "type": "uint32"
        },
        {
          "name": "startDate",
          "type": "uint32"
        },
        {
          "name": "endDate",
          "type": "uint32"
        },
        {
          "name": "url",
          "type": "string"
        },
        {
          "name": "hashCode",
          "type": "string"
        },
        {
          "name": "contractAddress",
          "type": "address"
        },
        {
          "name": "threshold",
          "type": "uint8"
        }
      ],
      "name": "registerProposal",
      "outputs": [],
      "payable": false,
      "stateMutability": "nonpayable",
      "type": "function"
    },
    {
      "constant": true,
      "inputs": [
        {
          "name": "",
          "type": "uint256"
        },
        {
          "name": "",
          "type": "address"
        }
      ],
      "name": "votesReceived",
      "outputs": [
        {
          "name": "vote",
          "type": "int8"
        },
        {
          "name": "description",
          "type": "string"
        }
      ],
      "payable": false,
      "stateMutability": "view",
      "type": "function"
    },
    {
      "constant": true,
      "inputs": [
        {
          "name": "",
          "type": "uint256"
        }
      ],
      "name": "anchors",
      "outputs": [
        {
          "name": "nameHash",
          "type": "bytes32"
        },
        {
          "name": "name",
          "type": "string"
        },
        {
          "name": "url",
          "type": "string"
        }
      ],
      "payable": false,
      "stateMutability": "view",
      "type": "function"
    },
    {
      "constant": true,
      "inputs": [
        {
          "name": "index",
          "type": "uint256"
        }
      ],
      "name": "getProposalStatus",
      "outputs": [
        {
          "name": "id",
          "type": "uint256"
        },
        {
          "name": "up",
          "type": "uint16"
        },
        {
          "name": "down",
          "type": "uint16"
        },
        {
          "name": "proposalType",
          "type": "uint32"
        },
        {
          "name": "contractAddress",
          "type": "address"
        },
        {
          "name": "isNotStarted",
          "type": "bool"
        },
        {
          "name": "isExpired",
          "type": "bool"
        },
        {
          "name": "upPercentage",
          "type": "uint16"
        },
        {
          "name": "downPercentage",
          "type": "uint16"
        },
        {
          "name": "isSucceed",
          "type": "bool"
        }
      ],
      "payable": false,
      "stateMutability": "view",
      "type": "function"
    },
    {
      "constant": true,
      "inputs": [],
      "name": "accessTokensCount",
      "outputs": [
        {
          "name": "",
          "type": "uint256"
        }
      ],
      "payable": false,
      "stateMutability": "view",
      "type": "function"
    },
    {
      "constant": true,
      "inputs": [
        {
          "name": "",
          "type": "uint256"
        },
        {
          "name": "_vote",
          "type": "int8"
        }
      ],
      "name": "members",
      "outputs": [
        {
          "name": "",
          "type": "address"
        }
      ],
      "payable": false,
      "stateMutability": "view",
      "type": "function"
    },
    {
      "constant": true,
      "inputs": [
        {
          "name": "",
          "type": "uint256"
        }
      ],
      "name": "internalProposalsCount",
      "outputs": [
        {
          "name": "",
          "type": "uint256"
        }
      ],
      "payable": false,
      "stateMutability": "view",
      "type": "function"
    },
    {
      "constant": true,
      "inputs": [],
      "name": "changeConfigThreshold",
      "outputs": [
        {
          "name": "",
          "type": "uint8"
        }
      ],
      "payable": false,
      "stateMutability": "view",
      "type": "function"
    },
    {
      "constant": true,
      "inputs": [
        {
          "name": "",
          "type": "address"
        }
      ],
      "name": "balanceOf",
      "outputs": [
        {
          "name": "",
          "type": "uint256"
        }
      ],
      "payable": false,
      "stateMutability": "view",
      "type": "function"
    },
    {
      "constant": false,
      "inputs": [
        {
          "name": "",
          "type": "address"
        }
      ],
      "name": "renounceOwnership",
      "outputs": [
        {
          "name": "",
          "type": "uint256"
        }
      ],
      "payable": false,
      "stateMutability": "nonpayable",
      "type": "function"
    },
    {
      "constant": true,
      "inputs": [
        {
          "name": "",
          "type": "uint256"
        }
      ],
      "name": "changeConfigProposal",
      "outputs": [
        {
          "name": "name",
          "type": "string"
        },
        {
          "name": "value",
          "type": "uint8"
        },
        {
          "name": "executionTime",
          "type": "uint256"
        }
      ],
      "payable": false,
      "stateMutability": "view",
      "type": "function"
    },
    {
      "constant": true,
      "inputs": [
        {
          "name": "",
          "type": "uint256"
        }
      ],
      "name": "owner",
      "outputs": [
        {
          "name": "",
          "type": "address"
        },
        {
          "name": "value",
          "type": "uint8"
        },
        {
          "name": "executionTime",
          "type": "uint256"
        }
      ],
      "payable": false,
      "stateMutability": "view",
      "type": "function"
    },
    {
      "constant": true,
      "inputs": [],
      "name": "getProposalsCount",
      "outputs": [
        {
          "name": "",
          "type": "uint256"
        }
      ],
      "payable": false,
      "stateMutability": "view",
      "type": "function"
    },
    {
      "constant": false,
      "inputs": [
        {
          "name": "_proposalIndex",
          "type": "uint256"
        },
        {
          "name": "_vote",
          "type": "int8"
        },
        {
          "name": "_description",
          "type": "string"
        }
      ],
      "name": "voteForProposal",
      "outputs": [
        {
          "name": "",
          "type": "uint256"
        }
      ],
      "payable": false,
      "stateMutability": "nonpayable",
      "type": "function"
    },
    {
      "constant": true,
      "inputs": [
        {
          "name": "",
          "type": "uint256"
        }
      ],
      "name": "addAnchorProposals",
      "outputs": [
        {
          "name": "name",
          "type": "string"
        },
        {
          "name": "url",
          "type": "string"
        },
        {
          "name": "executionTime",
          "type": "uint256"
        }
      ],
      "payable": false,
      "stateMutability": "view",
      "type": "function"
    },
    {
      "constant": true,
      "inputs": [
        {
          "name": "",
          "type": "bytes32"
        },
        {
          "name": "",
          "type": "uint256"
        }
      ],
      "name": "anchorMembers",
      "outputs": [
        {
          "name": "",
          "type": "address"
        }
      ],
      "payable": false,
      "stateMutability": "view",
      "type": "function"
    },
    {
      "constant": true,
      "inputs": [],
      "name": "removeAnchorThreshold",
      "outputs": [
        {
          "name": "",
          "type": "uint8"
        }
      ],
      "payable": false,
      "stateMutability": "view",
      "type": "function"
    },
    {
      "constant": true,
      "inputs": [
        {
          "name": "index",
          "type": "uint256"
        }
      ],
      "name": "getProposal",
      "outputs": [
        {
          "name": "title",
          "type": "string"
        },
        {
          "name": "proposalType",
          "type": "uint32"
        },
        {
          "name": "registerDate",
          "type": "uint32"
        },
        {
          "name": "startDate",
          "type": "uint32"
        },
        {
          "name": "endDate",
          "type": "uint32"
        },
        {
          "name": "author",
          "type": "address"
        },
        {
          "name": "url",
          "type": "string"
        },
        {
          "name": "hashCode",
          "type": "string"
        },
        {
          "name": "contractAddress",
          "type": "address"
        },
        {
          "name": "threshold",
          "type": "uint8"
        }
      ],
      "payable": false,
      "stateMutability": "view",
      "type": "function"
    },
    {
      "constant": true,
      "inputs": [],
      "name": "lastTokenIssueDate",
      "outputs": [
        {
          "name": "",
          "type": "uint256"
        }
      ],
      "payable": false,
      "stateMutability": "view",
      "type": "function"
    },
    {
      "constant": true,
      "inputs": [],
      "name": "getAnchorsCount",
      "outputs": [
        {
          "name": "",
          "type": "uint256"
        }
      ],
      "payable": false,
      "stateMutability": "view",
      "type": "function"
    },
    {
      "constant": true,
      "inputs": [],
      "name": "changeAnchorMemberThreshold",
      "outputs": [
        {
          "name": "",
          "type": "uint8"
        }
      ],
      "payable": false,
      "stateMutability": "view",
      "type": "function"
    },
    {
      "constant": true,
      "inputs": [],
      "name": "membersList",
      "outputs": [
        {
          "name": "",
          "type": "address[]"
        }
      ],
      "payable": false,
      "stateMutability": "view",
      "type": "function"
    },
    {
      "constant": false,
      "inputs": [
        {
          "name": "_newOwner",
          "type": "address"
        }
      ],
      "name": "transferOwnership",
      "outputs": [],
      "payable": false,
      "stateMutability": "nonpayable",
      "type": "function"
    },
    {
      "constant": true,
      "inputs": [],
      "name": "renewAccessTokenThreshold",
      "outputs": [
        {
          "name": "",
          "type": "uint8"
        }
      ],
      "payable": false,
      "stateMutability": "view",
      "type": "function"
    },
    {
      "constant": true,
      "inputs": [],
      "name": "addAnchorThreshold",
      "outputs": [
        {
          "name": "",
          "type": "uint8"
        }
      ],
      "payable": false,
      "stateMutability": "view",
      "type": "function"
    },
    {
      "inputs": [
        {
          "name": "_voterTokensCount",
          "type": "uint256"
        }
      ],
      "payable": false,
      "stateMutability": "nonpayable",
      "type": "constructor"
    },
    {
      "anonymous": false,
      "inputs": [
        {
          "indexed": true,
          "name": "previousOwner",
          "type": "address"
        }
      ],
      "name": "OwnershipRenounced",
      "type": "event"
    },
    {
      "anonymous": false,
      "inputs": [
        {
          "indexed": true,
          "name": "previousOwner",
          "type": "address"
        },
        {
          "indexed": true,
          "name": "newOwner",
          "type": "address"
        }
      ],
      "name": "OwnershipTransferred",
      "type": "event"
    },
    {
      "constant": false,
      "inputs": [
        {
          "name": "_name",
          "type": "string"
        },
        {
          "name": "_url",
          "type": "string"
        },
        {
          "name": "_members",
          "type": "address[]"
        }
      ],
      "name": "addNewAnchor",
      "outputs": [],
      "payable": false,
      "stateMutability": "nonpayable",
      "type": "function"
    },
    {
      "constant": true,
      "inputs": [],
      "name": "contractIsActive",
      "outputs": [
        {
          "name": "",
          "type": "bool"
        }
      ],
      "payable": false,
      "stateMutability": "view",
      "type": "function"
    },
    {
      "constant": false,
      "inputs": [
        {
          "name": "_anchorName",
          "type": "string"
        },
        {
          "name": "_anchorUrl",
          "type": "string"
        },
        {
          "name": "_members",
          "type": "address[]"
        },
        {
          "name": "_startDate",
          "type": "uint32"
        },
        {
          "name": "_endDate",
          "type": "uint32"
        },
        {
          "name": "_url",
          "type": "string"
        },
        {
          "name": "_hashCode",
          "type": "string"
        }
      ],
      "name": "registerAddAnchorProposal",
      "outputs": [],
      "payable": false,
      "stateMutability": "nonpayable",
      "type": "function"
    },
    {
      "constant": false,
      "inputs": [
        {
          "name": "_id",
          "type": "uint256"
        }
      ],
      "name": "runAddAnchorProposal",
      "outputs": [],
      "payable": false,
      "stateMutability": "nonpayable",
      "type": "function"
    },
    {
      "constant": false,
      "inputs": [
        {
          "name": "_anchorName",
          "type": "string"
        },
        {
          "name": "_startDate",
          "type": "uint32"
        },
        {
          "name": "_endDate",
          "type": "uint32"
        },
        {
          "name": "_url",
          "type": "string"
        },
        {
          "name": "_hashCode",
          "type": "string"
        }
      ],
      "name": "registerRemoveAnchorProposal",
      "outputs": [],
      "payable": false,
      "stateMutability": "nonpayable",
      "type": "function"
    },
    {
      "constant": false,
      "inputs": [
        {
          "name": "_id",
          "type": "uint256"
        }
      ],
      "name": "runRemoveAnchorProposal",
      "outputs": [],
      "payable": false,
      "stateMutability": "nonpayable",
      "type": "function"
    },
    {
      "constant": false,
      "inputs": [
        {
          "name": "count",
          "type": "uint256"
        },
        {
          "name": "_startDate",
          "type": "uint32"
        },
        {
          "name": "_endDate",
          "type": "uint32"
        },
        {
          "name": "_url",
          "type": "string"
        },
        {
          "name": "_hashCode",
          "type": "string"
        }
      ],
      "name": "registerSetAccessTokenProposal",
      "outputs": [],
      "payable": false,
      "stateMutability": "nonpayable",
      "type": "function"
    },
    {
      "constant": false,
      "inputs": [
        {
          "name": "_id",
          "type": "uint256"
        }
      ],
      "name": "runSetAccessTockenProposal",
      "outputs": [],
      "payable": false,
      "stateMutability": "nonpayable",
      "type": "function"
    },
    {
      "constant": false,
      "inputs": [
        {
          "name": "newValue",
          "type": "uint8"
        },
        {
          "name": "_startDate",
          "type": "uint32"
        },
        {
          "name": "_endDate",
          "type": "uint32"
        },
        {
          "name": "_url",
          "type": "string"
        },
        {
          "name": "_hashCode",
          "type": "string"
        }
      ],
      "name": "addChangeConfigProposal",
      "outputs": [],
      "payable": false,
      "stateMutability": "nonpayable",
      "type": "function"
    },
    {
      "constant": false,
      "inputs": [
        {
          "name": "_id",
          "type": "uint256"
        }
      ],
      "name": "runChangeConfigProposal",
      "outputs": [],
      "payable": false,
      "stateMutability": "nonpayable",
      "type": "function"
    }
  ],
  "bytecode": "0x608060405260326002908155600555600a8054603360ff199091161761ff0019166150001762ff00001916623300001763ff000000191663330000001764ff0000000019166450000000001790556000600f553480156200005f57600080fd5b5060405160208062005aa4833981018060405260208110156200008157600080fd5b505160008054600160a060020a031916331790558080620000aa640100000000620000b9810204565b60015560025550620000bd9050565b4290565b6159d780620000cd6000396000f3fe6080604052600436106101c85763ffffffff60e060020a600035041662f18f5681146101cd5780630d60ea19146101e45780631351e4ac1461020d57806324353bb6146102b6578063297f9af0146103665780632cb236041461038d57806330c3464c1461056457806333dd6bed1461075d578063368b733e146107de5780633b332197146108ed5780633ec4cd7214610a44578063401853b714610c025780634c21112214610c96578063511e9e6e14610cc057806355de8c7e14610cea5780635daf08ca14610cff57806365a059d214610d455780636ee2e22514610d5a57806370a0823114610d85578063715018a614610db85780638a71f0d214610dcd5780638da5cb5b14610e4557806398e527d314610e5a5780639a07772a14610e6f5780639aedd3fd14610fc95780639f016ab51461108b578063a773693f1461115b578063b35d1b061461118b578063b4a38025146111b5578063bb60512f14611497578063c78b395f146114ac578063c7f758a8146114d6578063cededb30146116cf578063d4c8ca9b146116e4578063d4e18e68146116f9578063dd5042f41461170e578063f2fde38b14611773578063fa019249146117a6578063fc37a9e8146117bb575b600080fd5b3480156101d957600080fd5b506101e26117d0565b005b3480156101f057600080fd5b506101f96118e4565b604080519115158252519081900360200190f35b34801561021957600080fd5b506102376004803603602081101561023057600080fd5b50356118f4565b6040518080602001838152602001828103825284818151815260200191508051906020019080838360005b8381101561027a578181015183820152602001610262565b50505050905090810190601f1680156102a75780820380516001836020036101000a031916815260200191505b50935050505060405180910390f35b3480156102c257600080fd5b506102e0600480360360208110156102d957600080fd5b503561199b565b6040518080602001848152602001838152602001828103825285818151815260200191508051906020019080838360005b83811015610329578181015183820152602001610311565b50505050905090810190601f1680156103565780820380516001836020036101000a031916815260200191505b5094505050505060405180910390f35b34801561037257600080fd5b5061037b611a48565b60408051918252519081900360200190f35b34801561039957600080fd5b506101e2600480360360a08110156103b057600080fd5b8101906020810181356401000000008111156103cb57600080fd5b8201836020820111156103dd57600080fd5b803590602001918460018302840111640100000000831117156103ff57600080fd5b91908080601f016020809104026020016040519081016040528093929190818152602001838380828437600092019190915250929563ffffffff853581169660208701359091169591945092506060810191506040013564010000000081111561046857600080fd5b82018360208201111561047a57600080fd5b8035906020019184600183028401116401000000008311171561049c57600080fd5b91908080601f01602080910402602001604051908101604052809392919081815260200183838082843760009201919091525092959493602081019350359150506401000000008111156104ef57600080fd5b82018360208201111561050157600080fd5b8035906020019184600183028401116401000000008311171561052357600080fd5b91908080601f016020809104026020016040519081016040528093929190818152602001838380828437600092019190915250929550611a4e945050505050565b34801561057057600080fd5b506101e2600480360361012081101561058857600080fd5b813591908101906040810160208201356401000000008111156105aa57600080fd5b8201836020820111156105bc57600080fd5b803590602001918460018302840111640100000000831117156105de57600080fd5b91908080601f016020809104026020016040519081016040528093929190818152602001838380828437600092019190915250929563ffffffff853581169660208701358216966040810135909216955091935090915060808101906060013564010000000081111561065057600080fd5b82018360208201111561066257600080fd5b8035906020019184600183028401116401000000008311171561068457600080fd5b91908080601f01602080910402602001604051908101604052809392919081815260200183838082843760009201919091525092959493602081019350359150506401000000008111156106d757600080fd5b8201836020820111156106e957600080fd5b8035906020019184600183028401116401000000008311171561070b57600080fd5b91908080601f01602080910402602001604051908101604052809392919081815260200183838082843760009201919091525092955050508135600160a060020a03169250506020013560ff16611c07565b34801561076957600080fd5b506107966004803603604081101561078057600080fd5b5080359060200135600160a060020a0316612043565b604051808360000b60000b815260200180602001828103825283818151815260200191508051906020019080838360008381101561027a578181015183820152602001610262565b3480156107ea57600080fd5b506108086004803603602081101561080157600080fd5b50356120f9565b604051808481526020018060200180602001838103835285818151815260200191508051906020019080838360005b8381101561084f578181015183820152602001610837565b50505050905090810190601f16801561087c5780820380516001836020036101000a031916815260200191505b50838103825284518152845160209182019186019080838360005b838110156108af578181015183820152602001610897565b50505050905090810190601f1680156108dc5780820380516001836020036101000a031916815260200191505b509550505050505060405180910390f35b3480156108f957600080fd5b506101e2600480360360a081101561091057600080fd5b81359163ffffffff60208201358116926040830135909116919081019060808101606082013564010000000081111561094857600080fd5b82018360208201111561095a57600080fd5b8035906020019184600183028401116401000000008311171561097c57600080fd5b91908080601f01602080910402602001604051908101604052809392919081815260200183838082843760009201919091525092959493602081019350359150506401000000008111156109cf57600080fd5b8201836020820111156109e157600080fd5b80359060200191846001830284011164010000000083111715610a0357600080fd5b91908080601f016020809104026020016040519081016040528093929190818152602001838380828437600092019190915250929550612255945050505050565b348015610a5057600080fd5b506101e260048036036060811015610a6757600080fd5b810190602081018135640100000000811115610a8257600080fd5b820183602082011115610a9457600080fd5b80359060200191846001830284011164010000000083111715610ab657600080fd5b91908080601f0160208091040260200160405190810160405280939291908181526020018383808284376000920191909152509295949360208101935035915050640100000000811115610b0957600080fd5b820183602082011115610b1b57600080fd5b80359060200191846001830284011164010000000083111715610b3d57600080fd5b91908080601f0160208091040260200160405190810160405280939291908181526020018383808284376000920191909152509295949360208101935035915050640100000000811115610b9057600080fd5b820183602082011115610ba257600080fd5b80359060200191846020830284011164010000000083111715610bc457600080fd5b9190808060200260200160405190810160405280939291908181526020018383602002808284376000920191909152509295506123f1945050505050565b348015610c0e57600080fd5b50610c2c60048036036020811015610c2557600080fd5b5035612489565b604080519a8b5261ffff998a1660208c01529789168a89015263ffffffff90961660608a0152600160a060020a03909416608089015291151560a0880152151560c0870152841660e086015290921661010084015290151561012083015251908190036101400190f35b348015610ca257600080fd5b506101e260048036036020811015610cb957600080fd5b5035612821565b348015610ccc57600080fd5b506101e260048036036020811015610ce357600080fd5b5035612abe565b348015610cf657600080fd5b5061037b612cf5565b348015610d0b57600080fd5b50610d2960048036036020811015610d2257600080fd5b5035612cfb565b60408051600160a060020a039092168252519081900360200190f35b348015610d5157600080fd5b5061037b612d23565b348015610d6657600080fd5b50610d6f612d29565b6040805160ff9092168252519081900360200190f35b348015610d9157600080fd5b5061037b60048036036020811015610da857600080fd5b5035600160a060020a0316612d3a565b348015610dc457600080fd5b506101e2612d4c565b348015610dd957600080fd5b50610df760048036036020811015610df057600080fd5b5035612e1c565b60405180806020018460ff1660ff1681526020018381526020018281038252858181518152602001915080519060200190808383600083811015610329578181015183820152602001610311565b348015610e5157600080fd5b50610d29612ecd565b348015610e6657600080fd5b5061037b612edc565b348015610e7b57600080fd5b506101e2600480360360a0811015610e9257600080fd5b60ff8235169163ffffffff602082013581169260408301359091169190810190608081016060820135640100000000811115610ecd57600080fd5b820183602082011115610edf57600080fd5b80359060200191846001830284011164010000000083111715610f0157600080fd5b91908080601f0160208091040260200160405190810160405280939291908181526020018383808284376000920191909152509295949360208101935035915050640100000000811115610f5457600080fd5b820183602082011115610f6657600080fd5b80359060200191846001830284011164010000000083111715610f8857600080fd5b91908080601f016020809104026020016040519081016040528093929190818152602001838380828437600092019190915250929550612ee2945050505050565b348015610fd557600080fd5b506101e260048036036060811015610fec57600080fd5b813591602081013560000b9181019060608101604082013564010000000081111561101657600080fd5b82018360208201111561102857600080fd5b8035906020019184600183028401116401000000008311171561104a57600080fd5b91908080601f016020809104026020016040519081016040528093929190818152602001838380828437600092019190915250929550613093945050505050565b34801561109757600080fd5b506110b5600480360360208110156110ae57600080fd5b5035613786565b604051808060200180602001848152602001838103835286818151815260200191508051906020019080838360005b838110156110fc5781810151838201526020016110e4565b50505050905090810190601f1680156111295780820380516001836020036101000a031916815260200191505b5083810382528551815285516020918201918701908083836000838110156108af578181015183820152602001610897565b34801561116757600080fd5b50610d296004803603604081101561117e57600080fd5b50803590602001356138cb565b34801561119757600080fd5b506101e2600480360360208110156111ae57600080fd5b5035613902565b3480156111c157600080fd5b506101e2600480360360e08110156111d857600080fd5b8101906020810181356401000000008111156111f357600080fd5b82018360208201111561120557600080fd5b8035906020019184600183028401116401000000008311171561122757600080fd5b91908080601f016020809104026020016040519081016040528093929190818152602001838380828437600092019190915250929594936020810193503591505064010000000081111561127a57600080fd5b82018360208201111561128c57600080fd5b803590602001918460018302840111640100000000831117156112ae57600080fd5b91908080601f016020809104026020016040519081016040528093929190818152602001838380828437600092019190915250929594936020810193503591505064010000000081111561130157600080fd5b82018360208201111561131357600080fd5b8035906020019184602083028401116401000000008311171561133557600080fd5b919080806020026020016040519081016040528093929190818152602001838360200280828437600092019190915250929563ffffffff853581169660208701359091169591945092506060810191506040013564010000000081111561139b57600080fd5b8201836020820111156113ad57600080fd5b803590602001918460018302840111640100000000831117156113cf57600080fd5b91908080601f016020809104026020016040519081016040528093929190818152602001838380828437600092019190915250929594936020810193503591505064010000000081111561142257600080fd5b82018360208201111561143457600080fd5b8035906020019184600183028401116401000000008311171561145657600080fd5b91908080601f016020809104026020016040519081016040528093929190818152602001838380828437600092019190915250929550613b11945050505050565b3480156114a357600080fd5b50610d6f613d06565b3480156114b857600080fd5b506101e2600480360360208110156114cf57600080fd5b5035613d14565b3480156114e257600080fd5b50611500600480360360208110156114f957600080fd5b503561405d565b60405180806020018b63ffffffff1663ffffffff1681526020018a63ffffffff1663ffffffff1681526020018963ffffffff1663ffffffff1681526020018863ffffffff1663ffffffff16815260200187600160a060020a0316600160a060020a03168152602001806020018060200186600160a060020a0316600160a060020a031681526020018560ff1660ff16815260200184810384528e818151815260200191508051906020019080838360005b838110156115c95781810151838201526020016115b1565b50505050905090810190601f1680156115f65780820380516001836020036101000a031916815260200191505b5084810383528851815288516020918201918a019080838360005b83811015611629578181015183820152602001611611565b50505050905090810190601f1680156116565780820380516001836020036101000a031916815260200191505b50848103825287518152875160209182019189019080838360005b83811015611689578181015183820152602001611671565b50505050905090810190601f1680156116b65780820380516001836020036101000a031916815260200191505b509d505050505050505050505050505060405180910390f35b3480156116db57600080fd5b5061037b6143de565b3480156116f057600080fd5b5061037b6143e4565b34801561170557600080fd5b50610d6f6143ea565b34801561171a57600080fd5b506117236143fa565b60408051602080825283518183015283519192839290830191858101910280838360005b8381101561175f578181015183820152602001611747565b505050509050019250505060405180910390f35b34801561177f57600080fd5b506101e26004803603602081101561179657600080fd5b5035600160a060020a031661445c565b3480156117b257600080fd5b50610d6f6144f0565b3480156117c757600080fd5b50610d6f6144ff565b6117d8614508565b151561181c576040805160e560020a62461bcd02815260206004820152601f602482015260008051602061592c833981519152604482015290519081900360640190fd5b61182533614518565b151561187d576040805160e560020a62461bcd02815260206004820152602a602482015260008051602061594c833981519152604482015260008051602061596c833981519152606482015290519081900360840190fd5b6118e260048054806020026020016040519081016040528092919081815260200182805480156118d657602002820191906000526020600020905b8154600160a060020a031681526001909101906020018083116118b8575b50505050506000614589565b565b60006118ee614508565b90505b90565b600c6020908152600091825260409182902080548351601f6002600019610100600186161502019093169290920491820184900484028101840190945280845290929183919083018282801561198b5780601f106119605761010080835404028352916020019161198b565b820191906000526020600020905b81548152906001019060200180831161196e57829003601f168201915b5050505050908060010154905082565b600d6020908152600091825260409182902080548351601f60026000196101006001861615020190931692909204918201849004840281018401909452808452909291839190830182828015611a325780601f10611a0757610100808354040283529160200191611a32565b820191906000526020600020905b815481529060010190602001808311611a1557829003601f168201915b5050505050908060010154908060020154905083565b60045490565b611a56614508565b1515611a9a576040805160e560020a62461bcd02815260206004820152601f602482015260008051602061592c833981519152604482015290519081900360640190fd5b611aa333614518565b1515611afb576040805160e560020a62461bcd02815260206004820152602a602482015260008051602061594c833981519152604482015260008051602061596c833981519152606482015290519081900360840190fd5b8451600010611b54576040805160e560020a62461bcd02815260206004820152601660248201527f73656c656374206e616d6520666f7220616e63686f7200000000000000000000604482015290519081900360640190fd5b600f805460019081019182905560408051808201909152600d81527f72656d6f766520616e63686f72000000000000000000000000000000000000006020820152600092611bb89290919088888888600a60019054906101000a900460ff16614647565b60408051808201825288815260006020808301829052848252600c81529290208151805194955091939092611bf19284929101906155bc565b5060208201518160010155905050505050505050565b611c0f614508565b1515611c53576040805160e560020a62461bcd02815260206004820152601f602482015260008051602061592c833981519152604482015290519081900360640190fd5b611c5c33614518565b1515611cb4576040805160e560020a62461bcd02815260206004820152602a602482015260008051602061594c833981519152604482015260008051602061596c833981519152606482015290519081900360840190fd5b33600090815260036020526040902054600190811115611d1e576040805160e560020a62461bcd02815260206004820152601960248201527f796f752068617665206e6f7420656e6f75676820746f6b656e00000000000000604482015290519081900360640190fd5b600160a060020a038316301415611da5576040805160e560020a62461bcd02815260206004820152603860248201527f7573696e6720696e7465726e616c20636f6e747261637420666f72206578746560448201527f726e616c2070726f706f73616c20697320696e76616c69640000000000000000606482015290519081900360840190fd5b60086101a0604051908101604052808c81526020018b81526020018a63ffffffff1681526020018963ffffffff1681526020018863ffffffff16815260200133600160a060020a03168152602001878152602001868152602001611e076149f7565b63ffffffff1681526000602080830182905260408301829052600160a060020a038816606084015260ff8716608090930192909252835460018181018087559583529183902084516006909202019081558383015180519193611e6f938501929101906155bc565b5060408201516002820180546060850151608086015160a0870151600160a060020a03166c01000000000000000000000000026bffffffffffffffffffffffff63ffffffff92831668010000000000000000026bffffffff0000000000000000199484166401000000000267ffffffff00000000199490981663ffffffff1990961695909517929092169590951791909116919091171691909117905560c08201518051611f279160038401916020909101906155bc565b5060e08201518051611f439160048401916020909101906155bc565b5061010082015160059190910180546101208401516101408501516101608601516101809096015163ffffffff1990931663ffffffff9095169490941765ffff00000000191664010000000061ffff928316021767ffff000000000000191666010000000000009190941602929092177bffffffffffffffffffffffffffffffffffffffff0000000000000000191668010000000000000000600160a060020a0390941693909302929092177cff00000000000000000000000000000000000000000000000000000000191660e060020a60ff90921691909102179055503360009081526003602052604090208054919091039055505050505050505050565b600960209081526000928352604080842082529183528183208054600180830180548651600261010094831615949094026000190190911692909204601f81018690048602830186019096528582529190950b94919391929091908301828280156120ef5780601f106120c4576101008083540402835291602001916120ef565b820191906000526020600020905b8154815290600101906020018083116120d257829003601f168201915b5050505050905082565b600680548290811061210757fe5b9060005260206000209060030201600091509050806000015490806001018054600181600116156101000203166002900480601f0160208091040260200160405190810160405280929190818152602001828054600181600116156101000203166002900480156121b95780601f1061218e576101008083540402835291602001916121b9565b820191906000526020600020905b81548152906001019060200180831161219c57829003601f168201915b50505060028085018054604080516020601f600019610100600187161502019094169590950492830185900485028101850190915281815295969594509092509083018282801561224b5780601f106122205761010080835404028352916020019161224b565b820191906000526020600020905b81548152906001019060200180831161222e57829003601f168201915b5050505050905083565b61225d614508565b15156122a1576040805160e560020a62461bcd02815260206004820152601f602482015260008051602061592c833981519152604482015290519081900360640190fd5b6122aa33614518565b1515612302576040805160e560020a62461bcd02815260206004820152602a602482015260008051602061594c833981519152604482015260008051602061596c833981519152606482015290519081900360840190fd5b600f80546001019081905560408051808201909152601181527f7365742061636365737320746f636b656e000000000000000000000000000000602082015260009161236391600388888888600a60029054906101000a900460ff16614647565b6040805160a0810182526011606082019081527f7365742061636365737320746f636b656e0000000000000000000000000000006080830152815260208082018a90526000828401819052848152600d82529290922081518051949550919390926123d29284929101906155bc565b5060208201516001820155604090910151600290910155505050505050565b600054600160a060020a03163314612479576040805160e560020a62461bcd02815260206004820152602160248201527f6f6e6c79206f776e65722063616e2063616c6c20746869732066756e6374696f60448201527f6e00000000000000000000000000000000000000000000000000000000000000606482015290519081900360840190fd5b6124848383836149fb565b505050565b6000806000806000806000806000806124a061563a565b600880548d9081106124ae57fe5b90600052602060002090600602016101a0604051908101604052908160008201548152602001600182018054600181600116156101000203166002900480601f01602080910402602001604051908101604052809291908181526020018280546001816001161561010002031660029004801561256c5780601f106125415761010080835404028352916020019161256c565b820191906000526020600020905b81548152906001019060200180831161254f57829003601f168201915b505050918352505060028281015463ffffffff8082166020808601919091526401000000008304821660408087019190915268010000000000000000840490921660608601526c01000000000000000000000000909204600160a060020a0316608085015260038501805482516101006001831615026000190190911694909404601f810184900484028501840190925281845260a090940193918301828280156126585780601f1061262d57610100808354040283529160200191612658565b820191906000526020600020905b81548152906001019060200180831161263b57829003601f168201915b505050918352505060048201805460408051602060026001851615610100026000190190941693909304601f81018490048402820184019092528181529382019392918301828280156126ec5780601f106126c1576101008083540402835291602001916126ec565b820191906000526020600020905b8154815290600101906020018083116126cf57829003601f168201915b50505091835250506005919091015463ffffffff8082166020840152640100000000820461ffff908116604080860191909152660100000000000084048216606080870191909152680100000000000000008504600160a060020a0316608087015260e060020a90940460ff1660a090950194909452610140850151610120860151865195870151610160880151958801519798508183019093169690949193166127956149f7565b10876080015163ffffffff166127a96149f7565b10158789610120015160640261ffff168115156127c257fe5b04888a610140015160640261ffff168115156127da57fe5b048a610180015160ff168a8c610120015160640261ffff168115156127fb57fe5b0410159b509b509b509b509b509b509b509b509b509b5050509193959799509193959799565b612829614508565b151561286d576040805160e560020a62461bcd02815260206004820152601f602482015260008051602061592c833981519152604482015290519081900360640190fd5b61287633614518565b15156128ce576040805160e560020a62461bcd02815260206004820152602a602482015260008051602061594c833981519152604482015260008051602061596c833981519152606482015290519081900360840190fd5b6128d66156a8565b6000828152600e60209081526040918290208251815460026001821615610100026000190190911604601f810184900490930281016080908101909452606081018381529093919284928491908401828280156129745780601f1061294957610100808354040283529160200191612974565b820191906000526020600020905b81548152906001019060200180831161295757829003601f168201915b5050509183525050600182015460ff1660208201526002909101546040909101528051519091506000106129e0576040805160e560020a62461bcd028152602060048201526011602482015260008051602061590c833981519152604482015290519081900360640190fd5b604081015115612a28576040805160e560020a62461bcd02815260206004820152601c602482015260008051602061598c833981519152604482015290519081900360640190fd5b612a33826004614a12565b15612a9d57612a9d6004805480602002602001604051908101604052809291908181526020018280548015612a9157602002820191906000526020600020905b8154600160a060020a03168152600190910190602001808311612a73575b50505050506001614589565b612aa56149f7565b6000928352600d60205260409092206002019190915550565b612ac6614508565b1515612b0a576040805160e560020a62461bcd02815260206004820152601f602482015260008051602061592c833981519152604482015290519081900360640190fd5b612b1333614518565b1515612b6b576040805160e560020a62461bcd02815260206004820152602a602482015260008051602061594c833981519152604482015260008051602061596c833981519152606482015290519081900360840190fd5b612b736156cd565b6000828152600c60209081526040918290208251815460026001821615610100026000190190911604601f8101849004909302810160609081018552938101838152909391928492849190840182828015612c0f5780601f10612be457610100808354040283529160200191612c0f565b820191906000526020600020905b815481529060010190602001808311612bf257829003601f168201915b5050505050815260200160018201548152505090506000816000015151111515612c71576040805160e560020a62461bcd028152602060048201526011602482015260008051602061590c833981519152604482015290519081900360640190fd5b602081015115612cb9576040805160e560020a62461bcd02815260206004820152601c602482015260008051602061598c833981519152604482015290519081900360640190fd5b612cc4826001614a12565b15612cd4578051612cd490614b82565b612cdc6149f7565b6000928352600c60205260409092206001019190915550565b60025481565b6004805482908110612d0957fe5b600091825260209091200154600160a060020a0316905081565b600f5481565b600a54640100000000900460ff1681565b60036020526000908152604090205481565b600054600160a060020a03163314612dd4576040805160e560020a62461bcd02815260206004820152602160248201527f6f6e6c79206f776e65722063616e2063616c6c20746869732066756e6374696f60448201527f6e00000000000000000000000000000000000000000000000000000000000000606482015290519081900360840190fd5b60008054604051600160a060020a03909116917ff8df31144d9c2f0f6b59d69b8b98abd5459d07f2742c4df920b25aae33c6482091a260008054600160a060020a0319169055565b600e6020908152600091825260409182902080548351601f60026000196101006001861615020190931692909204918201849004840281018401909452808452909291839190830182828015612eb35780601f10612e8857610100808354040283529160200191612eb3565b820191906000526020600020905b815481529060010190602001808311612e9657829003601f168201915b505050506001830154600290930154919260ff1691905083565b600054600160a060020a031681565b60085490565b612eea614508565b1515612f2e576040805160e560020a62461bcd02815260206004820152601f602482015260008051602061592c833981519152604482015290519081900360640190fd5b612f3733614518565b1515612f8f576040805160e560020a62461bcd02815260206004820152602a602482015260008051602061594c833981519152604482015260008051602061596c833981519152606482015290519081900360840190fd5b600f80546001019081905560408051808201909152600d81527f6368616e676520636f6e666967000000000000000000000000000000000000006020820152600091612ff091600488888888600a60049054906101000a900460ff16614647565b6040805160a081018252600d606082019081527f6368616e676520636f6e666967000000000000000000000000000000000000006080830152815260ff89166020808301919091526000828401819052848152600e82529290922081518051949550919390926130649284929101906155bc565b50602082015160018201805460ff191660ff909216919091179055604090910151600290910155505050505050565b61309b614508565b15156130df576040805160e560020a62461bcd02815260206004820152601f602482015260008051602061592c833981519152604482015290519081900360640190fd5b6130e833614518565b1515613140576040805160e560020a62461bcd02815260206004820152602a602482015260008051602061594c833981519152604482015260008051602061596c833981519152606482015290519081900360840190fd5b61314861563a565b600880548590811061315657fe5b90600052602060002090600602016101a0604051908101604052908160008201548152602001600182018054600181600116156101000203166002900480601f0160208091040260200160405190810160405280929190818152602001828054600181600116156101000203166002900480156132145780601f106131e957610100808354040283529160200191613214565b820191906000526020600020905b8154815290600101906020018083116131f757829003601f168201915b505050918352505060028281015463ffffffff8082166020808601919091526401000000008304821660408087019190915268010000000000000000840490921660608601526c01000000000000000000000000909204600160a060020a0316608085015260038501805482516101006001831615026000190190911694909404601f810184900484028501840190925281845260a090940193918301828280156133005780601f106132d557610100808354040283529160200191613300565b820191906000526020600020905b8154815290600101906020018083116132e357829003601f168201915b505050918352505060048201805460408051602060026001851615610100026000190190941693909304601f81018490048402820184019092528181529382019392918301828280156133945780601f1061336957610100808354040283529160200191613394565b820191906000526020600020905b81548152906001019060200180831161337757829003601f168201915b50505091835250506005919091015463ffffffff81166020830152640100000000810461ffff908116604084015266010000000000008204166060830152680100000000000000008104600160a060020a03908116608084015260e060020a90910460ff1660a0928301529082015191925016151561345d576040805160e560020a62461bcd02815260206004820152601260248201527f70726f706f73616c206e6f7420666f756e640000000000000000000000000000604482015290519081900360640190fd5b6134656149f7565b606082015163ffffffff16106134c5576040805160e560020a62461bcd02815260206004820152601560248201527f766f74696e67206973206e6f7420737461727465640000000000000000000000604482015290519081900360640190fd5b6134cd6149f7565b608082015163ffffffff161161352d576040805160e560020a62461bcd02815260206004820152601360248201527f766f74696e67207761732066696e697368656400000000000000000000000000604482015290519081900360640190fd5b6000848152600960209081526040808320338452909152812054810b900b156135a0576040805160e560020a62461bcd02815260206004820152601a60248201527f796f757220766f74652072656769737465726564206c61746572000000000000604482015290519081900360640190fd5b600083900b1515613621576040805160e560020a62461bcd02815260206004820152602a60248201527f796f75206d75737420736574207570206f7220646f776e20776974682031206f60448201527f72202d312076616c756500000000000000000000000000000000000000000000606482015290519081900360840190fd5b60008360000b13156136d75760408051808201825260018082526020808301868152600089815260098352858120338252835294852084518154960b60ff1660ff199096169590951785555180519394936136839385019291909101906155bc565b505060088054600192508690811061369757fe5b60009182526020909120600560069092020101805461ffff64010000000080830482169094011690920265ffff0000000019909216919091179055613780565b60408051808201825260001981526020808201858152600088815260098352848120338252835293842083518154950b60ff1660ff1990951694909417845551805192939261372c92600185019201906155bc565b505060088054600192508690811061374057fe5b60009182526020909120600560069092020101805461ffff660100000000000080830482169094011690920267ffff000000000000199092169190911790555b50505050565b600b6020908152600091825260409182902080548351601f6002600019610100600186161502019093169290920491820184900484028101840190945280845290929183919083018282801561381d5780601f106137f25761010080835404028352916020019161381d565b820191906000526020600020905b81548152906001019060200180831161380057829003601f168201915b505050505090806001018054600181600116156101000203166002900480601f0160208091040260200160405190810160405280929190818152602001828054600181600116156101000203166002900480156138bb5780601f10613890576101008083540402835291602001916138bb565b820191906000526020600020905b81548152906001019060200180831161389e57829003601f168201915b5050505050908060030154905083565b6007602052816000526040600020818154811015156138e657fe5b600091825260209091200154600160a060020a03169150829050565b61390a614508565b151561394e576040805160e560020a62461bcd02815260206004820152601f602482015260008051602061592c833981519152604482015290519081900360640190fd5b61395733614518565b15156139af576040805160e560020a62461bcd02815260206004820152602a602482015260008051602061594c833981519152604482015260008051602061596c833981519152606482015290519081900360840190fd5b6139b76156e5565b6000828152600d60209081526040918290208251815460026001821615610100026000190190911604601f81018490049093028101608090810190945260608101838152909391928492849190840182828015613a555780601f10613a2a57610100808354040283529160200191613a55565b820191906000526020600020905b815481529060010190602001808311613a3857829003601f168201915b505050918352505060018201546020820152600290910154604090910152805151909150600010613abe576040805160e560020a62461bcd028152602060048201526011602482015260008051602061590c833981519152604482015290519081900360640190fd5b604081015115613b06576040805160e560020a62461bcd02815260206004820152601c602482015260008051602061598c833981519152604482015290519081900360640190fd5b612a33826003614a12565b613b19614508565b1515613b5d576040805160e560020a62461bcd02815260206004820152601f602482015260008051602061592c833981519152604482015290519081900360640190fd5b613b6633614518565b1515613bbe576040805160e560020a62461bcd02815260206004820152602a602482015260008051602061594c833981519152604482015260008051602061596c833981519152606482015290519081900360840190fd5b8651600010613c17576040805160e560020a62461bcd02815260206004820152601660248201527f73656c656374206e616d6520666f7220616e63686f7200000000000000000000604482015290519081900360640190fd5b600f80546001019081905560408051808201909152600a81527f61646420616e63686f72000000000000000000000000000000000000000000006020820152600091613c719183600a54899089908990899060ff16614647565b604080516080810182528a815260208082018b90528183018a9052600060608301819052848152600b8252929092208151805194955091939092613cb99284929101906155bc565b506020828101518051613cd292600185019201906155bc565b5060408201518051613cee916002840191602090910190615707565b50606082015181600301559050505050505050505050565b600a54610100900460ff1681565b613d1c614508565b1515613d60576040805160e560020a62461bcd02815260206004820152601f602482015260008051602061592c833981519152604482015290519081900360640190fd5b613d6933614518565b1515613dc1576040805160e560020a62461bcd02815260206004820152602a602482015260008051602061594c833981519152604482015260008051602061596c833981519152606482015290519081900360840190fd5b613dc9615768565b6000828152600b60209081526040918290208251815460026001821615610100026000190190911604601f8101849004909302810160a090810190945260808101838152909391928492849190840182828015613e675780601f10613e3c57610100808354040283529160200191613e67565b820191906000526020600020905b815481529060010190602001808311613e4a57829003601f168201915b50505050508152602001600182018054600181600116156101000203166002900480601f016020809104026020016040519081016040528092919081815260200182805460018160011615610100020316600290048015613f095780601f10613ede57610100808354040283529160200191613f09565b820191906000526020600020905b815481529060010190602001808311613eec57829003601f168201915b5050505050815260200160028201805480602002602001604051908101604052809291908181526020018280548015613f6b57602002820191906000526020600020905b8154600160a060020a03168152600190910190602001808311613f4d575b5050505050815260200160038201548152505090506000816000015151111515613fcd576040805160e560020a62461bcd028152602060048201526011602482015260008051602061590c833981519152604482015290519081900360640190fd5b606081015115614015576040805160e560020a62461bcd02815260206004820152601c602482015260008051602061598c833981519152604482015290519081900360640190fd5b614020826000614a12565b1561403c5761403c8160000151826020015183604001516149fb565b6140446149f7565b6000928352600b60205260409092206003019190915550565b6060600080600080600060608060008061407561563a565b600880548d90811061408357fe5b90600052602060002090600602016101a0604051908101604052908160008201548152602001600182018054600181600116156101000203166002900480601f0160208091040260200160405190810160405280929190818152602001828054600181600116156101000203166002900480156141415780601f1061411657610100808354040283529160200191614141565b820191906000526020600020905b81548152906001019060200180831161412457829003601f168201915b505050918352505060028281015463ffffffff8082166020808601919091526401000000008304821660408087019190915268010000000000000000840490921660608601526c01000000000000000000000000909204600160a060020a0316608085015260038501805482516101006001831615026000190190911694909404601f810184900484028501840190925281845260a0909401939183018282801561422d5780601f106142025761010080835404028352916020019161422d565b820191906000526020600020905b81548152906001019060200180831161421057829003601f168201915b505050918352505060048201805460408051602060026001851615610100026000190190941693909304601f81018490048402820184019092528181529382019392918301828280156142c15780601f10614296576101008083540402835291602001916142c1565b820191906000526020600020905b8154815290600101906020018083116142a457829003601f168201915b505050505081526020016005820160009054906101000a900463ffffffff1663ffffffff1663ffffffff1681526020016005820160049054906101000a900461ffff1661ffff1661ffff1681526020016005820160069054906101000a900461ffff1661ffff1661ffff1681526020016005820160089054906101000a9004600160a060020a0316600160a060020a0316600160a060020a0316815260200160058201601c9054906101000a900460ff1660ff1660ff1681525050905080602001518160400151826101000151836060015184608001518560a001518660c001518760e001518861016001518961018001518999508393508292509a509a509a509a509a509a509a509a509a509a50509193959799509193959799565b60015481565b60065490565b600a546301000000900460ff1681565b6060600480548060200260200160405190810160405280929190818152602001828054801561445257602002820191906000526020600020905b8154600160a060020a03168152600190910190602001808311614434575b5050505050905090565b600054600160a060020a031633146144e4576040805160e560020a62461bcd02815260206004820152602160248201527f6f6e6c79206f776e65722063616e2063616c6c20746869732066756e6374696f60448201527f6e00000000000000000000000000000000000000000000000000000000000000606482015290519081900360840190fd5b6144ed81614c9d565b50565b600a5462010000900460ff1681565b600a5460ff1681565b600054600160a060020a03161590565b60008061457f600480548060200260200160405190810160405280929190818152602001828054801561457457602002820191906000526020600020905b8154600160a060020a03168152600190910190602001808311614556575b505050505084614d58565b121590505b919050565b6000600154118015614599575080155b1561462c576001546301e13380016145af6149f7565b811061462a576040805160e560020a62461bcd028152602060048201526024808201527f796f75206d7573742072656e657720746f6b656e73206166746572206f6e652060448201527f7965617200000000000000000000000000000000000000000000000000000000606482015290519081900360840190fd5b505b61463882600254614dca565b6146406149f7565b6001555050565b6000614651614508565b1515614695576040805160e560020a62461bcd02815260206004820152601f602482015260008051602061592c833981519152604482015290519081900360640190fd5b61469e33614518565b15156146f6576040805160e560020a62461bcd02815260206004820152602a602482015260008051602061594c833981519152604482015260008051602061596c833981519152606482015290519081900360840190fd5b33600090815260036020526040902054600190811115614760576040805160e560020a62461bcd02815260206004820152601960248201527f796f752068617665206e6f7420656e6f75676820746f6b656e00000000000000604482015290519081900360640190fd5b60086101a0604051908101604052808c81526020018b81526020018a63ffffffff1681526020018963ffffffff1681526020018863ffffffff16815260200133600160a060020a031681526020018781526020018681526020016147c26149f7565b63ffffffff168152600060208083018290526040830182905230606084015260ff8816608090930192909252835460018181018087559583529183902084516006909202019081558383015180519193614821938501929101906155bc565b5060408201516002820180546060850151608086015160a0870151600160a060020a03166c01000000000000000000000000026bffffffffffffffffffffffff63ffffffff92831668010000000000000000026bffffffff0000000000000000199484166401000000000267ffffffff00000000199490981663ffffffff1990961695909517929092169590951791909116919091171691909117905560c082015180516148d99160038401916020909101906155bc565b5060e082015180516148f59160048401916020909101906155bc565b5061010082015160059190910180546101208401516101408501516101608601516101809096015163ffffffff1990931663ffffffff9095169490941765ffff00000000191664010000000061ffff928316021767ffff000000000000191666010000000000009190941602929092177bffffffffffffffffffffffffffffffffffffffff0000000000000000191668010000000000000000600160a060020a0390941693909302929092177cff00000000000000000000000000000000000000000000000000000000191660e060020a60ff909216919091021790553360009081526003602052604090208054929092039091559998505050505050505050565b4290565b614a06838383614dff565b61248481600254614dca565b6000806000806000614a2387612489565b9950505097505096509650505050856004811115614a3d57fe5b63ffffffff851614614a99576040805160e560020a62461bcd02815260206004820152600d60248201527f74797065206d69736d6174636800000000000000000000000000000000000000604482015290519081900360640190fd5b600160a060020a0383163014614b1f576040805160e560020a62461bcd02815260206004820152602760248201527f7468652070726f7073616c206973206e6f7420616e20696e7465726e616c207060448201527f726f706f73616c00000000000000000000000000000000000000000000000000606482015290519081900360840190fd5b811515614b76576040805160e560020a62461bcd02815260206004820152601b60248201527f7468652070726f7073616c206973206e6f742066696e69736865640000000000604482015290519081900360640190fd5b93505050505b92915050565b6000614b8d82614fda565b60065490915060001115614beb576040805160e560020a62461bcd02815260206004820152601160248201527f616e63686f727320697320656d706c7479000000000000000000000000000000604482015290519081900360640190fd5b600081815260076020908152604091829020805483518184028101840190945280845260609392830182828015614c4b57602002820191906000526020600020905b8154600160a060020a03168152600190910190602001808311614c2d575b50939450600093505050505b8151811015614c8957614c81838383815181101515614c7257fe5b9060200190602002015161506c565b600101614c57565b506124846006614c988461509b565b615102565b600160a060020a0381161515614cfd576040805160e560020a62461bcd02815260206004820152601b60248201527f6f776e6572206d7573742062652076616c696420616464726573730000000000604482015290519081900360640190fd5b60008054604051600160a060020a03808516939216917f8be0079c531659141344cd1fd0a4f28419497f9722a3daafe3b4186f6b6457e091a360008054600160a060020a031916600160a060020a0392909216919091179055565b6000600160a060020a0382161515614d735750600019614b7c565b60005b8351811015614dbf5782600160a060020a03168482815181101515614d9757fe5b90602001906020020151600160a060020a03161415614db7579050614b7c565b600101614d76565b506000199392505050565b60005b825181101561248457614df78382815181101515614de757fe5b906020019060200201518361524f565b600101614dcd565b6000614e0a84614fda565b9050614e158161526b565b15614e6a576040805160e560020a62461bcd02815260206004820152601060248201527f64756270696361746520616e63686f7200000000000000000000000000000000604482015290519081900360640190fd5b60055482511115614eeb576040805160e560020a62461bcd02815260206004820152602a60248201527f6d656d6265727320617265206d6f7265207468616e2076616c6964206d656d6560448201527f6265727320636f756e7400000000000000000000000000000000000000000000606482015290519081900360840190fd5b6040805160608101825282815260208082018781529282018690526006805460018101808355600092909252835160039091027ff652222313e28459528d920b65115c16c04f3efc82aaedc97be59f3f377c0d3f81019182559451805192959193614f7d937ff652222313e28459528d920b65115c16c04f3efc82aaedc97be59f3f377c0d40909301929101906155bc565b5060408201518051614f999160028401916020909101906155bc565b506000925050505b8251811015614fd357614fcb828483815181101515614fbc57fe5b90602001906020020151615277565b600101614fa1565b5050505050565b6000816040516020018080602001828103825283818151815260200191508051906020019080838360005b8381101561501d578181015183820152602001615005565b50505050905090810190601f16801561504a5780820380516001836020036101000a031916815260200191505b5092505050604051602081830303815290604052805190602001209050919050565b6150758261509b565b50600082815260076020526040902061508e90826152b7565b61509781615381565b5050565b6000806150a78361538c565b90506000811215614b7c576040805160e560020a62461bcd02815260206004820152601060248201527f616e63686f72206e6f7420657869737400000000000000000000000000000000604482015290519081900360640190fd5b815460001061515b576040805160e560020a62461bcd02815260206004820152601660248201527f6164647265737320617272617920697320656d70747900000000000000000000604482015290519081900360640190fd5b81546000190181146151fd5781548290600019810190811061517957fe5b9060005260206000209060030201828281548110151561519557fe5b906000526020600020906003020160008201548160000155600182018160010190805460018160011615610100020316600290046151d4929190615791565b50600282810180546151f9928481019291600019610100600183161502011604615791565b5050505b81548290600019810190811061520f57fe5b6000918252602082206003909102018181559061522f6001830182615806565b61523d600283016000615806565b5050815461248483600019830161584a565b600160a060020a03909116600090815260036020526040902055565b60008061457f8361538c565b6000828152600760209081526040822080546001810182559083529120018054600160a060020a031916600160a060020a03831617905561509781615405565b600061531c8380548060200260200160405190810160405280929190818152602001828054801561531157602002820191906000526020600020905b8154600160a060020a031681526001909101906020018083116152f3575b505050505083614d58565b90506000811215615377576040805160e560020a62461bcd02815260206004820152601160248201527f61646472657373206e6f7420666f756e64000000000000000000000000000000604482015290519081900360640190fd5b61248483826154b5565b6144ed6004826152b7565b60006153a76020604051908101604052806000815250614fda565b8214156153b75750600019614584565b60005b6006548110156153fb57826006828154811015156153d457fe5b90600052602060002090600302016000015414156153f3579050614584565b6001016153ba565b5060001992915050565b61540e81614518565b15615463576040805160e560020a62461bcd02815260206004820152601060248201527f647562706963617465206d656d62657200000000000000000000000000000000604482015290519081900360640190fd5b600480546001810182556000919091527f8a35acfbc15ff81a39ae7d344fd709f28e8600b4aa8c65c6b64bfe7fe36bd19b018054600160a060020a031916600160a060020a0392909216919091179055565b815460001061550e576040805160e560020a62461bcd02815260206004820152601660248201527f6164647265737320617272617920697320656d70747900000000000000000000604482015290519081900360640190fd5b81546000190181146155815781548290600019810190811061552c57fe5b6000918252602090912001548254600160a060020a039091169083908390811061555257fe5b9060005260206000200160006101000a815481600160a060020a030219169083600160a060020a031602179055505b81548290600019810190811061559357fe5b60009182526020909120018054600160a060020a03191690558154612484836000198301615876565b828054600181600116156101000203166002900490600052602060002090601f016020900481019282601f106155fd57805160ff191683800117855561562a565b8280016001018555821561562a579182015b8281111561562a57825182559160200191906001019061560f565b50615636929150615896565b5090565b604080516101a08101825260008082526060602083018190529282018190528282018190526080820181905260a0820181905260c0820183905260e0820192909252610100810182905261012081018290526101408101829052610160810182905261018081019190915290565b60606040519081016040528060608152602001600060ff168152602001600081525090565b60408051808201909152606081526000602082015290565b6060604051908101604052806060815260200160008152602001600081525090565b82805482825590600052602060002090810192821561575c579160200282015b8281111561575c5782518254600160a060020a031916600160a060020a03909116178255602090920191600190910190615727565b506156369291506158b0565b608060405190810160405280606081526020016060815260200160608152602001600081525090565b828054600181600116156101000203166002900490600052602060002090601f016020900481019282601f106157ca578054855561562a565b8280016001018555821561562a57600052602060002091601f016020900482015b8281111561562a5782548255916001019190600101906157eb565b50805460018160011615610100020316600290046000825580601f1061582c57506144ed565b601f0160209004906000526020600020908101906144ed9190615896565b8154818355818111156124845760030281600302836000526020600020918201910161248491906158d4565b815481835581811115612484576000838152602090206124849181019083015b6118f191905b80821115615636576000815560010161589c565b6118f191905b80821115615636578054600160a060020a03191681556001016158b6565b6118f191905b808211156156365760008082556158f46001830182615806565b615902600283016000615806565b506003016158da56fe70726f7073616c206e6f7420666f756e640000000000000000000000000000007468697320636f6e747261637420697320696e20636f6e666967206d6f6465006f6e6c792076616c6964206d656d626572732063616e20646f2074686973207472616e73616374696f6e000000000000000000000000000000000000000000007468652070726f706f73616c206578656375746564206265666f726500000000a165627a7a723058209af6bf4e18e1243b9e63f00b8029209ffda3692576cd3ba83be353faca2b77d50029",
  "source": "pragma solidity >=0.4.21 <0.6.0;\n\nimport \"./Voting.sol\";\nimport \"./Config.sol\";\n\ncontract KuknosDAO is Voting, Config {\n\n    enum ProposalTypes { AddAnchor, RemoveAnchor, ChangeAnchorMember, RenewAccessToken, ChangeConfig }\n\n    struct AddAnchorProposal {\n        string name;\n        string url;\n        address[] members;\n        uint executionTime;\n    }\n\n    struct RemoveAnchorProposal {\n        string name;\n        uint executionTime;\n    }\n\n    struct RenewAccessTockenProposal {\n        string name;\n        uint count;\n        uint executionTime;\n    }\n\n    struct ChangeConfigProposal {\n        string name;\n        uint8 value;\n        uint executionTime;\n    }\n\n    mapping ( uint => AddAnchorProposal ) public addAnchorProposals;\n\n    mapping ( uint => RemoveAnchorProposal ) public removeAnchorProposal;\n\n    mapping ( uint => RenewAccessTockenProposal ) public renewAccessTockenProposal;\n\n    mapping ( uint => ChangeConfigProposal ) public changeConfigProposal;\n\n    uint public internalProposalsCount = 0;\n\n    constructor(uint _voterTokensCount) public Voting(_voterTokensCount) {\n    }\n\n    function addNewAnchor(string memory _name, string memory _url, address[] memory _members) public onlyOwner {\n        addAnchorWithToken(_name, _url, _members);\n    }\n\n    function addAnchorWithToken(string memory _name, string memory _url, address[] memory _members) internal {\n        addAnchor(_name, _url, _members);\n        issueAccessToken(_members, accessTokensCount);\n    }\n\n    function contractIsActive() public view returns(bool) {\n        return contractHasNoOwener();\n    }\n\n\n    function checkProposalResult(uint _id, ProposalTypes pType) internal view returns(bool) {\n        (,,,uint32 proposalType, address contractAddress,, bool isFinished,,,bool successFull) = getProposalStatus(_id);\n        require(proposalType == uint(pType), \"type mismatch\");\n        require(contractAddress == address(this), \"the propsal is not an internal proposal\");\n        require(isFinished,\"the propsal is not finished\");\n        return successFull;\n    }\n\n    // Add new Anchor Proposal\n    function registerAddAnchorProposal(\n      string memory _anchorName,\n      string memory _anchorUrl,\n      address[] memory _members,\n      uint32 _startDate,\n      uint32 _endDate,\n      string memory _url,\n      string memory _hashCode\n      ) public onlyMembers {\n          require(bytes(_anchorName).length > 0, \"select name for anchor\");\n          internalProposalsCount++;\n          uint id = registerInternalProposal(\n              internalProposalsCount,\n              \"add anchor\",\n              uint32(ProposalTypes.AddAnchor),\n              _startDate,\n              _endDate,\n              _url,\n              _hashCode,\n              addAnchorThreshold);\n          addAnchorProposals[id] = AddAnchorProposal(_anchorName, _anchorUrl, _members, 0);\n    }\n\n    function runAddAnchorProposal(uint _id) public onlyMembers {\n        AddAnchorProposal memory proposal = addAnchorProposals[_id];\n        require(bytes(proposal.name).length > 0, \"propsal not found\");\n        require(proposal.executionTime == 0, \"the proposal executed before\");\n        if (checkProposalResult(_id, ProposalTypes.AddAnchor)) {\n            addAnchorWithToken(proposal.name, proposal.url, proposal.members);\n        }\n        addAnchorProposals[_id].executionTime = getTime();\n    }\n\n    // Remove an anchor proposal\n    function registerRemoveAnchorProposal(\n      string memory _anchorName,\n      uint32 _startDate,\n      uint32 _endDate,\n      string memory _url,\n      string memory _hashCode\n      ) public onlyMembers {\n          require(bytes(_anchorName).length > 0, \"select name for anchor\");\n          internalProposalsCount++;\n          uint id = registerInternalProposal(\n              internalProposalsCount,\n              \"remove anchor\",\n              uint32(ProposalTypes.RemoveAnchor),\n              _startDate,\n              _endDate,\n              _url,\n              _hashCode,\n              removeAnchorThreshold);\n          removeAnchorProposal[id] = RemoveAnchorProposal(_anchorName, 0);\n    }\n\n    function runRemoveAnchorProposal(uint _id) public onlyMembers {\n        RemoveAnchorProposal memory proposal = removeAnchorProposal[_id];\n        require(bytes(proposal.name).length > 0, \"propsal not found\");\n        require(proposal.executionTime == 0, \"the proposal executed before\");\n        if (checkProposalResult(_id, ProposalTypes.RemoveAnchor)) {\n            deleteAnchor(proposal.name);\n        }\n        removeAnchorProposal[_id].executionTime = getTime();\n    }\n\n    // set AccessToken proposal\n    function registerSetAccessTokenProposal(\n      uint count,\n      uint32 _startDate,\n      uint32 _endDate,\n      string memory _url,\n      string memory _hashCode\n      ) public onlyMembers {\n          internalProposalsCount++;\n          uint id = registerInternalProposal(\n              internalProposalsCount,\n              \"set access tocken\",\n              uint32(ProposalTypes.RenewAccessToken),\n              _startDate,\n              _endDate,\n              _url,\n              _hashCode,\n              renewAccessTokenThreshold);\n          renewAccessTockenProposal[id] = RenewAccessTockenProposal(\"set access tocken\", count, 0);\n    }\n\n    function runSetAccessTockenProposal(uint _id) public onlyMembers {\n        RenewAccessTockenProposal memory proposal = renewAccessTockenProposal[_id];\n        require(bytes(proposal.name).length > 0, \"propsal not found\");\n        require(proposal.executionTime == 0, \"the proposal executed before\");\n        if (checkProposalResult(_id, ProposalTypes.RenewAccessToken)) {\n            renewToken(members, true);\n        }\n        renewAccessTockenProposal[_id].executionTime = getTime();\n    }\n\n\n    // set AccessToken proposal\n    function addChangeConfigProposal(\n      uint8 newValue,\n      uint32 _startDate,\n      uint32 _endDate,\n      string memory _url,\n      string memory _hashCode\n      ) public onlyMembers {\n          internalProposalsCount++;\n          uint id = registerInternalProposal(\n              internalProposalsCount,\n              \"change config\",\n              uint32(ProposalTypes.ChangeConfig),\n              _startDate,\n              _endDate,\n              _url,\n              _hashCode,\n              changeConfigThreshold);\n          changeConfigProposal[id] = ChangeConfigProposal(\"change config\", newValue, 0);\n    }\n\n    function runChangeConfigProposal(uint _id) public onlyMembers {\n        ChangeConfigProposal memory proposal = changeConfigProposal[_id];\n        require(bytes(proposal.name).length > 0, \"propsal not found\");\n        require(proposal.executionTime == 0, \"the proposal executed before\");\n        if (checkProposalResult(_id, ProposalTypes.ChangeConfig)) {\n            renewToken(members, true);\n        }\n        renewAccessTockenProposal[_id].executionTime = getTime();\n    }\n\n\n}",
  "sourcePath": "C:/Users/mkhalilian/projects/kuknos-dao/contracts/KuknosDAO.sol",
  "compiler": {
    "name": "solc",
    "version": "0.5.0+commit.1d4f565a.Emscripten.clang"
  },
  "schemaVersion": "3.0.9",
  "updatedAt": "2019-06-23T11:35:14.960Z",
  "devdoc": {
    "methods": {
      "renounceOwnership()": {
        "details": "Allows the current owner to relinquish control of the contract."
      },
      "transferOwnership(address)": {
        "details": "Allows the current owner to transfer control of the contract to a newOwner.",
        "params": {
          "_newOwner": "The address to transfer ownership to."
        }
      }
    }
  },
  "userdoc": {
    "methods": {
      "renounceOwnership()": {
        "notice": "Renouncing to ownership will leave the contract without an owner. It will not be possible to call the functions with the `onlyOwner` modifier anymore."
      }
    }
  }
}