{
  "contractName": "KuknosDAO",
  "abi": [
    {
      "constant": false,
      "inputs": [],
      "name": "renewYearTokens",
      "outputs": [],
      "payable": false,
      "stateMutability": "nonpayable",
      "type": "function"
    },
    {
      "constant": true,
      "inputs": [
        {
          "name": "",
          "type": "uint256"
        }
      ],
      "name": "removeAnchorProposal",
      "outputs": [
        {
          "name": "name",
          "type": "string"
        },
        {
          "name": "executionTime",
          "type": "uint256"
        }
      ],
      "payable": false,
      "stateMutability": "view",
      "type": "function"
    },
    {
      "constant": true,
      "inputs": [
        {
          "name": "",
          "type": "uint256"
        }
      ],
      "name": "renewAccessTockenProposal",
      "outputs": [
        {
          "name": "name",
          "type": "string"
        },
        {
          "name": "count",
          "type": "uint256"
        },
        {
          "name": "executionTime",
          "type": "uint256"
        }
      ],
      "payable": false,
      "stateMutability": "view",
      "type": "function"
    },
    {
      "constant": true,
      "inputs": [],
      "name": "membersCount",
      "outputs": [
        {
          "name": "",
          "type": "uint256"
        }
      ],
      "payable": false,
      "stateMutability": "view",
      "type": "function"
    },
    {
      "constant": false,
      "inputs": [
        {
          "name": "id",
          "type": "uint256"
        },
        {
          "name": "title",
          "type": "string"
        },
        {
          "name": "proposalType",
          "type": "uint32"
        },
        {
          "name": "startDate",
          "type": "uint32"
        },
        {
          "name": "endDate",
          "type": "uint32"
        },
        {
          "name": "url",
          "type": "string"
        },
        {
          "name": "hashCode",
          "type": "string"
        },
        {
          "name": "contractAddress",
          "type": "address"
        },
        {
          "name": "threshold",
          "type": "uint8"
        }
      ],
      "name": "registerProposal",
      "outputs": [],
      "payable": false,
      "stateMutability": "nonpayable",
      "type": "function"
    },
    {
      "constant": true,
      "inputs": [
        {
          "name": "",
          "type": "uint256"
        },
        {
          "name": "",
          "type": "address"
        }
      ],
      "name": "votesReceived",
      "outputs": [
        {
          "name": "vote",
          "type": "int8"
        },
        {
          "name": "description",
          "type": "string"
        }
      ],
      "payable": false,
      "stateMutability": "view",
      "type": "function"
    },
    {
      "constant": true,
      "inputs": [
        {
          "name": "",
          "type": "uint256"
        }
      ],
      "name": "anchors",
      "outputs": [
        {
          "name": "nameHash",
          "type": "bytes32"
        },
        {
          "name": "name",
          "type": "string"
        },
        {
          "name": "url",
          "type": "string"
        }
      ],
      "payable": false,
      "stateMutability": "view",
      "type": "function"
    },
    {
      "constant": true,
      "inputs": [
        {
          "name": "index",
          "type": "uint256"
        }
      ],
      "name": "getProposalStatus",
      "outputs": [
        {
          "name": "id",
          "type": "uint256"
        },
        {
          "name": "up",
          "type": "uint16"
        },
        {
          "name": "down",
          "type": "uint16"
        },
        {
          "name": "proposalType",
          "type": "uint32"
        },
        {
          "name": "contractAddress",
          "type": "address"
        },
        {
          "name": "isNotStarted",
          "type": "bool"
        },
        {
          "name": "isExpired",
          "type": "bool"
        },
        {
          "name": "upPercentage",
          "type": "uint16"
        },
        {
          "name": "downPercentage",
          "type": "uint16"
        },
        {
          "name": "isSucceed",
          "type": "bool"
        }
      ],
      "payable": false,
      "stateMutability": "view",
      "type": "function"
    },
    {
      "constant": true,
      "inputs": [],
      "name": "accessTokensCount",
      "outputs": [
        {
          "name": "",
          "type": "uint256"
        }
      ],
      "payable": false,
      "stateMutability": "view",
      "type": "function"
    },
    {
      "constant": true,
      "inputs": [
        {
          "name": "",
          "type": "uint256"
        }
      ],
      "name": "members",
      "outputs": [
        {
          "name": "",
          "type": "address"
        }
      ],
      "payable": false,
      "stateMutability": "view",
      "type": "function"
    },
    {
      "constant": true,
      "inputs": [
        {
          "name": "",
          "type": "uint256"
        }
      ],
      "name": "addOrUpdateAnchorProposals",
      "outputs": [
        {
          "name": "name",
          "type": "string"
        },
        {
          "name": "url",
          "type": "string"
        },
        {
          "name": "executionTime",
          "type": "uint256"
        }
      ],
      "payable": false,
      "stateMutability": "view",
      "type": "function"
    },
    {
      "constant": true,
      "inputs": [],
      "name": "internalProposalsCount",
      "outputs": [
        {
          "name": "",
          "type": "uint256"
        }
      ],
      "payable": false,
      "stateMutability": "view",
      "type": "function"
    },
    {
      "constant": true,
      "inputs": [],
      "name": "changeConfigThreshold",
      "outputs": [
        {
          "name": "",
          "type": "uint8"
        }
      ],
      "payable": false,
      "stateMutability": "view",
      "type": "function"
    },
    {
      "constant": true,
      "inputs": [
        {
          "name": "",
          "type": "address"
        }
      ],
      "name": "balanceOf",
      "outputs": [
        {
          "name": "",
          "type": "uint256"
        }
      ],
      "payable": false,
      "stateMutability": "view",
      "type": "function"
    },
    {
      "constant": false,
      "inputs": [],
      "name": "renounceOwnership",
      "outputs": [],
      "payable": false,
      "stateMutability": "nonpayable",
      "type": "function"
    },
    {
      "constant": true,
      "inputs": [
        {
          "name": "",
          "type": "uint256"
        }
      ],
      "name": "changeConfigProposal",
      "outputs": [
        {
          "name": "name",
          "type": "string"
        },
        {
          "name": "value",
          "type": "uint8"
        },
        {
          "name": "executionTime",
          "type": "uint256"
        }
      ],
      "payable": false,
      "stateMutability": "view",
      "type": "function"
    },
    {
      "constant": true,
      "inputs": [],
      "name": "owner",
      "outputs": [
        {
          "name": "",
          "type": "address"
        }
      ],
      "payable": false,
      "stateMutability": "view",
      "type": "function"
    },
    {
      "constant": true,
      "inputs": [],
      "name": "getProposalsCount",
      "outputs": [
        {
          "name": "",
          "type": "uint256"
        }
      ],
      "payable": false,
      "stateMutability": "view",
      "type": "function"
    },
    {
      "constant": false,
      "inputs": [
        {
          "name": "_proposalIndex",
          "type": "uint256"
        },
        {
          "name": "_vote",
          "type": "int8"
        },
        {
          "name": "_description",
          "type": "string"
        }
      ],
      "name": "voteForProposal",
      "outputs": [],
      "payable": false,
      "stateMutability": "nonpayable",
      "type": "function"
    },
    {
      "constant": true,
      "inputs": [
        {
          "name": "",
          "type": "bytes32"
        },
        {
          "name": "",
          "type": "uint256"
        }
      ],
      "name": "anchorMembers",
      "outputs": [
        {
          "name": "",
          "type": "address"
        }
      ],
      "payable": false,
      "stateMutability": "view",
      "type": "function"
    },
    {
      "constant": true,
      "inputs": [],
      "name": "removeAnchorThreshold",
      "outputs": [
        {
          "name": "",
          "type": "uint8"
        }
      ],
      "payable": false,
      "stateMutability": "view",
      "type": "function"
    },
    {
      "constant": true,
      "inputs": [
        {
          "name": "index",
          "type": "uint256"
        }
      ],
      "name": "getProposal",
      "outputs": [
        {
          "name": "title",
          "type": "string"
        },
        {
          "name": "proposalType",
          "type": "uint32"
        },
        {
          "name": "registerDate",
          "type": "uint32"
        },
        {
          "name": "startDate",
          "type": "uint32"
        },
        {
          "name": "endDate",
          "type": "uint32"
        },
        {
          "name": "author",
          "type": "address"
        },
        {
          "name": "url",
          "type": "string"
        },
        {
          "name": "hashCode",
          "type": "string"
        },
        {
          "name": "contractAddress",
          "type": "address"
        },
        {
          "name": "threshold",
          "type": "uint8"
        }
      ],
      "payable": false,
      "stateMutability": "view",
      "type": "function"
    },
    {
      "constant": true,
      "inputs": [],
      "name": "lastTokenIssueDate",
      "outputs": [
        {
          "name": "",
          "type": "uint256"
        }
      ],
      "payable": false,
      "stateMutability": "view",
      "type": "function"
    },
    {
      "constant": true,
      "inputs": [],
      "name": "getAnchorsCount",
      "outputs": [
        {
          "name": "",
          "type": "uint256"
        }
      ],
      "payable": false,
      "stateMutability": "view",
      "type": "function"
    },
    {
      "constant": true,
      "inputs": [],
      "name": "changeAnchorMemberThreshold",
      "outputs": [
        {
          "name": "",
          "type": "uint8"
        }
      ],
      "payable": false,
      "stateMutability": "view",
      "type": "function"
    },
    {
      "constant": true,
      "inputs": [],
      "name": "membersList",
      "outputs": [
        {
          "name": "",
          "type": "address[]"
        }
      ],
      "payable": false,
      "stateMutability": "view",
      "type": "function"
    },
    {
      "constant": false,
      "inputs": [
        {
          "name": "_newOwner",
          "type": "address"
        }
      ],
      "name": "transferOwnership",
      "outputs": [],
      "payable": false,
      "stateMutability": "nonpayable",
      "type": "function"
    },
    {
      "constant": true,
      "inputs": [],
      "name": "renewAccessTokenThreshold",
      "outputs": [
        {
          "name": "",
          "type": "uint8"
        }
      ],
      "payable": false,
      "stateMutability": "view",
      "type": "function"
    },
    {
      "constant": true,
      "inputs": [],
      "name": "addAnchorThreshold",
      "outputs": [
        {
          "name": "",
          "type": "uint8"
        }
      ],
      "payable": false,
      "stateMutability": "view",
      "type": "function"
    },
    {
      "inputs": [
        {
          "name": "_voterTokensCount",
          "type": "uint256"
        }
      ],
      "payable": false,
      "stateMutability": "nonpayable",
      "type": "constructor"
    },
    {
      "anonymous": false,
      "inputs": [
        {
          "indexed": true,
          "name": "previousOwner",
          "type": "address"
        }
      ],
      "name": "OwnershipRenounced",
      "type": "event"
    },
    {
      "anonymous": false,
      "inputs": [
        {
          "indexed": true,
          "name": "previousOwner",
          "type": "address"
        },
        {
          "indexed": true,
          "name": "newOwner",
          "type": "address"
        }
      ],
      "name": "OwnershipTransferred",
      "type": "event"
    },
    {
      "constant": false,
      "inputs": [
        {
          "name": "_name",
          "type": "string"
        },
        {
          "name": "_url",
          "type": "string"
        },
        {
          "name": "_members",
          "type": "address[]"
        }
      ],
      "name": "addNewAnchor",
      "outputs": [],
      "payable": false,
      "stateMutability": "nonpayable",
      "type": "function"
    },
    {
      "constant": true,
      "inputs": [],
      "name": "contractIsActive",
      "outputs": [
        {
          "name": "",
          "type": "bool"
        }
      ],
      "payable": false,
      "stateMutability": "view",
      "type": "function"
    },
    {
      "constant": false,
      "inputs": [
        {
          "name": "_anchorName",
          "type": "string"
        },
        {
          "name": "_anchorUrl",
          "type": "string"
        },
        {
          "name": "_members",
          "type": "address[]"
        },
        {
          "name": "_startDate",
          "type": "uint32"
        },
        {
          "name": "_endDate",
          "type": "uint32"
        },
        {
          "name": "_url",
          "type": "string"
        },
        {
          "name": "_hashCode",
          "type": "string"
        },
        {
          "name": "_type",
          "type": "uint8"
        }
      ],
      "name": "registerAddOrUpdateAnchorProposal",
      "outputs": [],
      "payable": false,
      "stateMutability": "nonpayable",
      "type": "function"
    },
    {
      "constant": false,
      "inputs": [
        {
          "name": "_id",
          "type": "uint256"
        },
        {
          "name": "_type",
          "type": "uint8"
        }
      ],
      "name": "runAddOrUpdateAnchorProposal",
      "outputs": [],
      "payable": false,
      "stateMutability": "nonpayable",
      "type": "function"
    },
    {
      "constant": false,
      "inputs": [
        {
          "name": "_anchorName",
          "type": "string"
        },
        {
          "name": "_startDate",
          "type": "uint32"
        },
        {
          "name": "_endDate",
          "type": "uint32"
        },
        {
          "name": "_url",
          "type": "string"
        },
        {
          "name": "_hashCode",
          "type": "string"
        }
      ],
      "name": "registerRemoveAnchorProposal",
      "outputs": [],
      "payable": false,
      "stateMutability": "nonpayable",
      "type": "function"
    },
    {
      "constant": false,
      "inputs": [
        {
          "name": "_id",
          "type": "uint256"
        }
      ],
      "name": "runRemoveAnchorProposal",
      "outputs": [],
      "payable": false,
      "stateMutability": "nonpayable",
      "type": "function"
    },
    {
      "constant": false,
      "inputs": [
        {
          "name": "count",
          "type": "uint256"
        },
        {
          "name": "_startDate",
          "type": "uint32"
        },
        {
          "name": "_endDate",
          "type": "uint32"
        },
        {
          "name": "_url",
          "type": "string"
        },
        {
          "name": "_hashCode",
          "type": "string"
        }
      ],
      "name": "registerSetAccessTokenProposal",
      "outputs": [],
      "payable": false,
      "stateMutability": "nonpayable",
      "type": "function"
    },
    {
      "constant": false,
      "inputs": [
        {
          "name": "_id",
          "type": "uint256"
        }
      ],
      "name": "runSetAccessTockenProposal",
      "outputs": [],
      "payable": false,
      "stateMutability": "nonpayable",
      "type": "function"
    },
    {
      "constant": false,
      "inputs": [
        {
          "name": "newValue",
          "type": "uint8"
        },
        {
          "name": "_startDate",
          "type": "uint32"
        },
        {
          "name": "_endDate",
          "type": "uint32"
        },
        {
          "name": "_url",
          "type": "string"
        },
        {
          "name": "_hashCode",
          "type": "string"
        }
      ],
      "name": "addChangeConfigProposal",
      "outputs": [],
      "payable": false,
      "stateMutability": "nonpayable",
      "type": "function"
    },
    {
      "constant": false,
      "inputs": [
        {
          "name": "_id",
          "type": "uint256"
        }
      ],
      "name": "runChangeConfigProposal",
      "outputs": [],
      "payable": false,
      "stateMutability": "nonpayable",
      "type": "function"
    }
  ],
  "bytecode": "0x608060405260326002908155600555600a8054603360ff199091161761ff0019166150001762ff00001916623300001763ff000000191663330000001764ff0000000019166450000000001790556000600f553480156200005f57600080fd5b5060405160208062005c15833981018060405260208110156200008157600080fd5b505160008054600160a060020a031916331790558080620000aa640100000000620000b9810204565b60015560025550620000bd9050565b4290565b615b4880620000cd6000396000f3fe6080604052600436106101c85763ffffffff60e060020a600035041662f18f5681146101cd57806306cdf57c146101e45780630d60ea19146102175780631351e4ac1461024057806324353bb6146102e9578063297f9af0146103995780632cb23604146103c057806330c3464c1461059757806333dd6bed14610790578063368b733e146108115780633b332197146109205780633ec4cd7214610a77578063401853b714610c355780634c21112214610cc9578063511e9e6e14610cf357806351f3068914610d1d57806355de8c7e146110055780635daf08ca1461101a578063614125781461106057806365a059d2146111305780636ee2e2251461114557806370a0823114611170578063715018a6146111a35780638a71f0d2146111b85780638da5cb5b1461123057806398e527d3146112455780639a07772a1461125a5780639aedd3fd146113b4578063a773693f14611476578063b35d1b06146114a6578063bb60512f146114d0578063c7f758a8146114e5578063cededb30146116de578063d4c8ca9b146116f3578063d4e18e6814611708578063dd5042f41461171d578063f2fde38b14611782578063fa019249146117b5578063fc37a9e8146117ca575b600080fd5b3480156101d957600080fd5b506101e26117df565b005b3480156101f057600080fd5b506101e26004803603604081101561020757600080fd5b508035906020013560ff166118f3565b34801561022357600080fd5b5061022c611ce7565b604080519115158252519081900360200190f35b34801561024c57600080fd5b5061026a6004803603602081101561026357600080fd5b5035611cf7565b6040518080602001838152602001828103825284818151815260200191508051906020019080838360005b838110156102ad578181015183820152602001610295565b50505050905090810190601f1680156102da5780820380516001836020036101000a031916815260200191505b50935050505060405180910390f35b3480156102f557600080fd5b506103136004803603602081101561030c57600080fd5b5035611d9e565b6040518080602001848152602001838152602001828103825285818151815260200191508051906020019080838360005b8381101561035c578181015183820152602001610344565b50505050905090810190601f1680156103895780820380516001836020036101000a031916815260200191505b5094505050505060405180910390f35b3480156103a557600080fd5b506103ae611e4b565b60408051918252519081900360200190f35b3480156103cc57600080fd5b506101e2600480360360a08110156103e357600080fd5b8101906020810181356401000000008111156103fe57600080fd5b82018360208201111561041057600080fd5b8035906020019184600183028401116401000000008311171561043257600080fd5b91908080601f016020809104026020016040519081016040528093929190818152602001838380828437600092019190915250929563ffffffff853581169660208701359091169591945092506060810191506040013564010000000081111561049b57600080fd5b8201836020820111156104ad57600080fd5b803590602001918460018302840111640100000000831117156104cf57600080fd5b91908080601f016020809104026020016040519081016040528093929190818152602001838380828437600092019190915250929594936020810193503591505064010000000081111561052257600080fd5b82018360208201111561053457600080fd5b8035906020019184600183028401116401000000008311171561055657600080fd5b91908080601f016020809104026020016040519081016040528093929190818152602001838380828437600092019190915250929550611e51945050505050565b3480156105a357600080fd5b506101e260048036036101208110156105bb57600080fd5b813591908101906040810160208201356401000000008111156105dd57600080fd5b8201836020820111156105ef57600080fd5b8035906020019184600183028401116401000000008311171561061157600080fd5b91908080601f016020809104026020016040519081016040528093929190818152602001838380828437600092019190915250929563ffffffff853581169660208701358216966040810135909216955091935090915060808101906060013564010000000081111561068357600080fd5b82018360208201111561069557600080fd5b803590602001918460018302840111640100000000831117156106b757600080fd5b91908080601f016020809104026020016040519081016040528093929190818152602001838380828437600092019190915250929594936020810193503591505064010000000081111561070a57600080fd5b82018360208201111561071c57600080fd5b8035906020019184600183028401116401000000008311171561073e57600080fd5b91908080601f01602080910402602001604051908101604052809392919081815260200183838082843760009201919091525092955050508135600160a060020a03169250506020013560ff16612007565b34801561079c57600080fd5b506107c9600480360360408110156107b357600080fd5b5080359060200135600160a060020a0316612443565b604051808360000b60000b81526020018060200182810382528381815181526020019150805190602001908083836000838110156102ad578181015183820152602001610295565b34801561081d57600080fd5b5061083b6004803603602081101561083457600080fd5b50356124f9565b604051808481526020018060200180602001838103835285818151815260200191508051906020019080838360005b8381101561088257818101518382015260200161086a565b50505050905090810190601f1680156108af5780820380516001836020036101000a031916815260200191505b50838103825284518152845160209182019186019080838360005b838110156108e25781810151838201526020016108ca565b50505050905090810190601f16801561090f5780820380516001836020036101000a031916815260200191505b509550505050505060405180910390f35b34801561092c57600080fd5b506101e2600480360360a081101561094357600080fd5b81359163ffffffff60208201358116926040830135909116919081019060808101606082013564010000000081111561097b57600080fd5b82018360208201111561098d57600080fd5b803590602001918460018302840111640100000000831117156109af57600080fd5b91908080601f0160208091040260200160405190810160405280939291908181526020018383808284376000920191909152509295949360208101935035915050640100000000811115610a0257600080fd5b820183602082011115610a1457600080fd5b80359060200191846001830284011164010000000083111715610a3657600080fd5b91908080601f016020809104026020016040519081016040528093929190818152602001838380828437600092019190915250929550612655945050505050565b348015610a8357600080fd5b506101e260048036036060811015610a9a57600080fd5b810190602081018135640100000000811115610ab557600080fd5b820183602082011115610ac757600080fd5b80359060200191846001830284011164010000000083111715610ae957600080fd5b91908080601f0160208091040260200160405190810160405280939291908181526020018383808284376000920191909152509295949360208101935035915050640100000000811115610b3c57600080fd5b820183602082011115610b4e57600080fd5b80359060200191846001830284011164010000000083111715610b7057600080fd5b91908080601f0160208091040260200160405190810160405280939291908181526020018383808284376000920191909152509295949360208101935035915050640100000000811115610bc357600080fd5b820183602082011115610bd557600080fd5b80359060200191846020830284011164010000000083111715610bf757600080fd5b9190808060200260200160405190810160405280939291908181526020018383602002808284376000920191909152509295506127f1945050505050565b348015610c4157600080fd5b50610c5f60048036036020811015610c5857600080fd5b5035612889565b604080519a8b5261ffff998a1660208c01529789168a89015263ffffffff90961660608a0152600160a060020a03909416608089015291151560a0880152151560c0870152841660e086015290921661010084015290151561012083015251908190036101400190f35b348015610cd557600080fd5b506101e260048036036020811015610cec57600080fd5b5035612c4b565b348015610cff57600080fd5b506101e260048036036020811015610d1657600080fd5b5035612ee8565b348015610d2957600080fd5b506101e26004803603610100811015610d4157600080fd5b810190602081018135640100000000811115610d5c57600080fd5b820183602082011115610d6e57600080fd5b80359060200191846001830284011164010000000083111715610d9057600080fd5b91908080601f0160208091040260200160405190810160405280939291908181526020018383808284376000920191909152509295949360208101935035915050640100000000811115610de357600080fd5b820183602082011115610df557600080fd5b80359060200191846001830284011164010000000083111715610e1757600080fd5b91908080601f0160208091040260200160405190810160405280939291908181526020018383808284376000920191909152509295949360208101935035915050640100000000811115610e6a57600080fd5b820183602082011115610e7c57600080fd5b80359060200191846020830284011164010000000083111715610e9e57600080fd5b919080806020026020016040519081016040528093929190818152602001838360200280828437600092019190915250929563ffffffff8535811696602087013590911695919450925060608101915060400135640100000000811115610f0457600080fd5b820183602082011115610f1657600080fd5b80359060200191846001830284011164010000000083111715610f3857600080fd5b91908080601f0160208091040260200160405190810160405280939291908181526020018383808284376000920191909152509295949360208101935035915050640100000000811115610f8b57600080fd5b820183602082011115610f9d57600080fd5b80359060200191846001830284011164010000000083111715610fbf57600080fd5b91908080601f0160208091040260200160405190810160405280939291908181526020018383808284376000920191909152509295505050903560ff16915061311f9050565b34801561101157600080fd5b506103ae61339b565b34801561102657600080fd5b506110446004803603602081101561103d57600080fd5b50356133a1565b60408051600160a060020a039092168252519081900360200190f35b34801561106c57600080fd5b5061108a6004803603602081101561108357600080fd5b50356133c9565b604051808060200180602001848152602001838103835286818151815260200191508051906020019080838360005b838110156110d15781810151838201526020016110b9565b50505050905090810190601f1680156110fe5780820380516001836020036101000a031916815260200191505b5083810382528551815285516020918201918701908083836000838110156108e25781810151838201526020016108ca565b34801561113c57600080fd5b506103ae61350e565b34801561115157600080fd5b5061115a613514565b6040805160ff9092168252519081900360200190f35b34801561117c57600080fd5b506103ae6004803603602081101561119357600080fd5b5035600160a060020a0316613525565b3480156111af57600080fd5b506101e2613537565b3480156111c457600080fd5b506111e2600480360360208110156111db57600080fd5b5035613607565b60405180806020018460ff1660ff168152602001838152602001828103825285818151815260200191508051906020019080838360008381101561035c578181015183820152602001610344565b34801561123c57600080fd5b506110446136b8565b34801561125157600080fd5b506103ae6136c7565b34801561126657600080fd5b506101e2600480360360a081101561127d57600080fd5b60ff8235169163ffffffff6020820135811692604083013590911691908101906080810160608201356401000000008111156112b857600080fd5b8201836020820111156112ca57600080fd5b803590602001918460018302840111640100000000831117156112ec57600080fd5b91908080601f016020809104026020016040519081016040528093929190818152602001838380828437600092019190915250929594936020810193503591505064010000000081111561133f57600080fd5b82018360208201111561135157600080fd5b8035906020019184600183028401116401000000008311171561137357600080fd5b91908080601f0160208091040260200160405190810160405280939291908181526020018383808284376000920191909152509295506136cd945050505050565b3480156113c057600080fd5b506101e2600480360360608110156113d757600080fd5b813591602081013560000b9181019060608101604082013564010000000081111561140157600080fd5b82018360208201111561141357600080fd5b8035906020019184600183028401116401000000008311171561143557600080fd5b91908080601f01602080910402602001604051908101604052809392919081815260200183838082843760009201919091525092955061387e945050505050565b34801561148257600080fd5b506110446004803603604081101561149957600080fd5b5080359060200135613f71565b3480156114b257600080fd5b506101e2600480360360208110156114c957600080fd5b5035613fa8565b3480156114dc57600080fd5b5061115a6141b7565b3480156114f157600080fd5b5061150f6004803603602081101561150857600080fd5b50356141c5565b60405180806020018b63ffffffff1663ffffffff1681526020018a63ffffffff1663ffffffff1681526020018963ffffffff1663ffffffff1681526020018863ffffffff1663ffffffff16815260200187600160a060020a0316600160a060020a03168152602001806020018060200186600160a060020a0316600160a060020a031681526020018560ff1660ff16815260200184810384528e818151815260200191508051906020019080838360005b838110156115d85781810151838201526020016115c0565b50505050905090810190601f1680156116055780820380516001836020036101000a031916815260200191505b5084810383528851815288516020918201918a019080838360005b83811015611638578181015183820152602001611620565b50505050905090810190601f1680156116655780820380516001836020036101000a031916815260200191505b50848103825287518152875160209182019189019080838360005b83811015611698578181015183820152602001611680565b50505050905090810190601f1680156116c55780820380516001836020036101000a031916815260200191505b509d505050505050505050505050505060405180910390f35b3480156116ea57600080fd5b506103ae614546565b3480156116ff57600080fd5b506103ae61454c565b34801561171457600080fd5b5061115a614552565b34801561172957600080fd5b50611732614562565b60408051602080825283518183015283519192839290830191858101910280838360005b8381101561176e578181015183820152602001611756565b505050509050019250505060405180910390f35b34801561178e57600080fd5b506101e2600480360360208110156117a557600080fd5b5035600160a060020a03166145c4565b3480156117c157600080fd5b5061115a614658565b3480156117d657600080fd5b5061115a614667565b6117e7614670565b151561182b576040805160e560020a62461bcd02815260206004820152601f6024820152600080516020615a9d833981519152604482015290519081900360640190fd5b61183433614680565b151561188c576040805160e560020a62461bcd02815260206004820152602a6024820152600080516020615abd8339815191526044820152600080516020615add833981519152606482015290519081900360840190fd5b6118f160048054806020026020016040519081016040528092919081815260200182805480156118e557602002820191906000526020600020905b8154600160a060020a031681526001909101906020018083116118c7575b505050505060006146f1565b565b6118fb614670565b151561193f576040805160e560020a62461bcd02815260206004820152601f6024820152600080516020615a9d833981519152604482015290519081900360640190fd5b61194833614680565b15156119a0576040805160e560020a62461bcd02815260206004820152602a6024820152600080516020615abd8339815191526044820152600080516020615add833981519152606482015290519081900360840190fd5b60008160058111156119ae57fe5b14806119c5575060018160058111156119c357fe5b145b1515611a1b576040805160e560020a62461bcd02815260206004820152601260248201527f63686f6f73652076616c69646520747970650000000000000000000000000000604482015290519081900360640190fd5b611a2361572d565b6000838152600b60209081526040918290208251815460026001821615610100026000190190911604601f8101849004909302810160a090810190945260808101838152909391928492849190840182828015611ac15780601f10611a9657610100808354040283529160200191611ac1565b820191906000526020600020905b815481529060010190602001808311611aa457829003601f168201915b50505050508152602001600182018054600181600116156101000203166002900480601f016020809104026020016040519081016040528092919081815260200182805460018160011615610100020316600290048015611b635780601f10611b3857610100808354040283529160200191611b63565b820191906000526020600020905b815481529060010190602001808311611b4657829003601f168201915b5050505050815260200160028201805480602002602001604051908101604052809291908181526020018280548015611bc557602002820191906000526020600020905b8154600160a060020a03168152600190910190602001808311611ba7575b5050505050815260200160038201548152505090506000816000015151111515611c27576040805160e560020a62461bcd0281526020600482015260116024820152600080516020615a7d833981519152604482015290519081900360640190fd5b606081015115611c6f576040805160e560020a62461bcd02815260206004820152601c6024820152600080516020615afd833981519152604482015290519081900360640190fd5b611c7983836147af565b15611cc5576000826005811115611c8c57fe5b1415611cae57611ca981600001518260200151836040015161491f565b611cc5565b611cc5816000015182602001518360400151614936565b611ccd61493f565b6000938452600b6020526040909320600301929092555050565b6000611cf1614670565b90505b90565b600c6020908152600091825260409182902080548351601f60026000196101006001861615020190931692909204918201849004840281018401909452808452909291839190830182828015611d8e5780601f10611d6357610100808354040283529160200191611d8e565b820191906000526020600020905b815481529060010190602001808311611d7157829003601f168201915b5050505050908060010154905082565b600d6020908152600091825260409182902080548351601f60026000196101006001861615020190931692909204918201849004840281018401909452808452909291839190830182828015611e355780601f10611e0a57610100808354040283529160200191611e35565b820191906000526020600020905b815481529060010190602001808311611e1857829003601f168201915b5050505050908060010154908060020154905083565b60045490565b611e59614670565b1515611e9d576040805160e560020a62461bcd02815260206004820152601f6024820152600080516020615a9d833981519152604482015290519081900360640190fd5b611ea633614680565b1515611efe576040805160e560020a62461bcd02815260206004820152602a6024820152600080516020615abd8339815191526044820152600080516020615add833981519152606482015290519081900360840190fd5b8451600010611f57576040805160e560020a62461bcd02815260206004820152601660248201527f73656c656374206e616d6520666f7220616e63686f7200000000000000000000604482015290519081900360640190fd5b600f80546001019081905560408051808201909152600d81527f72656d6f766520616e63686f72000000000000000000000000000000000000006020820152600091611fb891600288888888600a60019054906101000a900460ff16614943565b60408051808201825288815260006020808301829052848252600c81529290208151805194955091939092611ff1928492910190615756565b5060208201518160010155905050505050505050565b61200f614670565b1515612053576040805160e560020a62461bcd02815260206004820152601f6024820152600080516020615a9d833981519152604482015290519081900360640190fd5b61205c33614680565b15156120b4576040805160e560020a62461bcd02815260206004820152602a6024820152600080516020615abd8339815191526044820152600080516020615add833981519152606482015290519081900360840190fd5b3360009081526003602052604090205460019081111561211e576040805160e560020a62461bcd02815260206004820152601960248201527f796f752068617665206e6f7420656e6f75676820746f6b656e00000000000000604482015290519081900360640190fd5b600160a060020a0383163014156121a5576040805160e560020a62461bcd02815260206004820152603860248201527f7573696e6720696e7465726e616c20636f6e747261637420666f72206578746560448201527f726e616c2070726f706f73616c20697320696e76616c69640000000000000000606482015290519081900360840190fd5b60086101a0604051908101604052808c81526020018b81526020018a63ffffffff1681526020018963ffffffff1681526020018863ffffffff16815260200133600160a060020a0316815260200187815260200186815260200161220761493f565b63ffffffff1681526000602080830182905260408301829052600160a060020a038816606084015260ff871660809093019290925283546001818101808755958352918390208451600690920201908155838301518051919361226f93850192910190615756565b5060408201516002820180546060850151608086015160a0870151600160a060020a03166c01000000000000000000000000026bffffffffffffffffffffffff63ffffffff92831668010000000000000000026bffffffff0000000000000000199484166401000000000267ffffffff00000000199490981663ffffffff1990961695909517929092169590951791909116919091171691909117905560c08201518051612327916003840191602090910190615756565b5060e08201518051612343916004840191602090910190615756565b5061010082015160059190910180546101208401516101408501516101608601516101809096015163ffffffff1990931663ffffffff9095169490941765ffff00000000191664010000000061ffff928316021767ffff000000000000191666010000000000009190941602929092177bffffffffffffffffffffffffffffffffffffffff0000000000000000191668010000000000000000600160a060020a0390941693909302929092177cff00000000000000000000000000000000000000000000000000000000191660e060020a60ff90921691909102179055503360009081526003602052604090208054919091039055505050505050505050565b600960209081526000928352604080842082529183528183208054600180830180548651600261010094831615949094026000190190911692909204601f81018690048602830186019096528582529190950b94919391929091908301828280156124ef5780601f106124c4576101008083540402835291602001916124ef565b820191906000526020600020905b8154815290600101906020018083116124d257829003601f168201915b5050505050905082565b600680548290811061250757fe5b9060005260206000209060030201600091509050806000015490806001018054600181600116156101000203166002900480601f0160208091040260200160405190810160405280929190818152602001828054600181600116156101000203166002900480156125b95780601f1061258e576101008083540402835291602001916125b9565b820191906000526020600020905b81548152906001019060200180831161259c57829003601f168201915b50505060028085018054604080516020601f600019610100600187161502019094169590950492830185900485028101850190915281815295969594509092509083018282801561264b5780601f106126205761010080835404028352916020019161264b565b820191906000526020600020905b81548152906001019060200180831161262e57829003601f168201915b5050505050905083565b61265d614670565b15156126a1576040805160e560020a62461bcd02815260206004820152601f6024820152600080516020615a9d833981519152604482015290519081900360640190fd5b6126aa33614680565b1515612702576040805160e560020a62461bcd02815260206004820152602a6024820152600080516020615abd8339815191526044820152600080516020615add833981519152606482015290519081900360840190fd5b600f80546001019081905560408051808201909152601181527f7365742061636365737320746f636b656e000000000000000000000000000000602082015260009161276391600488888888600a60029054906101000a900460ff16614943565b6040805160a0810182526011606082019081527f7365742061636365737320746f636b656e0000000000000000000000000000006080830152815260208082018a90526000828401819052848152600d82529290922081518051949550919390926127d2928492910190615756565b5060208201516001820155604090910151600290910155505050505050565b600054600160a060020a03163314612879576040805160e560020a62461bcd02815260206004820152602160248201527f6f6e6c79206f776e65722063616e2063616c6c20746869732066756e6374696f60448201527f6e00000000000000000000000000000000000000000000000000000000000000606482015290519081900360840190fd5b61288483838361491f565b505050565b6000806000806000806000806000806128a06157d4565b600880548d9081106128ae57fe5b90600052602060002090600602016101a0604051908101604052908160008201548152602001600182018054600181600116156101000203166002900480601f01602080910402602001604051908101604052809291908181526020018280546001816001161561010002031660029004801561296c5780601f106129415761010080835404028352916020019161296c565b820191906000526020600020905b81548152906001019060200180831161294f57829003601f168201915b505050918352505060028281015463ffffffff8082166020808601919091526401000000008304821660408087019190915268010000000000000000840490921660608601526c01000000000000000000000000909204600160a060020a0316608085015260038501805482516101006001831615026000190190911694909404601f810184900484028501840190925281845260a09094019391830182828015612a585780601f10612a2d57610100808354040283529160200191612a58565b820191906000526020600020905b815481529060010190602001808311612a3b57829003601f168201915b505050918352505060048201805460408051602060026001851615610100026000190190941693909304601f8101849004840282018401909252818152938201939291830182828015612aec5780601f10612ac157610100808354040283529160200191612aec565b820191906000526020600020905b815481529060010190602001808311612acf57829003601f168201915b50505091835250506005919091015463ffffffff8082166020840152640100000000820461ffff908116604080860191909152660100000000000084048216606080870191909152680100000000000000008504600160a060020a0316608087015260e060020a90940460ff1660a09095019490945261014085015161012086015186519587015161016088015195880151979850818301909316969094919316612b9561493f565b10876080015163ffffffff16612ba961493f565b10158715612bce578789610120015160640261ffff16811515612bc857fe5b04612bd1565b60005b8815612bf457888a610140015160640261ffff16811515612bee57fe5b04612bf7565b60005b8915612c25578a610180015160ff168a8c610120015160640261ffff16811515612c1d57fe5b041015612c28565b60005b9b509b509b509b509b509b509b509b509b509b5050509193959799509193959799565b612c53614670565b1515612c97576040805160e560020a62461bcd02815260206004820152601f6024820152600080516020615a9d833981519152604482015290519081900360640190fd5b612ca033614680565b1515612cf8576040805160e560020a62461bcd02815260206004820152602a6024820152600080516020615abd8339815191526044820152600080516020615add833981519152606482015290519081900360840190fd5b612d00615842565b6000828152600e60209081526040918290208251815460026001821615610100026000190190911604601f81018490049093028101608090810190945260608101838152909391928492849190840182828015612d9e5780601f10612d7357610100808354040283529160200191612d9e565b820191906000526020600020905b815481529060010190602001808311612d8157829003601f168201915b5050509183525050600182015460ff166020820152600290910154604090910152805151909150600010612e0a576040805160e560020a62461bcd0281526020600482015260116024820152600080516020615a7d833981519152604482015290519081900360640190fd5b604081015115612e52576040805160e560020a62461bcd02815260206004820152601c6024820152600080516020615afd833981519152604482015290519081900360640190fd5b612e5d8260056147af565b15612ec757612ec76004805480602002602001604051908101604052809291908181526020018280548015612ebb57602002820191906000526020600020905b8154600160a060020a03168152600190910190602001808311612e9d575b505050505060016146f1565b612ecf61493f565b6000928352600d60205260409092206002019190915550565b612ef0614670565b1515612f34576040805160e560020a62461bcd02815260206004820152601f6024820152600080516020615a9d833981519152604482015290519081900360640190fd5b612f3d33614680565b1515612f95576040805160e560020a62461bcd02815260206004820152602a6024820152600080516020615abd8339815191526044820152600080516020615add833981519152606482015290519081900360840190fd5b612f9d615867565b6000828152600c60209081526040918290208251815460026001821615610100026000190190911604601f81018490049093028101606090810185529381018381529093919284928491908401828280156130395780601f1061300e57610100808354040283529160200191613039565b820191906000526020600020905b81548152906001019060200180831161301c57829003601f168201915b505050505081526020016001820154815250509050600081600001515111151561309b576040805160e560020a62461bcd0281526020600482015260116024820152600080516020615a7d833981519152604482015290519081900360640190fd5b6020810151156130e3576040805160e560020a62461bcd02815260206004820152601c6024820152600080516020615afd833981519152604482015290519081900360640190fd5b6130ee8260026147af565b156130fe5780516130fe90614cf3565b61310661493f565b6000928352600c60205260409092206001019190915550565b613127614670565b151561316b576040805160e560020a62461bcd02815260206004820152601f6024820152600080516020615a9d833981519152604482015290519081900360640190fd5b61317433614680565b15156131cc576040805160e560020a62461bcd02815260206004820152602a6024820152600080516020615abd8339815191526044820152600080516020615add833981519152606482015290519081900360840190fd5b60008160058111156131da57fe5b14806131f1575060018160058111156131ef57fe5b145b1515613247576040805160e560020a62461bcd02815260206004820152601260248201527f63686f6f73652076616c69646520747970650000000000000000000000000000604482015290519081900360640190fd5b87516000106132a0576040805160e560020a62461bcd02815260206004820152601660248201527f73656c656374206e616d6520666f7220616e63686f7200000000000000000000604482015290519081900360640190fd5b600f80546001019081905560408051808201909152600a81527f61646420616e63686f72000000000000000000000000000000000000000000006020820152600091613305918460058111156132f257fe5b600a548a908a908a908a9060ff16614943565b604080516080810182528b815260208082018c90528183018b9052600060608301819052848152600b825292909220815180519495509193909261334d928492910190615756565b5060208281015180516133669260018501920190615756565b506040820151805161338291600284019160209091019061587f565b5060608201518160030155905050505050505050505050565b60025481565b60048054829081106133af57fe5b600091825260209091200154600160a060020a0316905081565b600b6020908152600091825260409182902080548351601f600260001961010060018616150201909316929092049182018490048402810184019094528084529092918391908301828280156134605780601f1061343557610100808354040283529160200191613460565b820191906000526020600020905b81548152906001019060200180831161344357829003601f168201915b505050505090806001018054600181600116156101000203166002900480601f0160208091040260200160405190810160405280929190818152602001828054600181600116156101000203166002900480156134fe5780601f106134d3576101008083540402835291602001916134fe565b820191906000526020600020905b8154815290600101906020018083116134e157829003601f168201915b5050505050908060030154905083565b600f5481565b600a54640100000000900460ff1681565b60036020526000908152604090205481565b600054600160a060020a031633146135bf576040805160e560020a62461bcd02815260206004820152602160248201527f6f6e6c79206f776e65722063616e2063616c6c20746869732066756e6374696f60448201527f6e00000000000000000000000000000000000000000000000000000000000000606482015290519081900360840190fd5b60008054604051600160a060020a03909116917ff8df31144d9c2f0f6b59d69b8b98abd5459d07f2742c4df920b25aae33c6482091a260008054600160a060020a0319169055565b600e6020908152600091825260409182902080548351601f6002600019610100600186161502019093169290920491820184900484028101840190945280845290929183919083018282801561369e5780601f106136735761010080835404028352916020019161369e565b820191906000526020600020905b81548152906001019060200180831161368157829003601f168201915b505050506001830154600290930154919260ff1691905083565b600054600160a060020a031681565b60085490565b6136d5614670565b1515613719576040805160e560020a62461bcd02815260206004820152601f6024820152600080516020615a9d833981519152604482015290519081900360640190fd5b61372233614680565b151561377a576040805160e560020a62461bcd02815260206004820152602a6024820152600080516020615abd8339815191526044820152600080516020615add833981519152606482015290519081900360840190fd5b600f80546001019081905560408051808201909152600d81527f6368616e676520636f6e6669670000000000000000000000000000000000000060208201526000916137db91600588888888600a60049054906101000a900460ff16614943565b6040805160a081018252600d606082019081527f6368616e676520636f6e666967000000000000000000000000000000000000006080830152815260ff89166020808301919091526000828401819052848152600e825292909220815180519495509193909261384f928492910190615756565b50602082015160018201805460ff191660ff909216919091179055604090910151600290910155505050505050565b613886614670565b15156138ca576040805160e560020a62461bcd02815260206004820152601f6024820152600080516020615a9d833981519152604482015290519081900360640190fd5b6138d333614680565b151561392b576040805160e560020a62461bcd02815260206004820152602a6024820152600080516020615abd8339815191526044820152600080516020615add833981519152606482015290519081900360840190fd5b6139336157d4565b600880548590811061394157fe5b90600052602060002090600602016101a0604051908101604052908160008201548152602001600182018054600181600116156101000203166002900480601f0160208091040260200160405190810160405280929190818152602001828054600181600116156101000203166002900480156139ff5780601f106139d4576101008083540402835291602001916139ff565b820191906000526020600020905b8154815290600101906020018083116139e257829003601f168201915b505050918352505060028281015463ffffffff8082166020808601919091526401000000008304821660408087019190915268010000000000000000840490921660608601526c01000000000000000000000000909204600160a060020a0316608085015260038501805482516101006001831615026000190190911694909404601f810184900484028501840190925281845260a09094019391830182828015613aeb5780601f10613ac057610100808354040283529160200191613aeb565b820191906000526020600020905b815481529060010190602001808311613ace57829003601f168201915b505050918352505060048201805460408051602060026001851615610100026000190190941693909304601f8101849004840282018401909252818152938201939291830182828015613b7f5780601f10613b5457610100808354040283529160200191613b7f565b820191906000526020600020905b815481529060010190602001808311613b6257829003601f168201915b50505091835250506005919091015463ffffffff81166020830152640100000000810461ffff908116604084015266010000000000008204166060830152680100000000000000008104600160a060020a03908116608084015260e060020a90910460ff1660a09283015290820151919250161515613c48576040805160e560020a62461bcd02815260206004820152601260248201527f70726f706f73616c206e6f7420666f756e640000000000000000000000000000604482015290519081900360640190fd5b613c5061493f565b606082015163ffffffff1610613cb0576040805160e560020a62461bcd02815260206004820152601560248201527f766f74696e67206973206e6f7420737461727465640000000000000000000000604482015290519081900360640190fd5b613cb861493f565b608082015163ffffffff1611613d18576040805160e560020a62461bcd02815260206004820152601360248201527f766f74696e67207761732066696e697368656400000000000000000000000000604482015290519081900360640190fd5b6000848152600960209081526040808320338452909152812054810b900b15613d8b576040805160e560020a62461bcd02815260206004820152601a60248201527f796f757220766f74652072656769737465726564206c61746572000000000000604482015290519081900360640190fd5b600083900b1515613e0c576040805160e560020a62461bcd02815260206004820152602a60248201527f796f75206d75737420736574207570206f7220646f776e20776974682031206f60448201527f72202d312076616c756500000000000000000000000000000000000000000000606482015290519081900360840190fd5b60008360000b1315613ec25760408051808201825260018082526020808301868152600089815260098352858120338252835294852084518154960b60ff1660ff19909616959095178555518051939493613e6e938501929190910190615756565b5050600880546001925086908110613e8257fe5b60009182526020909120600560069092020101805461ffff64010000000080830482169094011690920265ffff0000000019909216919091179055613f6b565b60408051808201825260001981526020808201858152600088815260098352848120338252835293842083518154950b60ff1660ff19909516949094178455518051929392613f179260018501920190615756565b5050600880546001925086908110613f2b57fe5b60009182526020909120600560069092020101805461ffff660100000000000080830482169094011690920267ffff000000000000199092169190911790555b50505050565b600760205281600052604060002081815481101515613f8c57fe5b600091825260209091200154600160a060020a03169150829050565b613fb0614670565b1515613ff4576040805160e560020a62461bcd02815260206004820152601f6024820152600080516020615a9d833981519152604482015290519081900360640190fd5b613ffd33614680565b1515614055576040805160e560020a62461bcd02815260206004820152602a6024820152600080516020615abd8339815191526044820152600080516020615add833981519152606482015290519081900360840190fd5b61405d6158e0565b6000828152600d60209081526040918290208251815460026001821615610100026000190190911604601f810184900490930281016080908101909452606081018381529093919284928491908401828280156140fb5780601f106140d0576101008083540402835291602001916140fb565b820191906000526020600020905b8154815290600101906020018083116140de57829003601f168201915b505050918352505060018201546020820152600290910154604090910152805151909150600010614164576040805160e560020a62461bcd0281526020600482015260116024820152600080516020615a7d833981519152604482015290519081900360640190fd5b6040810151156141ac576040805160e560020a62461bcd02815260206004820152601c6024820152600080516020615afd833981519152604482015290519081900360640190fd5b612e5d8260046147af565b600a54610100900460ff1681565b606060008060008060006060806000806141dd6157d4565b600880548d9081106141eb57fe5b90600052602060002090600602016101a0604051908101604052908160008201548152602001600182018054600181600116156101000203166002900480601f0160208091040260200160405190810160405280929190818152602001828054600181600116156101000203166002900480156142a95780601f1061427e576101008083540402835291602001916142a9565b820191906000526020600020905b81548152906001019060200180831161428c57829003601f168201915b505050918352505060028281015463ffffffff8082166020808601919091526401000000008304821660408087019190915268010000000000000000840490921660608601526c01000000000000000000000000909204600160a060020a0316608085015260038501805482516101006001831615026000190190911694909404601f810184900484028501840190925281845260a090940193918301828280156143955780601f1061436a57610100808354040283529160200191614395565b820191906000526020600020905b81548152906001019060200180831161437857829003601f168201915b505050918352505060048201805460408051602060026001851615610100026000190190941693909304601f81018490048402820184019092528181529382019392918301828280156144295780601f106143fe57610100808354040283529160200191614429565b820191906000526020600020905b81548152906001019060200180831161440c57829003601f168201915b505050505081526020016005820160009054906101000a900463ffffffff1663ffffffff1663ffffffff1681526020016005820160049054906101000a900461ffff1661ffff1661ffff1681526020016005820160069054906101000a900461ffff1661ffff1661ffff1681526020016005820160089054906101000a9004600160a060020a0316600160a060020a0316600160a060020a0316815260200160058201601c9054906101000a900460ff1660ff1660ff1681525050905080602001518160400151826101000151836060015184608001518560a001518660c001518760e001518861016001518961018001518999508393508292509a509a509a509a509a509a509a509a509a509a50509193959799509193959799565b60015481565b60065490565b600a546301000000900460ff1681565b606060048054806020026020016040519081016040528092919081815260200182805480156145ba57602002820191906000526020600020905b8154600160a060020a0316815260019091019060200180831161459c575b5050505050905090565b600054600160a060020a0316331461464c576040805160e560020a62461bcd02815260206004820152602160248201527f6f6e6c79206f776e65722063616e2063616c6c20746869732066756e6374696f60448201527f6e00000000000000000000000000000000000000000000000000000000000000606482015290519081900360840190fd5b61465581614e0e565b50565b600a5462010000900460ff1681565b600a5460ff1681565b600054600160a060020a03161590565b6000806146e760048054806020026020016040519081016040528092919081815260200182805480156146dc57602002820191906000526020600020905b8154600160a060020a031681526001909101906020018083116146be575b505050505084614ec9565b121590505b919050565b6000600154118015614701575080155b15614794576001546301e133800161471761493f565b8110614792576040805160e560020a62461bcd028152602060048201526024808201527f796f75206d7573742072656e657720746f6b656e73206166746572206f6e652060448201527f7965617200000000000000000000000000000000000000000000000000000000606482015290519081900360840190fd5b505b6147a082600254614f3b565b6147a861493f565b6001555050565b60008060008060006147c087612889565b99505050975050965096505050508560058111156147da57fe5b63ffffffff851614614836576040805160e560020a62461bcd02815260206004820152600d60248201527f74797065206d69736d6174636800000000000000000000000000000000000000604482015290519081900360640190fd5b600160a060020a03831630146148bc576040805160e560020a62461bcd02815260206004820152602760248201527f7468652070726f7073616c206973206e6f7420616e20696e7465726e616c207060448201527f726f706f73616c00000000000000000000000000000000000000000000000000606482015290519081900360840190fd5b811515614913576040805160e560020a62461bcd02815260206004820152601b60248201527f7468652070726f7073616c206973206e6f742066696e69736865640000000000604482015290519081900360640190fd5b93505050505b92915050565b61492a838383614f70565b61288481600254614f3b565b61287983614cf3565b4290565b600061494d614670565b1515614991576040805160e560020a62461bcd02815260206004820152601f6024820152600080516020615a9d833981519152604482015290519081900360640190fd5b61499a33614680565b15156149f2576040805160e560020a62461bcd02815260206004820152602a6024820152600080516020615abd8339815191526044820152600080516020615add833981519152606482015290519081900360840190fd5b33600090815260036020526040902054600190811115614a5c576040805160e560020a62461bcd02815260206004820152601960248201527f796f752068617665206e6f7420656e6f75676820746f6b656e00000000000000604482015290519081900360640190fd5b60086101a0604051908101604052808c81526020018b81526020018a63ffffffff1681526020018963ffffffff1681526020018863ffffffff16815260200133600160a060020a03168152602001878152602001868152602001614abe61493f565b63ffffffff168152600060208083018290526040830182905230606084015260ff8816608090930192909252835460018181018087559583529183902084516006909202019081558383015180519193614b1d93850192910190615756565b5060408201516002820180546060850151608086015160a0870151600160a060020a03166c01000000000000000000000000026bffffffffffffffffffffffff63ffffffff92831668010000000000000000026bffffffff0000000000000000199484166401000000000267ffffffff00000000199490981663ffffffff1990961695909517929092169590951791909116919091171691909117905560c08201518051614bd5916003840191602090910190615756565b5060e08201518051614bf1916004840191602090910190615756565b5061010082015160059190910180546101208401516101408501516101608601516101809096015163ffffffff1990931663ffffffff9095169490941765ffff00000000191664010000000061ffff928316021767ffff000000000000191666010000000000009190941602929092177bffffffffffffffffffffffffffffffffffffffff0000000000000000191668010000000000000000600160a060020a0390941693909302929092177cff00000000000000000000000000000000000000000000000000000000191660e060020a60ff909216919091021790553360009081526003602052604090208054929092039091559998505050505050505050565b6000614cfe8261514b565b60065490915060001115614d5c576040805160e560020a62461bcd02815260206004820152601160248201527f616e63686f727320697320656d706c7479000000000000000000000000000000604482015290519081900360640190fd5b600081815260076020908152604091829020805483518184028101840190945280845260609392830182828015614dbc57602002820191906000526020600020905b8154600160a060020a03168152600190910190602001808311614d9e575b50939450600093505050505b8151811015614dfa57614df2838383815181101515614de357fe5b906020019060200201516151dd565b600101614dc8565b506128846006614e098461520c565b615273565b600160a060020a0381161515614e6e576040805160e560020a62461bcd02815260206004820152601b60248201527f6f776e6572206d7573742062652076616c696420616464726573730000000000604482015290519081900360640190fd5b60008054604051600160a060020a03808516939216917f8be0079c531659141344cd1fd0a4f28419497f9722a3daafe3b4186f6b6457e091a360008054600160a060020a031916600160a060020a0392909216919091179055565b6000600160a060020a0382161515614ee45750600019614919565b60005b8351811015614f305782600160a060020a03168482815181101515614f0857fe5b90602001906020020151600160a060020a03161415614f28579050614919565b600101614ee7565b506000199392505050565b60005b825181101561288457614f688382815181101515614f5857fe5b90602001906020020151836153c0565b600101614f3e565b6000614f7b8461514b565b9050614f86816153dc565b15614fdb576040805160e560020a62461bcd02815260206004820152601060248201527f64756270696361746520616e63686f7200000000000000000000000000000000604482015290519081900360640190fd5b6005548251111561505c576040805160e560020a62461bcd02815260206004820152602a60248201527f6d656d6265727320617265206d6f7265207468616e2076616c6964206d656d6560448201527f6265727320636f756e7400000000000000000000000000000000000000000000606482015290519081900360840190fd5b6040805160608101825282815260208082018781529282018690526006805460018101808355600092909252835160039091027ff652222313e28459528d920b65115c16c04f3efc82aaedc97be59f3f377c0d3f810191825594518051929591936150ee937ff652222313e28459528d920b65115c16c04f3efc82aaedc97be59f3f377c0d4090930192910190615756565b506040820151805161510a916002840191602090910190615756565b506000925050505b82518110156151445761513c82848381518110151561512d57fe5b906020019060200201516153e8565b600101615112565b5050505050565b6000816040516020018080602001828103825283818151815260200191508051906020019080838360005b8381101561518e578181015183820152602001615176565b50505050905090810190601f1680156151bb5780820380516001836020036101000a031916815260200191505b5092505050604051602081830303815290604052805190602001209050919050565b6151e68261520c565b5060008281526007602052604090206151ff9082615428565b615208816154f2565b5050565b600080615218836154fd565b90506000811215614919576040805160e560020a62461bcd02815260206004820152601060248201527f616e63686f72206e6f7420657869737400000000000000000000000000000000604482015290519081900360640190fd5b81546000106152cc576040805160e560020a62461bcd02815260206004820152601660248201527f6164647265737320617272617920697320656d70747900000000000000000000604482015290519081900360640190fd5b815460001901811461536e578154829060001981019081106152ea57fe5b9060005260206000209060030201828281548110151561530657fe5b90600052602060002090600302016000820154816000015560018201816001019080546001816001161561010002031660029004615345929190615902565b506002828101805461536a928481019291600019610100600183161502011604615902565b5050505b81548290600019810190811061538057fe5b600091825260208220600390910201818155906153a06001830182615977565b6153ae600283016000615977565b505081546128848360001983016159bb565b600160a060020a03909116600090815260036020526040902055565b6000806146e7836154fd565b6000828152600760209081526040822080546001810182559083529120018054600160a060020a031916600160a060020a03831617905561520881615576565b600061548d8380548060200260200160405190810160405280929190818152602001828054801561548257602002820191906000526020600020905b8154600160a060020a03168152600190910190602001808311615464575b505050505083614ec9565b905060008112156154e8576040805160e560020a62461bcd02815260206004820152601160248201527f61646472657373206e6f7420666f756e64000000000000000000000000000000604482015290519081900360640190fd5b6128848382615626565b614655600482615428565b6000615518602060405190810160405280600081525061514b565b82141561552857506000196146ec565b60005b60065481101561556c578260068281548110151561554557fe5b90600052602060002090600302016000015414156155645790506146ec565b60010161552b565b5060001992915050565b61557f81614680565b156155d4576040805160e560020a62461bcd02815260206004820152601060248201527f647562706963617465206d656d62657200000000000000000000000000000000604482015290519081900360640190fd5b600480546001810182556000919091527f8a35acfbc15ff81a39ae7d344fd709f28e8600b4aa8c65c6b64bfe7fe36bd19b018054600160a060020a031916600160a060020a0392909216919091179055565b815460001061567f576040805160e560020a62461bcd02815260206004820152601660248201527f6164647265737320617272617920697320656d70747900000000000000000000604482015290519081900360640190fd5b81546000190181146156f25781548290600019810190811061569d57fe5b6000918252602090912001548254600160a060020a03909116908390839081106156c357fe5b9060005260206000200160006101000a815481600160a060020a030219169083600160a060020a031602179055505b81548290600019810190811061570457fe5b60009182526020909120018054600160a060020a031916905581546128848360001983016159e7565b608060405190810160405280606081526020016060815260200160608152602001600081525090565b828054600181600116156101000203166002900490600052602060002090601f016020900481019282601f1061579757805160ff19168380011785556157c4565b828001600101855582156157c4579182015b828111156157c45782518255916020019190600101906157a9565b506157d0929150615a07565b5090565b604080516101a08101825260008082526060602083018190529282018190528282018190526080820181905260a0820181905260c0820183905260e0820192909252610100810182905261012081018290526101408101829052610160810182905261018081019190915290565b60606040519081016040528060608152602001600060ff168152602001600081525090565b60408051808201909152606081526000602082015290565b8280548282559060005260206000209081019282156158d4579160200282015b828111156158d45782518254600160a060020a031916600160a060020a0390911617825560209092019160019091019061589f565b506157d0929150615a21565b6060604051908101604052806060815260200160008152602001600081525090565b828054600181600116156101000203166002900490600052602060002090601f016020900481019282601f1061593b57805485556157c4565b828001600101855582156157c457600052602060002091601f016020900482015b828111156157c457825482559160010191906001019061595c565b50805460018160011615610100020316600290046000825580601f1061599d5750614655565b601f0160209004906000526020600020908101906146559190615a07565b815481835581811115612884576003028160030283600052602060002091820191016128849190615a45565b815481835581811115612884576000838152602090206128849181019083015b611cf491905b808211156157d05760008155600101615a0d565b611cf491905b808211156157d0578054600160a060020a0319168155600101615a27565b611cf491905b808211156157d0576000808255615a656001830182615977565b615a73600283016000615977565b50600301615a4b56fe70726f7073616c206e6f7420666f756e640000000000000000000000000000007468697320636f6e747261637420697320696e20636f6e666967206d6f6465006f6e6c792076616c6964206d656d626572732063616e20646f2074686973207472616e73616374696f6e000000000000000000000000000000000000000000007468652070726f706f73616c206578656375746564206265666f726500000000a165627a7a72305820ef18e0d89366a5cb7232118689bd3a2ad6412cf2cbcaa33f62295cee6078d63b0029",
  "source": "pragma solidity >=0.4.21 <0.6.0;\n\nimport \"./Voting.sol\";\nimport \"./Config.sol\";\n\ncontract KuknosDAO is Voting, Config {\n\n    enum ProposalTypes { AddAnchor, UpdateAnchor, RemoveAnchor, ChangeAnchorMember, RenewAccessToken, ChangeConfig }\n\n    struct AddAnchorProposal {\n        string name;\n        string url;\n        address[] members;\n        uint executionTime;\n    }\n\n    struct RemoveAnchorProposal {\n        string name;\n        uint executionTime;\n    }\n\n    struct RenewAccessTockenProposal {\n        string name;\n        uint count;\n        uint executionTime;\n    }\n\n    struct ChangeConfigProposal {\n        string name;\n        uint8 value;\n        uint executionTime;\n    }\n\n    mapping ( uint => AddAnchorProposal ) public addOrUpdateAnchorProposals;\n\n    mapping ( uint => RemoveAnchorProposal ) public removeAnchorProposal;\n\n    mapping ( uint => RenewAccessTockenProposal ) public renewAccessTockenProposal;\n\n    mapping ( uint => ChangeConfigProposal ) public changeConfigProposal;\n\n    uint public internalProposalsCount = 0;\n\n    constructor(uint _voterTokensCount) public Voting(_voterTokensCount) {\n    }\n\n    function addNewAnchor(string memory _name, string memory _url, address[] memory _members) public onlyOwner {\n        addAnchorWithToken(_name, _url, _members);\n    }\n\n    function addAnchorWithToken(string memory _name, string memory _url, address[] memory _members) internal {\n        addAnchor(_name, _url, _members);\n        issueAccessToken(_members, accessTokensCount);\n    }\n\n    function contractIsActive() public view returns(bool) {\n        return contractHasNoOwener();\n    }\n\n    function updateAnchorWithToken(string memory _name, string memory _url, address[] memory _members) internal {\n        deleteAnchor(_name);\n        addAnchorWithToken(_name, _url, _members);\n    }\n\n\n\n    function checkProposalResult(uint _id, ProposalTypes pType) internal view returns(bool) {\n        (,,,uint32 proposalType, address contractAddress,, bool isFinished,,,bool successful) = getProposalStatus(_id);\n        require(proposalType == uint(pType), \"type mismatch\");\n        require(contractAddress == address(this), \"the propsal is not an internal proposal\");\n        require(isFinished,\"the propsal is not finished\");\n        return successful;\n    }\n\n    // Add new Anchor Proposal\n    function registerAddOrUpdateAnchorProposal(\n      string memory _anchorName,\n      string memory _anchorUrl,\n      address[] memory _members,\n      uint32 _startDate,\n      uint32 _endDate,\n      string memory _url,\n      string memory _hashCode,\n      ProposalTypes _type\n      ) public onlyMembers {\n          require(_type == ProposalTypes.AddAnchor || _type == ProposalTypes.UpdateAnchor, \"choose valide type\");\n          require(bytes(_anchorName).length > 0, \"select name for anchor\");\n          internalProposalsCount++;\n          uint id = registerInternalProposal(\n              internalProposalsCount,\n              \"add anchor\",\n              uint32(_type),\n              _startDate,\n              _endDate,\n              _url,\n              _hashCode,\n              addAnchorThreshold);\n          addOrUpdateAnchorProposals[id] = AddAnchorProposal(_anchorName, _anchorUrl, _members, 0);\n    }\n\n    function runAddOrUpdateAnchorProposal(uint _id, ProposalTypes _type) public onlyMembers {\n        require(_type == ProposalTypes.AddAnchor || _type == ProposalTypes.UpdateAnchor, \"choose valide type\");\n        AddAnchorProposal memory proposal = addOrUpdateAnchorProposals[_id];\n        require(bytes(proposal.name).length > 0, \"propsal not found\");\n        require(proposal.executionTime == 0, \"the proposal executed before\");\n        if (checkProposalResult(_id, ProposalTypes(_type))) {\n            if(_type == ProposalTypes.AddAnchor){\n                addAnchorWithToken(proposal.name, proposal.url, proposal.members);\n            }else{\n                updateAnchorWithToken(proposal.name, proposal.url, proposal.members);\n            }\n        }\n        addOrUpdateAnchorProposals[_id].executionTime = getTime();\n    }\n\n    // Remove an anchor proposal\n    function registerRemoveAnchorProposal(\n      string memory _anchorName,\n      uint32 _startDate,\n      uint32 _endDate,\n      string memory _url,\n      string memory _hashCode\n      ) public onlyMembers {\n          require(bytes(_anchorName).length > 0, \"select name for anchor\");\n          internalProposalsCount++;\n          uint id = registerInternalProposal(\n              internalProposalsCount,\n              \"remove anchor\",\n              uint32(ProposalTypes.RemoveAnchor),\n              _startDate,\n              _endDate,\n              _url,\n              _hashCode,\n              removeAnchorThreshold);\n          removeAnchorProposal[id] = RemoveAnchorProposal(_anchorName, 0);\n    }\n\n    function runRemoveAnchorProposal(uint _id) public onlyMembers {\n        RemoveAnchorProposal memory proposal = removeAnchorProposal[_id];\n        require(bytes(proposal.name).length > 0, \"propsal not found\");\n        require(proposal.executionTime == 0, \"the proposal executed before\");\n        if (checkProposalResult(_id, ProposalTypes.RemoveAnchor)) {\n            deleteAnchor(proposal.name);\n        }\n        removeAnchorProposal[_id].executionTime = getTime();\n    }\n\n    // set AccessToken proposal\n    function registerSetAccessTokenProposal(\n      uint count,\n      uint32 _startDate,\n      uint32 _endDate,\n      string memory _url,\n      string memory _hashCode\n      ) public onlyMembers {\n          internalProposalsCount++;\n          uint id = registerInternalProposal(\n              internalProposalsCount,\n              \"set access tocken\",\n              uint32(ProposalTypes.RenewAccessToken),\n              _startDate,\n              _endDate,\n              _url,\n              _hashCode,\n              renewAccessTokenThreshold);\n          renewAccessTockenProposal[id] = RenewAccessTockenProposal(\"set access tocken\", count, 0);\n    }\n\n    function runSetAccessTockenProposal(uint _id) public onlyMembers {\n        RenewAccessTockenProposal memory proposal = renewAccessTockenProposal[_id];\n        require(bytes(proposal.name).length > 0, \"propsal not found\");\n        require(proposal.executionTime == 0, \"the proposal executed before\");\n        if (checkProposalResult(_id, ProposalTypes.RenewAccessToken)) {\n            renewToken(members, true);\n        }\n        renewAccessTockenProposal[_id].executionTime = getTime();\n    }\n\n    // set AccessToken proposal\n    function addChangeConfigProposal(\n      uint8 newValue,\n      uint32 _startDate,\n      uint32 _endDate,\n      string memory _url,\n      string memory _hashCode\n      ) public onlyMembers {\n          internalProposalsCount++;\n          uint id = registerInternalProposal(\n              internalProposalsCount,\n              \"change config\",\n              uint32(ProposalTypes.ChangeConfig),\n              _startDate,\n              _endDate,\n              _url,\n              _hashCode,\n              changeConfigThreshold);\n          changeConfigProposal[id] = ChangeConfigProposal(\"change config\", newValue, 0);\n    }\n\n    function runChangeConfigProposal(uint _id) public onlyMembers {\n        ChangeConfigProposal memory proposal = changeConfigProposal[_id];\n        require(bytes(proposal.name).length > 0, \"propsal not found\");\n        require(proposal.executionTime == 0, \"the proposal executed before\");\n        if (checkProposalResult(_id, ProposalTypes.ChangeConfig)) {\n            renewToken(members, true);\n        }\n        renewAccessTockenProposal[_id].executionTime = getTime();\n    }\n\n\n}",
  "sourcePath": "C:/Users/mkhalilian/projects/kuknos-dao/contracts/KuknosDAO.sol",
  "compiler": {
    "name": "solc",
    "version": "0.5.0+commit.1d4f565a.Emscripten.clang"
  },
  "schemaVersion": "3.0.9",
  "updatedAt": "2019-06-23T13:20:56.251Z",
  "devdoc": {
    "methods": {
      "renounceOwnership()": {
        "details": "Allows the current owner to relinquish control of the contract."
      },
      "transferOwnership(address)": {
        "details": "Allows the current owner to transfer control of the contract to a newOwner.",
        "params": {
          "_newOwner": "The address to transfer ownership to."
        }
      }
    }
  },
  "userdoc": {
    "methods": {
      "renounceOwnership()": {
        "notice": "Renouncing to ownership will leave the contract without an owner. It will not be possible to call the functions with the `onlyOwner` modifier anymore."
      }
    }
  }
}