{
  "contractName": "KuknosDAO",
  "abi": [
    {
      "constant": false,
      "inputs": [],
      "name": "renewYearTokens",
      "outputs": [],
      "payable": false,
      "stateMutability": "nonpayable",
      "type": "function"
    },
    {
      "constant": false,
      "inputs": [
        {
          "name": "id",
          "type": "uint256"
        },
        {
          "name": "title",
          "type": "string"
        },
        {
          "name": "proposalType",
          "type": "uint256"
        },
        {
          "name": "startDate",
          "type": "uint256"
        },
        {
          "name": "endDate",
          "type": "uint256"
        },
        {
          "name": "url",
          "type": "string"
        },
        {
          "name": "hashCode",
          "type": "bytes32"
        },
        {
          "name": "contractAddress",
          "type": "address"
        }
      ],
      "name": "registerProposal",
      "outputs": [],
      "payable": false,
      "stateMutability": "nonpayable",
      "type": "function"
    },
    {
      "constant": true,
      "inputs": [
        {
          "name": "",
          "type": "uint256"
        }
      ],
      "name": "removeAnchorProposal",
      "outputs": [
        {
          "name": "name",
          "type": "string"
        },
        {
          "name": "executionTime",
          "type": "uint256"
        }
      ],
      "payable": false,
      "stateMutability": "view",
      "type": "function"
    },
    {
      "constant": true,
      "inputs": [
        {
          "name": "",
          "type": "uint256"
        }
      ],
      "name": "renewAccessTockenProposal",
      "outputs": [
        {
          "name": "name",
          "type": "string"
        },
        {
          "name": "count",
          "type": "uint256"
        },
        {
          "name": "executionTime",
          "type": "uint256"
        }
      ],
      "payable": false,
      "stateMutability": "view",
      "type": "function"
    },
    {
      "constant": true,
      "inputs": [],
      "name": "membersCount",
      "outputs": [
        {
          "name": "",
          "type": "uint256"
        }
      ],
      "payable": false,
      "stateMutability": "view",
      "type": "function"
    },
    {
      "constant": true,
      "inputs": [
        {
          "name": "",
          "type": "uint256"
        },
        {
          "name": "",
          "type": "address"
        }
      ],
      "name": "votesReceived",
      "outputs": [
        {
          "name": "",
          "type": "int8"
        }
      ],
      "payable": false,
      "stateMutability": "view",
      "type": "function"
    },
    {
      "constant": true,
      "inputs": [
        {
          "name": "index",
          "type": "uint256"
        }
      ],
      "name": "getProposalStatus",
      "outputs": [
        {
          "name": "",
          "type": "uint256"
        },
        {
          "name": "",
          "type": "uint256"
        },
        {
          "name": "",
          "type": "uint256"
        },
        {
          "name": "",
          "type": "uint256"
        },
        {
          "name": "",
          "type": "address"
        },
        {
          "name": "",
          "type": "bool"
        },
        {
          "name": "",
          "type": "bool"
        },
        {
          "name": "",
          "type": "uint256"
        },
        {
          "name": "",
          "type": "uint256"
        }
      ],
      "payable": false,
      "stateMutability": "view",
      "type": "function"
    },
    {
      "constant": true,
      "inputs": [],
      "name": "accessTokensCount",
      "outputs": [
        {
          "name": "",
          "type": "uint256"
        }
      ],
      "payable": false,
      "stateMutability": "view",
      "type": "function"
    },
    {
      "constant": false,
      "inputs": [
        {
          "name": "_proposalIndex",
          "type": "uint256"
        },
        {
          "name": "_vote",
          "type": "int8"
        }
      ],
      "name": "voteForProposal",
      "outputs": [],
      "payable": false,
      "stateMutability": "nonpayable",
      "type": "function"
    },
    {
      "constant": true,
      "inputs": [
        {
          "name": "",
          "type": "uint256"
        }
      ],
      "name": "members",
      "outputs": [
        {
          "name": "",
          "type": "address"
        }
      ],
      "payable": false,
      "stateMutability": "view",
      "type": "function"
    },
    {
      "constant": true,
      "inputs": [],
      "name": "internalProposalsCount",
      "outputs": [
        {
          "name": "",
          "type": "uint256"
        }
      ],
      "payable": false,
      "stateMutability": "view",
      "type": "function"
    },
    {
      "constant": true,
      "inputs": [],
      "name": "changeConfigThreshold",
      "outputs": [
        {
          "name": "",
          "type": "uint256"
        }
      ],
      "payable": false,
      "stateMutability": "view",
      "type": "function"
    },
    {
      "constant": true,
      "inputs": [
        {
          "name": "",
          "type": "address"
        }
      ],
      "name": "balanceOf",
      "outputs": [
        {
          "name": "",
          "type": "uint256"
        }
      ],
      "payable": false,
      "stateMutability": "view",
      "type": "function"
    },
    {
      "constant": false,
      "inputs": [],
      "name": "renounceOwnership",
      "outputs": [],
      "payable": false,
      "stateMutability": "nonpayable",
      "type": "function"
    },
    {
      "constant": true,
      "inputs": [],
      "name": "owner",
      "outputs": [
        {
          "name": "",
          "type": "address"
        }
      ],
      "payable": false,
      "stateMutability": "view",
      "type": "function"
    },
    {
      "constant": true,
      "inputs": [],
      "name": "getProposalsCount",
      "outputs": [
        {
          "name": "",
          "type": "uint256"
        }
      ],
      "payable": false,
      "stateMutability": "view",
      "type": "function"
    },
    {
      "constant": true,
      "inputs": [
        {
          "name": "",
          "type": "uint256"
        }
      ],
      "name": "addAnchorProposals",
      "outputs": [
        {
          "name": "name",
          "type": "string"
        },
        {
          "name": "url",
          "type": "string"
        },
        {
          "name": "executionTime",
          "type": "uint256"
        }
      ],
      "payable": false,
      "stateMutability": "view",
      "type": "function"
    },
    {
      "constant": true,
      "inputs": [],
      "name": "removeAnchorThreshold",
      "outputs": [
        {
          "name": "",
          "type": "uint256"
        }
      ],
      "payable": false,
      "stateMutability": "view",
      "type": "function"
    },
    {
      "constant": true,
      "inputs": [
        {
          "name": "index",
          "type": "uint256"
        }
      ],
      "name": "getProposal",
      "outputs": [
        {
          "name": "",
          "type": "uint256"
        },
        {
          "name": "",
          "type": "string"
        },
        {
          "name": "",
          "type": "uint256"
        },
        {
          "name": "",
          "type": "uint256"
        },
        {
          "name": "",
          "type": "uint256"
        },
        {
          "name": "",
          "type": "address"
        },
        {
          "name": "",
          "type": "string"
        },
        {
          "name": "",
          "type": "bytes32"
        },
        {
          "name": "",
          "type": "uint256"
        },
        {
          "name": "",
          "type": "uint256"
        },
        {
          "name": "",
          "type": "uint256"
        },
        {
          "name": "",
          "type": "address"
        }
      ],
      "payable": false,
      "stateMutability": "view",
      "type": "function"
    },
    {
      "constant": true,
      "inputs": [],
      "name": "lastTokenIssueDate",
      "outputs": [
        {
          "name": "",
          "type": "uint256"
        }
      ],
      "payable": false,
      "stateMutability": "view",
      "type": "function"
    },
    {
      "constant": true,
      "inputs": [],
      "name": "changeAnchorMemberThreshold",
      "outputs": [
        {
          "name": "",
          "type": "uint256"
        }
      ],
      "payable": false,
      "stateMutability": "view",
      "type": "function"
    },
    {
      "constant": true,
      "inputs": [],
      "name": "membersList",
      "outputs": [
        {
          "name": "",
          "type": "address[]"
        }
      ],
      "payable": false,
      "stateMutability": "view",
      "type": "function"
    },
    {
      "constant": false,
      "inputs": [
        {
          "name": "_newOwner",
          "type": "address"
        }
      ],
      "name": "transferOwnership",
      "outputs": [],
      "payable": false,
      "stateMutability": "nonpayable",
      "type": "function"
    },
    {
      "constant": true,
      "inputs": [],
      "name": "renewAccessTokenThreshold",
      "outputs": [
        {
          "name": "",
          "type": "uint256"
        }
      ],
      "payable": false,
      "stateMutability": "view",
      "type": "function"
    },
    {
      "constant": true,
      "inputs": [],
      "name": "addAnchorThreshold",
      "outputs": [
        {
          "name": "",
          "type": "uint256"
        }
      ],
      "payable": false,
      "stateMutability": "view",
      "type": "function"
    },
    {
      "inputs": [
        {
          "name": "_voters",
          "type": "address[]"
        },
        {
          "name": "_voterTokensCount",
          "type": "uint256"
        }
      ],
      "payable": false,
      "stateMutability": "nonpayable",
      "type": "constructor"
    },
    {
      "anonymous": false,
      "inputs": [
        {
          "indexed": true,
          "name": "previousOwner",
          "type": "address"
        }
      ],
      "name": "OwnershipRenounced",
      "type": "event"
    },
    {
      "anonymous": false,
      "inputs": [
        {
          "indexed": true,
          "name": "previousOwner",
          "type": "address"
        },
        {
          "indexed": true,
          "name": "newOwner",
          "type": "address"
        }
      ],
      "name": "OwnershipTransferred",
      "type": "event"
    },
    {
      "constant": false,
      "inputs": [
        {
          "name": "_anchorName",
          "type": "string"
        },
        {
          "name": "_anchorUrl",
          "type": "string"
        },
        {
          "name": "_members",
          "type": "address[]"
        },
        {
          "name": "_startDate",
          "type": "uint256"
        },
        {
          "name": "_endDate",
          "type": "uint256"
        },
        {
          "name": "_url",
          "type": "string"
        },
        {
          "name": "_hashCode",
          "type": "bytes32"
        }
      ],
      "name": "registerAddAnchorProposal",
      "outputs": [],
      "payable": false,
      "stateMutability": "nonpayable",
      "type": "function"
    },
    {
      "constant": false,
      "inputs": [
        {
          "name": "_anchorName",
          "type": "string"
        },
        {
          "name": "_startDate",
          "type": "uint256"
        },
        {
          "name": "_endDate",
          "type": "uint256"
        },
        {
          "name": "_url",
          "type": "string"
        },
        {
          "name": "_hashCode",
          "type": "bytes32"
        }
      ],
      "name": "registerRemoveAnchorProposal",
      "outputs": [],
      "payable": false,
      "stateMutability": "nonpayable",
      "type": "function"
    },
    {
      "constant": false,
      "inputs": [
        {
          "name": "count",
          "type": "uint256"
        },
        {
          "name": "_startDate",
          "type": "uint256"
        },
        {
          "name": "_endDate",
          "type": "uint256"
        },
        {
          "name": "_url",
          "type": "string"
        },
        {
          "name": "_hashCode",
          "type": "bytes32"
        }
      ],
      "name": "registerSetAccessTokenProposal",
      "outputs": [],
      "payable": false,
      "stateMutability": "nonpayable",
      "type": "function"
    }
  ],
  "bytecode": "0x6080604052603260025560026005556033600a556050600b556033600c556033600d556050600e5560006012553480156200003957600080fd5b506040516200405a3803806200405a833981018060405260408110156200005f57600080fd5b8101908080516401000000008111156200007857600080fd5b828101905060208101848111156200008f57600080fd5b8151856020820283011164010000000082111715620000ad57600080fd5b50509291906020018051906020019092919050505081818181336000806101000a81548173ffffffffffffffffffffffffffffffffffffffff021916908373ffffffffffffffffffffffffffffffffffffffff160217905550806002819055505080600490805190602001906200012692919062000398565b5050620001cc6004805480602002602001604051908101604052809291908181526020018280548015620001b057602002820191906000526020600020905b8160009054906101000a900473ffffffffffffffffffffffffffffffffffffffff1673ffffffffffffffffffffffffffffffffffffffff168152602001906001019080831162000165575b50505050506000620001d6640100000000026401000000009004565b505050506200046d565b6000600154118015620001e7575080155b15620002b25760006301e1338060015401905062000213620002f2640100000000026401000000009004565b81101515620002b0576040517f08c379a00000000000000000000000000000000000000000000000000000000081526004018080602001828103825260248152602001807f796f75206d7573742072656e657720746f6b656e73206166746572206f6e652081526020017f796561720000000000000000000000000000000000000000000000000000000081525060400191505060405180910390fd5b505b620002cf82600254620002fa640100000000026401000000009004565b620002e8620002f2640100000000026401000000009004565b6001819055505050565b600042905090565b60008090505b82518110156200034b576200033d83828151811015156200031d57fe5b906020019060200201518362000350640100000000026401000000009004565b808060010191505062000300565b505050565b80600360008473ffffffffffffffffffffffffffffffffffffffff1673ffffffffffffffffffffffffffffffffffffffff168152602001908152602001600020819055505050565b82805482825590600052602060002090810192821562000414579160200282015b82811115620004135782518260006101000a81548173ffffffffffffffffffffffffffffffffffffffff021916908373ffffffffffffffffffffffffffffffffffffffff16021790555091602001919060010190620003b9565b5b50905062000423919062000427565b5090565b6200046a91905b808211156200046657600081816101000a81549073ffffffffffffffffffffffffffffffffffffffff0219169055506001016200042e565b5090565b90565b613bdd806200047d6000396000f3fe608060405260043610610169576000357c0100000000000000000000000000000000000000000000000000000000900463ffffffff168062f18f561461016e5780630dc93d36146101855780631351e4ac1461033757806324353bb6146103f2578063297f9af0146104b457806333dd6bed146104df578063401853b7146105545780634b7754991461060f57806355de8c7e1461078c5780635ab09f59146107b75780635daf08ca146107ff57806365a059d21461087a5780636ee2e225146108a557806370a08231146108d0578063715018a6146109355780638da5cb5b1461094c57806398e527d3146109a35780639f016ab5146109ce578063a496ae4d14610af5578063bb60512f14610be5578063c7f758a814610c10578063cededb3014610dce578063d4e18e6814610df9578063dd5042f414610e24578063f2fde38b14610e90578063fa01924914610ee1578063fa7b48ff14610f0c578063fc37a9e8146111b4575b600080fd5b34801561017a57600080fd5b506101836111df565b005b34801561019157600080fd5b5061033560048036036101008110156101a957600080fd5b8101908080359060200190929190803590602001906401000000008111156101d057600080fd5b8201836020820111156101e257600080fd5b8035906020019184600183028401116401000000008311171561020457600080fd5b91908080601f016020809104026020016040519081016040528093929190818152602001838380828437600081840152601f19601f8201169050808301925050505050505091929192908035906020019092919080359060200190929190803590602001909291908035906020019064010000000081111561028557600080fd5b82018360208201111561029757600080fd5b803590602001918460018302840111640100000000831117156102b957600080fd5b91908080601f016020809104026020016040519081016040528093929190818152602001838380828437600081840152601f19601f82011690508083019250505050505050919291929080359060200190929190803573ffffffffffffffffffffffffffffffffffffffff169060200190929190505050611315565b005b34801561034357600080fd5b506103706004803603602081101561035a57600080fd5b8101908080359060200190929190505050611767565b6040518080602001838152602001828103825284818151815260200191508051906020019080838360005b838110156103b657808201518184015260208101905061039b565b50505050905090810190601f1680156103e35780820380516001836020036101000a031916815260200191505b50935050505060405180910390f35b3480156103fe57600080fd5b5061042b6004803603602081101561041557600080fd5b8101908080359060200190929190505050611823565b6040518080602001848152602001838152602001828103825285818151815260200191508051906020019080838360005b8381101561047757808201518184015260208101905061045c565b50505050905090810190601f1680156104a45780820380516001836020036101000a031916815260200191505b5094505050505060405180910390f35b3480156104c057600080fd5b506104c96118e5565b6040518082815260200191505060405180910390f35b3480156104eb57600080fd5b506105386004803603604081101561050257600080fd5b8101908080359060200190929190803573ffffffffffffffffffffffffffffffffffffffff1690602001909291905050506118f2565b604051808260000b60000b815260200191505060405180910390f35b34801561056057600080fd5b5061058d6004803603602081101561057757600080fd5b8101908080359060200190929190505050611921565b604051808a81526020018981526020018881526020018781526020018673ffffffffffffffffffffffffffffffffffffffff1673ffffffffffffffffffffffffffffffffffffffff1681526020018515151515815260200184151515158152602001838152602001828152602001995050505050505050505060405180910390f35b34801561061b57600080fd5b5061078a600480360360a081101561063257600080fd5b810190808035906020019064010000000081111561064f57600080fd5b82018360208201111561066157600080fd5b8035906020019184600183028401116401000000008311171561068357600080fd5b91908080601f016020809104026020016040519081016040528093929190818152602001838380828437600081840152601f19601f8201169050808301925050505050505091929192908035906020019092919080359060200190929190803590602001906401000000008111156106fa57600080fd5b82018360208201111561070c57600080fd5b8035906020019184600183028401116401000000008311171561072e57600080fd5b91908080601f016020809104026020016040519081016040528093929190818152602001838380828437600081840152601f19601f82011690508083019250505050505050919291929080359060200190929190505050611c36565b005b34801561079857600080fd5b506107a1611e15565b6040518082815260200191505060405180910390f35b3480156107c357600080fd5b506107fd600480360360408110156107da57600080fd5b8101908080359060200190929190803560000b9060200190929190505050611e1b565b005b34801561080b57600080fd5b506108386004803603602081101561082257600080fd5b81019080803590602001909291905050506125c7565b604051808273ffffffffffffffffffffffffffffffffffffffff1673ffffffffffffffffffffffffffffffffffffffff16815260200191505060405180910390f35b34801561088657600080fd5b5061088f612605565b6040518082815260200191505060405180910390f35b3480156108b157600080fd5b506108ba61260b565b6040518082815260200191505060405180910390f35b3480156108dc57600080fd5b5061091f600480360360208110156108f357600080fd5b81019080803573ffffffffffffffffffffffffffffffffffffffff169060200190929190505050612611565b6040518082815260200191505060405180910390f35b34801561094157600080fd5b5061094a612629565b005b34801561095857600080fd5b506109616127ba565b604051808273ffffffffffffffffffffffffffffffffffffffff1673ffffffffffffffffffffffffffffffffffffffff16815260200191505060405180910390f35b3480156109af57600080fd5b506109b86127df565b6040518082815260200191505060405180910390f35b3480156109da57600080fd5b50610a07600480360360208110156109f157600080fd5b81019080803590602001909291905050506127ec565b604051808060200180602001848152602001838103835286818151815260200191508051906020019080838360005b83811015610a51578082015181840152602081019050610a36565b50505050905090810190601f168015610a7e5780820380516001836020036101000a031916815260200191505b50838103825285818151815260200191508051906020019080838360005b83811015610ab7578082015181840152602081019050610a9c565b50505050905090810190601f168015610ae45780820380516001836020036101000a031916815260200191505b509550505050505060405180910390f35b348015610b0157600080fd5b50610be3600480360360a0811015610b1857600080fd5b8101908080359060200190929190803590602001909291908035906020019092919080359060200190640100000000811115610b5357600080fd5b820183602082011115610b6557600080fd5b80359060200191846001830284011164010000000083111715610b8757600080fd5b91908080601f016020809104026020016040519081016040528093929190818152602001838380828437600081840152601f19601f82011690508083019250505050505050919291929080359060200190929190505050612946565b005b348015610bf157600080fd5b50610bfa612af2565b6040518082815260200191505060405180910390f35b348015610c1c57600080fd5b50610c4960048036036020811015610c3357600080fd5b8101908080359060200190929190505050612af8565b604051808d8152602001806020018c81526020018b81526020018a81526020018973ffffffffffffffffffffffffffffffffffffffff1673ffffffffffffffffffffffffffffffffffffffff168152602001806020018881526020018781526020018681526020018581526020018473ffffffffffffffffffffffffffffffffffffffff1673ffffffffffffffffffffffffffffffffffffffff16815260200183810383528e818151815260200191508051906020019080838360005b83811015610d21578082015181840152602081019050610d06565b50505050905090810190601f168015610d4e5780820380516001836020036101000a031916815260200191505b50838103825289818151815260200191508051906020019080838360005b83811015610d87578082015181840152602081019050610d6c565b50505050905090810190601f168015610db45780820380516001836020036101000a031916815260200191505b509e50505050505050505050505050505060405180910390f35b348015610dda57600080fd5b50610de3612dee565b6040518082815260200191505060405180910390f35b348015610e0557600080fd5b50610e0e612df4565b6040518082815260200191505060405180910390f35b348015610e3057600080fd5b50610e39612dfa565b6040518080602001828103825283818151815260200191508051906020019060200280838360005b83811015610e7c578082015181840152602081019050610e61565b505050509050019250505060405180910390f35b348015610e9c57600080fd5b50610edf60048036036020811015610eb357600080fd5b81019080803573ffffffffffffffffffffffffffffffffffffffff169060200190929190505050612e88565b005b348015610eed57600080fd5b50610ef6612f7e565b6040518082815260200191505060405180910390f35b348015610f1857600080fd5b506111b2600480360360e0811015610f2f57600080fd5b8101908080359060200190640100000000811115610f4c57600080fd5b820183602082011115610f5e57600080fd5b80359060200191846001830284011164010000000083111715610f8057600080fd5b91908080601f016020809104026020016040519081016040528093929190818152602001838380828437600081840152601f19601f82011690508083019250505050505050919291929080359060200190640100000000811115610fe357600080fd5b820183602082011115610ff557600080fd5b8035906020019184600183028401116401000000008311171561101757600080fd5b91908080601f016020809104026020016040519081016040528093929190818152602001838380828437600081840152601f19601f8201169050808301925050505050505091929192908035906020019064010000000081111561107a57600080fd5b82018360208201111561108c57600080fd5b803590602001918460208302840111640100000000831117156110ae57600080fd5b919080806020026020016040519081016040528093929190818152602001838360200280828437600081840152601f19601f82011690508083019250505050505050919291929080359060200190929190803590602001909291908035906020019064010000000081111561112257600080fd5b82018360208201111561113457600080fd5b8035906020019184600183028401116401000000008311171561115657600080fd5b91908080601f016020809104026020016040519081016040528093929190818152602001838380828437600081840152601f19601f82011690508083019250505050505050919291929080359060200190929190505050612f84565b005b3480156111c057600080fd5b506111c96131ac565b6040518082815260200191505060405180910390f35b6111e8336131b2565b1515611282576040517f08c379a000000000000000000000000000000000000000000000000000000000815260040180806020018281038252602a8152602001807f6f6e6c792076616c6964206d656d626572732063616e20646f2074686973207481526020017f72616e73616374696f6e0000000000000000000000000000000000000000000081525060400191505060405180910390fd5b611313600480548060200260200160405190810160405280929190818152602001828054801561130757602002820191906000526020600020905b8160009054906101000a900473ffffffffffffffffffffffffffffffffffffffff1673ffffffffffffffffffffffffffffffffffffffff16815260200190600101908083116112bd575b5050505050600061324e565b565b61131e336131b2565b15156113b8576040517f08c379a000000000000000000000000000000000000000000000000000000000815260040180806020018281038252602a8152602001807f6f6e6c792076616c6964206d656d626572732063616e20646f2074686973207481526020017f72616e73616374696f6e0000000000000000000000000000000000000000000081525060400191505060405180910390fd5b600180600360003373ffffffffffffffffffffffffffffffffffffffff1673ffffffffffffffffffffffffffffffffffffffff1681526020019081526020016000205410151515611471576040517f08c379a00000000000000000000000000000000000000000000000000000000081526004018080602001828103825260198152602001807f796f752068617665206e6f7420656e6f75676820746f6b656e0000000000000081525060200191505060405180910390fd5b3073ffffffffffffffffffffffffffffffffffffffff168273ffffffffffffffffffffffffffffffffffffffff161415151561153b576040517f08c379a00000000000000000000000000000000000000000000000000000000081526004018080602001828103825260388152602001807f7573696e6720696e7465726e616c20636f6e747261637420666f72206578746581526020017f726e616c2070726f706f73616c20697320696e76616c6964000000000000000081525060400191505060405180910390fd5b6008610180604051908101604052808b81526020018a81526020018981526020018881526020018781526020013373ffffffffffffffffffffffffffffffffffffffff168152602001868152602001858152602001611598613334565b815260200160008152602001600081526020018473ffffffffffffffffffffffffffffffffffffffff168152509080600181540180825580915050906001820390600052602060002090600c0201600090919290919091506000820151816000015560208201518160010190805190602001906116169291906139ae565b5060408201518160020155606082015181600301556080820151816004015560a08201518160050160006101000a81548173ffffffffffffffffffffffffffffffffffffffff021916908373ffffffffffffffffffffffffffffffffffffffff16021790555060c08201518160060190805190602001906116989291906139ae565b5060e082015181600701556101008201518160080155610120820151816009015561014082015181600a015561016082015181600b0160006101000a81548173ffffffffffffffffffffffffffffffffffffffff021916908373ffffffffffffffffffffffffffffffffffffffff16021790555050505080600360003373ffffffffffffffffffffffffffffffffffffffff1673ffffffffffffffffffffffffffffffffffffffff16815260200190815260200160002060008282540392505081905550505050505050505050565b6010602052806000526040600020600091509050806000018054600181600116156101000203166002900480601f0160208091040260200160405190810160405280929190818152602001828054600181600116156101000203166002900480156118135780601f106117e857610100808354040283529160200191611813565b820191906000526020600020905b8154815290600101906020018083116117f657829003601f168201915b5050505050908060010154905082565b6011602052806000526040600020600091509050806000018054600181600116156101000203166002900480601f0160208091040260200160405190810160405280929190818152602001828054600181600116156101000203166002900480156118cf5780601f106118a4576101008083540402835291602001916118cf565b820191906000526020600020905b8154815290600101906020018083116118b257829003601f168201915b5050505050908060010154908060020154905083565b6000600480549050905090565b60096020528160005260406000206020528060005260406000206000915091509054906101000a900460000b81565b6000806000806000806000806000611937613a2e565b60088b81548110151561194657fe5b90600052602060002090600c0201610180604051908101604052908160008201548152602001600182018054600181600116156101000203166002900480601f016020809104026020016040519081016040528092919081815260200182805460018160011615610100020316600290048015611a045780601f106119d957610100808354040283529160200191611a04565b820191906000526020600020905b8154815290600101906020018083116119e757829003601f168201915b505050505081526020016002820154815260200160038201548152602001600482015481526020016005820160009054906101000a900473ffffffffffffffffffffffffffffffffffffffff1673ffffffffffffffffffffffffffffffffffffffff1673ffffffffffffffffffffffffffffffffffffffff168152602001600682018054600181600116156101000203166002900480601f016020809104026020016040519081016040528092919081815260200182805460018160011615610100020316600290048015611b1a5780601f10611aef57610100808354040283529160200191611b1a565b820191906000526020600020905b815481529060010190602001808311611afd57829003601f168201915b50505050508152602001600782015481526020016008820154815260200160098201548152602001600a8201548152602001600b820160009054906101000a900473ffffffffffffffffffffffffffffffffffffffff1673ffffffffffffffffffffffffffffffffffffffff1673ffffffffffffffffffffffffffffffffffffffff168152505090506000816101400151826101200151019050816000015182610120015183610140015184604001518561016001518660600151611bdd613334565b108760800151611beb613334565b10158760648a610120015102811515611c0057fe5b048860648b610140015102811515611c1457fe5b049a509a509a509a509a509a509a509a509a5050509193959799909294969850565b611c3f336131b2565b1515611cd9576040517f08c379a000000000000000000000000000000000000000000000000000000000815260040180806020018281038252602a8152602001807f6f6e6c792076616c6964206d656d626572732063616e20646f2074686973207481526020017f72616e73616374696f6e0000000000000000000000000000000000000000000081525060400191505060405180910390fd5b60008551111515611d52576040517f08c379a00000000000000000000000000000000000000000000000000000000081526004018080602001828103825260168152602001807f73656c656374206e616d6520666f7220616e63686f720000000000000000000081525060200191505060405180910390fd5b6012600081548092919060010191905055506000611db86012546040805190810160405280600d81526020017f72656d6f766520616e63686f720000000000000000000000000000000000000081525060016004811115611daf57fe5b8888888861333c565b905060408051908101604052808781526020016000815250601060008381526020019081526020016000206000820151816000019080519060200190611dff9291906139ae565b5060208201518160010155905050505050505050565b60025481565b611e24336131b2565b1515611ebe576040517f08c379a000000000000000000000000000000000000000000000000000000000815260040180806020018281038252602a8152602001807f6f6e6c792076616c6964206d656d626572732063616e20646f2074686973207481526020017f72616e73616374696f6e0000000000000000000000000000000000000000000081525060400191505060405180910390fd5b611ec6613a2e565b600883815481101515611ed557fe5b90600052602060002090600c0201610180604051908101604052908160008201548152602001600182018054600181600116156101000203166002900480601f016020809104026020016040519081016040528092919081815260200182805460018160011615610100020316600290048015611f935780601f10611f6857610100808354040283529160200191611f93565b820191906000526020600020905b815481529060010190602001808311611f7657829003601f168201915b505050505081526020016002820154815260200160038201548152602001600482015481526020016005820160009054906101000a900473ffffffffffffffffffffffffffffffffffffffff1673ffffffffffffffffffffffffffffffffffffffff1673ffffffffffffffffffffffffffffffffffffffff168152602001600682018054600181600116156101000203166002900480601f0160208091040260200160405190810160405280929190818152602001828054600181600116156101000203166002900480156120a95780601f1061207e576101008083540402835291602001916120a9565b820191906000526020600020905b81548152906001019060200180831161208c57829003601f168201915b50505050508152602001600782015481526020016008820154815260200160098201548152602001600a8201548152602001600b820160009054906101000a900473ffffffffffffffffffffffffffffffffffffffff1673ffffffffffffffffffffffffffffffffffffffff1673ffffffffffffffffffffffffffffffffffffffff16815250509050600073ffffffffffffffffffffffffffffffffffffffff168160a0015173ffffffffffffffffffffffffffffffffffffffff16141515156121db576040517f08c379a00000000000000000000000000000000000000000000000000000000081526004018080602001828103825260128152602001807f70726f706f73616c206e6f7420666f756e64000000000000000000000000000081525060200191505060405180910390fd5b6121e3613334565b816060015110151561225d576040517f08c379a00000000000000000000000000000000000000000000000000000000081526004018080602001828103825260158152602001807f766f74696e67206973206e6f742073746172746564000000000000000000000081525060200191505060405180910390fd5b612265613334565b81608001511115156122df576040517f08c379a00000000000000000000000000000000000000000000000000000000081526004018080602001828103825260138152602001807f766f74696e67207761732066696e69736865640000000000000000000000000081525060200191505060405180910390fd5b60006009600085815260200190815260200160002060003373ffffffffffffffffffffffffffffffffffffffff1673ffffffffffffffffffffffffffffffffffffffff16815260200190815260200160002060009054906101000a900460000b60000b1415156123b7576040517f08c379a000000000000000000000000000000000000000000000000000000000815260040180806020018281038252601a8152602001807f796f757220766f74652072656769737465726564206c6174657200000000000081525060200191505060405180910390fd5b60008260000b14151515612459576040517f08c379a000000000000000000000000000000000000000000000000000000000815260040180806020018281038252602a8152602001807f796f75206d75737420736574207570206f7220646f776e20776974682031206f81526020017f72202d312076616c75650000000000000000000000000000000000000000000081525060400191505060405180910390fd5b60008260000b13156125065760016009600085815260200190815260200160002060003373ffffffffffffffffffffffffffffffffffffffff1673ffffffffffffffffffffffffffffffffffffffff16815260200190815260200160002060006101000a81548160ff021916908360000b60ff16021790555060016008848154811015156124e357fe5b90600052602060002090600c0201600901600082825401925050819055506125c2565b7fffffffffffffffffffffffffffffffffffffffffffffffffffffffffffffffff6009600085815260200190815260200160002060003373ffffffffffffffffffffffffffffffffffffffff1673ffffffffffffffffffffffffffffffffffffffff16815260200190815260200160002060006101000a81548160ff021916908360000b60ff16021790555060016008848154811015156125a357fe5b90600052602060002090600c0201600a01600082825401925050819055505b505050565b6004818154811015156125d657fe5b906000526020600020016000915054906101000a900473ffffffffffffffffffffffffffffffffffffffff1681565b60125481565b600e5481565b60036020528060005260406000206000915090505481565b6000809054906101000a900473ffffffffffffffffffffffffffffffffffffffff1673ffffffffffffffffffffffffffffffffffffffff163373ffffffffffffffffffffffffffffffffffffffff16141515612713576040517f08c379a00000000000000000000000000000000000000000000000000000000081526004018080602001828103825260218152602001807f6f6e6c79206f776e65722063616e2063616c6c20746869732066756e6374696f81526020017f6e0000000000000000000000000000000000000000000000000000000000000081525060400191505060405180910390fd5b6000809054906101000a900473ffffffffffffffffffffffffffffffffffffffff1673ffffffffffffffffffffffffffffffffffffffff167ff8df31144d9c2f0f6b59d69b8b98abd5459d07f2742c4df920b25aae33c6482060405160405180910390a260008060006101000a81548173ffffffffffffffffffffffffffffffffffffffff021916908373ffffffffffffffffffffffffffffffffffffffff160217905550565b6000809054906101000a900473ffffffffffffffffffffffffffffffffffffffff1681565b6000600880549050905090565b600f602052806000526040600020600091509050806000018054600181600116156101000203166002900480601f0160208091040260200160405190810160405280929190818152602001828054600181600116156101000203166002900480156128985780601f1061286d57610100808354040283529160200191612898565b820191906000526020600020905b81548152906001019060200180831161287b57829003601f168201915b505050505090806001018054600181600116156101000203166002900480601f0160208091040260200160405190810160405280929190818152602001828054600181600116156101000203166002900480156129365780601f1061290b57610100808354040283529160200191612936565b820191906000526020600020905b81548152906001019060200180831161291957829003601f168201915b5050505050908060030154905083565b61294f336131b2565b15156129e9576040517f08c379a000000000000000000000000000000000000000000000000000000000815260040180806020018281038252602a8152602001807f6f6e6c792076616c6964206d656d626572732063616e20646f2074686973207481526020017f72616e73616374696f6e0000000000000000000000000000000000000000000081525060400191505060405180910390fd5b6012600081548092919060010191905055506000612a4f6012546040805190810160405280601181526020017f7365742061636365737320746f636b656e00000000000000000000000000000081525060036004811115612a4657fe5b8888888861333c565b90506060604051908101604052806040805190810160405280601181526020017f7365742061636365737320746f636b656e00000000000000000000000000000081525081526020018781526020016000815250601160008381526020019081526020016000206000820151816000019080519060200190612ad29291906139ae565b506020820151816001015560408201518160020155905050505050505050565b600b5481565b6000606060008060008060606000806000806000612b14613a2e565b60088e815481101515612b2357fe5b90600052602060002090600c0201610180604051908101604052908160008201548152602001600182018054600181600116156101000203166002900480601f016020809104026020016040519081016040528092919081815260200182805460018160011615610100020316600290048015612be15780601f10612bb657610100808354040283529160200191612be1565b820191906000526020600020905b815481529060010190602001808311612bc457829003601f168201915b505050505081526020016002820154815260200160038201548152602001600482015481526020016005820160009054906101000a900473ffffffffffffffffffffffffffffffffffffffff1673ffffffffffffffffffffffffffffffffffffffff1673ffffffffffffffffffffffffffffffffffffffff168152602001600682018054600181600116156101000203166002900480601f016020809104026020016040519081016040528092919081815260200182805460018160011615610100020316600290048015612cf75780601f10612ccc57610100808354040283529160200191612cf7565b820191906000526020600020905b815481529060010190602001808311612cda57829003601f168201915b50505050508152602001600782015481526020016008820154815260200160098201548152602001600a8201548152602001600b820160009054906101000a900473ffffffffffffffffffffffffffffffffffffffff1673ffffffffffffffffffffffffffffffffffffffff1673ffffffffffffffffffffffffffffffffffffffff16815250509050806000015181602001518260400151836060015184608001518560a001518660c001518760e001518861010001518961012001518a61014001518b61016001518a9a508595509c509c509c509c509c509c509c509c509c509c509c509c505091939597999b5091939597999b565b60015481565b600d5481565b60606004805480602002602001604051908101604052809291908181526020018280548015612e7e57602002820191906000526020600020905b8160009054906101000a900473ffffffffffffffffffffffffffffffffffffffff1673ffffffffffffffffffffffffffffffffffffffff1681526020019060010190808311612e34575b5050505050905090565b6000809054906101000a900473ffffffffffffffffffffffffffffffffffffffff1673ffffffffffffffffffffffffffffffffffffffff163373ffffffffffffffffffffffffffffffffffffffff16141515612f72576040517f08c379a00000000000000000000000000000000000000000000000000000000081526004018080602001828103825260218152602001807f6f6e6c79206f776e65722063616e2063616c6c20746869732066756e6374696f81526020017f6e0000000000000000000000000000000000000000000000000000000000000081525060400191505060405180910390fd5b612f7b816136c8565b50565b600c5481565b612f8d336131b2565b1515613027576040517f08c379a000000000000000000000000000000000000000000000000000000000815260040180806020018281038252602a8152602001807f6f6e6c792076616c6964206d656d626572732063616e20646f2074686973207481526020017f72616e73616374696f6e0000000000000000000000000000000000000000000081525060400191505060405180910390fd5b600087511115156130a0576040517f08c379a00000000000000000000000000000000000000000000000000000000081526004018080602001828103825260168152602001807f73656c656374206e616d6520666f7220616e63686f720000000000000000000081525060200191505060405180910390fd5b60126000815480929190600101919050555060006131066012546040805190810160405280600a81526020017f61646420616e63686f7200000000000000000000000000000000000000000000815250600060048111156130fd57fe5b8888888861333c565b90506080604051908101604052808981526020018881526020018781526020016000815250600f6000838152602001908152602001600020600082015181600001908051906020019061315a9291906139ae565b5060208201518160010190805190602001906131779291906139ae565b506040820151816002019080519060200190613194929190613abf565b50606082015181600301559050505050505050505050565b600a5481565b600080613245600480548060200260200160405190810160405280929190818152602001828054801561323a57602002820191906000526020600020905b8160009054906101000a900473ffffffffffffffffffffffffffffffffffffffff1673ffffffffffffffffffffffffffffffffffffffff16815260200190600101908083116131f0575b50505050508461382b565b12159050919050565b600060015411801561325e575080155b156133165760006301e13380600154019050613278613334565b81101515613314576040517f08c379a00000000000000000000000000000000000000000000000000000000081526004018080602001828103825260248152602001807f796f75206d7573742072656e657720746f6b656e73206166746572206f6e652081526020017f796561720000000000000000000000000000000000000000000000000000000081525060400191505060405180910390fd5b505b61332282600254613924565b61332a613334565b6001819055505050565b600042905090565b6000613347336131b2565b15156133e1576040517f08c379a000000000000000000000000000000000000000000000000000000000815260040180806020018281038252602a8152602001807f6f6e6c792076616c6964206d656d626572732063616e20646f2074686973207481526020017f72616e73616374696f6e0000000000000000000000000000000000000000000081525060400191505060405180910390fd5b600180600360003373ffffffffffffffffffffffffffffffffffffffff1673ffffffffffffffffffffffffffffffffffffffff168152602001908152602001600020541015151561349a576040517f08c379a00000000000000000000000000000000000000000000000000000000081526004018080602001828103825260198152602001807f796f752068617665206e6f7420656e6f75676820746f6b656e0000000000000081525060200191505060405180910390fd5b6008610180604051908101604052808b81526020018a81526020018981526020018881526020018781526020013373ffffffffffffffffffffffffffffffffffffffff1681526020018681526020018581526020016134f7613334565b815260200160008152602001600081526020013073ffffffffffffffffffffffffffffffffffffffff168152509080600181540180825580915050906001820390600052602060002090600c0201600090919290919091506000820151816000015560208201518160010190805190602001906135759291906139ae565b5060408201518160020155606082015181600301556080820151816004015560a08201518160050160006101000a81548173ffffffffffffffffffffffffffffffffffffffff021916908373ffffffffffffffffffffffffffffffffffffffff16021790555060c08201518160060190805190602001906135f79291906139ae565b5060e082015181600701556101008201518160080155610120820151816009015561014082015181600a015561016082015181600b0160006101000a81548173ffffffffffffffffffffffffffffffffffffffff021916908373ffffffffffffffffffffffffffffffffffffffff1602179055505050915080600360003373ffffffffffffffffffffffffffffffffffffffff1673ffffffffffffffffffffffffffffffffffffffff1681526020019081526020016000206000828254039250508190555050979650505050505050565b600073ffffffffffffffffffffffffffffffffffffffff168173ffffffffffffffffffffffffffffffffffffffff161415151561376d576040517f08c379a000000000000000000000000000000000000000000000000000000000815260040180806020018281038252601b8152602001807f6f776e6572206d7573742062652076616c69642061646472657373000000000081525060200191505060405180910390fd5b8073ffffffffffffffffffffffffffffffffffffffff166000809054906101000a900473ffffffffffffffffffffffffffffffffffffffff1673ffffffffffffffffffffffffffffffffffffffff167f8be0079c531659141344cd1fd0a4f28419497f9722a3daafe3b4186f6b6457e060405160405180910390a3806000806101000a81548173ffffffffffffffffffffffffffffffffffffffff021916908373ffffffffffffffffffffffffffffffffffffffff16021790555050565b60008073ffffffffffffffffffffffffffffffffffffffff168273ffffffffffffffffffffffffffffffffffffffff161415613889577fffffffffffffffffffffffffffffffffffffffffffffffffffffffffffffffff905061391e565b60008090505b83518110156138f9578273ffffffffffffffffffffffffffffffffffffffff1684828151811015156138bd57fe5b9060200190602002015173ffffffffffffffffffffffffffffffffffffffff1614156138ec578091505061391e565b808060010191505061388f565b507fffffffffffffffffffffffffffffffffffffffffffffffffffffffffffffffff90505b92915050565b60008090505b825181101561396157613954838281518110151561394457fe5b9060200190602002015183613966565b808060010191505061392a565b505050565b80600360008473ffffffffffffffffffffffffffffffffffffffff1673ffffffffffffffffffffffffffffffffffffffff168152602001908152602001600020819055505050565b828054600181600116156101000203166002900490600052602060002090601f016020900481019282601f106139ef57805160ff1916838001178555613a1d565b82800160010185558215613a1d579182015b82811115613a1c578251825591602001919060010190613a01565b5b509050613a2a9190613b49565b5090565b610180604051908101604052806000815260200160608152602001600081526020016000815260200160008152602001600073ffffffffffffffffffffffffffffffffffffffff1681526020016060815260200160008019168152602001600081526020016000815260200160008152602001600073ffffffffffffffffffffffffffffffffffffffff1681525090565b828054828255906000526020600020908101928215613b38579160200282015b82811115613b375782518260006101000a81548173ffffffffffffffffffffffffffffffffffffffff021916908373ffffffffffffffffffffffffffffffffffffffff16021790555091602001919060010190613adf565b5b509050613b459190613b6e565b5090565b613b6b91905b80821115613b67576000816000905550600101613b4f565b5090565b90565b613bae91905b80821115613baa57600081816101000a81549073ffffffffffffffffffffffffffffffffffffffff021916905550600101613b74565b5090565b9056fea165627a7a72305820beb2b9676735ac95790edc298cd7ad63e6adf1666b0e7563e008c9b9e640d4c50029",
  "source": "pragma solidity >=0.4.21 <0.6.0;\n\nimport \"./Voting.sol\";\nimport \"./Config.sol\";\n\ncontract KuknosDAO is Voting, Config {\n\n    enum ProposalTypes { AddAnchor, RemoveAnchor, ChangeAnchorMember, RenewAccessToken, ChangeConfig }\n\n    struct AddAnchorProposal {\n        string name;\n        string url;\n        address[] members;\n        uint executionTime;\n    }\n\n    struct RemoveAnchorProposal {\n        string name;\n        uint executionTime;\n    }\n\n    struct RenewAccessTockenProposal {\n        string name;\n        uint count;\n        uint executionTime;\n    }\n\n    mapping ( uint => AddAnchorProposal ) public addAnchorProposals;\n\n    mapping ( uint => RemoveAnchorProposal ) public removeAnchorProposal;\n\n    mapping ( uint => RenewAccessTockenProposal ) public renewAccessTockenProposal;\n\n    uint public internalProposalsCount = 0;\n\n    constructor(address[] memory _voters, uint _voterTokensCount) public Voting(_voters, _voterTokensCount) {\n\n    }\n\n    function checkProposalUpPercentage(uint _id, ProposalTypes pType) internal view returns(uint) {\n        (,,,uint proposalType, address contractAddress,, bool isFinished, uint upPercentage,) = getProposalStatus(_id);\n        require(proposalType == uint(pType), \"type mismatch\");\n        require(contractAddress == address(this), \"the propsal is not an internal proposal\");\n        require(isFinished,\"the propsal is not finished\");\n        return upPercentage;\n    }\n\n    // Add new Anchor Proposal\n    function registerAddAnchorProposal(\n      string memory _anchorName,\n      string memory _anchorUrl,\n      address[] memory _members,\n      uint _startDate,\n      uint _endDate,\n      string memory _url,\n      bytes32 _hashCode\n      ) public onlyMembers {\n          require(bytes(_anchorName).length > 0, \"select name for anchor\");\n          internalProposalsCount++;\n          uint id = registerInternalProposal(\n              internalProposalsCount,\n              \"add anchor\",\n              uint(ProposalTypes.AddAnchor),\n              _startDate,\n              _endDate,\n              _url,\n              _hashCode);\n          addAnchorProposals[id] = AddAnchorProposal(_anchorName, _anchorUrl, _members, 0);\n    }\n\n    function runAddAnchorProposal(uint _id) internal onlyMembers {\n        AddAnchorProposal memory proposal = addAnchorProposals[_id];\n        require(bytes(proposal.name).length > 0, \"propsal not found\");\n        require(proposal.executionTime == 0, \"the proposal executed before\");\n        uint upPercentage = checkProposalUpPercentage(_id, ProposalTypes.AddAnchor);\n        if (upPercentage >= addAnchorThreshold) {\n            addAnchor(proposal.name, proposal.url, proposal.members);\n        }\n        addAnchorProposals[_id].executionTime = getTime();\n    }\n\n    // Remove an anchor proposal\n    function registerRemoveAnchorProposal(\n      string memory _anchorName,\n      uint _startDate,\n      uint _endDate,\n      string memory _url,\n      bytes32 _hashCode\n      ) public onlyMembers {\n          require(bytes(_anchorName).length > 0, \"select name for anchor\");\n          internalProposalsCount++;\n          uint id = registerInternalProposal(\n              internalProposalsCount,\n              \"remove anchor\",\n              uint(ProposalTypes.RemoveAnchor),\n              _startDate,\n              _endDate,\n              _url,\n              _hashCode);\n          removeAnchorProposal[id] = RemoveAnchorProposal(_anchorName, 0);\n    }\n\n    function runRemoveAnchorProposal(uint _id) internal onlyMembers {\n        RemoveAnchorProposal memory proposal = removeAnchorProposal[_id];\n        require(bytes(proposal.name).length > 0, \"propsal not found\");\n        require(proposal.executionTime == 0, \"the proposal executed before\");\n        uint upPercentage = checkProposalUpPercentage(_id, ProposalTypes.RemoveAnchor);\n        if (upPercentage >= removeAnchorThreshold) {\n            deleteAnchor(proposal.name);\n        }\n        removeAnchorProposal[_id].executionTime = getTime();\n    }\n\n    // set AccessToken proposal\n    function registerSetAccessTokenProposal(\n      uint count,\n      uint _startDate,\n      uint _endDate,\n      string memory _url,\n      bytes32 _hashCode\n      ) public onlyMembers {\n          internalProposalsCount++;\n          uint id = registerInternalProposal(\n              internalProposalsCount,\n              \"set access tocken\",\n              uint(ProposalTypes.RenewAccessToken),\n              _startDate,\n              _endDate,\n              _url,\n              _hashCode);\n          renewAccessTockenProposal[id] = RenewAccessTockenProposal(\"set access tocken\", count, 0);\n    }\n\n    function runSetAccessTockenProposal(uint _id) internal onlyMembers {\n        RenewAccessTockenProposal memory proposal = renewAccessTockenProposal[_id];\n        require(bytes(proposal.name).length > 0, \"propsal not found\");\n        require(proposal.executionTime == 0, \"the proposal executed before\");\n        uint upPercentage = checkProposalUpPercentage(_id, ProposalTypes.RenewAccessToken);\n        if (upPercentage >= renewAccessTokenThreshold) {\n            renewToken(members, true);\n        }\n        renewAccessTockenProposal[_id].executionTime = getTime();\n    }\n\n\n}",
  "sourcePath": "D:/projects/blockchain/kuknos-dao/contracts/KuknosDAO.sol",
  "compiler": {
    "name": "solc",
    "version": "0.5.0+commit.1d4f565a.Emscripten.clang"
  },
  "schemaVersion": "3.0.9",
  "updatedAt": "2019-06-15T05:41:27.642Z",
  "devdoc": {
    "methods": {
      "renounceOwnership()": {
        "details": "Allows the current owner to relinquish control of the contract."
      },
      "transferOwnership(address)": {
        "details": "Allows the current owner to transfer control of the contract to a newOwner.",
        "params": {
          "_newOwner": "The address to transfer ownership to."
        }
      }
    }
  },
  "userdoc": {
    "methods": {
      "renounceOwnership()": {
        "notice": "Renouncing to ownership will leave the contract without an owner. It will not be possible to call the functions with the `onlyOwner` modifier anymore."
      }
    }
  }
}