{
  "contractName": "KuknosDAO",
  "abi": [
    {
      "constant": false,
      "inputs": [],
      "name": "renewYearTokens",
      "outputs": [],
      "payable": false,
      "stateMutability": "nonpayable",
      "type": "function"
    },
    {
      "constant": true,
      "inputs": [
        {
          "name": "",
          "type": "uint256"
        }
      ],
      "name": "removeAnchorProposal",
      "outputs": [
        {
          "name": "name",
          "type": "string"
        },
        {
          "name": "executionTime",
          "type": "uint256"
        }
      ],
      "payable": false,
      "stateMutability": "view",
      "type": "function"
    },
    {
      "constant": true,
      "inputs": [
        {
          "name": "",
          "type": "uint256"
        }
      ],
      "name": "renewAccessTockenProposal",
      "outputs": [
        {
          "name": "name",
          "type": "string"
        },
        {
          "name": "count",
          "type": "uint256"
        },
        {
          "name": "executionTime",
          "type": "uint256"
        }
      ],
      "payable": false,
      "stateMutability": "view",
      "type": "function"
    },
    {
      "constant": true,
      "inputs": [],
      "name": "membersCount",
      "outputs": [
        {
          "name": "",
          "type": "uint256"
        }
      ],
      "payable": false,
      "stateMutability": "view",
      "type": "function"
    },
    {
      "constant": true,
      "inputs": [
        {
          "name": "",
          "type": "uint256"
        },
        {
          "name": "",
          "type": "address"
        }
      ],
      "name": "votesReceived",
      "outputs": [
        {
          "name": "",
          "type": "int8"
        }
      ],
      "payable": false,
      "stateMutability": "view",
      "type": "function"
    },
    {
      "constant": true,
      "inputs": [
        {
          "name": "",
          "type": "uint256"
        }
      ],
      "name": "anchors",
      "outputs": [
        {
          "name": "nameHash",
          "type": "bytes32"
        },
        {
          "name": "name",
          "type": "string"
        },
        {
          "name": "url",
          "type": "string"
        }
      ],
      "payable": false,
      "stateMutability": "view",
      "type": "function"
    },
    {
      "constant": true,
      "inputs": [
        {
          "name": "index",
          "type": "uint256"
        }
      ],
      "name": "getProposalStatus",
      "outputs": [
        {
          "name": "",
          "type": "uint256"
        },
        {
          "name": "",
          "type": "uint256"
        },
        {
          "name": "",
          "type": "uint256"
        },
        {
          "name": "",
          "type": "address"
        },
        {
          "name": "",
          "type": "bool"
        },
        {
          "name": "",
          "type": "bool"
        },
        {
          "name": "",
          "type": "uint256"
        },
        {
          "name": "",
          "type": "uint256"
        },
        {
          "name": "",
          "type": "bool"
        }
      ],
      "payable": false,
      "stateMutability": "view",
      "type": "function"
    },
    {
      "constant": true,
      "inputs": [],
      "name": "accessTokensCount",
      "outputs": [
        {
          "name": "",
          "type": "uint256"
        }
      ],
      "payable": false,
      "stateMutability": "view",
      "type": "function"
    },
    {
      "constant": false,
      "inputs": [
        {
          "name": "_proposalIndex",
          "type": "uint256"
        },
        {
          "name": "_vote",
          "type": "int8"
        }
      ],
      "name": "voteForProposal",
      "outputs": [],
      "payable": false,
      "stateMutability": "nonpayable",
      "type": "function"
    },
    {
      "constant": true,
      "inputs": [
        {
          "name": "",
          "type": "uint256"
        }
      ],
      "name": "members",
      "outputs": [
        {
          "name": "",
          "type": "address"
        }
      ],
      "payable": false,
      "stateMutability": "view",
      "type": "function"
    },
    {
      "constant": true,
      "inputs": [],
      "name": "internalProposalsCount",
      "outputs": [
        {
          "name": "",
          "type": "uint256"
        }
      ],
      "payable": false,
      "stateMutability": "view",
      "type": "function"
    },
    {
      "constant": false,
      "inputs": [
        {
          "name": "title",
          "type": "string"
        },
        {
          "name": "proposalType",
          "type": "uint32"
        },
        {
          "name": "startDate",
          "type": "uint32"
        },
        {
          "name": "endDate",
          "type": "uint32"
        },
        {
          "name": "url",
          "type": "string"
        },
        {
          "name": "hashCode",
          "type": "string"
        },
        {
          "name": "contractAddress",
          "type": "address"
        },
        {
          "name": "threshold",
          "type": "uint8"
        }
      ],
      "name": "registerProposal",
      "outputs": [],
      "payable": false,
      "stateMutability": "nonpayable",
      "type": "function"
    },
    {
      "constant": true,
      "inputs": [],
      "name": "changeConfigThreshold",
      "outputs": [
        {
          "name": "",
          "type": "uint8"
        }
      ],
      "payable": false,
      "stateMutability": "view",
      "type": "function"
    },
    {
      "constant": true,
      "inputs": [
        {
          "name": "",
          "type": "address"
        }
      ],
      "name": "balanceOf",
      "outputs": [
        {
          "name": "",
          "type": "uint256"
        }
      ],
      "payable": false,
      "stateMutability": "view",
      "type": "function"
    },
    {
      "constant": false,
      "inputs": [],
      "name": "renounceOwnership",
      "outputs": [],
      "payable": false,
      "stateMutability": "nonpayable",
      "type": "function"
    },
    {
      "constant": true,
      "inputs": [
        {
          "name": "",
          "type": "uint256"
        }
      ],
      "name": "changeConfigProposal",
      "outputs": [
        {
          "name": "name",
          "type": "string"
        },
        {
          "name": "value",
          "type": "uint8"
        },
        {
          "name": "executionTime",
          "type": "uint256"
        }
      ],
      "payable": false,
      "stateMutability": "view",
      "type": "function"
    },
    {
      "constant": true,
      "inputs": [],
      "name": "owner",
      "outputs": [
        {
          "name": "",
          "type": "address"
        }
      ],
      "payable": false,
      "stateMutability": "view",
      "type": "function"
    },
    {
      "constant": true,
      "inputs": [],
      "name": "getProposalsCount",
      "outputs": [
        {
          "name": "",
          "type": "uint256"
        }
      ],
      "payable": false,
      "stateMutability": "view",
      "type": "function"
    },
    {
      "constant": true,
      "inputs": [
        {
          "name": "",
          "type": "uint256"
        }
      ],
      "name": "addAnchorProposals",
      "outputs": [
        {
          "name": "name",
          "type": "string"
        },
        {
          "name": "url",
          "type": "string"
        },
        {
          "name": "executionTime",
          "type": "uint256"
        }
      ],
      "payable": false,
      "stateMutability": "view",
      "type": "function"
    },
    {
      "constant": true,
      "inputs": [
        {
          "name": "",
          "type": "bytes32"
        },
        {
          "name": "",
          "type": "uint256"
        }
      ],
      "name": "anchorMembers",
      "outputs": [
        {
          "name": "",
          "type": "address"
        }
      ],
      "payable": false,
      "stateMutability": "view",
      "type": "function"
    },
    {
      "constant": true,
      "inputs": [],
      "name": "removeAnchorThreshold",
      "outputs": [
        {
          "name": "",
          "type": "uint8"
        }
      ],
      "payable": false,
      "stateMutability": "view",
      "type": "function"
    },
    {
      "constant": true,
      "inputs": [
        {
          "name": "index",
          "type": "uint256"
        }
      ],
      "name": "getProposal",
      "outputs": [
        {
          "name": "",
          "type": "string"
        },
        {
          "name": "",
          "type": "uint32"
        },
        {
          "name": "",
          "type": "uint32"
        },
        {
          "name": "",
          "type": "uint32"
        },
        {
          "name": "",
          "type": "address"
        },
        {
          "name": "",
          "type": "string"
        },
        {
          "name": "",
          "type": "string"
        },
        {
          "name": "",
          "type": "uint32"
        },
        {
          "name": "",
          "type": "address"
        },
        {
          "name": "",
          "type": "uint8"
        },
        {
          "name": "",
          "type": "uint256"
        }
      ],
      "payable": false,
      "stateMutability": "view",
      "type": "function"
    },
    {
      "constant": true,
      "inputs": [],
      "name": "lastTokenIssueDate",
      "outputs": [
        {
          "name": "",
          "type": "uint256"
        }
      ],
      "payable": false,
      "stateMutability": "view",
      "type": "function"
    },
    {
      "constant": true,
      "inputs": [],
      "name": "getAnchorsCount",
      "outputs": [
        {
          "name": "",
          "type": "uint256"
        }
      ],
      "payable": false,
      "stateMutability": "view",
      "type": "function"
    },
    {
      "constant": true,
      "inputs": [],
      "name": "changeAnchorMemberThreshold",
      "outputs": [
        {
          "name": "",
          "type": "uint8"
        }
      ],
      "payable": false,
      "stateMutability": "view",
      "type": "function"
    },
    {
      "constant": true,
      "inputs": [],
      "name": "membersList",
      "outputs": [
        {
          "name": "",
          "type": "address[]"
        }
      ],
      "payable": false,
      "stateMutability": "view",
      "type": "function"
    },
    {
      "constant": false,
      "inputs": [
        {
          "name": "_newOwner",
          "type": "address"
        }
      ],
      "name": "transferOwnership",
      "outputs": [],
      "payable": false,
      "stateMutability": "nonpayable",
      "type": "function"
    },
    {
      "constant": true,
      "inputs": [],
      "name": "renewAccessTokenThreshold",
      "outputs": [
        {
          "name": "",
          "type": "uint8"
        }
      ],
      "payable": false,
      "stateMutability": "view",
      "type": "function"
    },
    {
      "constant": true,
      "inputs": [],
      "name": "addAnchorThreshold",
      "outputs": [
        {
          "name": "",
          "type": "uint8"
        }
      ],
      "payable": false,
      "stateMutability": "view",
      "type": "function"
    },
    {
      "inputs": [
        {
          "name": "_voterTokensCount",
          "type": "uint256"
        }
      ],
      "payable": false,
      "stateMutability": "nonpayable",
      "type": "constructor"
    },
    {
      "anonymous": false,
      "inputs": [
        {
          "indexed": true,
          "name": "previousOwner",
          "type": "address"
        }
      ],
      "name": "OwnershipRenounced",
      "type": "event"
    },
    {
      "anonymous": false,
      "inputs": [
        {
          "indexed": true,
          "name": "previousOwner",
          "type": "address"
        },
        {
          "indexed": true,
          "name": "newOwner",
          "type": "address"
        }
      ],
      "name": "OwnershipTransferred",
      "type": "event"
    },
    {
      "constant": false,
      "inputs": [
        {
          "name": "_name",
          "type": "string"
        },
        {
          "name": "_url",
          "type": "string"
        },
        {
          "name": "_members",
          "type": "address[]"
        }
      ],
      "name": "addNewAnchor",
      "outputs": [],
      "payable": false,
      "stateMutability": "nonpayable",
      "type": "function"
    },
    {
      "constant": true,
      "inputs": [],
      "name": "contractIsActive",
      "outputs": [
        {
          "name": "",
          "type": "bool"
        }
      ],
      "payable": false,
      "stateMutability": "view",
      "type": "function"
    },
    {
      "constant": false,
      "inputs": [
        {
          "name": "_anchorName",
          "type": "string"
        },
        {
          "name": "_anchorUrl",
          "type": "string"
        },
        {
          "name": "_members",
          "type": "address[]"
        },
        {
          "name": "_startDate",
          "type": "uint32"
        },
        {
          "name": "_endDate",
          "type": "uint32"
        },
        {
          "name": "_url",
          "type": "string"
        },
        {
          "name": "_hashCode",
          "type": "string"
        }
      ],
      "name": "registerAddAnchorProposal",
      "outputs": [],
      "payable": false,
      "stateMutability": "nonpayable",
      "type": "function"
    },
    {
      "constant": false,
      "inputs": [
        {
          "name": "_id",
          "type": "uint256"
        }
      ],
      "name": "runAddAnchorProposal",
      "outputs": [],
      "payable": false,
      "stateMutability": "nonpayable",
      "type": "function"
    },
    {
      "constant": false,
      "inputs": [
        {
          "name": "_anchorName",
          "type": "string"
        },
        {
          "name": "_startDate",
          "type": "uint32"
        },
        {
          "name": "_endDate",
          "type": "uint32"
        },
        {
          "name": "_url",
          "type": "string"
        },
        {
          "name": "_hashCode",
          "type": "string"
        }
      ],
      "name": "registerRemoveAnchorProposal",
      "outputs": [],
      "payable": false,
      "stateMutability": "nonpayable",
      "type": "function"
    },
    {
      "constant": false,
      "inputs": [
        {
          "name": "_id",
          "type": "uint256"
        }
      ],
      "name": "runRemoveAnchorProposal",
      "outputs": [],
      "payable": false,
      "stateMutability": "nonpayable",
      "type": "function"
    },
    {
      "constant": false,
      "inputs": [
        {
          "name": "count",
          "type": "uint256"
        },
        {
          "name": "_startDate",
          "type": "uint32"
        },
        {
          "name": "_endDate",
          "type": "uint32"
        },
        {
          "name": "_url",
          "type": "string"
        },
        {
          "name": "_hashCode",
          "type": "string"
        }
      ],
      "name": "registerSetAccessTokenProposal",
      "outputs": [],
      "payable": false,
      "stateMutability": "nonpayable",
      "type": "function"
    },
    {
      "constant": false,
      "inputs": [
        {
          "name": "_id",
          "type": "uint256"
        }
      ],
      "name": "runSetAccessTockenProposal",
      "outputs": [],
      "payable": false,
      "stateMutability": "nonpayable",
      "type": "function"
    },
    {
      "constant": false,
      "inputs": [
        {
          "name": "newValue",
          "type": "uint8"
        },
        {
          "name": "_startDate",
          "type": "uint32"
        },
        {
          "name": "_endDate",
          "type": "uint32"
        },
        {
          "name": "_url",
          "type": "string"
        },
        {
          "name": "_hashCode",
          "type": "string"
        }
      ],
      "name": "addChangeConfigProposal",
      "outputs": [],
      "payable": false,
      "stateMutability": "nonpayable",
      "type": "function"
    },
    {
      "constant": false,
      "inputs": [
        {
          "name": "_id",
          "type": "uint256"
        }
      ],
      "name": "runChangeConfigProposal",
      "outputs": [],
      "payable": false,
      "stateMutability": "nonpayable",
      "type": "function"
    }
  ],
  "bytecode": "0x6080604052603260025560026005556033600a60006101000a81548160ff021916908360ff1602179055506050600a60016101000a81548160ff021916908360ff1602179055506033600a60026101000a81548160ff021916908360ff1602179055506033600a60036101000a81548160ff021916908360ff1602179055506050600a60046101000a81548160ff021916908360ff1602179055506000600f55348015620000ac57600080fd5b50604051602080620070b883398101806040526020811015620000ce57600080fd5b81019080805190602001909291905050508080336000806101000a81548173ffffffffffffffffffffffffffffffffffffffff021916908373ffffffffffffffffffffffffffffffffffffffff16021790555080600281905550505050616f7d806200013b6000396000f3fe608060405234801561001057600080fd5b506004361061023c5760003560e01c806370a082311161013b578063bb60512f116100b8578063d4e18e681161007c578063d4e18e6814611a04578063dd5042f414611a28578063f2fde38b14611a87578063fa01924914611acb578063fc37a9e814611aef5761023c565b8063bb60512f14611731578063c78b395f14611755578063c7f758a814611783578063cededb30146119c8578063d4c8ca9b146119e65761023c565b80639a07772a116100ff5780639a07772a146110be5780639f016ab51461123d578063a773693f14611357578063b35d1b06146113cf578063b4a38025146113fd5761023c565b806370a0823114610f39578063715018a614610f915780638a71f0d214610f9b5780638da5cb5b1461105657806398e527d3146110a05761023c565b80633ec4cd72116101c95780635ab09f591161018d5780635ab09f5914610c075780635daf08ca14610c4257806365a059d214610cb057806366c2b2b914610cce5780636ee2e22514610f155761023c565b80633ec4cd72146108f5578063401853b714610adb5780634c21112214610b8d578063511e9e6e14610bbb57806355de8c7e14610be95761023c565b8063297f9af011610210578063297f9af0146103d05780632cb23604146103ee57806333dd6bed146105f7578063368b733e1461065f5780633b332197146107795761023c565b8062f18f56146102415780630d60ea191461024b5780631351e4ac1461026d57806324353bb61461031b575b600080fd5b610249611b13565b005b610253611c7e565b604051808215151515815260200191505060405180910390f35b6102996004803603602081101561028357600080fd5b8101908080359060200190929190505050611c8d565b6040518080602001838152602001828103825284818151815260200191508051906020019080838360005b838110156102df5780820151818401526020810190506102c4565b50505050905090810190601f16801561030c5780820380516001836020036101000a031916815260200191505b50935050505060405180910390f35b6103476004803603602081101561033157600080fd5b8101908080359060200190929190505050611d49565b6040518080602001848152602001838152602001828103825285818151815260200191508051906020019080838360005b83811015610393578082015181840152602081019050610378565b50505050905090810190601f1680156103c05780820380516001836020036101000a031916815260200191505b5094505050505060405180910390f35b6103d8611e0b565b6040518082815260200191505060405180910390f35b6105f5600480360360a081101561040457600080fd5b810190808035906020019064010000000081111561042157600080fd5b82018360208201111561043357600080fd5b8035906020019184600183028401116401000000008311171561045557600080fd5b91908080601f016020809104026020016040519081016040528093929190818152602001838380828437600081840152601f19601f820116905080830192505050505050509192919290803563ffffffff169060200190929190803563ffffffff169060200190929190803590602001906401000000008111156104d857600080fd5b8201836020820111156104ea57600080fd5b8035906020019184600183028401116401000000008311171561050c57600080fd5b91908080601f016020809104026020016040519081016040528093929190818152602001838380828437600081840152601f19601f8201169050808301925050505050505091929192908035906020019064010000000081111561056f57600080fd5b82018360208201111561058157600080fd5b803590602001918460018302840111640100000000831117156105a357600080fd5b91908080601f016020809104026020016040519081016040528093929190818152602001838380828437600081840152601f19601f820116905080830192505050505050509192919290505050611e18565b005b6106436004803603604081101561060d57600080fd5b8101908080359060200190929190803573ffffffffffffffffffffffffffffffffffffffff169060200190929190505050612037565b604051808260000b60000b815260200191505060405180910390f35b61068b6004803603602081101561067557600080fd5b8101908080359060200190929190505050612066565b604051808481526020018060200180602001838103835285818151815260200191508051906020019080838360005b838110156106d55780820151818401526020810190506106ba565b50505050905090810190601f1680156107025780820380516001836020036101000a031916815260200191505b50838103825284818151815260200191508051906020019080838360005b8381101561073b578082015181840152602081019050610720565b50505050905090810190601f1680156107685780820380516001836020036101000a031916815260200191505b509550505050505060405180910390f35b6108f3600480360360a081101561078f57600080fd5b8101908080359060200190929190803563ffffffff169060200190929190803563ffffffff169060200190929190803590602001906401000000008111156107d657600080fd5b8201836020820111156107e857600080fd5b8035906020019184600183028401116401000000008311171561080a57600080fd5b91908080601f016020809104026020016040519081016040528093929190818152602001838380828437600081840152601f19601f8201169050808301925050505050505091929192908035906020019064010000000081111561086d57600080fd5b82018360208201111561087f57600080fd5b803590602001918460018302840111640100000000831117156108a157600080fd5b91908080601f016020809104026020016040519081016040528093929190818152602001838380828437600081840152601f19601f8201169050808301925050505050505091929192905050506121cd565b005b610ad96004803603606081101561090b57600080fd5b810190808035906020019064010000000081111561092857600080fd5b82018360208201111561093a57600080fd5b8035906020019184600183028401116401000000008311171561095c57600080fd5b91908080601f016020809104026020016040519081016040528093929190818152602001838380828437600081840152601f19601f820116905080830192505050505050509192919290803590602001906401000000008111156109bf57600080fd5b8201836020820111156109d157600080fd5b803590602001918460018302840111640100000000831117156109f357600080fd5b91908080601f016020809104026020016040519081016040528093929190818152602001838380828437600081840152601f19601f82011690508083019250505050505050919291929080359060200190640100000000811115610a5657600080fd5b820183602082011115610a6857600080fd5b80359060200191846020830284011164010000000083111715610a8a57600080fd5b919080806020026020016040519081016040528093929190818152602001838360200280828437600081840152601f19601f8201169050808301925050505050505091929192905050506123ba565b005b610b0760048036036020811015610af157600080fd5b810190808035906020019092919050505061246f565b604051808a81526020018981526020018881526020018773ffffffffffffffffffffffffffffffffffffffff1673ffffffffffffffffffffffffffffffffffffffff168152602001861515151581526020018515151515815260200184815260200183815260200182151515158152602001995050505050505050505060405180910390f35b610bb960048036036020811015610ba357600080fd5b8101908080359060200190929190505050612919565b005b610be760048036036020811015610bd157600080fd5b8101908080359060200190929190505050612c9f565b005b610bf1612f84565b6040518082815260200191505060405180910390f35b610c4060048036036040811015610c1d57600080fd5b8101908080359060200190929190803560000b9060200190929190505050612f8a565b005b610c6e60048036036020811015610c5857600080fd5b81019080803590602001909291905050506138b4565b604051808273ffffffffffffffffffffffffffffffffffffffff1673ffffffffffffffffffffffffffffffffffffffff16815260200191505060405180910390f35b610cb86138f0565b6040518082815260200191505060405180910390f35b610f136004803603610100811015610ce557600080fd5b8101908080359060200190640100000000811115610d0257600080fd5b820183602082011115610d1457600080fd5b80359060200191846001830284011164010000000083111715610d3657600080fd5b91908080601f016020809104026020016040519081016040528093929190818152602001838380828437600081840152601f19601f820116905080830192505050505050509192919290803563ffffffff169060200190929190803563ffffffff169060200190929190803563ffffffff16906020019092919080359060200190640100000000811115610dc957600080fd5b820183602082011115610ddb57600080fd5b80359060200191846001830284011164010000000083111715610dfd57600080fd5b91908080601f016020809104026020016040519081016040528093929190818152602001838380828437600081840152601f19601f82011690508083019250505050505050919291929080359060200190640100000000811115610e6057600080fd5b820183602082011115610e7257600080fd5b80359060200191846001830284011164010000000083111715610e9457600080fd5b91908080601f016020809104026020016040519081016040528093929190818152602001838380828437600081840152601f19601f820116905080830192505050505050509192919290803573ffffffffffffffffffffffffffffffffffffffff169060200190929190803560ff1690602001909291905050506138f6565b005b610f1d613e3a565b604051808260ff1660ff16815260200191505060405180910390f35b610f7b60048036036020811015610f4f57600080fd5b81019080803573ffffffffffffffffffffffffffffffffffffffff169060200190929190505050613e4d565b6040518082815260200191505060405180910390f35b610f99613e65565b005b610fc760048036036020811015610fb157600080fd5b8101908080359060200190929190505050613fb1565b60405180806020018460ff1660ff168152602001838152602001828103825285818151815260200191508051906020019080838360005b83811015611019578082015181840152602081019050610ffe565b50505050905090810190601f1680156110465780820380516001836020036101000a031916815260200191505b5094505050505060405180910390f35b61105e614080565b604051808273ffffffffffffffffffffffffffffffffffffffff1673ffffffffffffffffffffffffffffffffffffffff16815260200191505060405180910390f35b6110a86140a5565b6040518082815260200191505060405180910390f35b61123b600480360360a08110156110d457600080fd5b81019080803560ff169060200190929190803563ffffffff169060200190929190803563ffffffff1690602001909291908035906020019064010000000081111561111e57600080fd5b82018360208201111561113057600080fd5b8035906020019184600183028401116401000000008311171561115257600080fd5b91908080601f016020809104026020016040519081016040528093929190818152602001838380828437600081840152601f19601f820116905080830192505050505050509192919290803590602001906401000000008111156111b557600080fd5b8201836020820111156111c757600080fd5b803590602001918460018302840111640100000000831117156111e957600080fd5b91908080601f016020809104026020016040519081016040528093929190818152602001838380828437600081840152601f19601f8201169050808301925050505050505091929192905050506140b2565b005b6112696004803603602081101561125357600080fd5b81019080803590602001909291905050506142b8565b604051808060200180602001848152602001838103835286818151815260200191508051906020019080838360005b838110156112b3578082015181840152602081019050611298565b50505050905090810190601f1680156112e05780820380516001836020036101000a031916815260200191505b50838103825285818151815260200191508051906020019080838360005b838110156113195780820151818401526020810190506112fe565b50505050905090810190601f1680156113465780820380516001836020036101000a031916815260200191505b509550505050505060405180910390f35b61138d6004803603604081101561136d57600080fd5b810190808035906020019092919080359060200190929190505050614412565b604051808273ffffffffffffffffffffffffffffffffffffffff1673ffffffffffffffffffffffffffffffffffffffff16815260200191505060405180910390f35b6113fb600480360360208110156113e557600080fd5b810190808035906020019092919050505061445d565b005b61172f600480360360e081101561141357600080fd5b810190808035906020019064010000000081111561143057600080fd5b82018360208201111561144257600080fd5b8035906020019184600183028401116401000000008311171561146457600080fd5b91908080601f016020809104026020016040519081016040528093929190818152602001838380828437600081840152601f19601f820116905080830192505050505050509192919290803590602001906401000000008111156114c757600080fd5b8201836020820111156114d957600080fd5b803590602001918460018302840111640100000000831117156114fb57600080fd5b91908080601f016020809104026020016040519081016040528093929190818152602001838380828437600081840152601f19601f8201169050808301925050505050505091929192908035906020019064010000000081111561155e57600080fd5b82018360208201111561157057600080fd5b8035906020019184602083028401116401000000008311171561159257600080fd5b919080806020026020016040519081016040528093929190818152602001838360200280828437600081840152601f19601f820116905080830192505050505050509192919290803563ffffffff169060200190929190803563ffffffff1690602001909291908035906020019064010000000081111561161257600080fd5b82018360208201111561162457600080fd5b8035906020019184600183028401116401000000008311171561164657600080fd5b91908080601f016020809104026020016040519081016040528093929190818152602001838380828437600081840152601f19601f820116905080830192505050505050509192919290803590602001906401000000008111156116a957600080fd5b8201836020820111156116bb57600080fd5b803590602001918460018302840111640100000000831117156116dd57600080fd5b91908080601f016020809104026020016040519081016040528093929190818152602001838380828437600081840152601f19601f8201169050808301925050505050505091929192905050506147d0565b005b611739614a37565b604051808260ff1660ff16815260200191505060405180910390f35b6117816004803603602081101561176b57600080fd5b8101908080359060200190929190505050614a4a565b005b6117af6004803603602081101561179957600080fd5b8101908080359060200190929190505050614e69565b60405180806020018c63ffffffff1663ffffffff1681526020018b63ffffffff1663ffffffff1681526020018a63ffffffff1663ffffffff1681526020018973ffffffffffffffffffffffffffffffffffffffff1673ffffffffffffffffffffffffffffffffffffffff16815260200180602001806020018863ffffffff1663ffffffff1681526020018773ffffffffffffffffffffffffffffffffffffffff1673ffffffffffffffffffffffffffffffffffffffff1681526020018660ff1660ff16815260200185815260200184810384528f818151815260200191508051906020019080838360005b838110156118b557808201518184015260208101905061189a565b50505050905090810190601f1680156118e25780820380516001836020036101000a031916815260200191505b5084810383528a818151815260200191508051906020019080838360005b8381101561191b578082015181840152602081019050611900565b50505050905090810190601f1680156119485780820380516001836020036101000a031916815260200191505b50848103825289818151815260200191508051906020019080838360005b83811015611981578082015181840152602081019050611966565b50505050905090810190601f1680156119ae5780820380516001836020036101000a031916815260200191505b509e50505050505050505050505050505060405180910390f35b6119d06152a5565b6040518082815260200191505060405180910390f35b6119ee6152ab565b6040518082815260200191505060405180910390f35b611a0c6152b8565b604051808260ff1660ff16815260200191505060405180910390f35b611a306152cb565b6040518080602001828103825283818151815260200191508051906020019060200280838360005b83811015611a73578082015181840152602081019050611a58565b505050509050019250505060405180910390f35b611ac960048036036020811015611a9d57600080fd5b81019080803573ffffffffffffffffffffffffffffffffffffffff169060200190929190505050615359565b005b611ad361540a565b604051808260ff1660ff16815260200191505060405180910390f35b611af761541d565b604051808260ff1660ff16815260200191505060405180910390f35b611b1b615430565b611b8d576040517f08c379a000000000000000000000000000000000000000000000000000000000815260040180806020018281038252601f8152602001807f7468697320636f6e747261637420697320696e20636f6e666967206d6f64650081525060200191505060405180910390fd5b611b9633615487565b611beb576040517f08c379a000000000000000000000000000000000000000000000000000000000815260040180806020018281038252602a815260200180616eda602a913960400191505060405180910390fd5b611c7c6004805480602002602001604051908101604052809291908181526020018280548015611c7057602002820191906000526020600020905b8160009054906101000a900473ffffffffffffffffffffffffffffffffffffffff1673ffffffffffffffffffffffffffffffffffffffff1681526020019060010190808311611c26575b50505050506000615523565b565b6000611c88615430565b905090565b600c602052806000526040600020600091509050806000018054600181600116156101000203166002900480601f016020809104026020016040519081016040528092919081815260200182805460018160011615610100020316600290048015611d395780601f10611d0e57610100808354040283529160200191611d39565b820191906000526020600020905b815481529060010190602001808311611d1c57829003601f168201915b5050505050908060010154905082565b600d602052806000526040600020600091509050806000018054600181600116156101000203166002900480601f016020809104026020016040519081016040528092919081815260200182805460018160011615610100020316600290048015611df55780601f10611dca57610100808354040283529160200191611df5565b820191906000526020600020905b815481529060010190602001808311611dd857829003601f168201915b5050505050908060010154908060020154905083565b6000600480549050905090565b611e20615430565b611e92576040517f08c379a000000000000000000000000000000000000000000000000000000000815260040180806020018281038252601f8152602001807f7468697320636f6e747261637420697320696e20636f6e666967206d6f64650081525060200191505060405180910390fd5b611e9b33615487565b611ef0576040517f08c379a000000000000000000000000000000000000000000000000000000000815260040180806020018281038252602a815260200180616eda602a913960400191505060405180910390fd5b6000855111611f67576040517f08c379a00000000000000000000000000000000000000000000000000000000081526004018080602001828103825260168152602001807f73656c656374206e616d6520666f7220616e63686f720000000000000000000081525060200191505060405180910390fd5b600f600081548092919060010191905055506000611fda6040518060400160405280600d81526020017f72656d6f766520616e63686f720000000000000000000000000000000000000081525060016004811115611fc157fe5b87878787600a60019054906101000a900460ff166155c4565b905060405180604001604052808781526020016000815250600c60008381526020019081526020016000206000820151816000019080519060200190612021929190616a0b565b5060208201518160010155905050505050505050565b60096020528160005260406000206020528060005260406000206000915091509054906101000a900460000b81565b6006818154811061207357fe5b9060005260206000209060030201600091509050806000015490806001018054600181600116156101000203166002900480601f0160208091040260200160405190810160405280929190818152602001828054600181600116156101000203166002900480156121255780601f106120fa57610100808354040283529160200191612125565b820191906000526020600020905b81548152906001019060200180831161210857829003601f168201915b505050505090806002018054600181600116156101000203166002900480601f0160208091040260200160405190810160405280929190818152602001828054600181600116156101000203166002900480156121c35780601f10612198576101008083540402835291602001916121c3565b820191906000526020600020905b8154815290600101906020018083116121a657829003601f168201915b5050505050905083565b6121d5615430565b612247576040517f08c379a000000000000000000000000000000000000000000000000000000000815260040180806020018281038252601f8152602001807f7468697320636f6e747261637420697320696e20636f6e666967206d6f64650081525060200191505060405180910390fd5b61225033615487565b6122a5576040517f08c379a000000000000000000000000000000000000000000000000000000000815260040180806020018281038252602a815260200180616eda602a913960400191505060405180910390fd5b600f6000815480929190600101919050555060006123186040518060400160405280601181526020017f7365742061636365737320746f636b656e000000000000000000000000000000815250600360048111156122ff57fe5b87878787600a60029054906101000a900460ff166155c4565b905060405180606001604052806040518060400160405280601181526020017f7365742061636365737320746f636b656e00000000000000000000000000000081525081526020018781526020016000815250600d6000838152602001908152602001600020600082015181600001908051906020019061239a929190616a0b565b506020820151816001015560408201518160020155905050505050505050565b6000809054906101000a900473ffffffffffffffffffffffffffffffffffffffff1673ffffffffffffffffffffffffffffffffffffffff163373ffffffffffffffffffffffffffffffffffffffff161461245f576040517f08c379a0000000000000000000000000000000000000000000000000000000008152600401808060200182810382526021815260200180616eb96021913960400191505060405180910390fd5b61246a838383615a87565b505050565b6000806000806000806000806000612485616a8b565b60088b8154811061249257fe5b9060005260206000209060060201604051806101a0016040529081600082018054600181600116156101000203166002900480601f0160208091040260200160405190810160405280929190818152602001828054600181600116156101000203166002900480156125455780601f1061251a57610100808354040283529160200191612545565b820191906000526020600020905b81548152906001019060200180831161252857829003601f168201915b505050505081526020016001820160009054906101000a900463ffffffff1663ffffffff1663ffffffff1681526020016001820160049054906101000a900463ffffffff1663ffffffff1663ffffffff1681526020016001820160089054906101000a900463ffffffff1663ffffffff1663ffffffff16815260200160018201600c9054906101000a900473ffffffffffffffffffffffffffffffffffffffff1673ffffffffffffffffffffffffffffffffffffffff1673ffffffffffffffffffffffffffffffffffffffff168152602001600282018054600181600116156101000203166002900480601f0160208091040260200160405190810160405280929190818152602001828054600181600116156101000203166002900480156126af5780601f10612684576101008083540402835291602001916126af565b820191906000526020600020905b81548152906001019060200180831161269257829003601f168201915b50505050508152602001600382018054600181600116156101000203166002900480601f0160208091040260200160405190810160405280929190818152602001828054600181600116156101000203166002900480156127515780601f1061272657610100808354040283529160200191612751565b820191906000526020600020905b81548152906001019060200180831161273457829003601f168201915b505050505081526020016004820160009054906101000a900463ffffffff1663ffffffff1663ffffffff1681526020016004820160049054906101000a900461ffff1661ffff1661ffff1681526020016004820160069054906101000a900461ffff1661ffff1661ffff1681526020016004820160089054906101000a900473ffffffffffffffffffffffffffffffffffffffff1673ffffffffffffffffffffffffffffffffffffffff1673ffffffffffffffffffffffffffffffffffffffff16815260200160048201601c9054906101000a900460ff1660ff1660ff168152602001600582015481525050905060008161012001518261010001510161ffff1690508161010001518261012001518360200151846101400151856040015163ffffffff1661287e615aa3565b10866060015163ffffffff16612892615aa3565b10158660648961010001510261ffff16816128a957fe5b048760648a61010001510261ffff16816128bf57fe5b0489610160015160ff168960648c61010001510261ffff16816128de57fe5b0410158861ffff1698508761ffff1697508663ffffffff1696509a509a509a509a509a509a509a509a509a5050509193959799909294969850565b612921615430565b612993576040517f08c379a000000000000000000000000000000000000000000000000000000000815260040180806020018281038252601f8152602001807f7468697320636f6e747261637420697320696e20636f6e666967206d6f64650081525060200191505060405180910390fd5b61299c33615487565b6129f1576040517f08c379a000000000000000000000000000000000000000000000000000000000815260040180806020018281038252602a815260200180616eda602a913960400191505060405180910390fd5b6129f9616b42565b600e6000838152602001908152602001600020604051806060016040529081600082018054600181600116156101000203166002900480601f016020809104026020016040519081016040528092919081815260200182805460018160011615610100020316600290048015612ab05780601f10612a8557610100808354040283529160200191612ab0565b820191906000526020600020905b815481529060010190602001808311612a9357829003601f168201915b505050505081526020016001820160009054906101000a900460ff1660ff1660ff1681526020016002820154815250509050600081600001515111612b5d576040517f08c379a00000000000000000000000000000000000000000000000000000000081526004018080602001828103825260118152602001807f70726f7073616c206e6f7420666f756e6400000000000000000000000000000081525060200191505060405180910390fd5b6000816040015114612bd7576040517f08c379a000000000000000000000000000000000000000000000000000000000815260040180806020018281038252601c8152602001807f7468652070726f706f73616c206578656375746564206265666f72650000000081525060200191505060405180910390fd5b612be2826004615aab565b15612c7957612c786004805480602002602001604051908101604052809291908181526020018280548015612c6c57602002820191906000526020600020905b8160009054906101000a900473ffffffffffffffffffffffffffffffffffffffff1673ffffffffffffffffffffffffffffffffffffffff1681526020019060010190808311612c22575b50505050506001615523565b5b612c81615aa3565b600d6000848152602001908152602001600020600201819055505050565b612ca7615430565b612d19576040517f08c379a000000000000000000000000000000000000000000000000000000000815260040180806020018281038252601f8152602001807f7468697320636f6e747261637420697320696e20636f6e666967206d6f64650081525060200191505060405180910390fd5b612d2233615487565b612d77576040517f08c379a000000000000000000000000000000000000000000000000000000000815260040180806020018281038252602a815260200180616eda602a913960400191505060405180910390fd5b612d7f616b66565b600c6000838152602001908152602001600020604051806040016040529081600082018054600181600116156101000203166002900480601f016020809104026020016040519081016040528092919081815260200182805460018160011615610100020316600290048015612e365780601f10612e0b57610100808354040283529160200191612e36565b820191906000526020600020905b815481529060010190602001808311612e1957829003601f168201915b505050505081526020016001820154815250509050600081600001515111612ec6576040517f08c379a00000000000000000000000000000000000000000000000000000000081526004018080602001828103825260118152602001807f70726f7073616c206e6f7420666f756e6400000000000000000000000000000081525060200191505060405180910390fd5b6000816020015114612f40576040517f08c379a000000000000000000000000000000000000000000000000000000000815260040180806020018281038252601c8152602001807f7468652070726f706f73616c206578656375746564206265666f72650000000081525060200191505060405180910390fd5b612f4b826001615aab565b15612f5e57612f5d8160000151615c4d565b5b612f66615aa3565b600c6000848152602001908152602001600020600101819055505050565b60025481565b612f92615430565b613004576040517f08c379a000000000000000000000000000000000000000000000000000000000815260040180806020018281038252601f8152602001807f7468697320636f6e747261637420697320696e20636f6e666967206d6f64650081525060200191505060405180910390fd5b61300d33615487565b613062576040517f08c379a000000000000000000000000000000000000000000000000000000000815260040180806020018281038252602a815260200180616eda602a913960400191505060405180910390fd5b61306a616a8b565b6008838154811061307757fe5b9060005260206000209060060201604051806101a0016040529081600082018054600181600116156101000203166002900480601f01602080910402602001604051908101604052809291908181526020018280546001816001161561010002031660029004801561312a5780601f106130ff5761010080835404028352916020019161312a565b820191906000526020600020905b81548152906001019060200180831161310d57829003601f168201915b505050505081526020016001820160009054906101000a900463ffffffff1663ffffffff1663ffffffff1681526020016001820160049054906101000a900463ffffffff1663ffffffff1663ffffffff1681526020016001820160089054906101000a900463ffffffff1663ffffffff1663ffffffff16815260200160018201600c9054906101000a900473ffffffffffffffffffffffffffffffffffffffff1673ffffffffffffffffffffffffffffffffffffffff1673ffffffffffffffffffffffffffffffffffffffff168152602001600282018054600181600116156101000203166002900480601f0160208091040260200160405190810160405280929190818152602001828054600181600116156101000203166002900480156132945780601f1061326957610100808354040283529160200191613294565b820191906000526020600020905b81548152906001019060200180831161327757829003601f168201915b50505050508152602001600382018054600181600116156101000203166002900480601f0160208091040260200160405190810160405280929190818152602001828054600181600116156101000203166002900480156133365780601f1061330b57610100808354040283529160200191613336565b820191906000526020600020905b81548152906001019060200180831161331957829003601f168201915b505050505081526020016004820160009054906101000a900463ffffffff1663ffffffff1663ffffffff1681526020016004820160049054906101000a900461ffff1661ffff1661ffff1681526020016004820160069054906101000a900461ffff1661ffff1661ffff1681526020016004820160089054906101000a900473ffffffffffffffffffffffffffffffffffffffff1673ffffffffffffffffffffffffffffffffffffffff1673ffffffffffffffffffffffffffffffffffffffff16815260200160048201601c9054906101000a900460ff1660ff1660ff1681526020016005820154815250509050600073ffffffffffffffffffffffffffffffffffffffff16816080015173ffffffffffffffffffffffffffffffffffffffff1614156134cb576040517f08c379a00000000000000000000000000000000000000000000000000000000081526004018080602001828103825260128152602001807f70726f706f73616c206e6f7420666f756e64000000000000000000000000000081525060200191505060405180910390fd5b6134d3615aa3565b816040015163ffffffff1610613551576040517f08c379a00000000000000000000000000000000000000000000000000000000081526004018080602001828103825260158152602001807f766f74696e67206973206e6f742073746172746564000000000000000000000081525060200191505060405180910390fd5b613559615aa3565b816060015163ffffffff16116135d7576040517f08c379a00000000000000000000000000000000000000000000000000000000081526004018080602001828103825260138152602001807f766f74696e67207761732066696e69736865640000000000000000000000000081525060200191505060405180910390fd5b60006009600085815260200190815260200160002060003373ffffffffffffffffffffffffffffffffffffffff1673ffffffffffffffffffffffffffffffffffffffff16815260200190815260200160002060009054906101000a900460000b60000b146136ad576040517f08c379a000000000000000000000000000000000000000000000000000000000815260040180806020018281038252601a8152602001807f796f757220766f74652072656769737465726564206c6174657200000000000081525060200191505060405180910390fd5b60008260000b141561370a576040517f08c379a000000000000000000000000000000000000000000000000000000000815260040180806020018281038252602a815260200180616e30602a913960400191505060405180910390fd5b60008260000b13156137d55760016009600085815260200190815260200160002060003373ffffffffffffffffffffffffffffffffffffffff1673ffffffffffffffffffffffffffffffffffffffff16815260200190815260200160002060006101000a81548160ff021916908360000b60ff16021790555060016008848154811061379257fe5b906000526020600020906006020160040160048282829054906101000a900461ffff160192506101000a81548161ffff021916908361ffff1602179055506138af565b7fffffffffffffffffffffffffffffffffffffffffffffffffffffffffffffffff6009600085815260200190815260200160002060003373ffffffffffffffffffffffffffffffffffffffff1673ffffffffffffffffffffffffffffffffffffffff16815260200190815260200160002060006101000a81548160ff021916908360000b60ff16021790555060016008848154811061387057fe5b906000526020600020906006020160040160068282829054906101000a900461ffff160192506101000a81548161ffff021916908361ffff1602179055505b505050565b600481815481106138c157fe5b906000526020600020016000915054906101000a900473ffffffffffffffffffffffffffffffffffffffff1681565b600f5481565b6138fe615430565b613970576040517f08c379a000000000000000000000000000000000000000000000000000000000815260040180806020018281038252601f8152602001807f7468697320636f6e747261637420697320696e20636f6e666967206d6f64650081525060200191505060405180910390fd5b61397933615487565b6139ce576040517f08c379a000000000000000000000000000000000000000000000000000000000815260040180806020018281038252602a815260200180616eda602a913960400191505060405180910390fd5b600180600360003373ffffffffffffffffffffffffffffffffffffffff1673ffffffffffffffffffffffffffffffffffffffff168152602001908152602001600020541015613a85576040517f08c379a00000000000000000000000000000000000000000000000000000000081526004018080602001828103825260198152602001807f796f752068617665206e6f7420656e6f75676820746f6b656e0000000000000081525060200191505060405180910390fd5b3073ffffffffffffffffffffffffffffffffffffffff168373ffffffffffffffffffffffffffffffffffffffff161415613b0a576040517f08c379a0000000000000000000000000000000000000000000000000000000008152600401808060200182810382526038815260200180616e5a6038913960400191505060405180910390fd5b6008604051806101a001604052808b81526020018a63ffffffff1681526020018963ffffffff1681526020018863ffffffff1681526020013373ffffffffffffffffffffffffffffffffffffffff168152602001878152602001868152602001613b72615aa3565b63ffffffff168152602001600061ffff168152602001600061ffff1681526020018573ffffffffffffffffffffffffffffffffffffffff1681526020018460ff1681526020016000815250908060018154018082558091505090600182039060005260206000209060060201600090919290919091506000820151816000019080519060200190613c04929190616a0b565b5060208201518160010160006101000a81548163ffffffff021916908363ffffffff16021790555060408201518160010160046101000a81548163ffffffff021916908363ffffffff16021790555060608201518160010160086101000a81548163ffffffff021916908363ffffffff160217905550608082015181600101600c6101000a81548173ffffffffffffffffffffffffffffffffffffffff021916908373ffffffffffffffffffffffffffffffffffffffff16021790555060a0820151816002019080519060200190613cdd929190616a0b565b5060c0820151816003019080519060200190613cfa929190616a0b565b5060e08201518160040160006101000a81548163ffffffff021916908363ffffffff1602179055506101008201518160040160046101000a81548161ffff021916908361ffff1602179055506101208201518160040160066101000a81548161ffff021916908361ffff1602179055506101408201518160040160086101000a81548173ffffffffffffffffffffffffffffffffffffffff021916908373ffffffffffffffffffffffffffffffffffffffff16021790555061016082015181600401601c6101000a81548160ff021916908360ff160217905550610180820151816005015550505080600360003373ffffffffffffffffffffffffffffffffffffffff1673ffffffffffffffffffffffffffffffffffffffff16815260200190815260200160002060008282540392505081905550505050505050505050565b600a60049054906101000a900460ff1681565b60036020528060005260406000206000915090505481565b6000809054906101000a900473ffffffffffffffffffffffffffffffffffffffff1673ffffffffffffffffffffffffffffffffffffffff163373ffffffffffffffffffffffffffffffffffffffff1614613f0a576040517f08c379a0000000000000000000000000000000000000000000000000000000008152600401808060200182810382526021815260200180616eb96021913960400191505060405180910390fd5b6000809054906101000a900473ffffffffffffffffffffffffffffffffffffffff1673ffffffffffffffffffffffffffffffffffffffff167ff8df31144d9c2f0f6b59d69b8b98abd5459d07f2742c4df920b25aae33c6482060405160405180910390a260008060006101000a81548173ffffffffffffffffffffffffffffffffffffffff021916908373ffffffffffffffffffffffffffffffffffffffff160217905550565b600e602052806000526040600020600091509050806000018054600181600116156101000203166002900480601f01602080910402602001604051908101604052809291908181526020018280546001816001161561010002031660029004801561405d5780601f106140325761010080835404028352916020019161405d565b820191906000526020600020905b81548152906001019060200180831161404057829003601f168201915b5050505050908060010160009054906101000a900460ff16908060020154905083565b6000809054906101000a900473ffffffffffffffffffffffffffffffffffffffff1681565b6000600880549050905090565b6140ba615430565b61412c576040517f08c379a000000000000000000000000000000000000000000000000000000000815260040180806020018281038252601f8152602001807f7468697320636f6e747261637420697320696e20636f6e666967206d6f64650081525060200191505060405180910390fd5b61413533615487565b61418a576040517f08c379a000000000000000000000000000000000000000000000000000000000815260040180806020018281038252602a815260200180616eda602a913960400191505060405180910390fd5b600f6000815480929190600101919050555060006141fc6040518060400160405280600d81526020017f6368616e676520636f6e666967000000000000000000000000000000000000008152506004808111156141e357fe5b87878787600a60049054906101000a900460ff166155c4565b905060405180606001604052806040518060400160405280600d81526020017f6368616e676520636f6e6669670000000000000000000000000000000000000081525081526020018760ff1681526020016000815250600e60008381526020019081526020016000206000820151816000019080519060200190614281929190616a0b565b5060208201518160010160006101000a81548160ff021916908360ff16021790555060408201518160020155905050505050505050565b600b602052806000526040600020600091509050806000018054600181600116156101000203166002900480601f0160208091040260200160405190810160405280929190818152602001828054600181600116156101000203166002900480156143645780601f1061433957610100808354040283529160200191614364565b820191906000526020600020905b81548152906001019060200180831161434757829003601f168201915b505050505090806001018054600181600116156101000203166002900480601f0160208091040260200160405190810160405280929190818152602001828054600181600116156101000203166002900480156144025780601f106143d757610100808354040283529160200191614402565b820191906000526020600020905b8154815290600101906020018083116143e557829003601f168201915b5050505050908060030154905083565b6007602052816000526040600020818154811061442b57fe5b906000526020600020016000915091509054906101000a900473ffffffffffffffffffffffffffffffffffffffff1681565b614465615430565b6144d7576040517f08c379a000000000000000000000000000000000000000000000000000000000815260040180806020018281038252601f8152602001807f7468697320636f6e747261637420697320696e20636f6e666967206d6f64650081525060200191505060405180910390fd5b6144e033615487565b614535576040517f08c379a000000000000000000000000000000000000000000000000000000000815260040180806020018281038252602a815260200180616eda602a913960400191505060405180910390fd5b61453d616b80565b600d6000838152602001908152602001600020604051806060016040529081600082018054600181600116156101000203166002900480601f0160208091040260200160405190810160405280929190818152602001828054600181600116156101000203166002900480156145f45780601f106145c9576101008083540402835291602001916145f4565b820191906000526020600020905b8154815290600101906020018083116145d757829003601f168201915b5050505050815260200160018201548152602001600282015481525050905060008160000151511161468e576040517f08c379a00000000000000000000000000000000000000000000000000000000081526004018080602001828103825260118152602001807f70726f7073616c206e6f7420666f756e6400000000000000000000000000000081525060200191505060405180910390fd5b6000816040015114614708576040517f08c379a000000000000000000000000000000000000000000000000000000000815260040180806020018281038252601c8152602001807f7468652070726f706f73616c206578656375746564206265666f72650000000081525060200191505060405180910390fd5b614713826003615aab565b156147aa576147a9600480548060200260200160405190810160405280929190818152602001828054801561479d57602002820191906000526020600020905b8160009054906101000a900473ffffffffffffffffffffffffffffffffffffffff1673ffffffffffffffffffffffffffffffffffffffff1681526020019060010190808311614753575b50505050506001615523565b5b6147b2615aa3565b600d6000848152602001908152602001600020600201819055505050565b6147d8615430565b61484a576040517f08c379a000000000000000000000000000000000000000000000000000000000815260040180806020018281038252601f8152602001807f7468697320636f6e747261637420697320696e20636f6e666967206d6f64650081525060200191505060405180910390fd5b61485333615487565b6148a8576040517f08c379a000000000000000000000000000000000000000000000000000000000815260040180806020018281038252602a815260200180616eda602a913960400191505060405180910390fd5b600087511161491f576040517f08c379a00000000000000000000000000000000000000000000000000000000081526004018080602001828103825260168152602001807f73656c656374206e616d6520666f7220616e63686f720000000000000000000081525060200191505060405180910390fd5b600f6000815480929190600101919050555060006149926040518060400160405280600a81526020017f61646420616e63686f72000000000000000000000000000000000000000000008152506000600481111561497957fe5b87878787600a60009054906101000a900460ff166155c4565b905060405180608001604052808981526020018881526020018781526020016000815250600b600083815260200190815260200160002060008201518160000190805190602001906149e5929190616a0b565b506020820151816001019080519060200190614a02929190616a0b565b506040820151816002019080519060200190614a1f929190616ba1565b50606082015181600301559050505050505050505050565b600a60019054906101000a900460ff1681565b614a52615430565b614ac4576040517f08c379a000000000000000000000000000000000000000000000000000000000815260040180806020018281038252601f8152602001807f7468697320636f6e747261637420697320696e20636f6e666967206d6f64650081525060200191505060405180910390fd5b614acd33615487565b614b22576040517f08c379a000000000000000000000000000000000000000000000000000000000815260040180806020018281038252602a815260200180616eda602a913960400191505060405180910390fd5b614b2a616c2b565b600b6000838152602001908152602001600020604051806080016040529081600082018054600181600116156101000203166002900480601f016020809104026020016040519081016040528092919081815260200182805460018160011615610100020316600290048015614be15780601f10614bb657610100808354040283529160200191614be1565b820191906000526020600020905b815481529060010190602001808311614bc457829003601f168201915b50505050508152602001600182018054600181600116156101000203166002900480601f016020809104026020016040519081016040528092919081815260200182805460018160011615610100020316600290048015614c835780601f10614c5857610100808354040283529160200191614c83565b820191906000526020600020905b815481529060010190602001808311614c6657829003601f168201915b5050505050815260200160028201805480602002602001604051908101604052809291908181526020018280548015614d1157602002820191906000526020600020905b8160009054906101000a900473ffffffffffffffffffffffffffffffffffffffff1673ffffffffffffffffffffffffffffffffffffffff1681526020019060010190808311614cc7575b505050505081526020016003820154815250509050600081600001515111614da1576040517f08c379a00000000000000000000000000000000000000000000000000000000081526004018080602001828103825260118152602001807f70726f7073616c206e6f7420666f756e6400000000000000000000000000000081525060200191505060405180910390fd5b6000816060015114614e1b576040517f08c379a000000000000000000000000000000000000000000000000000000000815260040180806020018281038252601c8152602001807f7468652070726f706f73616c206578656375746564206265666f72650000000081525060200191505060405180910390fd5b614e26826000615aab565b15614e4357614e42816000015182602001518360400151615a87565b5b614e4b615aa3565b600b6000848152602001908152602001600020600301819055505050565b6060600080600080606080600080600080614e82616a8b565b60088d81548110614e8f57fe5b9060005260206000209060060201604051806101a0016040529081600082018054600181600116156101000203166002900480601f016020809104026020016040519081016040528092919081815260200182805460018160011615610100020316600290048015614f425780601f10614f1757610100808354040283529160200191614f42565b820191906000526020600020905b815481529060010190602001808311614f2557829003601f168201915b505050505081526020016001820160009054906101000a900463ffffffff1663ffffffff1663ffffffff1681526020016001820160049054906101000a900463ffffffff1663ffffffff1663ffffffff1681526020016001820160089054906101000a900463ffffffff1663ffffffff1663ffffffff16815260200160018201600c9054906101000a900473ffffffffffffffffffffffffffffffffffffffff1673ffffffffffffffffffffffffffffffffffffffff1673ffffffffffffffffffffffffffffffffffffffff168152602001600282018054600181600116156101000203166002900480601f0160208091040260200160405190810160405280929190818152602001828054600181600116156101000203166002900480156150ac5780601f10615081576101008083540402835291602001916150ac565b820191906000526020600020905b81548152906001019060200180831161508f57829003601f168201915b50505050508152602001600382018054600181600116156101000203166002900480601f01602080910402602001604051908101604052809291908181526020018280546001816001161561010002031660029004801561514e5780601f106151235761010080835404028352916020019161514e565b820191906000526020600020905b81548152906001019060200180831161513157829003601f168201915b505050505081526020016004820160009054906101000a900463ffffffff1663ffffffff1663ffffffff1681526020016004820160049054906101000a900461ffff1661ffff1661ffff1681526020016004820160069054906101000a900461ffff1661ffff1661ffff1681526020016004820160089054906101000a900473ffffffffffffffffffffffffffffffffffffffff1673ffffffffffffffffffffffffffffffffffffffff1673ffffffffffffffffffffffffffffffffffffffff16815260200160048201601c9054906101000a900460ff1660ff1660ff1681526020016005820154815250509050806000015181602001518260400151836060015184608001518560a001518660c001518760e001518861014001518961016001518a61018001518a9a508595508494509b509b509b509b509b509b509b509b509b509b509b505091939597999b90929496989a50565b60015481565b6000600680549050905090565b600a60039054906101000a900460ff1681565b6060600480548060200260200160405190810160405280929190818152602001828054801561534f57602002820191906000526020600020905b8160009054906101000a900473ffffffffffffffffffffffffffffffffffffffff1673ffffffffffffffffffffffffffffffffffffffff1681526020019060010190808311615305575b5050505050905090565b6000809054906101000a900473ffffffffffffffffffffffffffffffffffffffff1673ffffffffffffffffffffffffffffffffffffffff163373ffffffffffffffffffffffffffffffffffffffff16146153fe576040517f08c379a0000000000000000000000000000000000000000000000000000000008152600401808060200182810382526021815260200180616eb96021913960400191505060405180910390fd5b61540781615dc4565b50565b600a60029054906101000a900460ff1681565b600a60009054906101000a900460ff1681565b60008073ffffffffffffffffffffffffffffffffffffffff166000809054906101000a900473ffffffffffffffffffffffffffffffffffffffff1673ffffffffffffffffffffffffffffffffffffffff1614905090565b60008061551a600480548060200260200160405190810160405280929190818152602001828054801561550f57602002820191906000526020600020905b8160009054906101000a900473ffffffffffffffffffffffffffffffffffffffff1673ffffffffffffffffffffffffffffffffffffffff16815260200190600101908083116154c5575b505050505084615f25565b12159050919050565b6000600154118015615533575080155b156155a65760006301e1338060015401905061554d615aa3565b81106155a4576040517f08c379a0000000000000000000000000000000000000000000000000000000008152600401808060200182810382526024815260200180616f2e6024913960400191505060405180910390fd5b505b6155b28260025461601a565b6155ba615aa3565b6001819055505050565b60006155ce615430565b615640576040517f08c379a000000000000000000000000000000000000000000000000000000000815260040180806020018281038252601f8152602001807f7468697320636f6e747261637420697320696e20636f6e666967206d6f64650081525060200191505060405180910390fd5b61564933615487565b61569e576040517f08c379a000000000000000000000000000000000000000000000000000000000815260040180806020018281038252602a815260200180616eda602a913960400191505060405180910390fd5b600180600360003373ffffffffffffffffffffffffffffffffffffffff1673ffffffffffffffffffffffffffffffffffffffff168152602001908152602001600020541015615755576040517f08c379a00000000000000000000000000000000000000000000000000000000081526004018080602001828103825260198152602001807f796f752068617665206e6f7420656e6f75676820746f6b656e0000000000000081525060200191505060405180910390fd5b6008604051806101a001604052808b81526020018a63ffffffff1681526020018963ffffffff1681526020018863ffffffff1681526020013373ffffffffffffffffffffffffffffffffffffffff1681526020018781526020018681526020016157bd615aa3565b63ffffffff168152602001600061ffff168152602001600061ffff1681526020013073ffffffffffffffffffffffffffffffffffffffff1681526020018560ff168152602001600081525090806001815401808255809150509060018203906000526020600020906006020160009091929091909150600082015181600001908051906020019061584f929190616a0b565b5060208201518160010160006101000a81548163ffffffff021916908363ffffffff16021790555060408201518160010160046101000a81548163ffffffff021916908363ffffffff16021790555060608201518160010160086101000a81548163ffffffff021916908363ffffffff160217905550608082015181600101600c6101000a81548173ffffffffffffffffffffffffffffffffffffffff021916908373ffffffffffffffffffffffffffffffffffffffff16021790555060a0820151816002019080519060200190615928929190616a0b565b5060c0820151816003019080519060200190615945929190616a0b565b5060e08201518160040160006101000a81548163ffffffff021916908363ffffffff1602179055506101008201518160040160046101000a81548161ffff021916908361ffff1602179055506101208201518160040160066101000a81548161ffff021916908361ffff1602179055506101408201518160040160086101000a81548173ffffffffffffffffffffffffffffffffffffffff021916908373ffffffffffffffffffffffffffffffffffffffff16021790555061016082015181600401601c6101000a81548160ff021916908360ff16021790555061018082015181600501555050915080600360003373ffffffffffffffffffffffffffffffffffffffff1673ffffffffffffffffffffffffffffffffffffffff1681526020019081526020016000206000828254039250508190555050979650505050505050565b615a92838383616058565b615a9e8160025461601a565b505050565b600042905090565b6000806000806000615abc8761246f565b98505050965050955095505050856004811115615ad557fe5b8414615b49576040517f08c379a000000000000000000000000000000000000000000000000000000000815260040180806020018281038252600d8152602001807f74797065206d69736d617463680000000000000000000000000000000000000081525060200191505060405180910390fd5b3073ffffffffffffffffffffffffffffffffffffffff168373ffffffffffffffffffffffffffffffffffffffff1614615bcd576040517f08c379a0000000000000000000000000000000000000000000000000000000008152600401808060200182810382526027815260200180616e926027913960400191505060405180910390fd5b81615c40576040517f08c379a000000000000000000000000000000000000000000000000000000000815260040180806020018281038252601b8152602001807f7468652070726f7073616c206973206e6f742066696e6973686564000000000081525060200191505060405180910390fd5b8094505050505092915050565b6000615c588261620c565b905060006006805490501015615cd6576040517f08c379a00000000000000000000000000000000000000000000000000000000081526004018080602001828103825260118152602001807f616e63686f727320697320656d706c747900000000000000000000000000000081525060200191505060405180910390fd5b606060076000838152602001908152602001600020805480602002602001604051908101604052809291908181526020018280548015615d6b57602002820191906000526020600020905b8160009054906101000a900473ffffffffffffffffffffffffffffffffffffffff1673ffffffffffffffffffffffffffffffffffffffff1681526020019060010190808311615d21575b5050505050905060008090505b8151811015615dab57615d9e83838381518110615d9157fe5b60200260200101516162a1565b8080600101915050615d78565b50615dbf6006615dba846162d4565b616362565b505050565b600073ffffffffffffffffffffffffffffffffffffffff168173ffffffffffffffffffffffffffffffffffffffff161415615e67576040517f08c379a000000000000000000000000000000000000000000000000000000000815260040180806020018281038252601b8152602001807f6f776e6572206d7573742062652076616c69642061646472657373000000000081525060200191505060405180910390fd5b8073ffffffffffffffffffffffffffffffffffffffff166000809054906101000a900473ffffffffffffffffffffffffffffffffffffffff1673ffffffffffffffffffffffffffffffffffffffff167f8be0079c531659141344cd1fd0a4f28419497f9722a3daafe3b4186f6b6457e060405160405180910390a3806000806101000a81548173ffffffffffffffffffffffffffffffffffffffff021916908373ffffffffffffffffffffffffffffffffffffffff16021790555050565b60008073ffffffffffffffffffffffffffffffffffffffff168273ffffffffffffffffffffffffffffffffffffffff161415615f83577fffffffffffffffffffffffffffffffffffffffffffffffffffffffffffffffff9050616014565b60008090505b8351811015615fef578273ffffffffffffffffffffffffffffffffffffffff16848281518110615fb557fe5b602002602001015173ffffffffffffffffffffffffffffffffffffffff161415615fe25780915050616014565b8080600101915050615f89565b507fffffffffffffffffffffffffffffffffffffffffffffffffffffffffffffffff90505b92915050565b60008090505b82518110156160535761604683828151811061603857fe5b6020026020010151836164e8565b8080600101915050616020565b505050565b60006160638461620c565b905061606e81616530565b156160e1576040517f08c379a00000000000000000000000000000000000000000000000000000000081526004018080602001828103825260108152602001807f64756270696361746520616e63686f720000000000000000000000000000000081525060200191505060405180910390fd5b6005548251111561613d576040517f08c379a000000000000000000000000000000000000000000000000000000000815260040180806020018281038252602a815260200180616f04602a913960400191505060405180910390fd5b6006604051806060016040528083815260200186815260200185815250908060018154018082558091505090600182039060005260206000209060030201600090919290919091506000820151816000015560208201518160010190805190602001906161ab929190616a0b565b5060408201518160020190805190602001906161c8929190616a0b565b5050505060008090505b8251811015616205576161f8828483815181106161eb57fe5b6020026020010151616545565b80806001019150506161d2565b5050505050565b6000816040516020018080602001828103825283818151815260200191508051906020019080838360005b83811015616252578082015181840152602081019050616237565b50505050905090810190601f16801561627f5780820380516001836020036101000a031916815260200191505b5092505050604051602081830303815290604052805190602001209050919050565b6162aa826162d4565b506162c760076000848152602001908152602001600020826165c9565b6162d0816166e2565b5050565b6000806162e0836166f0565b90506000811215616359576040517f08c379a00000000000000000000000000000000000000000000000000000000081526004018080602001828103825260108152602001807f616e63686f72206e6f742065786973740000000000000000000000000000000081525060200191505060405180910390fd5b80915050919050565b60008280549050116163dc576040517f08c379a00000000000000000000000000000000000000000000000000000000081526004018080602001828103825260168152602001807f6164647265737320617272617920697320656d7074790000000000000000000081525060200191505060405180910390fd5b6001828054905003811461648357816001838054905003815481106163fd57fe5b906000526020600020906003020182828154811061641757fe5b90600052602060002090600302016000820154816000015560018201816001019080546001816001161561010002031660029004616456929190616c53565b506002820181600201908054600181600116156101000203166002900461647e929190616c53565b509050505b8160018380549050038154811061649657fe5b90600052602060002090600302016000808201600090556001820160006164bd9190616cda565b6002820160006164cd9190616cda565b5050818054809190600190036164e39190616d22565b505050565b80600360008473ffffffffffffffffffffffffffffffffffffffff1673ffffffffffffffffffffffffffffffffffffffff168152602001908152602001600020819055505050565b60008061653c836166f0565b12159050919050565b600760008381526020019081526020016000208190806001815401808255809150509060018203906000526020600020016000909192909190916101000a81548173ffffffffffffffffffffffffffffffffffffffff021916908373ffffffffffffffffffffffffffffffffffffffff160217905550506165c5816167b2565b5050565b600061665a8380548060200260200160405190810160405280929190818152602001828054801561664f57602002820191906000526020600020905b8160009054906101000a900473ffffffffffffffffffffffffffffffffffffffff1673ffffffffffffffffffffffffffffffffffffffff1681526020019060010190808311616605575b505050505083615f25565b905060008112156166d3576040517f08c379a00000000000000000000000000000000000000000000000000000000081526004018080602001828103825260118152602001807f61646472657373206e6f7420666f756e6400000000000000000000000000000081525060200191505060405180910390fd5b6166dd8382616897565b505050565b6166ed6004826165c9565b50565b600061670a6040518060200160405280600081525061620c565b821415616739577fffffffffffffffffffffffffffffffffffffffffffffffffffffffffffffffff90506167ad565b60008090505b60068054905081101561678857826006828154811061675a57fe5b906000526020600020906003020160000154141561677b57809150506167ad565b808060010191505061673f565b507fffffffffffffffffffffffffffffffffffffffffffffffffffffffffffffffff90505b919050565b6167bb33615487565b1561682e576040517f08c379a00000000000000000000000000000000000000000000000000000000081526004018080602001828103825260108152602001807f647562706963617465206d656d6265720000000000000000000000000000000081525060200191505060405180910390fd5b60048190806001815401808255809150509060018203906000526020600020016000909192909190916101000a81548173ffffffffffffffffffffffffffffffffffffffff021916908373ffffffffffffffffffffffffffffffffffffffff1602179055505050565b6000828054905011616911576040517f08c379a00000000000000000000000000000000000000000000000000000000081526004018080602001828103825260168152602001807f6164647265737320617272617920697320656d7074790000000000000000000081525060200191505060405180910390fd5b600182805490500381146169b2578160018380549050038154811061693257fe5b9060005260206000200160009054906101000a900473ffffffffffffffffffffffffffffffffffffffff1682828154811061696957fe5b9060005260206000200160006101000a81548173ffffffffffffffffffffffffffffffffffffffff021916908373ffffffffffffffffffffffffffffffffffffffff1602179055505b816001838054905003815481106169c557fe5b9060005260206000200160006101000a81549073ffffffffffffffffffffffffffffffffffffffff021916905581805480919060019003616a069190616d54565b505050565b828054600181600116156101000203166002900490600052602060002090601f016020900481019282601f10616a4c57805160ff1916838001178555616a7a565b82800160010185558215616a7a579182015b82811115616a79578251825591602001919060010190616a5e565b5b509050616a879190616d80565b5090565b604051806101a0016040528060608152602001600063ffffffff168152602001600063ffffffff168152602001600063ffffffff168152602001600073ffffffffffffffffffffffffffffffffffffffff1681526020016060815260200160608152602001600063ffffffff168152602001600061ffff168152602001600061ffff168152602001600073ffffffffffffffffffffffffffffffffffffffff168152602001600060ff168152602001600081525090565b604051806060016040528060608152602001600060ff168152602001600081525090565b604051806040016040528060608152602001600081525090565b60405180606001604052806060815260200160008152602001600081525090565b828054828255906000526020600020908101928215616c1a579160200282015b82811115616c195782518260006101000a81548173ffffffffffffffffffffffffffffffffffffffff021916908373ffffffffffffffffffffffffffffffffffffffff16021790555091602001919060010190616bc1565b5b509050616c279190616da5565b5090565b6040518060800160405280606081526020016060815260200160608152602001600081525090565b828054600181600116156101000203166002900490600052602060002090601f016020900481019282601f10616c8c5780548555616cc9565b82800160010185558215616cc957600052602060002091601f016020900482015b82811115616cc8578254825591600101919060010190616cad565b5b509050616cd69190616d80565b5090565b50805460018160011615610100020316600290046000825580601f10616d005750616d1f565b601f016020900490600052602060002090810190616d1e9190616d80565b5b50565b815481835581811115616d4f57600302816003028360005260206000209182019101616d4e9190616de8565b5b505050565b815481835581811115616d7b57818360005260206000209182019101616d7a9190616d80565b5b505050565b616da291905b80821115616d9e576000816000905550600101616d86565b5090565b90565b616de591905b80821115616de157600081816101000a81549073ffffffffffffffffffffffffffffffffffffffff021916905550600101616dab565b5090565b90565b616e2c91905b80821115616e2857600080820160009055600182016000616e0f9190616cda565b600282016000616e1f9190616cda565b50600301616dee565b5090565b9056fe796f75206d75737420736574207570206f7220646f776e20776974682031206f72202d312076616c75657573696e6720696e7465726e616c20636f6e747261637420666f722065787465726e616c2070726f706f73616c20697320696e76616c69647468652070726f7073616c206973206e6f7420616e20696e7465726e616c2070726f706f73616c6f6e6c79206f776e65722063616e2063616c6c20746869732066756e6374696f6e6f6e6c792076616c6964206d656d626572732063616e20646f2074686973207472616e73616374696f6e6d656d6265727320617265206d6f7265207468616e2076616c6964206d656d656265727320636f756e74796f75206d7573742072656e657720746f6b656e73206166746572206f6e652079656172a165627a7a7230582099b581d6946da7c6c762a797a04487a6070dc2bc7f1ee44ffc7b00c6567f37a90029",
  "source": "pragma solidity >=0.4.21 <0.6.0;\n\nimport \"./Voting.sol\";\nimport \"./Config.sol\";\n\ncontract KuknosDAO is Voting, Config {\n\n    enum ProposalTypes { AddAnchor, RemoveAnchor, ChangeAnchorMember, RenewAccessToken, ChangeConfig }\n\n    struct AddAnchorProposal {\n        string name;\n        string url;\n        address[] members;\n        uint executionTime;\n    }\n\n    struct RemoveAnchorProposal {\n        string name;\n        uint executionTime;\n    }\n\n    struct RenewAccessTockenProposal {\n        string name;\n        uint count;\n        uint executionTime;\n    }\n\n    struct ChangeConfigProposal {\n        string name;\n        uint8 value;\n        uint executionTime;\n    }\n\n    mapping ( uint => AddAnchorProposal ) public addAnchorProposals;\n\n    mapping ( uint => RemoveAnchorProposal ) public removeAnchorProposal;\n\n    mapping ( uint => RenewAccessTockenProposal ) public renewAccessTockenProposal;\n\n    mapping ( uint => ChangeConfigProposal ) public changeConfigProposal;\n\n    uint public internalProposalsCount = 0;\n\n    constructor(uint _voterTokensCount) public Voting(_voterTokensCount) {\n    }\n\n    function addNewAnchor(string memory _name, string memory _url, address[] memory _members) public onlyOwner {\n        addAnchorWithToken(_name, _url, _members);\n    }\n\n    function addAnchorWithToken(string memory _name, string memory _url, address[] memory _members) internal {\n        addAnchor(_name, _url, _members);\n        issueAccessToken(_members, accessTokensCount);\n    }\n\n    function contractIsActive() public view returns(bool) {\n        return contractHasNoOwener();\n    }\n\n\n    function checkProposalResult(uint _id, ProposalTypes pType) internal view returns(bool) {\n        (,,uint proposalType, address contractAddress,, bool isFinished,,,bool successFull) = getProposalStatus(_id);\n        require(proposalType == uint(pType), \"type mismatch\");\n        require(contractAddress == address(this), \"the propsal is not an internal proposal\");\n        require(isFinished,\"the propsal is not finished\");\n        return successFull;\n    }\n\n    // Add new Anchor Proposal\n    function registerAddAnchorProposal(\n      string memory _anchorName,\n      string memory _anchorUrl,\n      address[] memory _members,\n      uint32 _startDate,\n      uint32 _endDate,\n      string memory _url,\n      string memory _hashCode\n      ) public onlyMembers {\n          require(bytes(_anchorName).length > 0, \"select name for anchor\");\n          internalProposalsCount++;\n          uint id = registerInternalProposal(\n              \"add anchor\",\n              uint32(ProposalTypes.AddAnchor),\n              _startDate,\n              _endDate,\n              _url,\n              _hashCode,\n              addAnchorThreshold);\n          addAnchorProposals[id] = AddAnchorProposal(_anchorName, _anchorUrl, _members, 0);\n    }\n\n    function runAddAnchorProposal(uint _id) public onlyMembers {\n        AddAnchorProposal memory proposal = addAnchorProposals[_id];\n        require(bytes(proposal.name).length > 0, \"propsal not found\");\n        require(proposal.executionTime == 0, \"the proposal executed before\");\n        if (checkProposalResult(_id, ProposalTypes.AddAnchor)) {\n            addAnchorWithToken(proposal.name, proposal.url, proposal.members);\n        }\n        addAnchorProposals[_id].executionTime = getTime();\n    }\n\n    // Remove an anchor proposal\n    function registerRemoveAnchorProposal(\n      string memory _anchorName,\n      uint32 _startDate,\n      uint32 _endDate,\n      string memory _url,\n      string memory _hashCode\n      ) public onlyMembers {\n          require(bytes(_anchorName).length > 0, \"select name for anchor\");\n          internalProposalsCount++;\n          uint id = registerInternalProposal(\n              \"remove anchor\",\n              uint32(ProposalTypes.RemoveAnchor),\n              _startDate,\n              _endDate,\n              _url,\n              _hashCode,\n              removeAnchorThreshold);\n          removeAnchorProposal[id] = RemoveAnchorProposal(_anchorName, 0);\n    }\n\n    function runRemoveAnchorProposal(uint _id) public onlyMembers {\n        RemoveAnchorProposal memory proposal = removeAnchorProposal[_id];\n        require(bytes(proposal.name).length > 0, \"propsal not found\");\n        require(proposal.executionTime == 0, \"the proposal executed before\");\n        if (checkProposalResult(_id, ProposalTypes.RemoveAnchor)) {\n            deleteAnchor(proposal.name);\n        }\n        removeAnchorProposal[_id].executionTime = getTime();\n    }\n\n    // set AccessToken proposal\n    function registerSetAccessTokenProposal(\n      uint count,\n      uint32 _startDate,\n      uint32 _endDate,\n      string memory _url,\n      string memory _hashCode\n      ) public onlyMembers {\n          internalProposalsCount++;\n          uint id = registerInternalProposal(\n              \"set access tocken\",\n              uint32(ProposalTypes.RenewAccessToken),\n              _startDate,\n              _endDate,\n              _url,\n              _hashCode,\n              renewAccessTokenThreshold);\n          renewAccessTockenProposal[id] = RenewAccessTockenProposal(\"set access tocken\", count, 0);\n    }\n\n    function runSetAccessTockenProposal(uint _id) public onlyMembers {\n        RenewAccessTockenProposal memory proposal = renewAccessTockenProposal[_id];\n        require(bytes(proposal.name).length > 0, \"propsal not found\");\n        require(proposal.executionTime == 0, \"the proposal executed before\");\n        if (checkProposalResult(_id, ProposalTypes.RenewAccessToken)) {\n            renewToken(members, true);\n        }\n        renewAccessTockenProposal[_id].executionTime = getTime();\n    }\n\n\n    // set AccessToken proposal\n    function addChangeConfigProposal(\n      uint8 newValue,\n      uint32 _startDate,\n      uint32 _endDate,\n      string memory _url,\n      string memory _hashCode\n      ) public onlyMembers {\n          internalProposalsCount++;\n          uint id = registerInternalProposal(\n              \"change config\",\n              uint32(ProposalTypes.ChangeConfig),\n              _startDate,\n              _endDate,\n              _url,\n              _hashCode,\n              changeConfigThreshold);\n          changeConfigProposal[id] = ChangeConfigProposal(\"change config\", newValue, 0);\n    }\n\n    function runChangeConfigProposal(uint _id) public onlyMembers {\n        ChangeConfigProposal memory proposal = changeConfigProposal[_id];\n        require(bytes(proposal.name).length > 0, \"propsal not found\");\n        require(proposal.executionTime == 0, \"the proposal executed before\");\n        if (checkProposalResult(_id, ProposalTypes.ChangeConfig)) {\n            renewToken(members, true);\n        }\n        renewAccessTockenProposal[_id].executionTime = getTime();\n    }\n\n\n}",
  "sourcePath": "C:/Users/javad/projects/kuknus/kuknos-dao/contracts/KuknosDAO.sol",
  "compiler": {
    "name": "solc",
    "version": "0.5.8+commit.23d335f2.Emscripten.clang"
  },
  "schemaVersion": "3.0.11",
  "updatedAt": "2019-06-20T11:39:24.792Z",
  "devdoc": {
    "methods": {
      "renounceOwnership()": {
        "details": "Allows the current owner to relinquish control of the contract."
      },
      "transferOwnership(address)": {
        "details": "Allows the current owner to transfer control of the contract to a newOwner.",
        "params": {
          "_newOwner": "The address to transfer ownership to."
        }
      }
    }
  },
  "userdoc": {
    "methods": {
      "renounceOwnership()": {
        "notice": "Renouncing to ownership will leave the contract without an owner. It will not be possible to call the functions with the `onlyOwner` modifier anymore."
      }
    }
  }
}