{
  "contractName": "Members",
  "abi": [
    {
      "constant": true,
      "inputs": [
        {
          "name": "",
          "type": "uint256"
        }
      ],
      "name": "members",
      "outputs": [
        {
          "name": "",
          "type": "address"
        }
      ],
      "payable": false,
      "stateMutability": "view",
      "type": "function"
    },
    {
      "constant": true,
      "inputs": [],
      "name": "membersCount",
      "outputs": [
        {
          "name": "",
          "type": "uint256"
        }
      ],
      "payable": false,
      "stateMutability": "view",
      "type": "function"
    },
    {
      "constant": true,
      "inputs": [],
      "name": "membersList",
      "outputs": [
        {
          "name": "",
          "type": "address[]"
        }
      ],
      "payable": false,
      "stateMutability": "view",
      "type": "function"
    }
  ],
  "bytecode": "0x608060405234801561001057600080fd5b50610272806100206000396000f3fe608060405260043610610057576000357c0100000000000000000000000000000000000000000000000000000000900463ffffffff168063297f9af01461005c5780635daf08ca14610087578063dd5042f414610102575b600080fd5b34801561006857600080fd5b5061007161016e565b6040518082815260200191505060405180910390f35b34801561009357600080fd5b506100c0600480360360208110156100aa57600080fd5b810190808035906020019092919050505061017a565b604051808273ffffffffffffffffffffffffffffffffffffffff1673ffffffffffffffffffffffffffffffffffffffff16815260200191505060405180910390f35b34801561010e57600080fd5b506101176101b8565b6040518080602001828103825283818151815260200191508051906020019060200280838360005b8381101561015a57808201518184015260208101905061013f565b505050509050019250505060405180910390f35b60008080549050905090565b60008181548110151561018957fe5b906000526020600020016000915054906101000a900473ffffffffffffffffffffffffffffffffffffffff1681565b6060600080548060200260200160405190810160405280929190818152602001828054801561023c57602002820191906000526020600020905b8160009054906101000a900473ffffffffffffffffffffffffffffffffffffffff1673ffffffffffffffffffffffffffffffffffffffff16815260200190600101908083116101f2575b505050505090509056fea165627a7a72305820b5bfcfb390ae05c3036fec19dcb019aa9d190e370e5fc47710c7c2370e323fba0029",
  "source": "pragma solidity >=0.4.21 <0.6.0;\n\nimport \"./library/Utils.sol\";\n\ncontract Members {\n\n  address[] public members;\n\n  function addMember(address member) internal {\n      require(!inMembers(msg.sender),\"dubpicate member\");\n      members.push(member);\n  }\n\n  function deleteMember(address member) internal {\n      Utils.removeAddressFromArray(members, member);\n  }\n\n  function membersCount() public view returns (uint) {\n      return members.length;\n  }\n\n   function membersList() public view returns (address[] memory) {\n      return members;\n  }\n\n  function inMembers(address member) internal view returns (bool) {\n      return Utils.findIndex(members, member) >= 0;\n  }\n\n}",
  "sourcePath": "D:\\projects\\blockchain\\kuknos-dao\\contracts\\Members.sol",
  "compiler": {
    "name": "solc",
    "version": "0.5.0+commit.1d4f565a.Emscripten.clang"
  },
  "schemaVersion": "3.0.9",
  "updatedAt": "2019-06-15T10:47:01.520Z",
  "devdoc": {
    "methods": {}
  },
  "userdoc": {
    "methods": {}
  }
}