{
  "contractName": "Members",
  "abi": [
    {
      "constant": true,
      "inputs": [
        {
          "name": "",
          "type": "uint256"
        }
      ],
      "name": "members",
      "outputs": [
        {
          "name": "",
          "type": "address"
        }
      ],
      "payable": false,
      "stateMutability": "view",
      "type": "function"
    },
    {
      "inputs": [
        {
          "name": "_members",
          "type": "address[]"
        }
      ],
      "payable": false,
      "stateMutability": "nonpayable",
      "type": "constructor"
    },
    {
      "constant": true,
      "inputs": [],
      "name": "membersCount",
      "outputs": [
        {
          "name": "",
          "type": "uint256"
        }
      ],
      "payable": false,
      "stateMutability": "view",
      "type": "function"
    },
    {
      "constant": true,
      "inputs": [],
      "name": "membersList",
      "outputs": [
        {
          "name": "",
          "type": "address[]"
        }
      ],
      "payable": false,
      "stateMutability": "view",
      "type": "function"
    }
  ],
  "bytecode": "0x608060405234801561001057600080fd5b506040516103f13803806103f18339810180604052602081101561003357600080fd5b81019080805164010000000081111561004b57600080fd5b8281019050602081018481111561006157600080fd5b815185602082028301116401000000008211171561007e57600080fd5b5050929190505050806000908051906020019061009c9291906100a3565b5050610170565b82805482825590600052602060002090810192821561011c579160200282015b8281111561011b5782518260006101000a81548173ffffffffffffffffffffffffffffffffffffffff021916908373ffffffffffffffffffffffffffffffffffffffff160217905550916020019190600101906100c3565b5b509050610129919061012d565b5090565b61016d91905b8082111561016957600081816101000a81549073ffffffffffffffffffffffffffffffffffffffff021916905550600101610133565b5090565b90565b6102728061017f6000396000f3fe608060405260043610610057576000357c0100000000000000000000000000000000000000000000000000000000900463ffffffff168063297f9af01461005c5780635daf08ca14610087578063dd5042f414610102575b600080fd5b34801561006857600080fd5b5061007161016e565b6040518082815260200191505060405180910390f35b34801561009357600080fd5b506100c0600480360360208110156100aa57600080fd5b810190808035906020019092919050505061017a565b604051808273ffffffffffffffffffffffffffffffffffffffff1673ffffffffffffffffffffffffffffffffffffffff16815260200191505060405180910390f35b34801561010e57600080fd5b506101176101b8565b6040518080602001828103825283818151815260200191508051906020019060200280838360005b8381101561015a57808201518184015260208101905061013f565b505050509050019250505060405180910390f35b60008080549050905090565b60008181548110151561018957fe5b906000526020600020016000915054906101000a900473ffffffffffffffffffffffffffffffffffffffff1681565b6060600080548060200260200160405190810160405280929190818152602001828054801561023c57602002820191906000526020600020905b8160009054906101000a900473ffffffffffffffffffffffffffffffffffffffff1673ffffffffffffffffffffffffffffffffffffffff16815260200190600101908083116101f2575b505050505090509056fea165627a7a723058209b8d2a2c172af459966cd3777dabd0c102dc23d096f04aa3522c95a8c61cd3c90029",
  "source": "pragma solidity >=0.4.21 <0.6.0;\r\n\r\nimport \"./library/Utils.sol\";\r\n\r\ncontract Members {\r\n\r\n  address[] public members;\r\n\r\n  constructor(address[] memory _members) public {\r\n    members = _members;\r\n  }\r\n\r\n  modifier onlyMembers() {\r\n    require(inMembers(msg.sender),\"only valid members can do this transaction\");\r\n    _;\r\n  }\r\n\r\n  function addMember(address member) internal {\r\n      require(!inMembers(msg.sender),\"dubpicate member\");\r\n      members.push(member);\r\n  }\r\n\r\n  function deleteMember(address member) internal {\r\n      Utils.removeAddressFromArray(members, member);\r\n  }\r\n\r\n  function membersCount() public view returns (uint) {\r\n      return members.length;\r\n  }\r\n\r\n   function membersList() public view returns (address[] memory) {\r\n      return members;\r\n  }\r\n\r\n  function inMembers(address member) private view returns (bool) {\r\n      return Utils.findIndex(members, member) >= 0;\r\n  }\r\n\r\n}",
  "sourcePath": "D:\\projects\\blockchain\\kuknos-dao\\contracts\\Members.sol",
  "compiler": {
    "name": "solc",
    "version": "0.5.0+commit.1d4f565a.Emscripten.clang"
  },
  "schemaVersion": "3.0.9",
  "updatedAt": "2019-06-02T12:04:23.232Z",
  "devdoc": {
    "methods": {}
  },
  "userdoc": {
    "methods": {}
  }
}