{
  "contractName": "Members",
  "abi": [
    {
      "constant": true,
      "inputs": [
        {
          "name": "",
          "type": "uint256"
        }
      ],
      "name": "members",
      "outputs": [
        {
          "name": "",
          "type": "address"
        }
      ],
      "payable": false,
      "stateMutability": "view",
      "type": "function"
    },
    {
      "constant": true,
      "inputs": [],
      "name": "membersCount",
      "outputs": [
        {
          "name": "",
          "type": "uint256"
        }
      ],
      "payable": false,
      "stateMutability": "view",
      "type": "function"
    },
    {
      "constant": true,
      "inputs": [],
      "name": "membersList",
      "outputs": [
        {
          "name": "",
          "type": "address[]"
        }
      ],
      "payable": false,
      "stateMutability": "view",
      "type": "function"
    }
  ],
  "bytecode": "0x608060405234801561001057600080fd5b50610210806100206000396000f3fe6080604052600436106100565763ffffffff7c0100000000000000000000000000000000000000000000000000000000600035041663297f9af0811461005b5780635daf08ca14610082578063dd5042f4146100d5575b600080fd5b34801561006757600080fd5b5061007061013a565b60408051918252519081900360200190f35b34801561008e57600080fd5b506100ac600480360360208110156100a557600080fd5b5035610140565b6040805173ffffffffffffffffffffffffffffffffffffffff9092168252519081900360200190f35b3480156100e157600080fd5b506100ea610175565b60408051602080825283518183015283519192839290830191858101910280838360005b8381101561012657818101518382015260200161010e565b505050509050019250505060405180910390f35b60005490565b600080548290811061014e57fe5b60009182526020909120015473ffffffffffffffffffffffffffffffffffffffff16905081565b606060008054806020026020016040519081016040528092919081815260200182805480156101da57602002820191906000526020600020905b815473ffffffffffffffffffffffffffffffffffffffff1681526001909101906020018083116101af575b505050505090509056fea165627a7a72305820fffc419e58a12933be21aac88e34b35e2a60c67eef8b9865fdf857432d653cc00029",
  "source": "pragma solidity >=0.4.21 <0.6.0;\n\nimport \"./library/Utils.sol\";\n\ncontract Members {\n\n  address[] public members;\n\n  function addMember(address member) internal {\n      require(!inMembers(member),\"dubpicate member\");\n      members.push(member);\n  }\n\n  function deleteMember(address member) internal {\n      Utils.removeAddressFromArray(members, member);\n  }\n\n  function membersCount() public view returns (uint) {\n      return members.length;\n  }\n\n   function membersList() public view returns (address[] memory) {\n      return members;\n  }\n\n  function inMembers(address member) internal view returns (bool) {\n      return Utils.findIndex(members, member) >= 0;\n  }\n\n}",
  "sourcePath": "C:\\Users\\mkhalilian\\projects\\kuknos-dao\\contracts\\Members.sol",
  "compiler": {
    "name": "solc",
    "version": "0.5.0+commit.1d4f565a.Emscripten.clang"
  },
  "schemaVersion": "3.0.9",
  "updatedAt": "2019-06-23T11:27:53.729Z",
  "devdoc": {
    "methods": {}
  },
  "userdoc": {
    "methods": {}
  }
}