{
  "contractName": "Voting",
  "abi": [
    {
      "constant": true,
      "inputs": [],
      "name": "membersCount",
      "outputs": [
        {
          "name": "",
          "type": "uint256"
        }
      ],
      "payable": false,
      "stateMutability": "view",
      "type": "function"
    },
    {
      "constant": true,
      "inputs": [
        {
          "name": "",
          "type": "uint256"
        },
        {
          "name": "",
          "type": "address"
        }
      ],
      "name": "votesReceived",
      "outputs": [
        {
          "name": "vote",
          "type": "int8"
        },
        {
          "name": "description",
          "type": "string"
        }
      ],
      "payable": false,
      "stateMutability": "view",
      "type": "function"
    },
    {
      "constant": true,
      "inputs": [
        {
          "name": "",
          "type": "uint256"
        }
      ],
      "name": "anchors",
      "outputs": [
        {
          "name": "nameHash",
          "type": "bytes32"
        },
        {
          "name": "name",
          "type": "string"
        },
        {
          "name": "url",
          "type": "string"
        }
      ],
      "payable": false,
      "stateMutability": "view",
      "type": "function"
    },
    {
      "constant": true,
      "inputs": [],
      "name": "accessTokensCount",
      "outputs": [
        {
          "name": "",
          "type": "uint256"
        }
      ],
      "payable": false,
      "stateMutability": "view",
      "type": "function"
    },
    {
      "constant": true,
      "inputs": [
        {
          "name": "",
          "type": "uint256"
        }
      ],
      "name": "members",
      "outputs": [
        {
          "name": "",
          "type": "address"
        }
      ],
      "payable": false,
      "stateMutability": "view",
      "type": "function"
    },
    {
      "constant": true,
      "inputs": [
        {
          "name": "",
          "type": "address"
        }
      ],
      "name": "balanceOf",
      "outputs": [
        {
          "name": "",
          "type": "uint256"
        }
      ],
      "payable": false,
      "stateMutability": "view",
      "type": "function"
    },
    {
      "constant": false,
      "inputs": [],
      "name": "renounceOwnership",
      "outputs": [],
      "payable": false,
      "stateMutability": "nonpayable",
      "type": "function"
    },
    {
      "constant": true,
      "inputs": [],
      "name": "owner",
      "outputs": [
        {
          "name": "",
          "type": "address"
        }
      ],
      "payable": false,
      "stateMutability": "view",
      "type": "function"
    },
    {
      "constant": true,
      "inputs": [
        {
          "name": "",
          "type": "bytes32"
        },
        {
          "name": "",
          "type": "uint256"
        }
      ],
      "name": "anchorMembers",
      "outputs": [
        {
          "name": "",
          "type": "address"
        }
      ],
      "payable": false,
      "stateMutability": "view",
      "type": "function"
    },
    {
      "constant": true,
      "inputs": [],
      "name": "lastTokenIssueDate",
      "outputs": [
        {
          "name": "",
          "type": "uint256"
        }
      ],
      "payable": false,
      "stateMutability": "view",
      "type": "function"
    },
    {
      "constant": true,
      "inputs": [],
      "name": "getAnchorsCount",
      "outputs": [
        {
          "name": "",
          "type": "uint256"
        }
      ],
      "payable": false,
      "stateMutability": "view",
      "type": "function"
    },
    {
      "constant": true,
      "inputs": [],
      "name": "membersList",
      "outputs": [
        {
          "name": "",
          "type": "address[]"
        }
      ],
      "payable": false,
      "stateMutability": "view",
      "type": "function"
    },
    {
      "constant": false,
      "inputs": [
        {
          "name": "_newOwner",
          "type": "address"
        }
      ],
      "name": "transferOwnership",
      "outputs": [],
      "payable": false,
      "stateMutability": "nonpayable",
      "type": "function"
    },
    {
      "inputs": [
        {
          "name": "_voterTokensCount",
          "type": "uint256"
        }
      ],
      "payable": false,
      "stateMutability": "nonpayable",
      "type": "constructor"
    },
    {
      "anonymous": false,
      "inputs": [
        {
          "indexed": true,
          "name": "previousOwner",
          "type": "address"
        }
      ],
      "name": "OwnershipRenounced",
      "type": "event"
    },
    {
      "anonymous": false,
      "inputs": [
        {
          "indexed": true,
          "name": "previousOwner",
          "type": "address"
        },
        {
          "indexed": true,
          "name": "newOwner",
          "type": "address"
        }
      ],
      "name": "OwnershipTransferred",
      "type": "event"
    },
    {
      "constant": false,
      "inputs": [],
      "name": "renewYearTokens",
      "outputs": [],
      "payable": false,
      "stateMutability": "nonpayable",
      "type": "function"
    },
    {
      "constant": false,
      "inputs": [
        {
          "name": "_proposalIndex",
          "type": "uint256"
        },
        {
          "name": "_vote",
          "type": "int8"
        },
        {
          "name": "_description",
          "type": "string"
        }
      ],
      "name": "voteForProposal",
      "outputs": [],
      "payable": false,
      "stateMutability": "nonpayable",
      "type": "function"
    },
    {
      "constant": true,
      "inputs": [
        {
          "name": "index",
          "type": "uint256"
        }
      ],
      "name": "getProposal",
      "outputs": [
        {
          "name": "title",
          "type": "string"
        },
        {
          "name": "proposalType",
          "type": "uint32"
        },
        {
          "name": "registerDate",
          "type": "uint32"
        },
        {
          "name": "startDate",
          "type": "uint32"
        },
        {
          "name": "endDate",
          "type": "uint32"
        },
        {
          "name": "author",
          "type": "address"
        },
        {
          "name": "url",
          "type": "string"
        },
        {
          "name": "hashCode",
          "type": "string"
        },
        {
          "name": "contractAddress",
          "type": "address"
        },
        {
          "name": "threshold",
          "type": "uint8"
        }
      ],
      "payable": false,
      "stateMutability": "view",
      "type": "function"
    },
    {
      "constant": true,
      "inputs": [],
      "name": "getProposalsCount",
      "outputs": [
        {
          "name": "",
          "type": "uint256"
        }
      ],
      "payable": false,
      "stateMutability": "view",
      "type": "function"
    },
    {
      "constant": true,
      "inputs": [
        {
          "name": "index",
          "type": "uint256"
        }
      ],
      "name": "getProposalStatus",
      "outputs": [
        {
          "name": "id",
          "type": "uint256"
        },
        {
          "name": "up",
          "type": "uint16"
        },
        {
          "name": "down",
          "type": "uint16"
        },
        {
          "name": "proposalType",
          "type": "uint32"
        },
        {
          "name": "contractAddress",
          "type": "address"
        },
        {
          "name": "isNotStarted",
          "type": "bool"
        },
        {
          "name": "isExpired",
          "type": "bool"
        },
        {
          "name": "upPercentage",
          "type": "uint16"
        },
        {
          "name": "downPercentage",
          "type": "uint16"
        },
        {
          "name": "isSucceed",
          "type": "bool"
        }
      ],
      "payable": false,
      "stateMutability": "view",
      "type": "function"
    },
    {
      "constant": false,
      "inputs": [
        {
          "name": "id",
          "type": "uint256"
        },
        {
          "name": "title",
          "type": "string"
        },
        {
          "name": "proposalType",
          "type": "uint32"
        },
        {
          "name": "startDate",
          "type": "uint32"
        },
        {
          "name": "endDate",
          "type": "uint32"
        },
        {
          "name": "url",
          "type": "string"
        },
        {
          "name": "hashCode",
          "type": "string"
        },
        {
          "name": "contractAddress",
          "type": "address"
        },
        {
          "name": "threshold",
          "type": "uint8"
        }
      ],
      "name": "registerProposal",
      "outputs": [],
      "payable": false,
      "stateMutability": "nonpayable",
      "type": "function"
    }
  ],
  "bytecode": "0x60806040526032600255600260055534801561001a57600080fd5b50604051602080620027108339810180604052602081101561003b57600080fd5b505160008054600160a060020a031916331790558061006164010000000061006d810204565b60015560025550610071565b4290565b61268f80620000816000396000f3fe6080604052600436106100ec5763ffffffff60e060020a600035041662f18f5681146100f1578063297f9af01461010857806330c3464c1461012f57806333dd6bed14610328578063368b733e146103e6578063401853b7146104f557806355de8c7e146105895780635daf08ca1461059e57806370a08231146105e4578063715018a6146106175780638da5cb5b1461062c57806398e527d3146106415780639aedd3fd14610656578063a773693f14610718578063c7f758a814610748578063cededb3014610941578063d4c8ca9b14610956578063dd5042f41461096b578063f2fde38b146109d0575b600080fd5b3480156100fd57600080fd5b50610106610a03565b005b34801561011457600080fd5b5061011d610b4d565b60408051918252519081900360200190f35b34801561013b57600080fd5b50610106600480360361012081101561015357600080fd5b8135919081019060408101602082013564010000000081111561017557600080fd5b82018360208201111561018757600080fd5b803590602001918460018302840111640100000000831117156101a957600080fd5b91908080601f016020809104026020016040519081016040528093929190818152602001838380828437600092019190915250929563ffffffff853581169660208701358216966040810135909216955091935090915060808101906060013564010000000081111561021b57600080fd5b82018360208201111561022d57600080fd5b8035906020019184600183028401116401000000008311171561024f57600080fd5b91908080601f01602080910402602001604051908101604052809392919081815260200183838082843760009201919091525092959493602081019350359150506401000000008111156102a257600080fd5b8201836020820111156102b457600080fd5b803590602001918460018302840111640100000000831117156102d657600080fd5b91908080601f01602080910402602001604051908101604052809392919081815260200183838082843760009201919091525092955050508135600160a060020a03169250506020013560ff16610b54565b34801561033457600080fd5b506103616004803603604081101561034b57600080fd5b5080359060200135600160a060020a0316610fcb565b604051808360000b60000b815260200180602001828103825283818151815260200191508051906020019080838360005b838110156103aa578181015183820152602001610392565b50505050905090810190601f1680156103d75780820380516001836020036101000a031916815260200191505b50935050505060405180910390f35b3480156103f257600080fd5b506104106004803603602081101561040957600080fd5b5035611081565b604051808481526020018060200180602001838103835285818151815260200191508051906020019080838360005b8381101561045757818101518382015260200161043f565b50505050905090810190601f1680156104845780820380516001836020036101000a031916815260200191505b50838103825284518152845160209182019186019080838360005b838110156104b757818101518382015260200161049f565b50505050905090810190601f1680156104e45780820380516001836020036101000a031916815260200191505b509550505050505060405180910390f35b34801561050157600080fd5b5061051f6004803603602081101561051857600080fd5b50356111dd565b604080519a8b5261ffff998a1660208c01529789168a89015263ffffffff90961660608a0152600160a060020a03909416608089015291151560a0880152151560c0870152841660e086015290921661010084015290151561012083015251908190036101400190f35b34801561059557600080fd5b5061011d611575565b3480156105aa57600080fd5b506105c8600480360360208110156105c157600080fd5b503561157b565b60408051600160a060020a039092168252519081900360200190f35b3480156105f057600080fd5b5061011d6004803603602081101561060757600080fd5b5035600160a060020a03166115a3565b34801561062357600080fd5b506101066115b5565b34801561063857600080fd5b506105c8611692565b34801561064d57600080fd5b5061011d6116a1565b34801561066257600080fd5b506101066004803603606081101561067957600080fd5b813591602081013560000b918101906060810160408201356401000000008111156106a357600080fd5b8201836020820111156106b557600080fd5b803590602001918460018302840111640100000000831117156106d757600080fd5b91908080601f0160208091040260200160405190810160405280939291908181526020018383808284376000920191909152509295506116a7945050505050565b34801561072457600080fd5b506105c86004803603604081101561073b57600080fd5b5080359060200135611dd0565b34801561075457600080fd5b506107726004803603602081101561076b57600080fd5b5035611e07565b60405180806020018b63ffffffff1663ffffffff1681526020018a63ffffffff1663ffffffff1681526020018963ffffffff1663ffffffff1681526020018863ffffffff1663ffffffff16815260200187600160a060020a0316600160a060020a03168152602001806020018060200186600160a060020a0316600160a060020a031681526020018560ff1660ff16815260200184810384528e818151815260200191508051906020019080838360005b8381101561083b578181015183820152602001610823565b50505050905090810190601f1680156108685780820380516001836020036101000a031916815260200191505b5084810383528851815288516020918201918a019080838360005b8381101561089b578181015183820152602001610883565b50505050905090810190601f1680156108c85780820380516001836020036101000a031916815260200191505b50848103825287518152875160209182019189019080838360005b838110156108fb5781810151838201526020016108e3565b50505050905090810190601f1680156109285780820380516001836020036101000a031916815260200191505b509d505050505050505050505050505060405180910390f35b34801561094d57600080fd5b5061011d612188565b34801561096257600080fd5b5061011d61218e565b34801561097757600080fd5b50610980612194565b60408051602080825283518183015283519192839290830191858101910280838360005b838110156109bc5781810151838201526020016109a4565b505050509050019250505060405180910390f35b3480156109dc57600080fd5b50610106600480360360208110156109f357600080fd5b5035600160a060020a03166121f6565b610a0b61228a565b1515610a61576040805160e560020a62461bcd02815260206004820152601f60248201527f7468697320636f6e747261637420697320696e20636f6e666967206d6f646500604482015290519081900360640190fd5b610a6a3361229a565b1515610ae6576040805160e560020a62461bcd02815260206004820152602a60248201527f6f6e6c792076616c6964206d656d626572732063616e20646f2074686973207460448201527f72616e73616374696f6e00000000000000000000000000000000000000000000606482015290519081900360840190fd5b610b4b6004805480602002602001604051908101604052809291908181526020018280548015610b3f57602002820191906000526020600020905b8154600160a060020a03168152600190910190602001808311610b21575b50505050506000612309565b565b6004545b90565b610b5c61228a565b1515610bb2576040805160e560020a62461bcd02815260206004820152601f60248201527f7468697320636f6e747261637420697320696e20636f6e666967206d6f646500604482015290519081900360640190fd5b610bbb3361229a565b1515610c37576040805160e560020a62461bcd02815260206004820152602a60248201527f6f6e6c792076616c6964206d656d626572732063616e20646f2074686973207460448201527f72616e73616374696f6e00000000000000000000000000000000000000000000606482015290519081900360840190fd5b33600090815260036020526040902054600190811115610ca1576040805160e560020a62461bcd02815260206004820152601960248201527f796f752068617665206e6f7420656e6f75676820746f6b656e00000000000000604482015290519081900360640190fd5b600160a060020a038316301415610d28576040805160e560020a62461bcd02815260206004820152603860248201527f7573696e6720696e7465726e616c20636f6e747261637420666f72206578746560448201527f726e616c2070726f706f73616c20697320696e76616c69640000000000000000606482015290519081900360840190fd5b60086101a0604051908101604052808c81526020018b81526020018a63ffffffff1681526020018963ffffffff1681526020018863ffffffff16815260200133600160a060020a03168152602001878152602001868152602001610d8a6123c7565b63ffffffff1681526000602080830182905260408301829052600160a060020a038816606084015260ff8716608090930192909252835460018181018087559583529183902084516006909202019081558383015180519193610df29385019291019061255d565b5060408201516002820180546060850151608086015160a0870151600160a060020a03166c01000000000000000000000000026bffffffffffffffffffffffff63ffffffff92831668010000000000000000026bffffffff0000000000000000199484166401000000000267ffffffff00000000199490981663ffffffff1990961695909517929092169590951791909116919091171691909117905560c08201518051610eaa91600384019160209091019061255d565b5060e08201518051610ec691600484019160209091019061255d565b5061010082015160059190910180546101208401516101408501516101608601516101809096015163ffffffff1990931663ffffffff9095169490941765ffff00000000191664010000000061ffff928316021767ffff000000000000191666010000000000009190941602929092177fffffffff0000000000000000000000000000000000000000ffffffffffffffff1668010000000000000000600160a060020a0390941693909302929092177fffffff00ffffffffffffffffffffffffffffffffffffffffffffffffffffffff1660e060020a60ff90921691909102179055503360009081526003602052604090208054919091039055505050505050505050565b600960209081526000928352604080842082529183528183208054600180830180548651600261010094831615949094026000190190911692909204601f81018690048602830186019096528582529190950b94919391929091908301828280156110775780601f1061104c57610100808354040283529160200191611077565b820191906000526020600020905b81548152906001019060200180831161105a57829003601f168201915b5050505050905082565b600680548290811061108f57fe5b9060005260206000209060030201600091509050806000015490806001018054600181600116156101000203166002900480601f0160208091040260200160405190810160405280929190818152602001828054600181600116156101000203166002900480156111415780601f1061111657610100808354040283529160200191611141565b820191906000526020600020905b81548152906001019060200180831161112457829003601f168201915b50505060028085018054604080516020601f60001961010060018716150201909416959095049283018590048502810185019091528181529596959450909250908301828280156111d35780601f106111a8576101008083540402835291602001916111d3565b820191906000526020600020905b8154815290600101906020018083116111b657829003601f168201915b5050505050905083565b6000806000806000806000806000806111f46125db565b600880548d90811061120257fe5b90600052602060002090600602016101a0604051908101604052908160008201548152602001600182018054600181600116156101000203166002900480601f0160208091040260200160405190810160405280929190818152602001828054600181600116156101000203166002900480156112c05780601f10611295576101008083540402835291602001916112c0565b820191906000526020600020905b8154815290600101906020018083116112a357829003601f168201915b505050918352505060028281015463ffffffff8082166020808601919091526401000000008304821660408087019190915268010000000000000000840490921660608601526c01000000000000000000000000909204600160a060020a0316608085015260038501805482516101006001831615026000190190911694909404601f810184900484028501840190925281845260a090940193918301828280156113ac5780601f10611381576101008083540402835291602001916113ac565b820191906000526020600020905b81548152906001019060200180831161138f57829003601f168201915b505050918352505060048201805460408051602060026001851615610100026000190190941693909304601f81018490048402820184019092528181529382019392918301828280156114405780601f1061141557610100808354040283529160200191611440565b820191906000526020600020905b81548152906001019060200180831161142357829003601f168201915b50505091835250506005919091015463ffffffff8082166020840152640100000000820461ffff908116604080860191909152660100000000000084048216606080870191909152680100000000000000008504600160a060020a0316608087015260e060020a90940460ff1660a090950194909452610140850151610120860151865195870151610160880151958801519798508183019093169690949193166114e96123c7565b10876080015163ffffffff166114fd6123c7565b10158789610120015160640261ffff1681151561151657fe5b04888a610140015160640261ffff1681151561152e57fe5b048a610180015160ff168a8c610120015160640261ffff1681151561154f57fe5b0410159b509b509b509b509b509b509b509b509b509b5050509193959799509193959799565b60025481565b600480548290811061158957fe5b600091825260209091200154600160a060020a0316905081565b60036020526000908152604090205481565b600054600160a060020a0316331461163d576040805160e560020a62461bcd02815260206004820152602160248201527f6f6e6c79206f776e65722063616e2063616c6c20746869732066756e6374696f60448201527f6e00000000000000000000000000000000000000000000000000000000000000606482015290519081900360840190fd5b60008054604051600160a060020a03909116917ff8df31144d9c2f0f6b59d69b8b98abd5459d07f2742c4df920b25aae33c6482091a26000805473ffffffffffffffffffffffffffffffffffffffff19169055565b600054600160a060020a031681565b60085490565b6116af61228a565b1515611705576040805160e560020a62461bcd02815260206004820152601f60248201527f7468697320636f6e747261637420697320696e20636f6e666967206d6f646500604482015290519081900360640190fd5b61170e3361229a565b151561178a576040805160e560020a62461bcd02815260206004820152602a60248201527f6f6e6c792076616c6964206d656d626572732063616e20646f2074686973207460448201527f72616e73616374696f6e00000000000000000000000000000000000000000000606482015290519081900360840190fd5b6117926125db565b60088054859081106117a057fe5b90600052602060002090600602016101a0604051908101604052908160008201548152602001600182018054600181600116156101000203166002900480601f01602080910402602001604051908101604052809291908181526020018280546001816001161561010002031660029004801561185e5780601f106118335761010080835404028352916020019161185e565b820191906000526020600020905b81548152906001019060200180831161184157829003601f168201915b505050918352505060028281015463ffffffff8082166020808601919091526401000000008304821660408087019190915268010000000000000000840490921660608601526c01000000000000000000000000909204600160a060020a0316608085015260038501805482516101006001831615026000190190911694909404601f810184900484028501840190925281845260a0909401939183018282801561194a5780601f1061191f5761010080835404028352916020019161194a565b820191906000526020600020905b81548152906001019060200180831161192d57829003601f168201915b505050918352505060048201805460408051602060026001851615610100026000190190941693909304601f81018490048402820184019092528181529382019392918301828280156119de5780601f106119b3576101008083540402835291602001916119de565b820191906000526020600020905b8154815290600101906020018083116119c157829003601f168201915b50505091835250506005919091015463ffffffff81166020830152640100000000810461ffff908116604084015266010000000000008204166060830152680100000000000000008104600160a060020a03908116608084015260e060020a90910460ff1660a09283015290820151919250161515611aa7576040805160e560020a62461bcd02815260206004820152601260248201527f70726f706f73616c206e6f7420666f756e640000000000000000000000000000604482015290519081900360640190fd5b611aaf6123c7565b606082015163ffffffff1610611b0f576040805160e560020a62461bcd02815260206004820152601560248201527f766f74696e67206973206e6f7420737461727465640000000000000000000000604482015290519081900360640190fd5b611b176123c7565b608082015163ffffffff1611611b77576040805160e560020a62461bcd02815260206004820152601360248201527f766f74696e67207761732066696e697368656400000000000000000000000000604482015290519081900360640190fd5b6000848152600960209081526040808320338452909152812054810b900b15611bea576040805160e560020a62461bcd02815260206004820152601a60248201527f796f757220766f74652072656769737465726564206c61746572000000000000604482015290519081900360640190fd5b600083900b1515611c6b576040805160e560020a62461bcd02815260206004820152602a60248201527f796f75206d75737420736574207570206f7220646f776e20776974682031206f60448201527f72202d312076616c756500000000000000000000000000000000000000000000606482015290519081900360840190fd5b60008360000b1315611d215760408051808201825260018082526020808301868152600089815260098352858120338252835294852084518154960b60ff1660ff19909616959095178555518051939493611ccd93850192919091019061255d565b5050600880546001925086908110611ce157fe5b60009182526020909120600560069092020101805461ffff64010000000080830482169094011690920265ffff0000000019909216919091179055611dca565b60408051808201825260001981526020808201858152600088815260098352848120338252835293842083518154950b60ff1660ff19909516949094178455518051929392611d76926001850192019061255d565b5050600880546001925086908110611d8a57fe5b60009182526020909120600560069092020101805461ffff660100000000000080830482169094011690920267ffff000000000000199092169190911790555b50505050565b600760205281600052604060002081815481101515611deb57fe5b600091825260209091200154600160a060020a03169150829050565b60606000806000806000606080600080611e1f6125db565b600880548d908110611e2d57fe5b90600052602060002090600602016101a0604051908101604052908160008201548152602001600182018054600181600116156101000203166002900480601f016020809104026020016040519081016040528092919081815260200182805460018160011615610100020316600290048015611eeb5780601f10611ec057610100808354040283529160200191611eeb565b820191906000526020600020905b815481529060010190602001808311611ece57829003601f168201915b505050918352505060028281015463ffffffff8082166020808601919091526401000000008304821660408087019190915268010000000000000000840490921660608601526c01000000000000000000000000909204600160a060020a0316608085015260038501805482516101006001831615026000190190911694909404601f810184900484028501840190925281845260a09094019391830182828015611fd75780601f10611fac57610100808354040283529160200191611fd7565b820191906000526020600020905b815481529060010190602001808311611fba57829003601f168201915b505050918352505060048201805460408051602060026001851615610100026000190190941693909304601f810184900484028201840190925281815293820193929183018282801561206b5780601f106120405761010080835404028352916020019161206b565b820191906000526020600020905b81548152906001019060200180831161204e57829003601f168201915b505050505081526020016005820160009054906101000a900463ffffffff1663ffffffff1663ffffffff1681526020016005820160049054906101000a900461ffff1661ffff1661ffff1681526020016005820160069054906101000a900461ffff1661ffff1661ffff1681526020016005820160089054906101000a9004600160a060020a0316600160a060020a0316600160a060020a0316815260200160058201601c9054906101000a900460ff1660ff1660ff1681525050905080602001518160400151826101000151836060015184608001518560a001518660c001518760e001518861016001518961018001518999508393508292509a509a509a509a509a509a509a509a509a509a50509193959799509193959799565b60015481565b60065490565b606060048054806020026020016040519081016040528092919081815260200182805480156121ec57602002820191906000526020600020905b8154600160a060020a031681526001909101906020018083116121ce575b5050505050905090565b600054600160a060020a0316331461227e576040805160e560020a62461bcd02815260206004820152602160248201527f6f6e6c79206f776e65722063616e2063616c6c20746869732066756e6374696f60448201527f6e00000000000000000000000000000000000000000000000000000000000000606482015290519081900360840190fd5b612287816123cb565b50565b600054600160a060020a03161590565b60008061230160048054806020026020016040519081016040528092919081815260200182805480156122f657602002820191906000526020600020905b8154600160a060020a031681526001909101906020018083116122d8575b505050505084612493565b121592915050565b6000600154118015612319575080155b156123ac576001546301e133800161232f6123c7565b81106123aa576040805160e560020a62461bcd028152602060048201526024808201527f796f75206d7573742072656e657720746f6b656e73206166746572206f6e652060448201527f7965617200000000000000000000000000000000000000000000000000000000606482015290519081900360840190fd5b505b6123b882600254612507565b6123c06123c7565b6001555050565b4290565b600160a060020a038116151561242b576040805160e560020a62461bcd02815260206004820152601b60248201527f6f776e6572206d7573742062652076616c696420616464726573730000000000604482015290519081900360640190fd5b60008054604051600160a060020a03808516939216917f8be0079c531659141344cd1fd0a4f28419497f9722a3daafe3b4186f6b6457e091a36000805473ffffffffffffffffffffffffffffffffffffffff1916600160a060020a0392909216919091179055565b6000600160a060020a03821615156124ae5750600019612501565b60005b83518110156124fa5782600160a060020a031684828151811015156124d257fe5b90602001906020020151600160a060020a031614156124f2579050612501565b6001016124b1565b5060001990505b92915050565b60005b825181101561253c57612534838281518110151561252457fe5b9060200190602002015183612541565b60010161250a565b505050565b600160a060020a03909116600090815260036020526040902055565b828054600181600116156101000203166002900490600052602060002090601f016020900481019282601f1061259e57805160ff19168380011785556125cb565b828001600101855582156125cb579182015b828111156125cb5782518255916020019190600101906125b0565b506125d7929150612649565b5090565b604080516101a08101825260008082526060602083018190529282018190528282018190526080820181905260a0820181905260c0820183905260e0820192909252610100810182905261012081018290526101408101829052610160810182905261018081019190915290565b610b5191905b808211156125d7576000815560010161264f56fea165627a7a723058209b2c83b5d49fcd1a09b2538cfca75f5616f834f7d449f0d51f198610f0aa9ba10029",
  "source": "pragma solidity >=0.4.21 <0.6.0;\n\nimport \"./Ownable.sol\";\nimport \"./AccessToken.sol\";\nimport \"./Anchors.sol\";\n\ncontract Voting is Ownable, AccessToken, Anchors {\n\n  struct Proposal {\n    uint id;\n    string title;\n    uint32 proposalType;\n    uint32 startDate;\n    uint32 endDate;\n    address author;\n    string url;\n    string hashCode;\n    uint32 registerDate;\n    uint16 up;\n    uint16 down;\n    address contractAddress;\n    uint8 threshold;\n  }\n\n  struct Vote {\n    int8 vote;\n    string description;\n  }\n\n  Proposal[] proposals;\n\n  mapping (uint => mapping(address => Vote)) public votesReceived;\n\n  constructor(uint _voterTokensCount) AccessToken(_voterTokensCount) public {\n  }\n\n  modifier onlyMembers() {\n    require(contractHasNoOwener(), \"this contract is in config mode\");\n    require(inMembers(msg.sender), \"only valid members can do this transaction\");\n    _;\n  }\n\n  function renewYearTokens() public onlyMembers  {\n    renewToken(members, false);\n  }\n\n  function voteForProposal(uint _proposalIndex, int8 _vote, string memory _description) public onlyMembers {\n    Proposal memory proposal = proposals[_proposalIndex];\n    require(proposal.author != address(0), \"proposal not found\");\n    require(proposal.startDate < getTime(), \"voting is not started\");\n    require(proposal.endDate > getTime(), \"voting was finished\");\n    require(votesReceived[_proposalIndex][msg.sender].vote == 0, \"your vote registered later\");\n    require(_vote != 0, \"you must set up or down with 1 or -1 value\");\n    if(_vote > 0) {\n      votesReceived[_proposalIndex][msg.sender] = Vote(1,_description);\n      proposals[_proposalIndex].up += 1;\n    } else {\n      votesReceived[_proposalIndex][msg.sender] = Vote(-1,_description);\n      proposals[_proposalIndex].down += 1;\n    }\n  }\n\n  function getProposal(uint index) public view returns (\n    string memory title,\n    uint32 proposalType,\n    uint32 registerDate,\n    uint32 startDate,\n    uint32 endDate,\n    address author,\n    string memory url,\n    string memory hashCode,\n    address contractAddress,\n    uint8 threshold\n    ) {\n    Proposal memory proposal = proposals[index];\n    return (\n        proposal.title,\n        proposal.proposalType,\n        proposal.registerDate,\n        proposal.startDate,\n        proposal.endDate,\n        proposal.author,\n        proposal.url,\n        proposal.hashCode,\n        proposal.contractAddress,\n        proposal.threshold\n    );\n  }\n\n  function getProposalsCount() public view returns (uint) {\n    return proposals.length;\n  }\n\n  function getProposalStatus(uint index) public view returns (\n    uint id ,\n    uint16 up,\n    uint16 down,\n    uint32 proposalType,\n    address contractAddress,\n    bool isNotStarted,\n    bool isExpired,\n    uint16 upPercentage,\n    uint16 downPercentage,\n    bool isSucceed ) {\n    Proposal memory proposal = proposals[index];\n    uint total = proposal.up + proposal.down;\n    return (\n      proposal.id,\n      proposal.up,\n      proposal.down,\n      proposal.proposalType,\n      proposal.contractAddress,\n      getTime() < proposal.startDate, // isNotStarted\n      getTime() >= proposal.endDate, // isExpired\n      uint16(proposal.up * 100 / total),\n      uint16(proposal.down * 100 / total),\n      (proposal.up * 100 / total) >= proposal.threshold\n    );\n  }\n\n  function registerProposal(\n    uint id,\n    string memory title,\n    uint32 proposalType,\n    uint32 startDate,\n    uint32 endDate,\n    string memory url,\n    string memory hashCode,\n    address contractAddress,\n    uint8 threshold\n    ) public onlyMembers useToken(1) {\n        require(contractAddress != address(this), \"using internal contract for external proposal is invalid\");\n        proposals.push(\n          Proposal(id, title, proposalType, startDate, endDate, msg.sender, url,hashCode, uint32(getTime()), 0, 0, contractAddress, threshold)\n        );\n  }\n\n  function registerInternalProposal(\n    uint id,\n    string memory title,\n    uint32 proposalType,\n    uint32 startDate,\n    uint32 endDate,\n    string memory url,\n    string memory hashCode,\n    uint8 threshold\n    ) internal onlyMembers useToken(1) returns (uint) {\n        return proposals.push(\n          Proposal(id, title, proposalType, startDate, endDate, msg.sender, url,hashCode, uint32(getTime()), 0, 0, address(this), threshold)\n        );\n  }\n}",
  "sourcePath": "C:\\Users\\mkhalilian\\projects\\kuknos-dao\\contracts\\Voting.sol",
  "compiler": {
    "name": "solc",
    "version": "0.5.0+commit.1d4f565a.Emscripten.clang"
  },
  "schemaVersion": "3.0.9",
  "updatedAt": "2019-06-23T11:35:14.993Z",
  "devdoc": {
    "methods": {
      "renounceOwnership()": {
        "details": "Allows the current owner to relinquish control of the contract."
      },
      "transferOwnership(address)": {
        "details": "Allows the current owner to transfer control of the contract to a newOwner.",
        "params": {
          "_newOwner": "The address to transfer ownership to."
        }
      }
    }
  },
  "userdoc": {
    "methods": {
      "renounceOwnership()": {
        "notice": "Renouncing to ownership will leave the contract without an owner. It will not be possible to call the functions with the `onlyOwner` modifier anymore."
      }
    }
  }
}