{
  "contractName": "Voting",
  "abi": [
    {
      "constant": true,
      "inputs": [
        {
          "name": "",
          "type": "uint256"
        },
        {
          "name": "",
          "type": "address"
        }
      ],
      "name": "votesReceived",
      "outputs": [
        {
          "name": "",
          "type": "int8"
        }
      ],
      "payable": false,
      "stateMutability": "view",
      "type": "function"
    },
    {
      "constant": true,
      "inputs": [],
      "name": "accessTokensCount",
      "outputs": [
        {
          "name": "",
          "type": "uint256"
        }
      ],
      "payable": false,
      "stateMutability": "view",
      "type": "function"
    },
    {
      "constant": true,
      "inputs": [
        {
          "name": "",
          "type": "address"
        }
      ],
      "name": "balanceOf",
      "outputs": [
        {
          "name": "",
          "type": "uint256"
        }
      ],
      "payable": false,
      "stateMutability": "view",
      "type": "function"
    },
    {
      "constant": false,
      "inputs": [],
      "name": "renounceOwnership",
      "outputs": [],
      "payable": false,
      "stateMutability": "nonpayable",
      "type": "function"
    },
    {
      "constant": true,
      "inputs": [],
      "name": "owner",
      "outputs": [
        {
          "name": "",
          "type": "address"
        }
      ],
      "payable": false,
      "stateMutability": "view",
      "type": "function"
    },
    {
      "constant": true,
      "inputs": [],
      "name": "lastTokenIssueDate",
      "outputs": [
        {
          "name": "",
          "type": "uint256"
        }
      ],
      "payable": false,
      "stateMutability": "view",
      "type": "function"
    },
    {
      "constant": true,
      "inputs": [
        {
          "name": "",
          "type": "uint256"
        }
      ],
      "name": "voters",
      "outputs": [
        {
          "name": "",
          "type": "address"
        }
      ],
      "payable": false,
      "stateMutability": "view",
      "type": "function"
    },
    {
      "constant": false,
      "inputs": [
        {
          "name": "_newOwner",
          "type": "address"
        }
      ],
      "name": "transferOwnership",
      "outputs": [],
      "payable": false,
      "stateMutability": "nonpayable",
      "type": "function"
    },
    {
      "inputs": [
        {
          "name": "_voters",
          "type": "address[]"
        },
        {
          "name": "_voterTokensCount",
          "type": "uint256"
        }
      ],
      "payable": false,
      "stateMutability": "nonpayable",
      "type": "constructor"
    },
    {
      "anonymous": false,
      "inputs": [
        {
          "indexed": false,
          "name": "title",
          "type": "string"
        },
        {
          "indexed": false,
          "name": "index",
          "type": "uint256"
        }
      ],
      "name": "newProposal",
      "type": "event"
    },
    {
      "anonymous": false,
      "inputs": [
        {
          "indexed": true,
          "name": "previousOwner",
          "type": "address"
        }
      ],
      "name": "OwnershipRenounced",
      "type": "event"
    },
    {
      "anonymous": false,
      "inputs": [
        {
          "indexed": true,
          "name": "previousOwner",
          "type": "address"
        },
        {
          "indexed": true,
          "name": "newOwner",
          "type": "address"
        }
      ],
      "name": "OwnershipTransferred",
      "type": "event"
    },
    {
      "constant": false,
      "inputs": [],
      "name": "renewYearTokens",
      "outputs": [],
      "payable": false,
      "stateMutability": "nonpayable",
      "type": "function"
    },
    {
      "constant": false,
      "inputs": [
        {
          "name": "_proposalIndex",
          "type": "uint256"
        },
        {
          "name": "_vote",
          "type": "int8"
        }
      ],
      "name": "voteForProposal",
      "outputs": [],
      "payable": false,
      "stateMutability": "nonpayable",
      "type": "function"
    },
    {
      "constant": true,
      "inputs": [],
      "name": "votersCount",
      "outputs": [
        {
          "name": "",
          "type": "uint256"
        }
      ],
      "payable": false,
      "stateMutability": "view",
      "type": "function"
    },
    {
      "constant": true,
      "inputs": [],
      "name": "getProposalsCount",
      "outputs": [
        {
          "name": "",
          "type": "uint256"
        }
      ],
      "payable": false,
      "stateMutability": "view",
      "type": "function"
    },
    {
      "constant": true,
      "inputs": [
        {
          "name": "index",
          "type": "uint256"
        }
      ],
      "name": "getProposal",
      "outputs": [
        {
          "name": "",
          "type": "string"
        },
        {
          "name": "",
          "type": "uint256"
        },
        {
          "name": "",
          "type": "uint256"
        },
        {
          "name": "",
          "type": "uint256"
        },
        {
          "name": "",
          "type": "address"
        },
        {
          "name": "",
          "type": "string"
        },
        {
          "name": "",
          "type": "string"
        },
        {
          "name": "",
          "type": "uint256"
        },
        {
          "name": "",
          "type": "uint256"
        },
        {
          "name": "",
          "type": "uint256"
        }
      ],
      "payable": false,
      "stateMutability": "view",
      "type": "function"
    },
    {
      "constant": true,
      "inputs": [],
      "name": "votersList",
      "outputs": [
        {
          "name": "",
          "type": "address[]"
        }
      ],
      "payable": false,
      "stateMutability": "view",
      "type": "function"
    },
    {
      "constant": false,
      "inputs": [
        {
          "name": "title",
          "type": "string"
        },
        {
          "name": "ProposalType",
          "type": "uint256"
        },
        {
          "name": "startDate",
          "type": "uint256"
        },
        {
          "name": "endDate",
          "type": "uint256"
        },
        {
          "name": "url",
          "type": "string"
        },
        {
          "name": "hashCode",
          "type": "string"
        }
      ],
      "name": "registerProposal",
      "outputs": [],
      "payable": false,
      "stateMutability": "nonpayable",
      "type": "function"
    }
  ],
  "bytecode": "0x60806040523480156200001157600080fd5b506040516200254b3803806200254b833981018060405260408110156200003757600080fd5b8101908080516401000000008111156200005057600080fd5b828101905060208101848111156200006757600080fd5b81518560208202830111640100000000821117156200008557600080fd5b50509291906020018051906020019092919050505080336000806101000a81548173ffffffffffffffffffffffffffffffffffffffff021916908373ffffffffffffffffffffffffffffffffffffffff16021790555080600281905550508160069080519060200190620000fb9291906200033d565b506200019e60068054806020026020016040519081016040528092919081815260200182805480156200018457602002820191906000526020600020905b8160009054906101000a900473ffffffffffffffffffffffffffffffffffffffff1673ffffffffffffffffffffffffffffffffffffffff168152602001906001019080831162000139575b5050505050620001a6640100000000026401000000009004565b505062000412565b60006001541115620002775760006301e13380600154019050620001d8620002b6640100000000026401000000009004565b8110151562000275576040517f08c379a00000000000000000000000000000000000000000000000000000000081526004018080602001828103825260248152602001807f796f75206d7573742072656e657720746f6b656e73206166746572206f6e652081526020017f796561720000000000000000000000000000000000000000000000000000000081525060400191505060405180910390fd5b505b6200029481600254620002be640100000000026401000000009004565b620002ad620002b6640100000000026401000000009004565b60018190555050565b600042905090565b60008090505b8251811015620003385781600360008584815181101515620002e257fe5b9060200190602002015173ffffffffffffffffffffffffffffffffffffffff1673ffffffffffffffffffffffffffffffffffffffff168152602001908152602001600020819055508080600101915050620002c4565b505050565b828054828255906000526020600020908101928215620003b9579160200282015b82811115620003b85782518260006101000a81548173ffffffffffffffffffffffffffffffffffffffff021916908373ffffffffffffffffffffffffffffffffffffffff160217905550916020019190600101906200035e565b5b509050620003c89190620003cc565b5090565b6200040f91905b808211156200040b57600081816101000a81549073ffffffffffffffffffffffffffffffffffffffff021916905550600101620003d3565b5090565b90565b61212980620004226000396000f3fe6080604052600436106100da576000357c0100000000000000000000000000000000000000000000000000000000900463ffffffff168062f18f56146100df57806333dd6bed146100f657806355de8c7e1461016b5780635ab09f591461019657806370a08231146101de578063711395dd14610243578063715018a6146104575780638da5cb5b1461046e57806398c07938146104c557806398e527d3146104f0578063c7f758a81461051b578063cc0e480c14610704578063cededb3014610770578063da58c7d91461079b578063f2fde38b14610816575b600080fd5b3480156100eb57600080fd5b506100f4610867565b005b34801561010257600080fd5b5061014f6004803603604081101561011957600080fd5b8101908080359060200190929190803573ffffffffffffffffffffffffffffffffffffffff16906020019092919050505061099b565b604051808260000b60000b815260200191505060405180910390f35b34801561017757600080fd5b506101806109ca565b6040518082815260200191505060405180910390f35b3480156101a257600080fd5b506101dc600480360360408110156101b957600080fd5b8101908080359060200190929190803560000b90602001909291905050506109d0565b005b3480156101ea57600080fd5b5061022d6004803603602081101561020157600080fd5b81019080803573ffffffffffffffffffffffffffffffffffffffff1690602001909291905050506111b4565b6040518082815260200191505060405180910390f35b34801561024f57600080fd5b50610455600480360360c081101561026657600080fd5b810190808035906020019064010000000081111561028357600080fd5b82018360208201111561029557600080fd5b803590602001918460018302840111640100000000831117156102b757600080fd5b91908080601f016020809104026020016040519081016040528093929190818152602001838380828437600081840152601f19601f8201169050808301925050505050505091929192908035906020019092919080359060200190929190803590602001909291908035906020019064010000000081111561033857600080fd5b82018360208201111561034a57600080fd5b8035906020019184600183028401116401000000008311171561036c57600080fd5b91908080601f016020809104026020016040519081016040528093929190818152602001838380828437600081840152601f19601f820116905080830192505050505050509192919290803590602001906401000000008111156103cf57600080fd5b8201836020820111156103e157600080fd5b8035906020019184600183028401116401000000008311171561040357600080fd5b91908080601f016020809104026020016040519081016040528093929190818152602001838380828437600081840152601f19601f8201169050808301925050505050505091929192905050506111cc565b005b34801561046357600080fd5b5061046c611598565b005b34801561047a57600080fd5b50610483611729565b604051808273ffffffffffffffffffffffffffffffffffffffff1673ffffffffffffffffffffffffffffffffffffffff16815260200191505060405180910390f35b3480156104d157600080fd5b506104da61174e565b6040518082815260200191505060405180910390f35b3480156104fc57600080fd5b5061050561175b565b6040518082815260200191505060405180910390f35b34801561052757600080fd5b506105546004803603602081101561053e57600080fd5b8101908080359060200190929190505050611768565b60405180806020018b81526020018a81526020018981526020018873ffffffffffffffffffffffffffffffffffffffff1673ffffffffffffffffffffffffffffffffffffffff168152602001806020018060200187815260200186815260200185815260200184810384528e818151815260200191508051906020019080838360005b838110156105f25780820151818401526020810190506105d7565b50505050905090810190601f16801561061f5780820380516001836020036101000a031916815260200191505b50848103835289818151815260200191508051906020019080838360005b8381101561065857808201518184015260208101905061063d565b50505050905090810190601f1680156106855780820380516001836020036101000a031916815260200191505b50848103825288818151815260200191508051906020019080838360005b838110156106be5780820151818401526020810190506106a3565b50505050905090810190601f1680156106eb5780820380516001836020036101000a031916815260200191505b509d505050505050505050505050505060405180910390f35b34801561071057600080fd5b50610719611a83565b6040518080602001828103825283818151815260200191508051906020019060200280838360005b8381101561075c578082015181840152602081019050610741565b505050509050019250505060405180910390f35b34801561077c57600080fd5b50610785611b11565b6040518082815260200191505060405180910390f35b3480156107a757600080fd5b506107d4600480360360208110156107be57600080fd5b8101908080359060200190929190505050611b17565b604051808273ffffffffffffffffffffffffffffffffffffffff1673ffffffffffffffffffffffffffffffffffffffff16815260200191505060405180910390f35b34801561082257600080fd5b506108656004803603602081101561083957600080fd5b81019080803573ffffffffffffffffffffffffffffffffffffffff169060200190929190505050611b55565b005b61087033611c4b565b151561090a576040517f08c379a00000000000000000000000000000000000000000000000000000000081526004018080602001828103825260298152602001807f6f6e6c792076616c696420766f746572732063616e20646f207468697320747281526020017f616e73616374696f6e000000000000000000000000000000000000000000000081525060400191505060405180910390fd5b610999600680548060200260200160405190810160405280929190818152602001828054801561098f57602002820191906000526020600020905b8160009054906101000a900473ffffffffffffffffffffffffffffffffffffffff1673ffffffffffffffffffffffffffffffffffffffff1681526020019060010190808311610945575b5050505050611d2c565b565b60056020528160005260406000206020528060005260406000206000915091509054906101000a900460000b81565b60025481565b6109d933611c4b565b1515610a73576040517f08c379a00000000000000000000000000000000000000000000000000000000081526004018080602001828103825260298152602001807f6f6e6c792076616c696420766f746572732063616e20646f207468697320747281526020017f616e73616374696f6e000000000000000000000000000000000000000000000081525060400191505060405180910390fd5b610a7b611fee565b600483815481101515610a8a57fe5b90600052602060002090600a02016101406040519081016040529081600082018054600181600116156101000203166002900480601f016020809104026020016040519081016040528092919081815260200182805460018160011615610100020316600290048015610b3e5780601f10610b1357610100808354040283529160200191610b3e565b820191906000526020600020905b815481529060010190602001808311610b2157829003601f168201915b505050505081526020016001820154815260200160028201548152602001600382015481526020016004820160009054906101000a900473ffffffffffffffffffffffffffffffffffffffff1673ffffffffffffffffffffffffffffffffffffffff1673ffffffffffffffffffffffffffffffffffffffff168152602001600582018054600181600116156101000203166002900480601f016020809104026020016040519081016040528092919081815260200182805460018160011615610100020316600290048015610c545780601f10610c2957610100808354040283529160200191610c54565b820191906000526020600020905b815481529060010190602001808311610c3757829003601f168201915b50505050508152602001600682018054600181600116156101000203166002900480601f016020809104026020016040519081016040528092919081815260200182805460018160011615610100020316600290048015610cf65780601f10610ccb57610100808354040283529160200191610cf6565b820191906000526020600020905b815481529060010190602001808311610cd957829003601f168201915b5050505050815260200160078201548152602001600882015481526020016009820154815250509050600073ffffffffffffffffffffffffffffffffffffffff16816080015173ffffffffffffffffffffffffffffffffffffffff1614151515610dc8576040517f08c379a00000000000000000000000000000000000000000000000000000000081526004018080602001828103825260128152602001807f70726f706f73616c206e6f7420666f756e64000000000000000000000000000081525060200191505060405180910390fd5b610dd0611e07565b8160400151101515610e4a576040517f08c379a00000000000000000000000000000000000000000000000000000000081526004018080602001828103825260158152602001807f766f74696e67206973206e6f742073746172746564000000000000000000000081525060200191505060405180910390fd5b610e52611e07565b8160600151111515610ecc576040517f08c379a00000000000000000000000000000000000000000000000000000000081526004018080602001828103825260138152602001807f766f74696e67207761732066696e69736865640000000000000000000000000081525060200191505060405180910390fd5b60006005600085815260200190815260200160002060003373ffffffffffffffffffffffffffffffffffffffff1673ffffffffffffffffffffffffffffffffffffffff16815260200190815260200160002060009054906101000a900460000b60000b141515610fa4576040517f08c379a000000000000000000000000000000000000000000000000000000000815260040180806020018281038252601a8152602001807f796f757220766f74652072656769737465726564206c6174657200000000000081525060200191505060405180910390fd5b60008260000b14151515611046576040517f08c379a000000000000000000000000000000000000000000000000000000000815260040180806020018281038252602a8152602001807f796f75206d75737420736574207570206f7220646f776e20776974682031206f81526020017f72202d312076616c75650000000000000000000000000000000000000000000081525060400191505060405180910390fd5b60008260000b13156110f35760016005600085815260200190815260200160002060003373ffffffffffffffffffffffffffffffffffffffff1673ffffffffffffffffffffffffffffffffffffffff16815260200190815260200160002060006101000a81548160ff021916908360000b60ff16021790555060016004848154811015156110d057fe5b90600052602060002090600a0201600801600082825401925050819055506111af565b7fffffffffffffffffffffffffffffffffffffffffffffffffffffffffffffffff6005600085815260200190815260200160002060003373ffffffffffffffffffffffffffffffffffffffff1673ffffffffffffffffffffffffffffffffffffffff16815260200190815260200160002060006101000a81548160ff021916908360000b60ff160217905550600160048481548110151561119057fe5b90600052602060002090600a0201600901600082825401925050819055505b505050565b60036020528060005260406000206000915090505481565b6111d533611c4b565b151561126f576040517f08c379a00000000000000000000000000000000000000000000000000000000081526004018080602001828103825260298152602001807f6f6e6c792076616c696420766f746572732063616e20646f207468697320747281526020017f616e73616374696f6e000000000000000000000000000000000000000000000081525060400191505060405180910390fd5b600180600360003373ffffffffffffffffffffffffffffffffffffffff1673ffffffffffffffffffffffffffffffffffffffff1681526020019081526020016000205410151515611328576040517f08c379a00000000000000000000000000000000000000000000000000000000081526004018080602001828103825260198152602001807f796f752068617665206e6f7420656e6f75676820746f6b656e0000000000000081525060200191505060405180910390fd5b60006004610140604051908101604052808a81526020018981526020018881526020018781526020013373ffffffffffffffffffffffffffffffffffffffff168152602001868152602001858152602001611381611e07565b81526020016000815260200160008152509080600181540180825580915050906001820390600052602060002090600a02016000909192909190915060008201518160000190805190602001906113d9929190612058565b5060208201518160010155604082015181600201556060820151816003015560808201518160040160006101000a81548173ffffffffffffffffffffffffffffffffffffffff021916908373ffffffffffffffffffffffffffffffffffffffff16021790555060a082015181600501908051906020019061145b929190612058565b5060c0820151816006019080519060200190611478929190612058565b5060e0820151816007015561010082015181600801556101208201518160090155505090507f1dd28c55bcc2c74b483da3754642877984afde881c8cb6ed785ead565f6adb0a88826040518080602001838152602001828103825284818151815260200191508051906020019080838360005b838110156115065780820151818401526020810190506114eb565b50505050905090810190601f1680156115335780820380516001836020036101000a031916815260200191505b50935050505060405180910390a15080600360003373ffffffffffffffffffffffffffffffffffffffff1673ffffffffffffffffffffffffffffffffffffffff1681526020019081526020016000206000828254039250508190555050505050505050565b6000809054906101000a900473ffffffffffffffffffffffffffffffffffffffff1673ffffffffffffffffffffffffffffffffffffffff163373ffffffffffffffffffffffffffffffffffffffff16141515611682576040517f08c379a00000000000000000000000000000000000000000000000000000000081526004018080602001828103825260218152602001807f6f6e6c79206f776e65722063616e2063616c6c20746869732066756e6374696f81526020017f6e0000000000000000000000000000000000000000000000000000000000000081525060400191505060405180910390fd5b6000809054906101000a900473ffffffffffffffffffffffffffffffffffffffff1673ffffffffffffffffffffffffffffffffffffffff167ff8df31144d9c2f0f6b59d69b8b98abd5459d07f2742c4df920b25aae33c6482060405160405180910390a260008060006101000a81548173ffffffffffffffffffffffffffffffffffffffff021916908373ffffffffffffffffffffffffffffffffffffffff160217905550565b6000809054906101000a900473ffffffffffffffffffffffffffffffffffffffff1681565b6000600680549050905090565b6000600480549050905090565b60606000806000806060806000806000611780611fee565b60048c81548110151561178f57fe5b90600052602060002090600a02016101406040519081016040529081600082018054600181600116156101000203166002900480601f0160208091040260200160405190810160405280929190818152602001828054600181600116156101000203166002900480156118435780601f1061181857610100808354040283529160200191611843565b820191906000526020600020905b81548152906001019060200180831161182657829003601f168201915b505050505081526020016001820154815260200160028201548152602001600382015481526020016004820160009054906101000a900473ffffffffffffffffffffffffffffffffffffffff1673ffffffffffffffffffffffffffffffffffffffff1673ffffffffffffffffffffffffffffffffffffffff168152602001600582018054600181600116156101000203166002900480601f0160208091040260200160405190810160405280929190818152602001828054600181600116156101000203166002900480156119595780601f1061192e57610100808354040283529160200191611959565b820191906000526020600020905b81548152906001019060200180831161193c57829003601f168201915b50505050508152602001600682018054600181600116156101000203166002900480601f0160208091040260200160405190810160405280929190818152602001828054600181600116156101000203166002900480156119fb5780601f106119d0576101008083540402835291602001916119fb565b820191906000526020600020905b8154815290600101906020018083116119de57829003601f168201915b5050505050815260200160078201548152602001600882015481526020016009820154815250509050806000015181602001518260400151836060015184608001518560a001518660c001518760e001518861010001518961012001518999508494508393509a509a509a509a509a509a509a509a509a509a50509193959799509193959799565b60606006805480602002602001604051908101604052809291908181526020018280548015611b0757602002820191906000526020600020905b8160009054906101000a900473ffffffffffffffffffffffffffffffffffffffff1673ffffffffffffffffffffffffffffffffffffffff1681526020019060010190808311611abd575b5050505050905090565b60015481565b600681815481101515611b2657fe5b906000526020600020016000915054906101000a900473ffffffffffffffffffffffffffffffffffffffff1681565b6000809054906101000a900473ffffffffffffffffffffffffffffffffffffffff1673ffffffffffffffffffffffffffffffffffffffff163373ffffffffffffffffffffffffffffffffffffffff16141515611c3f576040517f08c379a00000000000000000000000000000000000000000000000000000000081526004018080602001828103825260218152602001807f6f6e6c79206f776e65722063616e2063616c6c20746869732066756e6374696f81526020017f6e0000000000000000000000000000000000000000000000000000000000000081525060400191505060405180910390fd5b611c4881611e0f565b50565b60008073ffffffffffffffffffffffffffffffffffffffff168273ffffffffffffffffffffffffffffffffffffffff161415611c8a5760009050611d27565b60008090505b600680549050811015611d21578273ffffffffffffffffffffffffffffffffffffffff16600682815481101515611cc357fe5b9060005260206000200160009054906101000a900473ffffffffffffffffffffffffffffffffffffffff1673ffffffffffffffffffffffffffffffffffffffff161415611d14576001915050611d27565b8080600101915050611c90565b50600090505b919050565b60006001541115611dea5760006301e13380600154019050611d4c611e07565b81101515611de8576040517f08c379a00000000000000000000000000000000000000000000000000000000081526004018080602001828103825260248152602001807f796f75206d7573742072656e657720746f6b656e73206166746572206f6e652081526020017f796561720000000000000000000000000000000000000000000000000000000081525060400191505060405180910390fd5b505b611df681600254611f72565b611dfe611e07565b60018190555050565b600042905090565b600073ffffffffffffffffffffffffffffffffffffffff168173ffffffffffffffffffffffffffffffffffffffff1614151515611eb4576040517f08c379a000000000000000000000000000000000000000000000000000000000815260040180806020018281038252601b8152602001807f6f776e6572206d7573742062652076616c69642061646472657373000000000081525060200191505060405180910390fd5b8073ffffffffffffffffffffffffffffffffffffffff166000809054906101000a900473ffffffffffffffffffffffffffffffffffffffff1673ffffffffffffffffffffffffffffffffffffffff167f8be0079c531659141344cd1fd0a4f28419497f9722a3daafe3b4186f6b6457e060405160405180910390a3806000806101000a81548173ffffffffffffffffffffffffffffffffffffffff021916908373ffffffffffffffffffffffffffffffffffffffff16021790555050565b60008090505b8251811015611fe95781600360008584815181101515611f9457fe5b9060200190602002015173ffffffffffffffffffffffffffffffffffffffff1673ffffffffffffffffffffffffffffffffffffffff168152602001908152602001600020819055508080600101915050611f78565b505050565b6101406040519081016040528060608152602001600081526020016000815260200160008152602001600073ffffffffffffffffffffffffffffffffffffffff16815260200160608152602001606081526020016000815260200160008152602001600081525090565b828054600181600116156101000203166002900490600052602060002090601f016020900481019282601f1061209957805160ff19168380011785556120c7565b828001600101855582156120c7579182015b828111156120c65782518255916020019190600101906120ab565b5b5090506120d491906120d8565b5090565b6120fa91905b808211156120f65760008160009055506001016120de565b5090565b9056fea165627a7a72305820c5248edf1383d39078bbf50e461087d66401fb2314ec1167021e9ab9f47a97e30029",
  "source": "pragma solidity >=0.4.21 <0.6.0;\n\nimport \"./Ownable.sol\";\nimport \"./AccessToken.sol\";\n\ncontract Voting is Ownable, AccessToken {\n\n  struct Proposal {\n      string title;\n      uint ProposalType;\n      uint startDate;\n      uint endDate;\n      address author;\n      string url;\n      string hashCode;\n      uint registerDate;\n      uint up;\n      uint down;\n  }\n\n  Proposal[] proposals;\n\n  mapping (uint => mapping(address => int8)) public votesReceived;\n\n  address[] public voters;\n\n  event newProposal( string title, uint index);\n\n  constructor(address[] memory _voters, uint _voterTokensCount) AccessToken(_voterTokensCount) public {\n    voters = _voters;\n    renewToken(voters);\n  }\n\n  function renewYearTokens() public onlyVoters  {\n    renewToken(voters);\n  }\n\n  modifier onlyVoters() {\n    require(inVoters(msg.sender),\"only valid voters can do this transaction\");\n    _;\n  }\n\n  function voteForProposal(uint _proposalIndex, int8 _vote) public onlyVoters {\n      Proposal memory proposal = proposals[_proposalIndex];\n      require(proposal.author != address(0), \"proposal not found\");\n      require(proposal.startDate < getTime(), \"voting is not started\");\n      require(proposal.endDate > getTime(), \"voting was finished\");\n      require(votesReceived[_proposalIndex][msg.sender] == 0, \"your vote registered later\");\n      require(_vote != 0, \"you must set up or down with 1 or -1 value\");\n      if(_vote > 0) {\n          votesReceived[_proposalIndex][msg.sender] = 1;\n          proposals[_proposalIndex].up += 1;\n      } else {\n          votesReceived[_proposalIndex][msg.sender] = -1;\n          proposals[_proposalIndex].down += 1;\n      }\n  }\n\n  function votersCount() public view returns (uint) {\n      return voters.length;\n  }\n\n  function getProposalsCount() public view returns (uint) {\n      return proposals.length;\n  }\n\n  function getProposal(uint index) public view returns (\n      string memory, uint , uint, uint, address, string memory, string memory, uint, uint, uint ) {\n      Proposal memory proposal = proposals[index];\n      return (\n          proposal.title,\n          proposal.ProposalType,\n          proposal.startDate,\n          proposal.endDate,\n          proposal.author,\n          proposal.url,\n          proposal.hashCode,\n          proposal.registerDate,\n          proposal.up,\n          proposal.down);\n  }\n\n\n   function votersList() public view returns (address[] memory) {\n      return voters;\n  }\n\n  function registerProposal(\n      string memory title,\n      uint ProposalType,\n      uint startDate,\n      uint endDate,\n      string memory url,\n      string memory hashCode) public onlyVoters useToken(1) {\n          uint index = proposals.push(Proposal(title, ProposalType, startDate, endDate, msg.sender, url, hashCode, getTime(), 0, 0));\n          emit newProposal(title, index);\n  }\n\n  function inVoters(address caller) private view returns (bool) {\n      if(caller == address(0)){\n          return false;\n      }\n      for(uint i = 0; i < voters.length; i++) {\n          if (voters[i] == caller) {\n             return true;\n          }\n      }\n    return false;\n  }\n}",
  "sourcePath": "D:/projects/blockchain/kuknos-dao/contracts/Voting.sol",
  "compiler": {
    "name": "solc",
    "version": "0.5.0+commit.1d4f565a.Emscripten.clang"
  },
  "schemaVersion": "3.0.9",
  "updatedAt": "2019-06-15T11:00:09.016Z",
  "devdoc": {
    "methods": {
      "renounceOwnership()": {
        "details": "Allows the current owner to relinquish control of the contract."
      },
      "transferOwnership(address)": {
        "details": "Allows the current owner to transfer control of the contract to a newOwner.",
        "params": {
          "_newOwner": "The address to transfer ownership to."
        }
      }
    }
  },
  "userdoc": {
    "methods": {
      "renounceOwnership()": {
        "notice": "Renouncing to ownership will leave the contract without an owner. It will not be possible to call the functions with the `onlyOwner` modifier anymore."
      }
    }
  }
}