{
  "contractName": "Voting",
  "abi": [
    {
      "constant": true,
      "inputs": [],
      "name": "membersCount",
      "outputs": [
        {
          "name": "",
          "type": "uint256"
        }
      ],
      "payable": false,
      "stateMutability": "view",
      "type": "function"
    },
    {
      "constant": true,
      "inputs": [
        {
          "name": "",
          "type": "uint256"
        },
        {
          "name": "",
          "type": "address"
        }
      ],
      "name": "votesReceived",
      "outputs": [
        {
          "name": "",
          "type": "int8"
        }
      ],
      "payable": false,
      "stateMutability": "view",
      "type": "function"
    },
    {
      "constant": true,
      "inputs": [],
      "name": "accessTokensCount",
      "outputs": [
        {
          "name": "",
          "type": "uint256"
        }
      ],
      "payable": false,
      "stateMutability": "view",
      "type": "function"
    },
    {
      "constant": true,
      "inputs": [
        {
          "name": "",
          "type": "uint256"
        }
      ],
      "name": "members",
      "outputs": [
        {
          "name": "",
          "type": "address"
        }
      ],
      "payable": false,
      "stateMutability": "view",
      "type": "function"
    },
    {
      "constant": true,
      "inputs": [
        {
          "name": "",
          "type": "address"
        }
      ],
      "name": "balanceOf",
      "outputs": [
        {
          "name": "",
          "type": "uint256"
        }
      ],
      "payable": false,
      "stateMutability": "view",
      "type": "function"
    },
    {
      "constant": false,
      "inputs": [],
      "name": "renounceOwnership",
      "outputs": [],
      "payable": false,
      "stateMutability": "nonpayable",
      "type": "function"
    },
    {
      "constant": true,
      "inputs": [],
      "name": "owner",
      "outputs": [
        {
          "name": "",
          "type": "address"
        }
      ],
      "payable": false,
      "stateMutability": "view",
      "type": "function"
    },
    {
      "constant": true,
      "inputs": [],
      "name": "lastTokenIssueDate",
      "outputs": [
        {
          "name": "",
          "type": "uint256"
        }
      ],
      "payable": false,
      "stateMutability": "view",
      "type": "function"
    },
    {
      "constant": true,
      "inputs": [],
      "name": "membersList",
      "outputs": [
        {
          "name": "",
          "type": "address[]"
        }
      ],
      "payable": false,
      "stateMutability": "view",
      "type": "function"
    },
    {
      "constant": false,
      "inputs": [
        {
          "name": "_newOwner",
          "type": "address"
        }
      ],
      "name": "transferOwnership",
      "outputs": [],
      "payable": false,
      "stateMutability": "nonpayable",
      "type": "function"
    },
    {
      "inputs": [
        {
          "name": "_voterTokensCount",
          "type": "uint256"
        }
      ],
      "payable": false,
      "stateMutability": "nonpayable",
      "type": "constructor"
    },
    {
      "anonymous": false,
      "inputs": [
        {
          "indexed": true,
          "name": "previousOwner",
          "type": "address"
        }
      ],
      "name": "OwnershipRenounced",
      "type": "event"
    },
    {
      "anonymous": false,
      "inputs": [
        {
          "indexed": true,
          "name": "previousOwner",
          "type": "address"
        },
        {
          "indexed": true,
          "name": "newOwner",
          "type": "address"
        }
      ],
      "name": "OwnershipTransferred",
      "type": "event"
    },
    {
      "constant": false,
      "inputs": [],
      "name": "renewYearTokens",
      "outputs": [],
      "payable": false,
      "stateMutability": "nonpayable",
      "type": "function"
    },
    {
      "constant": false,
      "inputs": [
        {
          "name": "_proposalIndex",
          "type": "uint256"
        },
        {
          "name": "_vote",
          "type": "int8"
        }
      ],
      "name": "voteForProposal",
      "outputs": [],
      "payable": false,
      "stateMutability": "nonpayable",
      "type": "function"
    },
    {
      "constant": true,
      "inputs": [],
      "name": "getProposalsCount",
      "outputs": [
        {
          "name": "",
          "type": "uint256"
        }
      ],
      "payable": false,
      "stateMutability": "view",
      "type": "function"
    },
    {
      "constant": true,
      "inputs": [
        {
          "name": "index",
          "type": "uint256"
        }
      ],
      "name": "getProposal",
      "outputs": [
        {
          "name": "",
          "type": "uint256"
        },
        {
          "name": "",
          "type": "string"
        },
        {
          "name": "",
          "type": "uint256"
        },
        {
          "name": "",
          "type": "uint256"
        },
        {
          "name": "",
          "type": "uint256"
        },
        {
          "name": "",
          "type": "address"
        },
        {
          "name": "",
          "type": "string"
        },
        {
          "name": "",
          "type": "string"
        },
        {
          "name": "",
          "type": "uint256"
        },
        {
          "name": "",
          "type": "uint256"
        },
        {
          "name": "",
          "type": "uint256"
        },
        {
          "name": "",
          "type": "address"
        }
      ],
      "payable": false,
      "stateMutability": "view",
      "type": "function"
    },
    {
      "constant": true,
      "inputs": [
        {
          "name": "index",
          "type": "uint256"
        }
      ],
      "name": "getProposalStatus",
      "outputs": [
        {
          "name": "",
          "type": "uint256"
        },
        {
          "name": "",
          "type": "uint256"
        },
        {
          "name": "",
          "type": "uint256"
        },
        {
          "name": "",
          "type": "uint256"
        },
        {
          "name": "",
          "type": "address"
        },
        {
          "name": "",
          "type": "bool"
        },
        {
          "name": "",
          "type": "bool"
        },
        {
          "name": "",
          "type": "uint256"
        },
        {
          "name": "",
          "type": "uint256"
        }
      ],
      "payable": false,
      "stateMutability": "view",
      "type": "function"
    },
    {
      "constant": false,
      "inputs": [
        {
          "name": "id",
          "type": "uint256"
        },
        {
          "name": "title",
          "type": "string"
        },
        {
          "name": "proposalType",
          "type": "uint256"
        },
        {
          "name": "startDate",
          "type": "uint256"
        },
        {
          "name": "endDate",
          "type": "uint256"
        },
        {
          "name": "url",
          "type": "string"
        },
        {
          "name": "hashCode",
          "type": "string"
        },
        {
          "name": "contractAddress",
          "type": "address"
        }
      ],
      "name": "registerProposal",
      "outputs": [],
      "payable": false,
      "stateMutability": "nonpayable",
      "type": "function"
    }
  ],
  "bytecode": "0x6080604052603260025560026005553480156200001b57600080fd5b5060405160208062002d41833981018060405260208110156200003d57600080fd5b810190808051906020019092919050505080336000806101000a81548173ffffffffffffffffffffffffffffffffffffffff021916908373ffffffffffffffffffffffffffffffffffffffff16021790555080600281905550506200013b60048054806020026020016040519081016040528092919081815260200182805480156200011f57602002820191906000526020600020905b8160009054906101000a900473ffffffffffffffffffffffffffffffffffffffff1673ffffffffffffffffffffffffffffffffffffffff1681526020019060010190808311620000d4575b5050505050600062000142640100000000026401000000009004565b5062000304565b600060015411801562000153575080155b156200021e5760006301e133806001540190506200017f6200025e640100000000026401000000009004565b811015156200021c576040517f08c379a00000000000000000000000000000000000000000000000000000000081526004018080602001828103825260248152602001807f796f75206d7573742072656e657720746f6b656e73206166746572206f6e652081526020017f796561720000000000000000000000000000000000000000000000000000000081525060400191505060405180910390fd5b505b6200023b8260025462000266640100000000026401000000009004565b620002546200025e640100000000026401000000009004565b6001819055505050565b600042905090565b60008090505b8251811015620002b757620002a983828151811015156200028957fe5b9060200190602002015183620002bc640100000000026401000000009004565b80806001019150506200026c565b505050565b80600360008473ffffffffffffffffffffffffffffffffffffffff1673ffffffffffffffffffffffffffffffffffffffff168152602001908152602001600020819055505050565b612a2d80620003146000396000f3fe6080604052600436106100e5576000357c0100000000000000000000000000000000000000000000000000000000900463ffffffff168062f18f56146100ea57806306a481f214610101578063297f9af01461034057806333dd6bed1461036b578063401853b7146103e057806355de8c7e1461049b5780635ab09f59146104c65780635daf08ca1461050e57806370a0823114610589578063715018a6146105ee5780638da5cb5b1461060557806398e527d31461065c578063c7f758a814610687578063cededb30146108aa578063dd5042f4146108d5578063f2fde38b14610941575b600080fd5b3480156100f657600080fd5b506100ff610992565b005b34801561010d57600080fd5b5061033e600480360361010081101561012557600080fd5b81019080803590602001909291908035906020019064010000000081111561014c57600080fd5b82018360208201111561015e57600080fd5b8035906020019184600183028401116401000000008311171561018057600080fd5b91908080601f016020809104026020016040519081016040528093929190818152602001838380828437600081840152601f19601f8201169050808301925050505050505091929192908035906020019092919080359060200190929190803590602001909291908035906020019064010000000081111561020157600080fd5b82018360208201111561021357600080fd5b8035906020019184600183028401116401000000008311171561023557600080fd5b91908080601f016020809104026020016040519081016040528093929190818152602001838380828437600081840152601f19601f8201169050808301925050505050505091929192908035906020019064010000000081111561029857600080fd5b8201836020820111156102aa57600080fd5b803590602001918460018302840111640100000000831117156102cc57600080fd5b91908080601f016020809104026020016040519081016040528093929190818152602001838380828437600081840152601f19601f820116905080830192505050505050509192919290803573ffffffffffffffffffffffffffffffffffffffff169060200190929190505050610b44565b005b34801561034c57600080fd5b50610355611025565b6040518082815260200191505060405180910390f35b34801561037757600080fd5b506103c46004803603604081101561038e57600080fd5b8101908080359060200190929190803573ffffffffffffffffffffffffffffffffffffffff169060200190929190505050611032565b604051808260000b60000b815260200191505060405180910390f35b3480156103ec57600080fd5b506104196004803603602081101561040357600080fd5b8101908080359060200190929190505050611061565b604051808a81526020018981526020018881526020018781526020018673ffffffffffffffffffffffffffffffffffffffff1673ffffffffffffffffffffffffffffffffffffffff1681526020018515151515815260200184151515158152602001838152602001828152602001995050505050505050505060405180910390f35b3480156104a757600080fd5b506104b061140e565b6040518082815260200191505060405180910390f35b3480156104d257600080fd5b5061050c600480360360408110156104e957600080fd5b8101908080359060200190929190803560000b9060200190929190505050611414565b005b34801561051a57600080fd5b506105476004803603602081101561053157600080fd5b8101908080359060200190929190505050611cd4565b604051808273ffffffffffffffffffffffffffffffffffffffff1673ffffffffffffffffffffffffffffffffffffffff16815260200191505060405180910390f35b34801561059557600080fd5b506105d8600480360360208110156105ac57600080fd5b81019080803573ffffffffffffffffffffffffffffffffffffffff169060200190929190505050611d12565b6040518082815260200191505060405180910390f35b3480156105fa57600080fd5b50610603611d2a565b005b34801561061157600080fd5b5061061a611ebb565b604051808273ffffffffffffffffffffffffffffffffffffffff1673ffffffffffffffffffffffffffffffffffffffff16815260200191505060405180910390f35b34801561066857600080fd5b50610671611ee0565b6040518082815260200191505060405180910390f35b34801561069357600080fd5b506106c0600480360360208110156106aa57600080fd5b8101908080359060200190929190505050611eed565b604051808d8152602001806020018c81526020018b81526020018a81526020018973ffffffffffffffffffffffffffffffffffffffff1673ffffffffffffffffffffffffffffffffffffffff16815260200180602001806020018881526020018781526020018681526020018573ffffffffffffffffffffffffffffffffffffffff1673ffffffffffffffffffffffffffffffffffffffff16815260200184810384528f818151815260200191508051906020019080838360005b8381101561079657808201518184015260208101905061077b565b50505050905090810190601f1680156107c35780820380516001836020036101000a031916815260200191505b5084810383528a818151815260200191508051906020019080838360005b838110156107fc5780820151818401526020810190506107e1565b50505050905090810190601f1680156108295780820380516001836020036101000a031916815260200191505b50848103825289818151815260200191508051906020019080838360005b83811015610862578082015181840152602081019050610847565b50505050905090810190601f16801561088f5780820380516001836020036101000a031916815260200191505b509f5050505050505050505050505050505060405180910390f35b3480156108b657600080fd5b506108bf61227d565b6040518082815260200191505060405180910390f35b3480156108e157600080fd5b506108ea612283565b6040518080602001828103825283818151815260200191508051906020019060200280838360005b8381101561092d578082015181840152602081019050610912565b505050509050019250505060405180910390f35b34801561094d57600080fd5b506109906004803603602081101561096457600080fd5b81019080803573ffffffffffffffffffffffffffffffffffffffff169060200190929190505050612311565b005b61099a612407565b1515610a0e576040517f08c379a000000000000000000000000000000000000000000000000000000000815260040180806020018281038252601f8152602001807f7468697320636f6e747261637420697320696e20636f6e666967206d6f64650081525060200191505060405180910390fd5b610a173361245e565b1515610ab1576040517f08c379a000000000000000000000000000000000000000000000000000000000815260040180806020018281038252602a8152602001807f6f6e6c792076616c6964206d656d626572732063616e20646f2074686973207481526020017f72616e73616374696f6e0000000000000000000000000000000000000000000081525060400191505060405180910390fd5b610b426004805480602002602001604051908101604052809291908181526020018280548015610b3657602002820191906000526020600020905b8160009054906101000a900473ffffffffffffffffffffffffffffffffffffffff1673ffffffffffffffffffffffffffffffffffffffff1681526020019060010190808311610aec575b505050505060006124fa565b565b610b4c612407565b1515610bc0576040517f08c379a000000000000000000000000000000000000000000000000000000000815260040180806020018281038252601f8152602001807f7468697320636f6e747261637420697320696e20636f6e666967206d6f64650081525060200191505060405180910390fd5b610bc93361245e565b1515610c63576040517f08c379a000000000000000000000000000000000000000000000000000000000815260040180806020018281038252602a8152602001807f6f6e6c792076616c6964206d656d626572732063616e20646f2074686973207481526020017f72616e73616374696f6e0000000000000000000000000000000000000000000081525060400191505060405180910390fd5b600180600360003373ffffffffffffffffffffffffffffffffffffffff1673ffffffffffffffffffffffffffffffffffffffff1681526020019081526020016000205410151515610d1c576040517f08c379a00000000000000000000000000000000000000000000000000000000081526004018080602001828103825260198152602001807f796f752068617665206e6f7420656e6f75676820746f6b656e0000000000000081525060200191505060405180910390fd5b3073ffffffffffffffffffffffffffffffffffffffff168273ffffffffffffffffffffffffffffffffffffffff1614151515610de6576040517f08c379a00000000000000000000000000000000000000000000000000000000081526004018080602001828103825260388152602001807f7573696e6720696e7465726e616c20636f6e747261637420666f72206578746581526020017f726e616c2070726f706f73616c20697320696e76616c6964000000000000000081525060400191505060405180910390fd5b6008610180604051908101604052808b81526020018a81526020018981526020018881526020018781526020013373ffffffffffffffffffffffffffffffffffffffff168152602001868152602001858152602001610e436125e0565b815260200160008152602001600081526020018473ffffffffffffffffffffffffffffffffffffffff168152509080600181540180825580915050906001820390600052602060002090600c020160009091929091909150600082015181600001556020820151816001019080519060200190610ec19291906128ce565b5060408201518160020155606082015181600301556080820151816004015560a08201518160050160006101000a81548173ffffffffffffffffffffffffffffffffffffffff021916908373ffffffffffffffffffffffffffffffffffffffff16021790555060c0820151816006019080519060200190610f439291906128ce565b5060e0820151816007019080519060200190610f609291906128ce565b506101008201518160080155610120820151816009015561014082015181600a015561016082015181600b0160006101000a81548173ffffffffffffffffffffffffffffffffffffffff021916908373ffffffffffffffffffffffffffffffffffffffff16021790555050505080600360003373ffffffffffffffffffffffffffffffffffffffff1673ffffffffffffffffffffffffffffffffffffffff16815260200190815260200160002060008282540392505081905550505050505050505050565b6000600480549050905090565b60096020528160005260406000206020528060005260406000206000915091509054906101000a900460000b81565b600080600080600080600080600061107761294e565b60088b81548110151561108657fe5b90600052602060002090600c0201610180604051908101604052908160008201548152602001600182018054600181600116156101000203166002900480601f0160208091040260200160405190810160405280929190818152602001828054600181600116156101000203166002900480156111445780601f1061111957610100808354040283529160200191611144565b820191906000526020600020905b81548152906001019060200180831161112757829003601f168201915b505050505081526020016002820154815260200160038201548152602001600482015481526020016005820160009054906101000a900473ffffffffffffffffffffffffffffffffffffffff1673ffffffffffffffffffffffffffffffffffffffff1673ffffffffffffffffffffffffffffffffffffffff168152602001600682018054600181600116156101000203166002900480601f01602080910402602001604051908101604052809291908181526020018280546001816001161561010002031660029004801561125a5780601f1061122f5761010080835404028352916020019161125a565b820191906000526020600020905b81548152906001019060200180831161123d57829003601f168201915b50505050508152602001600782018054600181600116156101000203166002900480601f0160208091040260200160405190810160405280929190818152602001828054600181600116156101000203166002900480156112fc5780601f106112d1576101008083540402835291602001916112fc565b820191906000526020600020905b8154815290600101906020018083116112df57829003601f168201915b505050505081526020016008820154815260200160098201548152602001600a8201548152602001600b820160009054906101000a900473ffffffffffffffffffffffffffffffffffffffff1673ffffffffffffffffffffffffffffffffffffffff1673ffffffffffffffffffffffffffffffffffffffff1681525050905060008161014001518261012001510190508160000151826101200151836101400151846040015185610160015186606001516113b56125e0565b1087608001516113c36125e0565b10158760648a6101200151028115156113d857fe5b048860648b6101400151028115156113ec57fe5b049a509a509a509a509a509a509a509a509a5050509193959799909294969850565b60025481565b61141c612407565b1515611490576040517f08c379a000000000000000000000000000000000000000000000000000000000815260040180806020018281038252601f8152602001807f7468697320636f6e747261637420697320696e20636f6e666967206d6f64650081525060200191505060405180910390fd5b6114993361245e565b1515611533576040517f08c379a000000000000000000000000000000000000000000000000000000000815260040180806020018281038252602a8152602001807f6f6e6c792076616c6964206d656d626572732063616e20646f2074686973207481526020017f72616e73616374696f6e0000000000000000000000000000000000000000000081525060400191505060405180910390fd5b61153b61294e565b60088381548110151561154a57fe5b90600052602060002090600c0201610180604051908101604052908160008201548152602001600182018054600181600116156101000203166002900480601f0160208091040260200160405190810160405280929190818152602001828054600181600116156101000203166002900480156116085780601f106115dd57610100808354040283529160200191611608565b820191906000526020600020905b8154815290600101906020018083116115eb57829003601f168201915b505050505081526020016002820154815260200160038201548152602001600482015481526020016005820160009054906101000a900473ffffffffffffffffffffffffffffffffffffffff1673ffffffffffffffffffffffffffffffffffffffff1673ffffffffffffffffffffffffffffffffffffffff168152602001600682018054600181600116156101000203166002900480601f01602080910402602001604051908101604052809291908181526020018280546001816001161561010002031660029004801561171e5780601f106116f35761010080835404028352916020019161171e565b820191906000526020600020905b81548152906001019060200180831161170157829003601f168201915b50505050508152602001600782018054600181600116156101000203166002900480601f0160208091040260200160405190810160405280929190818152602001828054600181600116156101000203166002900480156117c05780601f10611795576101008083540402835291602001916117c0565b820191906000526020600020905b8154815290600101906020018083116117a357829003601f168201915b505050505081526020016008820154815260200160098201548152602001600a8201548152602001600b820160009054906101000a900473ffffffffffffffffffffffffffffffffffffffff1673ffffffffffffffffffffffffffffffffffffffff1673ffffffffffffffffffffffffffffffffffffffff16815250509050600073ffffffffffffffffffffffffffffffffffffffff168160a0015173ffffffffffffffffffffffffffffffffffffffff16141515156118e8576040517f08c379a00000000000000000000000000000000000000000000000000000000081526004018080602001828103825260128152602001807f70726f706f73616c206e6f7420666f756e64000000000000000000000000000081525060200191505060405180910390fd5b6118f06125e0565b816060015110151561196a576040517f08c379a00000000000000000000000000000000000000000000000000000000081526004018080602001828103825260158152602001807f766f74696e67206973206e6f742073746172746564000000000000000000000081525060200191505060405180910390fd5b6119726125e0565b81608001511115156119ec576040517f08c379a00000000000000000000000000000000000000000000000000000000081526004018080602001828103825260138152602001807f766f74696e67207761732066696e69736865640000000000000000000000000081525060200191505060405180910390fd5b60006009600085815260200190815260200160002060003373ffffffffffffffffffffffffffffffffffffffff1673ffffffffffffffffffffffffffffffffffffffff16815260200190815260200160002060009054906101000a900460000b60000b141515611ac4576040517f08c379a000000000000000000000000000000000000000000000000000000000815260040180806020018281038252601a8152602001807f796f757220766f74652072656769737465726564206c6174657200000000000081525060200191505060405180910390fd5b60008260000b14151515611b66576040517f08c379a000000000000000000000000000000000000000000000000000000000815260040180806020018281038252602a8152602001807f796f75206d75737420736574207570206f7220646f776e20776974682031206f81526020017f72202d312076616c75650000000000000000000000000000000000000000000081525060400191505060405180910390fd5b60008260000b1315611c135760016009600085815260200190815260200160002060003373ffffffffffffffffffffffffffffffffffffffff1673ffffffffffffffffffffffffffffffffffffffff16815260200190815260200160002060006101000a81548160ff021916908360000b60ff1602179055506001600884815481101515611bf057fe5b90600052602060002090600c020160090160008282540192505081905550611ccf565b7fffffffffffffffffffffffffffffffffffffffffffffffffffffffffffffffff6009600085815260200190815260200160002060003373ffffffffffffffffffffffffffffffffffffffff1673ffffffffffffffffffffffffffffffffffffffff16815260200190815260200160002060006101000a81548160ff021916908360000b60ff1602179055506001600884815481101515611cb057fe5b90600052602060002090600c0201600a01600082825401925050819055505b505050565b600481815481101515611ce357fe5b906000526020600020016000915054906101000a900473ffffffffffffffffffffffffffffffffffffffff1681565b60036020528060005260406000206000915090505481565b6000809054906101000a900473ffffffffffffffffffffffffffffffffffffffff1673ffffffffffffffffffffffffffffffffffffffff163373ffffffffffffffffffffffffffffffffffffffff16141515611e14576040517f08c379a00000000000000000000000000000000000000000000000000000000081526004018080602001828103825260218152602001807f6f6e6c79206f776e65722063616e2063616c6c20746869732066756e6374696f81526020017f6e0000000000000000000000000000000000000000000000000000000000000081525060400191505060405180910390fd5b6000809054906101000a900473ffffffffffffffffffffffffffffffffffffffff1673ffffffffffffffffffffffffffffffffffffffff167ff8df31144d9c2f0f6b59d69b8b98abd5459d07f2742c4df920b25aae33c6482060405160405180910390a260008060006101000a81548173ffffffffffffffffffffffffffffffffffffffff021916908373ffffffffffffffffffffffffffffffffffffffff160217905550565b6000809054906101000a900473ffffffffffffffffffffffffffffffffffffffff1681565b6000600880549050905090565b60006060600080600080606080600080600080611f0861294e565b60088e815481101515611f1757fe5b90600052602060002090600c0201610180604051908101604052908160008201548152602001600182018054600181600116156101000203166002900480601f016020809104026020016040519081016040528092919081815260200182805460018160011615610100020316600290048015611fd55780601f10611faa57610100808354040283529160200191611fd5565b820191906000526020600020905b815481529060010190602001808311611fb857829003601f168201915b505050505081526020016002820154815260200160038201548152602001600482015481526020016005820160009054906101000a900473ffffffffffffffffffffffffffffffffffffffff1673ffffffffffffffffffffffffffffffffffffffff1673ffffffffffffffffffffffffffffffffffffffff168152602001600682018054600181600116156101000203166002900480601f0160208091040260200160405190810160405280929190818152602001828054600181600116156101000203166002900480156120eb5780601f106120c0576101008083540402835291602001916120eb565b820191906000526020600020905b8154815290600101906020018083116120ce57829003601f168201915b50505050508152602001600782018054600181600116156101000203166002900480601f01602080910402602001604051908101604052809291908181526020018280546001816001161561010002031660029004801561218d5780601f106121625761010080835404028352916020019161218d565b820191906000526020600020905b81548152906001019060200180831161217057829003601f168201915b505050505081526020016008820154815260200160098201548152602001600a8201548152602001600b820160009054906101000a900473ffffffffffffffffffffffffffffffffffffffff1673ffffffffffffffffffffffffffffffffffffffff1673ffffffffffffffffffffffffffffffffffffffff16815250509050806000015181602001518260400151836060015184608001518560a001518660c001518760e001518861010001518961012001518a61014001518b61016001518a9a508595508494509c509c509c509c509c509c509c509c509c509c509c509c505091939597999b5091939597999b565b60015481565b6060600480548060200260200160405190810160405280929190818152602001828054801561230757602002820191906000526020600020905b8160009054906101000a900473ffffffffffffffffffffffffffffffffffffffff1673ffffffffffffffffffffffffffffffffffffffff16815260200190600101908083116122bd575b5050505050905090565b6000809054906101000a900473ffffffffffffffffffffffffffffffffffffffff1673ffffffffffffffffffffffffffffffffffffffff163373ffffffffffffffffffffffffffffffffffffffff161415156123fb576040517f08c379a00000000000000000000000000000000000000000000000000000000081526004018080602001828103825260218152602001807f6f6e6c79206f776e65722063616e2063616c6c20746869732066756e6374696f81526020017f6e0000000000000000000000000000000000000000000000000000000000000081525060400191505060405180910390fd5b612404816125e8565b50565b60008073ffffffffffffffffffffffffffffffffffffffff166000809054906101000a900473ffffffffffffffffffffffffffffffffffffffff1673ffffffffffffffffffffffffffffffffffffffff1614905090565b6000806124f160048054806020026020016040519081016040528092919081815260200182805480156124e657602002820191906000526020600020905b8160009054906101000a900473ffffffffffffffffffffffffffffffffffffffff1673ffffffffffffffffffffffffffffffffffffffff168152602001906001019080831161249c575b50505050508461274b565b12159050919050565b600060015411801561250a575080155b156125c25760006301e133806001540190506125246125e0565b811015156125c0576040517f08c379a00000000000000000000000000000000000000000000000000000000081526004018080602001828103825260248152602001807f796f75206d7573742072656e657720746f6b656e73206166746572206f6e652081526020017f796561720000000000000000000000000000000000000000000000000000000081525060400191505060405180910390fd5b505b6125ce82600254612844565b6125d66125e0565b6001819055505050565b600042905090565b600073ffffffffffffffffffffffffffffffffffffffff168173ffffffffffffffffffffffffffffffffffffffff161415151561268d576040517f08c379a000000000000000000000000000000000000000000000000000000000815260040180806020018281038252601b8152602001807f6f776e6572206d7573742062652076616c69642061646472657373000000000081525060200191505060405180910390fd5b8073ffffffffffffffffffffffffffffffffffffffff166000809054906101000a900473ffffffffffffffffffffffffffffffffffffffff1673ffffffffffffffffffffffffffffffffffffffff167f8be0079c531659141344cd1fd0a4f28419497f9722a3daafe3b4186f6b6457e060405160405180910390a3806000806101000a81548173ffffffffffffffffffffffffffffffffffffffff021916908373ffffffffffffffffffffffffffffffffffffffff16021790555050565b60008073ffffffffffffffffffffffffffffffffffffffff168273ffffffffffffffffffffffffffffffffffffffff1614156127a9577fffffffffffffffffffffffffffffffffffffffffffffffffffffffffffffffff905061283e565b60008090505b8351811015612819578273ffffffffffffffffffffffffffffffffffffffff1684828151811015156127dd57fe5b9060200190602002015173ffffffffffffffffffffffffffffffffffffffff16141561280c578091505061283e565b80806001019150506127af565b507fffffffffffffffffffffffffffffffffffffffffffffffffffffffffffffffff90505b92915050565b60008090505b825181101561288157612874838281518110151561286457fe5b9060200190602002015183612886565b808060010191505061284a565b505050565b80600360008473ffffffffffffffffffffffffffffffffffffffff1673ffffffffffffffffffffffffffffffffffffffff168152602001908152602001600020819055505050565b828054600181600116156101000203166002900490600052602060002090601f016020900481019282601f1061290f57805160ff191683800117855561293d565b8280016001018555821561293d579182015b8281111561293c578251825591602001919060010190612921565b5b50905061294a91906129dc565b5090565b610180604051908101604052806000815260200160608152602001600081526020016000815260200160008152602001600073ffffffffffffffffffffffffffffffffffffffff1681526020016060815260200160608152602001600081526020016000815260200160008152602001600073ffffffffffffffffffffffffffffffffffffffff1681525090565b6129fe91905b808211156129fa5760008160009055506001016129e2565b5090565b9056fea165627a7a7230582028c026d9ee9674ae3f35702a85fdc2955ce4b89319cefb1cade288c11d87c6ef0029",
  "source": "pragma solidity >=0.4.21 <0.6.0;\n\nimport \"./Ownable.sol\";\nimport \"./AccessToken.sol\";\nimport \"./Anchors.sol\";\n\ncontract Voting is Ownable, AccessToken, Anchors {\n\n  struct Proposal {\n    uint id;\n    string title;\n    uint proposalType;\n    uint startDate;\n    uint endDate;\n    address author;\n    string url;\n    string hashCode;\n    uint registerDate;\n    uint up;\n    uint down;\n    address contractAddress;\n  }\n\n  Proposal[] proposals;\n\n  mapping (uint => mapping(address => int8)) public votesReceived;\n\n  constructor(uint _voterTokensCount) AccessToken(_voterTokensCount) public {\n    renewToken(members, false);\n  }\n\n  modifier onlyMembers() {\n    require(contractHasNoOwener(), \"this contract is in config mode\");\n    require(inMembers(msg.sender),\"only valid members can do this transaction\");\n    _;\n  }\n\n  function renewYearTokens() public onlyMembers  {\n    renewToken(members, false);\n  }\n\n  function voteForProposal(uint _proposalIndex, int8 _vote) public onlyMembers {\n    Proposal memory proposal = proposals[_proposalIndex];\n    require(proposal.author != address(0), \"proposal not found\");\n    require(proposal.startDate < getTime(), \"voting is not started\");\n    require(proposal.endDate > getTime(), \"voting was finished\");\n    require(votesReceived[_proposalIndex][msg.sender] == 0, \"your vote registered later\");\n    require(_vote != 0, \"you must set up or down with 1 or -1 value\");\n    if(_vote > 0) {\n      votesReceived[_proposalIndex][msg.sender] = 1;\n      proposals[_proposalIndex].up += 1;\n    } else {\n      votesReceived[_proposalIndex][msg.sender] = -1;\n      proposals[_proposalIndex].down += 1;\n    }\n  }\n  function getProposalsCount() public view returns (uint) {\n    return proposals.length;\n  }\n\n  function getProposal(uint index) public view returns (\n    uint, string memory, uint, uint, uint, address, string memory, string memory, uint, uint, uint, address) {\n    Proposal memory proposal = proposals[index];\n    return (\n      proposal.id,\n      proposal.title,\n      proposal.proposalType,\n      proposal.startDate,\n      proposal.endDate,\n      proposal.author,\n      proposal.url,\n      proposal.hashCode,\n      proposal.registerDate,\n      proposal.up,\n      proposal.down,\n      proposal.contractAddress\n    );\n  }\n\n  function getProposalStatus(uint index) public view returns ( uint, uint, uint, uint, address, bool, bool, uint, uint ) {\n    Proposal memory proposal = proposals[index];\n    uint total = proposal.up + proposal.down;\n    return (\n      proposal.id,\n      proposal.up,\n      proposal.down,\n      proposal.proposalType,\n      proposal.contractAddress,\n      getTime() < proposal.startDate, // isNotStarted\n      getTime() >= proposal.endDate, // isExpired\n      proposal.up * 100 / total, // up percentage\n      proposal.down * 100 / total // down percentage\n    );\n  }\n\n  function registerProposal(\n    uint id,\n    string memory title,\n    uint proposalType,\n    uint startDate,\n    uint endDate,\n    string memory url,\n    string memory hashCode,\n    address contractAddress\n    ) public onlyMembers useToken(1) {\n        require(contractAddress != address(this), \"using internal contract for external proposal is invalid\");\n        proposals.push(Proposal(id, title, proposalType, startDate, endDate, msg.sender, url,hashCode, getTime(), 0, 0, contractAddress));\n  }\n\n  function registerInternalProposal(\n    uint id,\n    string memory title,\n    uint proposalType,\n    uint startDate,\n    uint endDate,\n    string memory url,\n    string memory hashCode\n    ) internal onlyMembers useToken(1) returns (uint) {\n        return proposals.push(Proposal(id, title, proposalType, startDate, endDate, msg.sender, url,hashCode, getTime(), 0, 0, address(this)));\n  }\n}",
  "sourcePath": "D:\\projects\\blockchain\\kuknos-dao\\contracts\\Voting.sol",
  "compiler": {
    "name": "solc",
    "version": "0.5.0+commit.1d4f565a.Emscripten.clang"
  },
  "schemaVersion": "3.0.9",
  "updatedAt": "2019-06-15T10:56:28.240Z",
  "devdoc": {
    "methods": {
      "renounceOwnership()": {
        "details": "Allows the current owner to relinquish control of the contract."
      },
      "transferOwnership(address)": {
        "details": "Allows the current owner to transfer control of the contract to a newOwner.",
        "params": {
          "_newOwner": "The address to transfer ownership to."
        }
      }
    }
  },
  "userdoc": {
    "methods": {
      "renounceOwnership()": {
        "notice": "Renouncing to ownership will leave the contract without an owner. It will not be possible to call the functions with the `onlyOwner` modifier anymore."
      }
    }
  }
}