{
  "contractName": "Voting",
  "abi": [
    {
      "constant": true,
      "inputs": [
        {
          "name": "",
          "type": "uint256"
        }
      ],
      "name": "proposals",
      "outputs": [
        {
          "name": "id",
          "type": "uint256"
        },
        {
          "name": "title",
          "type": "string"
        },
        {
          "name": "proposalType",
          "type": "uint256"
        },
        {
          "name": "startDate",
          "type": "uint256"
        },
        {
          "name": "endDate",
          "type": "uint256"
        },
        {
          "name": "author",
          "type": "address"
        },
        {
          "name": "url",
          "type": "string"
        },
        {
          "name": "hashCode",
          "type": "string"
        },
        {
          "name": "registerDate",
          "type": "uint256"
        },
        {
          "name": "up",
          "type": "uint256"
        },
        {
          "name": "down",
          "type": "uint256"
        },
        {
          "name": "contractAddress",
          "type": "address"
        }
      ],
      "payable": false,
      "stateMutability": "view",
      "type": "function"
    },
    {
      "constant": true,
      "inputs": [],
      "name": "membersCount",
      "outputs": [
        {
          "name": "",
          "type": "uint256"
        }
      ],
      "payable": false,
      "stateMutability": "view",
      "type": "function"
    },
    {
      "constant": true,
      "inputs": [
        {
          "name": "",
          "type": "uint256"
        },
        {
          "name": "",
          "type": "address"
        }
      ],
      "name": "votesReceived",
      "outputs": [
        {
          "name": "",
          "type": "int8"
        }
      ],
      "payable": false,
      "stateMutability": "view",
      "type": "function"
    },
    {
      "constant": true,
      "inputs": [
        {
          "name": "",
          "type": "uint256"
        }
      ],
      "name": "anchors",
      "outputs": [
        {
          "name": "nameHash",
          "type": "bytes32"
        },
        {
          "name": "name",
          "type": "string"
        },
        {
          "name": "url",
          "type": "string"
        }
      ],
      "payable": false,
      "stateMutability": "view",
      "type": "function"
    },
    {
      "constant": true,
      "inputs": [],
      "name": "accessTokensCount",
      "outputs": [
        {
          "name": "",
          "type": "uint256"
        }
      ],
      "payable": false,
      "stateMutability": "view",
      "type": "function"
    },
    {
      "constant": true,
      "inputs": [
        {
          "name": "",
          "type": "uint256"
        }
      ],
      "name": "members",
      "outputs": [
        {
          "name": "",
          "type": "address"
        }
      ],
      "payable": false,
      "stateMutability": "view",
      "type": "function"
    },
    {
      "constant": true,
      "inputs": [
        {
          "name": "",
          "type": "address"
        }
      ],
      "name": "balanceOf",
      "outputs": [
        {
          "name": "",
          "type": "uint256"
        }
      ],
      "payable": false,
      "stateMutability": "view",
      "type": "function"
    },
    {
      "constant": false,
      "inputs": [],
      "name": "renounceOwnership",
      "outputs": [],
      "payable": false,
      "stateMutability": "nonpayable",
      "type": "function"
    },
    {
      "constant": true,
      "inputs": [],
      "name": "owner",
      "outputs": [
        {
          "name": "",
          "type": "address"
        }
      ],
      "payable": false,
      "stateMutability": "view",
      "type": "function"
    },
    {
      "constant": true,
      "inputs": [],
      "name": "lastTokenIssueDate",
      "outputs": [
        {
          "name": "",
          "type": "uint256"
        }
      ],
      "payable": false,
      "stateMutability": "view",
      "type": "function"
    },
    {
      "constant": true,
      "inputs": [],
      "name": "getAnchorsCount",
      "outputs": [
        {
          "name": "",
          "type": "uint256"
        }
      ],
      "payable": false,
      "stateMutability": "view",
      "type": "function"
    },
    {
      "constant": true,
      "inputs": [],
      "name": "membersList",
      "outputs": [
        {
          "name": "",
          "type": "address[]"
        }
      ],
      "payable": false,
      "stateMutability": "view",
      "type": "function"
    },
    {
      "constant": false,
      "inputs": [
        {
          "name": "_newOwner",
          "type": "address"
        }
      ],
      "name": "transferOwnership",
      "outputs": [],
      "payable": false,
      "stateMutability": "nonpayable",
      "type": "function"
    },
    {
      "inputs": [
        {
          "name": "_voterTokensCount",
          "type": "uint256"
        }
      ],
      "payable": false,
      "stateMutability": "nonpayable",
      "type": "constructor"
    },
    {
      "anonymous": false,
      "inputs": [
        {
          "indexed": true,
          "name": "previousOwner",
          "type": "address"
        }
      ],
      "name": "OwnershipRenounced",
      "type": "event"
    },
    {
      "anonymous": false,
      "inputs": [
        {
          "indexed": true,
          "name": "previousOwner",
          "type": "address"
        },
        {
          "indexed": true,
          "name": "newOwner",
          "type": "address"
        }
      ],
      "name": "OwnershipTransferred",
      "type": "event"
    },
    {
      "constant": false,
      "inputs": [],
      "name": "renewYearTokens",
      "outputs": [],
      "payable": false,
      "stateMutability": "nonpayable",
      "type": "function"
    },
    {
      "constant": false,
      "inputs": [
        {
          "name": "_proposalIndex",
          "type": "uint256"
        },
        {
          "name": "_vote",
          "type": "int8"
        }
      ],
      "name": "voteForProposal",
      "outputs": [],
      "payable": false,
      "stateMutability": "nonpayable",
      "type": "function"
    },
    {
      "constant": true,
      "inputs": [],
      "name": "getProposalsCount",
      "outputs": [
        {
          "name": "",
          "type": "uint256"
        }
      ],
      "payable": false,
      "stateMutability": "view",
      "type": "function"
    },
    {
      "constant": true,
      "inputs": [
        {
          "name": "index",
          "type": "uint256"
        }
      ],
      "name": "getProposalStatus",
      "outputs": [
        {
          "name": "",
          "type": "uint256"
        },
        {
          "name": "",
          "type": "uint256"
        },
        {
          "name": "",
          "type": "uint256"
        },
        {
          "name": "",
          "type": "uint256"
        },
        {
          "name": "",
          "type": "address"
        },
        {
          "name": "",
          "type": "bool"
        },
        {
          "name": "",
          "type": "bool"
        },
        {
          "name": "",
          "type": "uint256"
        },
        {
          "name": "",
          "type": "uint256"
        }
      ],
      "payable": false,
      "stateMutability": "view",
      "type": "function"
    },
    {
      "constant": false,
      "inputs": [
        {
          "name": "id",
          "type": "uint256"
        },
        {
          "name": "title",
          "type": "string"
        },
        {
          "name": "proposalType",
          "type": "uint256"
        },
        {
          "name": "startDate",
          "type": "uint256"
        },
        {
          "name": "endDate",
          "type": "uint256"
        },
        {
          "name": "url",
          "type": "string"
        },
        {
          "name": "hashCode",
          "type": "string"
        },
        {
          "name": "contractAddress",
          "type": "address"
        }
      ],
      "name": "registerProposal",
      "outputs": [],
      "payable": false,
      "stateMutability": "nonpayable",
      "type": "function"
    }
  ],
  "bytecode": "0x60806040526032600255600260055534801561001a57600080fd5b50604051602080612a3f8339810180604052602081101561003a57600080fd5b810190808051906020019092919050505080336000806101000a81548173ffffffffffffffffffffffffffffffffffffffff021916908373ffffffffffffffffffffffffffffffffffffffff16021790555080600281905550505061299b806100a46000396000f3fe608060405234801561001057600080fd5b50600436106101155760003560e01c80635daf08ca116100a257806398e527d31161007157806398e527d31461092d578063cededb301461094b578063d4c8ca9b14610969578063dd5042f414610987578063f2fde38b146109e657610115565b80635daf08ca1461081357806370a0823114610881578063715018a6146108d95780638da5cb5b146108e357610115565b806333dd6bed116100e957806333dd6bed1461058a578063368b733e146105f2578063401853b71461070c57806355de8c7e146107ba5780635ab09f59146107d857610115565b8062f18f561461011a578063013cf08b1461012457806306a481f21461033a578063297f9af01461056c575b600080fd5b610122610a2a565b005b6101506004803603602081101561013a57600080fd5b8101908080359060200190929190505050610b95565b604051808d8152602001806020018c81526020018b81526020018a81526020018973ffffffffffffffffffffffffffffffffffffffff1673ffffffffffffffffffffffffffffffffffffffff16815260200180602001806020018881526020018781526020018681526020018573ffffffffffffffffffffffffffffffffffffffff1673ffffffffffffffffffffffffffffffffffffffff16815260200184810384528f818151815260200191508051906020019080838360005b8381101561022657808201518184015260208101905061020b565b50505050905090810190601f1680156102535780820380516001836020036101000a031916815260200191505b5084810383528a818151815260200191508051906020019080838360005b8381101561028c578082015181840152602081019050610271565b50505050905090810190601f1680156102b95780820380516001836020036101000a031916815260200191505b50848103825289818151815260200191508051906020019080838360005b838110156102f25780820151818401526020810190506102d7565b50505050905090810190601f16801561031f5780820380516001836020036101000a031916815260200191505b509f5050505050505050505050505050505060405180910390f35b61056a600480360361010081101561035157600080fd5b81019080803590602001909291908035906020019064010000000081111561037857600080fd5b82018360208201111561038a57600080fd5b803590602001918460018302840111640100000000831117156103ac57600080fd5b91908080601f016020809104026020016040519081016040528093929190818152602001838380828437600081840152601f19601f8201169050808301925050505050505091929192908035906020019092919080359060200190929190803590602001909291908035906020019064010000000081111561042d57600080fd5b82018360208201111561043f57600080fd5b8035906020019184600183028401116401000000008311171561046157600080fd5b91908080601f016020809104026020016040519081016040528093929190818152602001838380828437600081840152601f19601f820116905080830192505050505050509192919290803590602001906401000000008111156104c457600080fd5b8201836020820111156104d657600080fd5b803590602001918460018302840111640100000000831117156104f857600080fd5b91908080601f016020809104026020016040519081016040528093929190818152602001838380828437600081840152601f19601f820116905080830192505050505050509192919290803573ffffffffffffffffffffffffffffffffffffffff169060200190929190505050610e0a565b005b61057461125c565b6040518082815260200191505060405180910390f35b6105d6600480360360408110156105a057600080fd5b8101908080359060200190929190803573ffffffffffffffffffffffffffffffffffffffff169060200190929190505050611269565b604051808260000b60000b815260200191505060405180910390f35b61061e6004803603602081101561060857600080fd5b8101908080359060200190929190505050611298565b604051808481526020018060200180602001838103835285818151815260200191508051906020019080838360005b8381101561066857808201518184015260208101905061064d565b50505050905090810190601f1680156106955780820380516001836020036101000a031916815260200191505b50838103825284818151815260200191508051906020019080838360005b838110156106ce5780820151818401526020810190506106b3565b50505050905090810190601f1680156106fb5780820380516001836020036101000a031916815260200191505b509550505050505060405180910390f35b6107386004803603602081101561072257600080fd5b81019080803590602001909291905050506113ff565b604051808a81526020018981526020018881526020018781526020018673ffffffffffffffffffffffffffffffffffffffff1673ffffffffffffffffffffffffffffffffffffffff1681526020018515151515815260200184151515158152602001838152602001828152602001995050505050505050505060405180910390f35b6107c26117a5565b6040518082815260200191505060405180910390f35b610811600480360360408110156107ee57600080fd5b8101908080359060200190929190803560000b90602001909291905050506117ab565b005b61083f6004803603602081101561082957600080fd5b8101908080359060200190929190505050611fd0565b604051808273ffffffffffffffffffffffffffffffffffffffff1673ffffffffffffffffffffffffffffffffffffffff16815260200191505060405180910390f35b6108c36004803603602081101561089757600080fd5b81019080803573ffffffffffffffffffffffffffffffffffffffff16906020019092919050505061200c565b6040518082815260200191505060405180910390f35b6108e1612024565b005b6108eb612170565b604051808273ffffffffffffffffffffffffffffffffffffffff1673ffffffffffffffffffffffffffffffffffffffff16815260200191505060405180910390f35b610935612195565b6040518082815260200191505060405180910390f35b6109536121a2565b6040518082815260200191505060405180910390f35b6109716121a8565b6040518082815260200191505060405180910390f35b61098f6121b5565b6040518080602001828103825283818151815260200191508051906020019060200280838360005b838110156109d25780820151818401526020810190506109b7565b505050509050019250505060405180910390f35b610a28600480360360208110156109fc57600080fd5b81019080803573ffffffffffffffffffffffffffffffffffffffff169060200190929190505050612243565b005b610a326122f4565b610aa4576040517f08c379a000000000000000000000000000000000000000000000000000000000815260040180806020018281038252601f8152602001807f7468697320636f6e747261637420697320696e20636f6e666967206d6f64650081525060200191505060405180910390fd5b610aad3361234b565b610b02576040517f08c379a000000000000000000000000000000000000000000000000000000000815260040180806020018281038252602a815260200180612922602a913960400191505060405180910390fd5b610b936004805480602002602001604051908101604052809291908181526020018280548015610b8757602002820191906000526020600020905b8160009054906101000a900473ffffffffffffffffffffffffffffffffffffffff1673ffffffffffffffffffffffffffffffffffffffff1681526020019060010190808311610b3d575b505050505060006123e7565b565b60088181548110610ba257fe5b90600052602060002090600c0201600091509050806000015490806001018054600181600116156101000203166002900480601f016020809104026020016040519081016040528092919081815260200182805460018160011615610100020316600290048015610c545780601f10610c2957610100808354040283529160200191610c54565b820191906000526020600020905b815481529060010190602001808311610c3757829003601f168201915b5050505050908060020154908060030154908060040154908060050160009054906101000a900473ffffffffffffffffffffffffffffffffffffffff1690806006018054600181600116156101000203166002900480601f016020809104026020016040519081016040528092919081815260200182805460018160011615610100020316600290048015610d2a5780601f10610cff57610100808354040283529160200191610d2a565b820191906000526020600020905b815481529060010190602001808311610d0d57829003601f168201915b505050505090806007018054600181600116156101000203166002900480601f016020809104026020016040519081016040528092919081815260200182805460018160011615610100020316600290048015610dc85780601f10610d9d57610100808354040283529160200191610dc8565b820191906000526020600020905b815481529060010190602001808311610dab57829003601f168201915b50505050509080600801549080600901549080600a01549080600b0160009054906101000a900473ffffffffffffffffffffffffffffffffffffffff1690508c565b610e126122f4565b610e84576040517f08c379a000000000000000000000000000000000000000000000000000000000815260040180806020018281038252601f8152602001807f7468697320636f6e747261637420697320696e20636f6e666967206d6f64650081525060200191505060405180910390fd5b610e8d3361234b565b610ee2576040517f08c379a000000000000000000000000000000000000000000000000000000000815260040180806020018281038252602a815260200180612922602a913960400191505060405180910390fd5b600180600360003373ffffffffffffffffffffffffffffffffffffffff1673ffffffffffffffffffffffffffffffffffffffff168152602001908152602001600020541015610f99576040517f08c379a00000000000000000000000000000000000000000000000000000000081526004018080602001828103825260198152602001807f796f752068617665206e6f7420656e6f75676820746f6b656e0000000000000081525060200191505060405180910390fd5b3073ffffffffffffffffffffffffffffffffffffffff168273ffffffffffffffffffffffffffffffffffffffff16141561101e576040517f08c379a00000000000000000000000000000000000000000000000000000000081526004018080602001828103825260388152602001806128c96038913960400191505060405180910390fd5b60086040518061018001604052808b81526020018a81526020018981526020018881526020018781526020013373ffffffffffffffffffffffffffffffffffffffff16815260200186815260200185815260200161107a612488565b815260200160008152602001600081526020018473ffffffffffffffffffffffffffffffffffffffff168152509080600181540180825580915050906001820390600052602060002090600c0201600090919290919091506000820151816000015560208201518160010190805190602001906110f892919061276c565b5060408201518160020155606082015181600301556080820151816004015560a08201518160050160006101000a81548173ffffffffffffffffffffffffffffffffffffffff021916908373ffffffffffffffffffffffffffffffffffffffff16021790555060c082015181600601908051906020019061117a92919061276c565b5060e082015181600701908051906020019061119792919061276c565b506101008201518160080155610120820151816009015561014082015181600a015561016082015181600b0160006101000a81548173ffffffffffffffffffffffffffffffffffffffff021916908373ffffffffffffffffffffffffffffffffffffffff16021790555050505080600360003373ffffffffffffffffffffffffffffffffffffffff1673ffffffffffffffffffffffffffffffffffffffff16815260200190815260200160002060008282540392505081905550505050505050505050565b6000600480549050905090565b60096020528160005260406000206020528060005260406000206000915091509054906101000a900460000b81565b600681815481106112a557fe5b9060005260206000209060030201600091509050806000015490806001018054600181600116156101000203166002900480601f0160208091040260200160405190810160405280929190818152602001828054600181600116156101000203166002900480156113575780601f1061132c57610100808354040283529160200191611357565b820191906000526020600020905b81548152906001019060200180831161133a57829003601f168201915b505050505090806002018054600181600116156101000203166002900480601f0160208091040260200160405190810160405280929190818152602001828054600181600116156101000203166002900480156113f55780601f106113ca576101008083540402835291602001916113f5565b820191906000526020600020905b8154815290600101906020018083116113d857829003601f168201915b5050505050905083565b60008060008060008060008060006114156127ec565b60088b8154811061142257fe5b90600052602060002090600c02016040518061018001604052908160008201548152602001600182018054600181600116156101000203166002900480601f0160208091040260200160405190810160405280929190818152602001828054600181600116156101000203166002900480156114df5780601f106114b4576101008083540402835291602001916114df565b820191906000526020600020905b8154815290600101906020018083116114c257829003601f168201915b505050505081526020016002820154815260200160038201548152602001600482015481526020016005820160009054906101000a900473ffffffffffffffffffffffffffffffffffffffff1673ffffffffffffffffffffffffffffffffffffffff1673ffffffffffffffffffffffffffffffffffffffff168152602001600682018054600181600116156101000203166002900480601f0160208091040260200160405190810160405280929190818152602001828054600181600116156101000203166002900480156115f55780601f106115ca576101008083540402835291602001916115f5565b820191906000526020600020905b8154815290600101906020018083116115d857829003601f168201915b50505050508152602001600782018054600181600116156101000203166002900480601f0160208091040260200160405190810160405280929190818152602001828054600181600116156101000203166002900480156116975780601f1061166c57610100808354040283529160200191611697565b820191906000526020600020905b81548152906001019060200180831161167a57829003601f168201915b505050505081526020016008820154815260200160098201548152602001600a8201548152602001600b820160009054906101000a900473ffffffffffffffffffffffffffffffffffffffff1673ffffffffffffffffffffffffffffffffffffffff1673ffffffffffffffffffffffffffffffffffffffff168152505090506000816101400151826101200151019050816000015182610120015183610140015184604001518561016001518660600151611750612488565b10876080015161175e612488565b10158760648a6101200151028161177157fe5b048860648b6101400151028161178357fe5b049a509a509a509a509a509a509a509a509a5050509193959799909294969850565b60025481565b6117b36122f4565b611825576040517f08c379a000000000000000000000000000000000000000000000000000000000815260040180806020018281038252601f8152602001807f7468697320636f6e747261637420697320696e20636f6e666967206d6f64650081525060200191505060405180910390fd5b61182e3361234b565b611883576040517f08c379a000000000000000000000000000000000000000000000000000000000815260040180806020018281038252602a815260200180612922602a913960400191505060405180910390fd5b61188b6127ec565b6008838154811061189857fe5b90600052602060002090600c02016040518061018001604052908160008201548152602001600182018054600181600116156101000203166002900480601f0160208091040260200160405190810160405280929190818152602001828054600181600116156101000203166002900480156119555780601f1061192a57610100808354040283529160200191611955565b820191906000526020600020905b81548152906001019060200180831161193857829003601f168201915b505050505081526020016002820154815260200160038201548152602001600482015481526020016005820160009054906101000a900473ffffffffffffffffffffffffffffffffffffffff1673ffffffffffffffffffffffffffffffffffffffff1673ffffffffffffffffffffffffffffffffffffffff168152602001600682018054600181600116156101000203166002900480601f016020809104026020016040519081016040528092919081815260200182805460018160011615610100020316600290048015611a6b5780601f10611a4057610100808354040283529160200191611a6b565b820191906000526020600020905b815481529060010190602001808311611a4e57829003601f168201915b50505050508152602001600782018054600181600116156101000203166002900480601f016020809104026020016040519081016040528092919081815260200182805460018160011615610100020316600290048015611b0d5780601f10611ae257610100808354040283529160200191611b0d565b820191906000526020600020905b815481529060010190602001808311611af057829003601f168201915b505050505081526020016008820154815260200160098201548152602001600a8201548152602001600b820160009054906101000a900473ffffffffffffffffffffffffffffffffffffffff1673ffffffffffffffffffffffffffffffffffffffff1673ffffffffffffffffffffffffffffffffffffffff16815250509050600073ffffffffffffffffffffffffffffffffffffffff168160a0015173ffffffffffffffffffffffffffffffffffffffff161415611c33576040517f08c379a00000000000000000000000000000000000000000000000000000000081526004018080602001828103825260128152602001807f70726f706f73616c206e6f7420666f756e64000000000000000000000000000081525060200191505060405180910390fd5b611c3b612488565b816060015110611cb3576040517f08c379a00000000000000000000000000000000000000000000000000000000081526004018080602001828103825260158152602001807f766f74696e67206973206e6f742073746172746564000000000000000000000081525060200191505060405180910390fd5b611cbb612488565b816080015111611d33576040517f08c379a00000000000000000000000000000000000000000000000000000000081526004018080602001828103825260138152602001807f766f74696e67207761732066696e69736865640000000000000000000000000081525060200191505060405180910390fd5b60006009600085815260200190815260200160002060003373ffffffffffffffffffffffffffffffffffffffff1673ffffffffffffffffffffffffffffffffffffffff16815260200190815260200160002060009054906101000a900460000b60000b14611e09576040517f08c379a000000000000000000000000000000000000000000000000000000000815260040180806020018281038252601a8152602001807f796f757220766f74652072656769737465726564206c6174657200000000000081525060200191505060405180910390fd5b60008260000b1415611e66576040517f08c379a000000000000000000000000000000000000000000000000000000000815260040180806020018281038252602a81526020018061289f602a913960400191505060405180910390fd5b60008260000b1315611f115760016009600085815260200190815260200160002060003373ffffffffffffffffffffffffffffffffffffffff1673ffffffffffffffffffffffffffffffffffffffff16815260200190815260200160002060006101000a81548160ff021916908360000b60ff160217905550600160088481548110611eee57fe5b90600052602060002090600c020160090160008282540192505081905550611fcb565b7fffffffffffffffffffffffffffffffffffffffffffffffffffffffffffffffff6009600085815260200190815260200160002060003373ffffffffffffffffffffffffffffffffffffffff1673ffffffffffffffffffffffffffffffffffffffff16815260200190815260200160002060006101000a81548160ff021916908360000b60ff160217905550600160088481548110611fac57fe5b90600052602060002090600c0201600a01600082825401925050819055505b505050565b60048181548110611fdd57fe5b906000526020600020016000915054906101000a900473ffffffffffffffffffffffffffffffffffffffff1681565b60036020528060005260406000206000915090505481565b6000809054906101000a900473ffffffffffffffffffffffffffffffffffffffff1673ffffffffffffffffffffffffffffffffffffffff163373ffffffffffffffffffffffffffffffffffffffff16146120c9576040517f08c379a00000000000000000000000000000000000000000000000000000000081526004018080602001828103825260218152602001806129016021913960400191505060405180910390fd5b6000809054906101000a900473ffffffffffffffffffffffffffffffffffffffff1673ffffffffffffffffffffffffffffffffffffffff167ff8df31144d9c2f0f6b59d69b8b98abd5459d07f2742c4df920b25aae33c6482060405160405180910390a260008060006101000a81548173ffffffffffffffffffffffffffffffffffffffff021916908373ffffffffffffffffffffffffffffffffffffffff160217905550565b6000809054906101000a900473ffffffffffffffffffffffffffffffffffffffff1681565b6000600880549050905090565b60015481565b6000600680549050905090565b6060600480548060200260200160405190810160405280929190818152602001828054801561223957602002820191906000526020600020905b8160009054906101000a900473ffffffffffffffffffffffffffffffffffffffff1673ffffffffffffffffffffffffffffffffffffffff16815260200190600101908083116121ef575b5050505050905090565b6000809054906101000a900473ffffffffffffffffffffffffffffffffffffffff1673ffffffffffffffffffffffffffffffffffffffff163373ffffffffffffffffffffffffffffffffffffffff16146122e8576040517f08c379a00000000000000000000000000000000000000000000000000000000081526004018080602001828103825260218152602001806129016021913960400191505060405180910390fd5b6122f181612490565b50565b60008073ffffffffffffffffffffffffffffffffffffffff166000809054906101000a900473ffffffffffffffffffffffffffffffffffffffff1673ffffffffffffffffffffffffffffffffffffffff1614905090565b6000806123de60048054806020026020016040519081016040528092919081815260200182805480156123d357602002820191906000526020600020905b8160009054906101000a900473ffffffffffffffffffffffffffffffffffffffff1673ffffffffffffffffffffffffffffffffffffffff1681526020019060010190808311612389575b5050505050846125f1565b12159050919050565b60006001541180156123f7575080155b1561246a5760006301e13380600154019050612411612488565b8110612468576040517f08c379a000000000000000000000000000000000000000000000000000000000815260040180806020018281038252602481526020018061294c6024913960400191505060405180910390fd5b505b612476826002546126e6565b61247e612488565b6001819055505050565b600042905090565b600073ffffffffffffffffffffffffffffffffffffffff168173ffffffffffffffffffffffffffffffffffffffff161415612533576040517f08c379a000000000000000000000000000000000000000000000000000000000815260040180806020018281038252601b8152602001807f6f776e6572206d7573742062652076616c69642061646472657373000000000081525060200191505060405180910390fd5b8073ffffffffffffffffffffffffffffffffffffffff166000809054906101000a900473ffffffffffffffffffffffffffffffffffffffff1673ffffffffffffffffffffffffffffffffffffffff167f8be0079c531659141344cd1fd0a4f28419497f9722a3daafe3b4186f6b6457e060405160405180910390a3806000806101000a81548173ffffffffffffffffffffffffffffffffffffffff021916908373ffffffffffffffffffffffffffffffffffffffff16021790555050565b60008073ffffffffffffffffffffffffffffffffffffffff168273ffffffffffffffffffffffffffffffffffffffff16141561264f577fffffffffffffffffffffffffffffffffffffffffffffffffffffffffffffffff90506126e0565b60008090505b83518110156126bb578273ffffffffffffffffffffffffffffffffffffffff1684828151811061268157fe5b602002602001015173ffffffffffffffffffffffffffffffffffffffff1614156126ae57809150506126e0565b8080600101915050612655565b507fffffffffffffffffffffffffffffffffffffffffffffffffffffffffffffffff90505b92915050565b60008090505b825181101561271f5761271283828151811061270457fe5b602002602001015183612724565b80806001019150506126ec565b505050565b80600360008473ffffffffffffffffffffffffffffffffffffffff1673ffffffffffffffffffffffffffffffffffffffff168152602001908152602001600020819055505050565b828054600181600116156101000203166002900490600052602060002090601f016020900481019282601f106127ad57805160ff19168380011785556127db565b828001600101855582156127db579182015b828111156127da5782518255916020019190600101906127bf565b5b5090506127e89190612879565b5090565b6040518061018001604052806000815260200160608152602001600081526020016000815260200160008152602001600073ffffffffffffffffffffffffffffffffffffffff1681526020016060815260200160608152602001600081526020016000815260200160008152602001600073ffffffffffffffffffffffffffffffffffffffff1681525090565b61289b91905b8082111561289757600081600090555060010161287f565b5090565b9056fe796f75206d75737420736574207570206f7220646f776e20776974682031206f72202d312076616c75657573696e6720696e7465726e616c20636f6e747261637420666f722065787465726e616c2070726f706f73616c20697320696e76616c69646f6e6c79206f776e65722063616e2063616c6c20746869732066756e6374696f6e6f6e6c792076616c6964206d656d626572732063616e20646f2074686973207472616e73616374696f6e796f75206d7573742072656e657720746f6b656e73206166746572206f6e652079656172a165627a7a723058209f24aacaffaf78d57d2803a086a431058d567c7f88fb346127007ccbcdd5a2be0029",
  "source": "pragma solidity >=0.4.21 <0.6.0;\n\nimport \"./Ownable.sol\";\nimport \"./AccessToken.sol\";\nimport \"./Anchors.sol\";\n\ncontract Voting is Ownable, AccessToken, Anchors {\n\n  struct Proposal {\n    uint id;\n    string title;\n    uint proposalType;\n    uint startDate;\n    uint endDate;\n    address author;\n    string url;\n    string hashCode;\n    uint registerDate;\n    uint up;\n    uint down;\n    address contractAddress;\n  }\n\n  Proposal[] public proposals;\n\n  mapping (uint => mapping(address => int8)) public votesReceived;\n\n  constructor(uint _voterTokensCount) AccessToken(_voterTokensCount) public {\n  }\n\n  modifier onlyMembers() {\n    require(contractHasNoOwener(), \"this contract is in config mode\");\n    require(inMembers(msg.sender),\"only valid members can do this transaction\");\n    _;\n  }\n\n  function renewYearTokens() public onlyMembers  {\n    renewToken(members, false);\n  }\n\n  function voteForProposal(uint _proposalIndex, int8 _vote) public onlyMembers {\n    Proposal memory proposal = proposals[_proposalIndex];\n    require(proposal.author != address(0), \"proposal not found\");\n    require(proposal.startDate < getTime(), \"voting is not started\");\n    require(proposal.endDate > getTime(), \"voting was finished\");\n    require(votesReceived[_proposalIndex][msg.sender] == 0, \"your vote registered later\");\n    require(_vote != 0, \"you must set up or down with 1 or -1 value\");\n    if(_vote > 0) {\n      votesReceived[_proposalIndex][msg.sender] = 1;\n      proposals[_proposalIndex].up += 1;\n    } else {\n      votesReceived[_proposalIndex][msg.sender] = -1;\n      proposals[_proposalIndex].down += 1;\n    }\n  }\n  function getProposalsCount() public view returns (uint) {\n    return proposals.length;\n  }\n\n  function getProposalStatus(uint index) public view returns ( uint, uint, uint, uint, address, bool, bool, uint, uint ) {\n    Proposal memory proposal = proposals[index];\n    uint total = proposal.up + proposal.down;\n    return (\n      proposal.id,\n      proposal.up,\n      proposal.down,\n      proposal.proposalType,\n      proposal.contractAddress,\n      getTime() < proposal.startDate, // isNotStarted\n      getTime() >= proposal.endDate, // isExpired\n      proposal.up * 100 / total, // up percentage\n      proposal.down * 100 / total // down percentage\n    );\n  }\n\n  function registerProposal(\n    uint id,\n    string memory title,\n    uint proposalType,\n    uint startDate,\n    uint endDate,\n    string memory url,\n    string memory hashCode,\n    address contractAddress\n    ) public onlyMembers useToken(1) {\n        require(contractAddress != address(this), \"using internal contract for external proposal is invalid\");\n        proposals.push(Proposal(id, title, proposalType, startDate, endDate, msg.sender, url,hashCode, getTime(), 0, 0, contractAddress));\n  }\n\n  function registerInternalProposal(\n    uint id,\n    string memory title,\n    uint proposalType,\n    uint startDate,\n    uint endDate,\n    string memory url,\n    string memory hashCode\n    ) internal onlyMembers useToken(1) returns (uint) {\n        return proposals.push(Proposal(id, title, proposalType, startDate, endDate, msg.sender, url,hashCode, getTime(), 0, 0, address(this)));\n  }\n}",
  "sourcePath": "C:\\Users\\javad\\projects\\kuknus\\kuknos-dao\\contracts\\Voting.sol",
  "compiler": {
    "name": "solc",
    "version": "0.5.8+commit.23d335f2.Emscripten.clang"
  },
  "schemaVersion": "3.0.11",
  "updatedAt": "2019-06-18T14:03:55.849Z",
  "devdoc": {
    "methods": {
      "renounceOwnership()": {
        "details": "Allows the current owner to relinquish control of the contract."
      },
      "transferOwnership(address)": {
        "details": "Allows the current owner to transfer control of the contract to a newOwner.",
        "params": {
          "_newOwner": "The address to transfer ownership to."
        }
      }
    }
  },
  "userdoc": {
    "methods": {
      "renounceOwnership()": {
        "notice": "Renouncing to ownership will leave the contract without an owner. It will not be possible to call the functions with the `onlyOwner` modifier anymore."
      }
    }
  }
}