{
  "contractName": "Voting",
  "abi": [
    {
      "constant": true,
      "inputs": [
        {
          "name": "",
          "type": "uint256"
        },
        {
          "name": "",
          "type": "address"
        }
      ],
      "name": "votesReceived",
      "outputs": [
        {
          "name": "",
          "type": "int8"
        }
      ],
      "payable": false,
      "stateMutability": "view",
      "type": "function"
    },
    {
      "constant": false,
      "inputs": [],
      "name": "renounceOwnership",
      "outputs": [],
      "payable": false,
      "stateMutability": "nonpayable",
      "type": "function"
    },
    {
      "constant": true,
      "inputs": [],
      "name": "owner",
      "outputs": [
        {
          "name": "",
          "type": "address"
        }
      ],
      "payable": false,
      "stateMutability": "view",
      "type": "function"
    },
    {
      "constant": true,
      "inputs": [
        {
          "name": "",
          "type": "uint256"
        }
      ],
      "name": "candidateList",
      "outputs": [
        {
          "name": "",
          "type": "bytes32"
        }
      ],
      "payable": false,
      "stateMutability": "view",
      "type": "function"
    },
    {
      "constant": true,
      "inputs": [
        {
          "name": "",
          "type": "uint256"
        }
      ],
      "name": "voters",
      "outputs": [
        {
          "name": "",
          "type": "address"
        }
      ],
      "payable": false,
      "stateMutability": "view",
      "type": "function"
    },
    {
      "constant": false,
      "inputs": [
        {
          "name": "_newOwner",
          "type": "address"
        }
      ],
      "name": "transferOwnership",
      "outputs": [],
      "payable": false,
      "stateMutability": "nonpayable",
      "type": "function"
    },
    {
      "inputs": [
        {
          "name": "_voters",
          "type": "address[]"
        }
      ],
      "payable": false,
      "stateMutability": "nonpayable",
      "type": "constructor"
    },
    {
      "anonymous": false,
      "inputs": [
        {
          "indexed": true,
          "name": "previousOwner",
          "type": "address"
        }
      ],
      "name": "OwnershipRenounced",
      "type": "event"
    },
    {
      "anonymous": false,
      "inputs": [
        {
          "indexed": true,
          "name": "previousOwner",
          "type": "address"
        },
        {
          "indexed": true,
          "name": "newOwner",
          "type": "address"
        }
      ],
      "name": "OwnershipTransferred",
      "type": "event"
    },
    {
      "constant": false,
      "inputs": [
        {
          "name": "_proposalIndex",
          "type": "uint256"
        },
        {
          "name": "_vote",
          "type": "int8"
        }
      ],
      "name": "voteForProposal",
      "outputs": [],
      "payable": false,
      "stateMutability": "nonpayable",
      "type": "function"
    },
    {
      "constant": true,
      "inputs": [],
      "name": "votersCount",
      "outputs": [
        {
          "name": "",
          "type": "uint256"
        }
      ],
      "payable": false,
      "stateMutability": "view",
      "type": "function"
    },
    {
      "constant": true,
      "inputs": [],
      "name": "getProposalsCount",
      "outputs": [
        {
          "name": "",
          "type": "uint256"
        }
      ],
      "payable": false,
      "stateMutability": "view",
      "type": "function"
    },
    {
      "constant": true,
      "inputs": [
        {
          "name": "index",
          "type": "uint256"
        }
      ],
      "name": "getProposal",
      "outputs": [
        {
          "name": "",
          "type": "string"
        },
        {
          "name": "",
          "type": "uint256"
        },
        {
          "name": "",
          "type": "uint256"
        },
        {
          "name": "",
          "type": "uint256"
        },
        {
          "name": "",
          "type": "address"
        },
        {
          "name": "",
          "type": "string"
        },
        {
          "name": "",
          "type": "bytes32"
        },
        {
          "name": "",
          "type": "uint256"
        },
        {
          "name": "",
          "type": "uint256"
        },
        {
          "name": "",
          "type": "uint256"
        }
      ],
      "payable": false,
      "stateMutability": "view",
      "type": "function"
    },
    {
      "constant": true,
      "inputs": [],
      "name": "votersList",
      "outputs": [
        {
          "name": "",
          "type": "address[]"
        }
      ],
      "payable": false,
      "stateMutability": "view",
      "type": "function"
    },
    {
      "constant": false,
      "inputs": [
        {
          "name": "title",
          "type": "string"
        },
        {
          "name": "ProposalType",
          "type": "uint256"
        },
        {
          "name": "startDate",
          "type": "uint256"
        },
        {
          "name": "endDate",
          "type": "uint256"
        },
        {
          "name": "url",
          "type": "string"
        },
        {
          "name": "hashCode",
          "type": "bytes32"
        }
      ],
      "name": "registerProposal",
      "outputs": [],
      "payable": false,
      "stateMutability": "nonpayable",
      "type": "function"
    }
  ],
  "bytecode": "0x60806040523480156200001157600080fd5b5060405162001bc938038062001bc9833981018060405260208110156200003757600080fd5b8101908080516401000000008111156200005057600080fd5b828101905060208101848111156200006757600080fd5b81518560208202830111640100000000821117156200008557600080fd5b5050929190505050336000806101000a81548173ffffffffffffffffffffffffffffffffffffffff021916908373ffffffffffffffffffffffffffffffffffffffff1602179055508060039080519060200190620000e5929190620000ed565b5050620001c2565b82805482825590600052602060002090810192821562000169579160200282015b82811115620001685782518260006101000a81548173ffffffffffffffffffffffffffffffffffffffff021916908373ffffffffffffffffffffffffffffffffffffffff160217905550916020019190600101906200010e565b5b5090506200017891906200017c565b5090565b620001bf91905b80821115620001bb57600081816101000a81549073ffffffffffffffffffffffffffffffffffffffff02191690555060010162000183565b5090565b90565b6119f780620001d26000396000f3fe6080604052600436106100ba576000357c0100000000000000000000000000000000000000000000000000000000900463ffffffff16806333dd6bed146100bf5780635ab09f5914610134578063715018a61461017c5780638da5cb5b1461019357806398c07938146101ea57806398e527d314610215578063a02b10b614610240578063b13c744b146103c7578063c7f758a814610416578063cc0e480c1461059a578063da58c7d914610606578063f2fde38b14610681575b600080fd5b3480156100cb57600080fd5b50610118600480360360408110156100e257600080fd5b8101908080359060200190929190803573ffffffffffffffffffffffffffffffffffffffff1690602001909291905050506106d2565b604051808260000b60000b815260200191505060405180910390f35b34801561014057600080fd5b5061017a6004803603604081101561015757600080fd5b8101908080359060200190929190803560000b9060200190929190505050610701565b005b34801561018857600080fd5b50610191610e3d565b005b34801561019f57600080fd5b506101a8610fce565b604051808273ffffffffffffffffffffffffffffffffffffffff1673ffffffffffffffffffffffffffffffffffffffff16815260200191505060405180910390f35b3480156101f657600080fd5b506101ff610ff3565b6040518082815260200191505060405180910390f35b34801561022157600080fd5b5061022a611000565b6040518082815260200191505060405180910390f35b34801561024c57600080fd5b506103c5600480360360c081101561026357600080fd5b810190808035906020019064010000000081111561028057600080fd5b82018360208201111561029257600080fd5b803590602001918460018302840111640100000000831117156102b457600080fd5b91908080601f016020809104026020016040519081016040528093929190818152602001838380828437600081840152601f19601f8201169050808301925050505050505091929192908035906020019092919080359060200190929190803590602001909291908035906020019064010000000081111561033557600080fd5b82018360208201111561034757600080fd5b8035906020019184600183028401116401000000008311171561036957600080fd5b91908080601f016020809104026020016040519081016040528093929190818152602001838380828437600081840152601f19601f8201169050808301925050505050505091929192908035906020019092919050505061100d565b005b3480156103d357600080fd5b50610400600480360360208110156103ea57600080fd5b8101908080359060200190929190505050611210565b6040518082815260200191505060405180910390f35b34801561042257600080fd5b5061044f6004803603602081101561043957600080fd5b8101908080359060200190929190505050611233565b60405180806020018b81526020018a81526020018981526020018873ffffffffffffffffffffffffffffffffffffffff1673ffffffffffffffffffffffffffffffffffffffff1681526020018060200187815260200186815260200185815260200184815260200183810383528d818151815260200191508051906020019080838360005b838110156104ef5780820151818401526020810190506104d4565b50505050905090810190601f16801561051c5780820380516001836020036101000a031916815260200191505b50838103825288818151815260200191508051906020019080838360005b8381101561055557808201518184015260208101905061053a565b50505050905090810190601f1680156105825780820380516001836020036101000a031916815260200191505b509c5050505050505050505050505060405180910390f35b3480156105a657600080fd5b506105af6114b3565b6040518080602001828103825283818151815260200191508051906020019060200280838360005b838110156105f25780820151818401526020810190506105d7565b505050509050019250505060405180910390f35b34801561061257600080fd5b5061063f6004803603602081101561062957600080fd5b8101908080359060200190929190505050611541565b604051808273ffffffffffffffffffffffffffffffffffffffff1673ffffffffffffffffffffffffffffffffffffffff16815260200191505060405180910390f35b34801561068d57600080fd5b506106d0600480360360208110156106a457600080fd5b81019080803573ffffffffffffffffffffffffffffffffffffffff16906020019092919050505061157f565b005b60026020528160005260406000206020528060005260406000206000915091509054906101000a900460000b81565b61070a33611675565b15156107a4576040517f08c379a00000000000000000000000000000000000000000000000000000000081526004018080602001828103825260298152602001807f6f6e6c792076616c696420766f746572732063616e20646f207468697320747281526020017f616e73616374696f6e000000000000000000000000000000000000000000000081525060400191505060405180910390fd5b6107ac6118b9565b6001838154811015156107bb57fe5b90600052602060002090600a02016101406040519081016040529081600082018054600181600116156101000203166002900480601f01602080910402602001604051908101604052809291908181526020018280546001816001161561010002031660029004801561086f5780601f106108445761010080835404028352916020019161086f565b820191906000526020600020905b81548152906001019060200180831161085257829003601f168201915b505050505081526020016001820154815260200160028201548152602001600382015481526020016004820160009054906101000a900473ffffffffffffffffffffffffffffffffffffffff1673ffffffffffffffffffffffffffffffffffffffff1673ffffffffffffffffffffffffffffffffffffffff168152602001600582018054600181600116156101000203166002900480601f0160208091040260200160405190810160405280929190818152602001828054600181600116156101000203166002900480156109855780601f1061095a57610100808354040283529160200191610985565b820191906000526020600020905b81548152906001019060200180831161096857829003601f168201915b505050505081526020016006820154815260200160078201548152602001600882015481526020016009820154815250509050600073ffffffffffffffffffffffffffffffffffffffff16816080015173ffffffffffffffffffffffffffffffffffffffff1614151515610a61576040517f08c379a00000000000000000000000000000000000000000000000000000000081526004018080602001828103825260128152602001807f70726f706f73616c206e6f7420666f756e64000000000000000000000000000081525060200191505060405180910390fd5b428160400151101515610adc576040517f08c379a00000000000000000000000000000000000000000000000000000000081526004018080602001828103825260158152602001807f766f74696e67206973206e6f742073746172746564000000000000000000000081525060200191505060405180910390fd5b428160600151111515610b57576040517f08c379a00000000000000000000000000000000000000000000000000000000081526004018080602001828103825260138152602001807f766f74696e67207761732066696e69736865640000000000000000000000000081525060200191505060405180910390fd5b60006002600085815260200190815260200160002060003373ffffffffffffffffffffffffffffffffffffffff1673ffffffffffffffffffffffffffffffffffffffff16815260200190815260200160002060009054906101000a900460000b60000b141515610c2f576040517f08c379a000000000000000000000000000000000000000000000000000000000815260040180806020018281038252601a8152602001807f796f757220766f74652072656769737465726564206c6174657200000000000081525060200191505060405180910390fd5b60008260000b14151515610cd1576040517f08c379a000000000000000000000000000000000000000000000000000000000815260040180806020018281038252602a8152602001807f796f75206d75737420736574207570206f7220646f776e20776974682031206f81526020017f72202d312076616c75650000000000000000000000000000000000000000000081525060400191505060405180910390fd5b60008260000b1315610d7d5760016002600085815260200190815260200160002060003373ffffffffffffffffffffffffffffffffffffffff1673ffffffffffffffffffffffffffffffffffffffff16815260200190815260200160002060006101000a81548160ff021916908360000b60ff16021790555060018084815481101515610d5a57fe5b90600052602060002090600a020160080160008282540192505081905550610e38565b7fffffffffffffffffffffffffffffffffffffffffffffffffffffffffffffffff6002600085815260200190815260200160002060003373ffffffffffffffffffffffffffffffffffffffff1673ffffffffffffffffffffffffffffffffffffffff16815260200190815260200160002060006101000a81548160ff021916908360000b60ff16021790555060018084815481101515610e1957fe5b90600052602060002090600a0201600901600082825401925050819055505b505050565b6000809054906101000a900473ffffffffffffffffffffffffffffffffffffffff1673ffffffffffffffffffffffffffffffffffffffff163373ffffffffffffffffffffffffffffffffffffffff16141515610f27576040517f08c379a00000000000000000000000000000000000000000000000000000000081526004018080602001828103825260218152602001807f6f6e6c79206f776e65722063616e2063616c6c20746869732066756e6374696f81526020017f6e0000000000000000000000000000000000000000000000000000000000000081525060400191505060405180910390fd5b6000809054906101000a900473ffffffffffffffffffffffffffffffffffffffff1673ffffffffffffffffffffffffffffffffffffffff167ff8df31144d9c2f0f6b59d69b8b98abd5459d07f2742c4df920b25aae33c6482060405160405180910390a260008060006101000a81548173ffffffffffffffffffffffffffffffffffffffff021916908373ffffffffffffffffffffffffffffffffffffffff160217905550565b6000809054906101000a900473ffffffffffffffffffffffffffffffffffffffff1681565b6000600380549050905090565b6000600180549050905090565b61101633611675565b15156110b0576040517f08c379a00000000000000000000000000000000000000000000000000000000081526004018080602001828103825260298152602001807f6f6e6c792076616c696420766f746572732063616e20646f207468697320747281526020017f616e73616374696f6e000000000000000000000000000000000000000000000081525060400191505060405180910390fd5b6001610140604051908101604052808881526020018781526020018681526020018581526020013373ffffffffffffffffffffffffffffffffffffffff1681526020018481526020018381526020014281526020016000815260200160008152509080600181540180825580915050906001820390600052602060002090600a0201600090919290919091506000820151816000019080519060200190611158929190611926565b5060208201518160010155604082015181600201556060820151816003015560808201518160040160006101000a81548173ffffffffffffffffffffffffffffffffffffffff021916908373ffffffffffffffffffffffffffffffffffffffff16021790555060a08201518160050190805190602001906111da929190611926565b5060c0820151816006015560e0820151816007015561010082015181600801556101208201518160090155505050505050505050565b60048181548110151561121f57fe5b906000526020600020016000915090505481565b6060600080600080606060008060008061124b6118b9565b60018c81548110151561125a57fe5b90600052602060002090600a02016101406040519081016040529081600082018054600181600116156101000203166002900480601f01602080910402602001604051908101604052809291908181526020018280546001816001161561010002031660029004801561130e5780601f106112e35761010080835404028352916020019161130e565b820191906000526020600020905b8154815290600101906020018083116112f157829003601f168201915b505050505081526020016001820154815260200160028201548152602001600382015481526020016004820160009054906101000a900473ffffffffffffffffffffffffffffffffffffffff1673ffffffffffffffffffffffffffffffffffffffff1673ffffffffffffffffffffffffffffffffffffffff168152602001600582018054600181600116156101000203166002900480601f0160208091040260200160405190810160405280929190818152602001828054600181600116156101000203166002900480156114245780601f106113f957610100808354040283529160200191611424565b820191906000526020600020905b81548152906001019060200180831161140757829003601f168201915b505050505081526020016006820154815260200160078201548152602001600882015481526020016009820154815250509050806000015181602001518260400151836060015184608001518560a001518660c001518760e001518861010001518961012001518999508494509a509a509a509a509a509a509a509a509a509a50509193959799509193959799565b6060600380548060200260200160405190810160405280929190818152602001828054801561153757602002820191906000526020600020905b8160009054906101000a900473ffffffffffffffffffffffffffffffffffffffff1673ffffffffffffffffffffffffffffffffffffffff16815260200190600101908083116114ed575b5050505050905090565b60038181548110151561155057fe5b906000526020600020016000915054906101000a900473ffffffffffffffffffffffffffffffffffffffff1681565b6000809054906101000a900473ffffffffffffffffffffffffffffffffffffffff1673ffffffffffffffffffffffffffffffffffffffff163373ffffffffffffffffffffffffffffffffffffffff16141515611669576040517f08c379a00000000000000000000000000000000000000000000000000000000081526004018080602001828103825260218152602001807f6f6e6c79206f776e65722063616e2063616c6c20746869732066756e6374696f81526020017f6e0000000000000000000000000000000000000000000000000000000000000081525060400191505060405180910390fd5b61167281611756565b50565b60008073ffffffffffffffffffffffffffffffffffffffff168273ffffffffffffffffffffffffffffffffffffffff1614156116b45760009050611751565b60008090505b60038054905081101561174b578273ffffffffffffffffffffffffffffffffffffffff166003828154811015156116ed57fe5b9060005260206000200160009054906101000a900473ffffffffffffffffffffffffffffffffffffffff1673ffffffffffffffffffffffffffffffffffffffff16141561173e576001915050611751565b80806001019150506116ba565b50600090505b919050565b600073ffffffffffffffffffffffffffffffffffffffff168173ffffffffffffffffffffffffffffffffffffffff16141515156117fb576040517f08c379a000000000000000000000000000000000000000000000000000000000815260040180806020018281038252601b8152602001807f6f776e6572206d7573742062652076616c69642061646472657373000000000081525060200191505060405180910390fd5b8073ffffffffffffffffffffffffffffffffffffffff166000809054906101000a900473ffffffffffffffffffffffffffffffffffffffff1673ffffffffffffffffffffffffffffffffffffffff167f8be0079c531659141344cd1fd0a4f28419497f9722a3daafe3b4186f6b6457e060405160405180910390a3806000806101000a81548173ffffffffffffffffffffffffffffffffffffffff021916908373ffffffffffffffffffffffffffffffffffffffff16021790555050565b6101406040519081016040528060608152602001600081526020016000815260200160008152602001600073ffffffffffffffffffffffffffffffffffffffff16815260200160608152602001600080191681526020016000815260200160008152602001600081525090565b828054600181600116156101000203166002900490600052602060002090601f016020900481019282601f1061196757805160ff1916838001178555611995565b82800160010185558215611995579182015b82811115611994578251825591602001919060010190611979565b5b5090506119a291906119a6565b5090565b6119c891905b808211156119c45760008160009055506001016119ac565b5090565b9056fea165627a7a72305820e25b6a8c3e652279a51264fb219f2cad46f89ed9463d771308dd3db5bae08de10029",
  "source": "pragma solidity >=0.4.21 <0.6.0;\r\n\r\nimport \"./Ownable.sol\";\r\n\r\ncontract Voting is Ownable {\r\n\r\n  struct Proposal {\r\n      string title;\r\n      uint ProposalType;\r\n      uint startDate;\r\n      uint endDate;\r\n      address author;\r\n      string url;\r\n      bytes32 hashCode;\r\n      uint registerDate;\r\n      uint up;\r\n      uint down;\r\n  }\r\n\r\n  Proposal[] proposals;\r\n\r\n  mapping (uint => mapping(address => int8)) public votesReceived;\r\n\r\n  address[] public voters;\r\n\r\n  bytes32[] public candidateList;\r\n\r\n\r\n  constructor(address[] memory _voters) public {\r\n    voters = _voters;\r\n  }\r\n\r\n  modifier onlyVoters() {\r\n    require(inVoters(msg.sender),\"only valid voters can do this transaction\");\r\n    _;\r\n  }\r\n\r\n  function voteForProposal(uint _proposalIndex, int8 _vote) public onlyVoters {\r\n      Proposal memory proposal = proposals[_proposalIndex];\r\n      require(proposal.author != address(0), \"proposal not found\");\r\n      require(proposal.startDate < block.timestamp , \"voting is not started\");\r\n      require(proposal.endDate > block.timestamp , \"voting was finished\");\r\n      require(votesReceived[_proposalIndex][msg.sender] == 0, \"your vote registered later\");\r\n      require(_vote != 0, \"you must set up or down with 1 or -1 value\");\r\n      if(_vote > 0) {\r\n          votesReceived[_proposalIndex][msg.sender] = 1;\r\n          proposals[_proposalIndex].up += 1;\r\n      } else {\r\n          votesReceived[_proposalIndex][msg.sender] = -1;\r\n          proposals[_proposalIndex].down += 1;\r\n      }\r\n  }\r\n\r\n  function votersCount() public view returns (uint) {\r\n      return voters.length;\r\n  }\r\n\r\n  function getProposalsCount() public view returns (uint) {\r\n      return proposals.length;\r\n  }\r\n\r\n  function getProposal(uint index) public view returns (string memory, uint , uint, uint, address, string memory, bytes32, uint, uint, uint ) {\r\n      Proposal memory proposal = proposals[index];\r\n      return (\r\n          proposal.title,\r\n          proposal.ProposalType,\r\n          proposal.startDate,\r\n          proposal.endDate,\r\n          proposal.author,\r\n          proposal.url,\r\n          proposal.hashCode,\r\n          proposal.registerDate,\r\n          proposal.up,\r\n          proposal.down);\r\n  }\r\n\r\n\r\n   function votersList() public view returns (address[] memory) {\r\n      return voters;\r\n  }\r\n\r\n  function registerProposal(\r\n      string memory title,\r\n      uint ProposalType,\r\n      uint startDate,\r\n      uint endDate,\r\n      string memory url,\r\n      bytes32 hashCode) public onlyVoters {\r\n         proposals.push(Proposal(title, ProposalType, startDate, endDate, msg.sender, url,hashCode, block.timestamp, 0 ,0));\r\n  }\r\n\r\n  function inVoters(address caller) private view returns (bool) {\r\n      if(caller == address(0)){\r\n          return false;\r\n      }\r\n      for(uint i = 0; i < voters.length; i++) {\r\n          if (voters[i] == caller) {\r\n             return true;\r\n          }\r\n      }\r\n    return false;\r\n  }\r\n}",
  "sourcePath": "D:/projects/blockchain/kuknos-dao/contracts/Voting.sol",
  "compiler": {
    "name": "solc",
    "version": "0.5.0+commit.1d4f565a.Emscripten.clang"
  },
  "schemaVersion": "3.0.9",
  "updatedAt": "2019-05-19T07:44:00.871Z",
  "devdoc": {
    "methods": {
      "renounceOwnership()": {
        "details": "Allows the current owner to relinquish control of the contract."
      },
      "transferOwnership(address)": {
        "details": "Allows the current owner to transfer control of the contract to a newOwner.",
        "params": {
          "_newOwner": "The address to transfer ownership to."
        }
      }
    }
  },
  "userdoc": {
    "methods": {
      "renounceOwnership()": {
        "notice": "Renouncing to ownership will leave the contract without an owner. It will not be possible to call the functions with the `onlyOwner` modifier anymore."
      }
    }
  }
}