{
  "contractName": "Voting",
  "abi": [
    {
      "constant": true,
      "inputs": [
        {
          "name": "",
          "type": "uint256"
        },
        {
          "name": "",
          "type": "address"
        }
      ],
      "name": "votesReceived",
      "outputs": [
        {
          "name": "",
          "type": "int8"
        }
      ],
      "payable": false,
      "stateMutability": "view",
      "type": "function"
    },
    {
      "constant": true,
      "inputs": [],
      "name": "accessTokensCount",
      "outputs": [
        {
          "name": "",
          "type": "uint256"
        }
      ],
      "payable": false,
      "stateMutability": "view",
      "type": "function"
    },
    {
      "constant": true,
      "inputs": [
        {
          "name": "",
          "type": "address"
        }
      ],
      "name": "balanceOf",
      "outputs": [
        {
          "name": "",
          "type": "uint256"
        }
      ],
      "payable": false,
      "stateMutability": "view",
      "type": "function"
    },
    {
      "constant": false,
      "inputs": [],
      "name": "renounceOwnership",
      "outputs": [],
      "payable": false,
      "stateMutability": "nonpayable",
      "type": "function"
    },
    {
      "constant": true,
      "inputs": [],
      "name": "owner",
      "outputs": [
        {
          "name": "",
          "type": "address"
        }
      ],
      "payable": false,
      "stateMutability": "view",
      "type": "function"
    },
    {
      "constant": true,
      "inputs": [],
      "name": "lastTokenIssueDate",
      "outputs": [
        {
          "name": "",
          "type": "uint256"
        }
      ],
      "payable": false,
      "stateMutability": "view",
      "type": "function"
    },
    {
      "constant": true,
      "inputs": [
        {
          "name": "",
          "type": "uint256"
        }
      ],
      "name": "voters",
      "outputs": [
        {
          "name": "",
          "type": "address"
        }
      ],
      "payable": false,
      "stateMutability": "view",
      "type": "function"
    },
    {
      "constant": false,
      "inputs": [
        {
          "name": "_newOwner",
          "type": "address"
        }
      ],
      "name": "transferOwnership",
      "outputs": [],
      "payable": false,
      "stateMutability": "nonpayable",
      "type": "function"
    },
    {
      "inputs": [
        {
          "name": "_voters",
          "type": "address[]"
        },
        {
          "name": "_voterTokensCount",
          "type": "uint256"
        }
      ],
      "payable": false,
      "stateMutability": "nonpayable",
      "type": "constructor"
    },
    {
      "anonymous": false,
      "inputs": [
        {
          "indexed": true,
          "name": "previousOwner",
          "type": "address"
        }
      ],
      "name": "OwnershipRenounced",
      "type": "event"
    },
    {
      "anonymous": false,
      "inputs": [
        {
          "indexed": true,
          "name": "previousOwner",
          "type": "address"
        },
        {
          "indexed": true,
          "name": "newOwner",
          "type": "address"
        }
      ],
      "name": "OwnershipTransferred",
      "type": "event"
    },
    {
      "constant": false,
      "inputs": [],
      "name": "renewYearTokens",
      "outputs": [],
      "payable": false,
      "stateMutability": "nonpayable",
      "type": "function"
    },
    {
      "constant": false,
      "inputs": [
        {
          "name": "_proposalIndex",
          "type": "uint256"
        },
        {
          "name": "_vote",
          "type": "int8"
        }
      ],
      "name": "voteForProposal",
      "outputs": [],
      "payable": false,
      "stateMutability": "nonpayable",
      "type": "function"
    },
    {
      "constant": true,
      "inputs": [],
      "name": "votersCount",
      "outputs": [
        {
          "name": "",
          "type": "uint256"
        }
      ],
      "payable": false,
      "stateMutability": "view",
      "type": "function"
    },
    {
      "constant": true,
      "inputs": [],
      "name": "getProposalsCount",
      "outputs": [
        {
          "name": "",
          "type": "uint256"
        }
      ],
      "payable": false,
      "stateMutability": "view",
      "type": "function"
    },
    {
      "constant": true,
      "inputs": [
        {
          "name": "index",
          "type": "uint256"
        }
      ],
      "name": "getProposal",
      "outputs": [
        {
          "name": "",
          "type": "string"
        },
        {
          "name": "",
          "type": "uint256"
        },
        {
          "name": "",
          "type": "uint256"
        },
        {
          "name": "",
          "type": "uint256"
        },
        {
          "name": "",
          "type": "address"
        },
        {
          "name": "",
          "type": "string"
        },
        {
          "name": "",
          "type": "bytes32"
        },
        {
          "name": "",
          "type": "uint256"
        },
        {
          "name": "",
          "type": "uint256"
        },
        {
          "name": "",
          "type": "uint256"
        }
      ],
      "payable": false,
      "stateMutability": "view",
      "type": "function"
    },
    {
      "constant": true,
      "inputs": [],
      "name": "votersList",
      "outputs": [
        {
          "name": "",
          "type": "address[]"
        }
      ],
      "payable": false,
      "stateMutability": "view",
      "type": "function"
    },
    {
      "constant": false,
      "inputs": [
        {
          "name": "title",
          "type": "string"
        },
        {
          "name": "ProposalType",
          "type": "uint256"
        },
        {
          "name": "startDate",
          "type": "uint256"
        },
        {
          "name": "endDate",
          "type": "uint256"
        },
        {
          "name": "url",
          "type": "string"
        },
        {
          "name": "hashCode",
          "type": "bytes32"
        }
      ],
      "name": "registerProposal",
      "outputs": [],
      "payable": false,
      "stateMutability": "nonpayable",
      "type": "function"
    }
  ],
  "bytecode": "0x60806040523480156200001157600080fd5b506040516200226e3803806200226e833981018060405260408110156200003757600080fd5b8101908080516401000000008111156200005057600080fd5b828101905060208101848111156200006757600080fd5b81518560208202830111640100000000821117156200008557600080fd5b50509291906020018051906020019092919050505080336000806101000a81548173ffffffffffffffffffffffffffffffffffffffff021916908373ffffffffffffffffffffffffffffffffffffffff16021790555080600281905550508160069080519060200190620000fb9291906200033d565b506200019e60068054806020026020016040519081016040528092919081815260200182805480156200018457602002820191906000526020600020905b8160009054906101000a900473ffffffffffffffffffffffffffffffffffffffff1673ffffffffffffffffffffffffffffffffffffffff168152602001906001019080831162000139575b5050505050620001a6640100000000026401000000009004565b505062000412565b60006001541115620002775760006301e13380600154019050620001d8620002b6640100000000026401000000009004565b8110151562000275576040517f08c379a00000000000000000000000000000000000000000000000000000000081526004018080602001828103825260248152602001807f796f75206d7573742072656e657720746f6b656e73206166746572206f6e652081526020017f796561720000000000000000000000000000000000000000000000000000000081525060400191505060405180910390fd5b505b6200029481600254620002be640100000000026401000000009004565b620002ad620002b6640100000000026401000000009004565b60018190555050565b600042905090565b60008090505b8251811015620003385781600360008584815181101515620002e257fe5b9060200190602002015173ffffffffffffffffffffffffffffffffffffffff1673ffffffffffffffffffffffffffffffffffffffff168152602001908152602001600020819055508080600101915050620002c4565b505050565b828054828255906000526020600020908101928215620003b9579160200282015b82811115620003b85782518260006101000a81548173ffffffffffffffffffffffffffffffffffffffff021916908373ffffffffffffffffffffffffffffffffffffffff160217905550916020019190600101906200035e565b5b509050620003c89190620003cc565b5090565b6200040f91905b808211156200040b57600081816101000a81549073ffffffffffffffffffffffffffffffffffffffff021916905550600101620003d3565b5090565b90565b611e4c80620004226000396000f3fe6080604052600436106100da576000357c0100000000000000000000000000000000000000000000000000000000900463ffffffff168062f18f56146100df57806333dd6bed146100f657806355de8c7e1461016b5780635ab09f591461019657806370a08231146101de578063715018a6146102435780638da5cb5b1461025a57806398c07938146102b157806398e527d3146102dc578063a02b10b614610307578063c7f758a81461048e578063cc0e480c14610612578063cededb301461067e578063da58c7d9146106a9578063f2fde38b14610724575b600080fd5b3480156100eb57600080fd5b506100f4610775565b005b34801561010257600080fd5b5061014f6004803603604081101561011957600080fd5b8101908080359060200190929190803573ffffffffffffffffffffffffffffffffffffffff1690602001909291905050506108a9565b604051808260000b60000b815260200191505060405180910390f35b34801561017757600080fd5b506101806108d8565b6040518082815260200191505060405180910390f35b3480156101a257600080fd5b506101dc600480360360408110156101b957600080fd5b8101908080359060200190929190803560000b90602001909291905050506108de565b005b3480156101ea57600080fd5b5061022d6004803603602081101561020157600080fd5b81019080803573ffffffffffffffffffffffffffffffffffffffff16906020019092919050505061102a565b6040518082815260200191505060405180910390f35b34801561024f57600080fd5b50610258611042565b005b34801561026657600080fd5b5061026f6111d3565b604051808273ffffffffffffffffffffffffffffffffffffffff1673ffffffffffffffffffffffffffffffffffffffff16815260200191505060405180910390f35b3480156102bd57600080fd5b506102c66111f8565b6040518082815260200191505060405180910390f35b3480156102e857600080fd5b506102f1611205565b6040518082815260200191505060405180910390f35b34801561031357600080fd5b5061048c600480360360c081101561032a57600080fd5b810190808035906020019064010000000081111561034757600080fd5b82018360208201111561035957600080fd5b8035906020019184600183028401116401000000008311171561037b57600080fd5b91908080601f016020809104026020016040519081016040528093929190818152602001838380828437600081840152601f19601f820116905080830192505050505050509192919290803590602001909291908035906020019092919080359060200190929190803590602001906401000000008111156103fc57600080fd5b82018360208201111561040e57600080fd5b8035906020019184600183028401116401000000008311171561043057600080fd5b91908080601f016020809104026020016040519081016040528093929190818152602001838380828437600081840152601f19601f82011690508083019250505050505050919291929080359060200190929190505050611212565b005b34801561049a57600080fd5b506104c7600480360360208110156104b157600080fd5b8101908080359060200190929190505050611523565b60405180806020018b81526020018a81526020018981526020018873ffffffffffffffffffffffffffffffffffffffff1673ffffffffffffffffffffffffffffffffffffffff1681526020018060200187815260200186815260200185815260200184815260200183810383528d818151815260200191508051906020019080838360005b8381101561056757808201518184015260208101905061054c565b50505050905090810190601f1680156105945780820380516001836020036101000a031916815260200191505b50838103825288818151815260200191508051906020019080838360005b838110156105cd5780820151818401526020810190506105b2565b50505050905090810190601f1680156105fa5780820380516001836020036101000a031916815260200191505b509c5050505050505050505050505060405180910390f35b34801561061e57600080fd5b506106276117a3565b6040518080602001828103825283818151815260200191508051906020019060200280838360005b8381101561066a57808201518184015260208101905061064f565b505050509050019250505060405180910390f35b34801561068a57600080fd5b50610693611831565b6040518082815260200191505060405180910390f35b3480156106b557600080fd5b506106e2600480360360208110156106cc57600080fd5b8101908080359060200190929190505050611837565b604051808273ffffffffffffffffffffffffffffffffffffffff1673ffffffffffffffffffffffffffffffffffffffff16815260200191505060405180910390f35b34801561073057600080fd5b506107736004803603602081101561074757600080fd5b81019080803573ffffffffffffffffffffffffffffffffffffffff169060200190929190505050611875565b005b61077e3361196b565b1515610818576040517f08c379a00000000000000000000000000000000000000000000000000000000081526004018080602001828103825260298152602001807f6f6e6c792076616c696420766f746572732063616e20646f207468697320747281526020017f616e73616374696f6e000000000000000000000000000000000000000000000081525060400191505060405180910390fd5b6108a7600680548060200260200160405190810160405280929190818152602001828054801561089d57602002820191906000526020600020905b8160009054906101000a900473ffffffffffffffffffffffffffffffffffffffff1673ffffffffffffffffffffffffffffffffffffffff1681526020019060010190808311610853575b5050505050611a4c565b565b60056020528160005260406000206020528060005260406000206000915091509054906101000a900460000b81565b60025481565b6108e73361196b565b1515610981576040517f08c379a00000000000000000000000000000000000000000000000000000000081526004018080602001828103825260298152602001807f6f6e6c792076616c696420766f746572732063616e20646f207468697320747281526020017f616e73616374696f6e000000000000000000000000000000000000000000000081525060400191505060405180910390fd5b610989611d0e565b60048381548110151561099857fe5b90600052602060002090600a02016101406040519081016040529081600082018054600181600116156101000203166002900480601f016020809104026020016040519081016040528092919081815260200182805460018160011615610100020316600290048015610a4c5780601f10610a2157610100808354040283529160200191610a4c565b820191906000526020600020905b815481529060010190602001808311610a2f57829003601f168201915b505050505081526020016001820154815260200160028201548152602001600382015481526020016004820160009054906101000a900473ffffffffffffffffffffffffffffffffffffffff1673ffffffffffffffffffffffffffffffffffffffff1673ffffffffffffffffffffffffffffffffffffffff168152602001600582018054600181600116156101000203166002900480601f016020809104026020016040519081016040528092919081815260200182805460018160011615610100020316600290048015610b625780601f10610b3757610100808354040283529160200191610b62565b820191906000526020600020905b815481529060010190602001808311610b4557829003601f168201915b505050505081526020016006820154815260200160078201548152602001600882015481526020016009820154815250509050600073ffffffffffffffffffffffffffffffffffffffff16816080015173ffffffffffffffffffffffffffffffffffffffff1614151515610c3e576040517f08c379a00000000000000000000000000000000000000000000000000000000081526004018080602001828103825260128152602001807f70726f706f73616c206e6f7420666f756e64000000000000000000000000000081525060200191505060405180910390fd5b610c46611b27565b8160400151101515610cc0576040517f08c379a00000000000000000000000000000000000000000000000000000000081526004018080602001828103825260158152602001807f766f74696e67206973206e6f742073746172746564000000000000000000000081525060200191505060405180910390fd5b610cc8611b27565b8160600151111515610d42576040517f08c379a00000000000000000000000000000000000000000000000000000000081526004018080602001828103825260138152602001807f766f74696e67207761732066696e69736865640000000000000000000000000081525060200191505060405180910390fd5b60006005600085815260200190815260200160002060003373ffffffffffffffffffffffffffffffffffffffff1673ffffffffffffffffffffffffffffffffffffffff16815260200190815260200160002060009054906101000a900460000b60000b141515610e1a576040517f08c379a000000000000000000000000000000000000000000000000000000000815260040180806020018281038252601a8152602001807f796f757220766f74652072656769737465726564206c6174657200000000000081525060200191505060405180910390fd5b60008260000b14151515610ebc576040517f08c379a000000000000000000000000000000000000000000000000000000000815260040180806020018281038252602a8152602001807f796f75206d75737420736574207570206f7220646f776e20776974682031206f81526020017f72202d312076616c75650000000000000000000000000000000000000000000081525060400191505060405180910390fd5b60008260000b1315610f695760016005600085815260200190815260200160002060003373ffffffffffffffffffffffffffffffffffffffff1673ffffffffffffffffffffffffffffffffffffffff16815260200190815260200160002060006101000a81548160ff021916908360000b60ff1602179055506001600484815481101515610f4657fe5b90600052602060002090600a020160080160008282540192505081905550611025565b7fffffffffffffffffffffffffffffffffffffffffffffffffffffffffffffffff6005600085815260200190815260200160002060003373ffffffffffffffffffffffffffffffffffffffff1673ffffffffffffffffffffffffffffffffffffffff16815260200190815260200160002060006101000a81548160ff021916908360000b60ff160217905550600160048481548110151561100657fe5b90600052602060002090600a0201600901600082825401925050819055505b505050565b60036020528060005260406000206000915090505481565b6000809054906101000a900473ffffffffffffffffffffffffffffffffffffffff1673ffffffffffffffffffffffffffffffffffffffff163373ffffffffffffffffffffffffffffffffffffffff1614151561112c576040517f08c379a00000000000000000000000000000000000000000000000000000000081526004018080602001828103825260218152602001807f6f6e6c79206f776e65722063616e2063616c6c20746869732066756e6374696f81526020017f6e0000000000000000000000000000000000000000000000000000000000000081525060400191505060405180910390fd5b6000809054906101000a900473ffffffffffffffffffffffffffffffffffffffff1673ffffffffffffffffffffffffffffffffffffffff167ff8df31144d9c2f0f6b59d69b8b98abd5459d07f2742c4df920b25aae33c6482060405160405180910390a260008060006101000a81548173ffffffffffffffffffffffffffffffffffffffff021916908373ffffffffffffffffffffffffffffffffffffffff160217905550565b6000809054906101000a900473ffffffffffffffffffffffffffffffffffffffff1681565b6000600680549050905090565b6000600480549050905090565b61121b3361196b565b15156112b5576040517f08c379a00000000000000000000000000000000000000000000000000000000081526004018080602001828103825260298152602001807f6f6e6c792076616c696420766f746572732063616e20646f207468697320747281526020017f616e73616374696f6e000000000000000000000000000000000000000000000081525060400191505060405180910390fd5b600180600360003373ffffffffffffffffffffffffffffffffffffffff1673ffffffffffffffffffffffffffffffffffffffff168152602001908152602001600020541015151561136e576040517f08c379a00000000000000000000000000000000000000000000000000000000081526004018080602001828103825260198152602001807f796f752068617665206e6f7420656e6f75676820746f6b656e0000000000000081525060200191505060405180910390fd5b6004610140604051908101604052808981526020018881526020018781526020018681526020013373ffffffffffffffffffffffffffffffffffffffff1681526020018581526020018481526020016113c5611b27565b81526020016000815260200160008152509080600181540180825580915050906001820390600052602060002090600a020160009091929091909150600082015181600001908051906020019061141d929190611d7b565b5060208201518160010155604082015181600201556060820151816003015560808201518160040160006101000a81548173ffffffffffffffffffffffffffffffffffffffff021916908373ffffffffffffffffffffffffffffffffffffffff16021790555060a082015181600501908051906020019061149f929190611d7b565b5060c0820151816006015560e082015181600701556101008201518160080155610120820151816009015550505080600360003373ffffffffffffffffffffffffffffffffffffffff1673ffffffffffffffffffffffffffffffffffffffff1681526020019081526020016000206000828254039250508190555050505050505050565b6060600080600080606060008060008061153b611d0e565b60048c81548110151561154a57fe5b90600052602060002090600a02016101406040519081016040529081600082018054600181600116156101000203166002900480601f0160208091040260200160405190810160405280929190818152602001828054600181600116156101000203166002900480156115fe5780601f106115d3576101008083540402835291602001916115fe565b820191906000526020600020905b8154815290600101906020018083116115e157829003601f168201915b505050505081526020016001820154815260200160028201548152602001600382015481526020016004820160009054906101000a900473ffffffffffffffffffffffffffffffffffffffff1673ffffffffffffffffffffffffffffffffffffffff1673ffffffffffffffffffffffffffffffffffffffff168152602001600582018054600181600116156101000203166002900480601f0160208091040260200160405190810160405280929190818152602001828054600181600116156101000203166002900480156117145780601f106116e957610100808354040283529160200191611714565b820191906000526020600020905b8154815290600101906020018083116116f757829003601f168201915b505050505081526020016006820154815260200160078201548152602001600882015481526020016009820154815250509050806000015181602001518260400151836060015184608001518560a001518660c001518760e001518861010001518961012001518999508494509a509a509a509a509a509a509a509a509a509a50509193959799509193959799565b6060600680548060200260200160405190810160405280929190818152602001828054801561182757602002820191906000526020600020905b8160009054906101000a900473ffffffffffffffffffffffffffffffffffffffff1673ffffffffffffffffffffffffffffffffffffffff16815260200190600101908083116117dd575b5050505050905090565b60015481565b60068181548110151561184657fe5b906000526020600020016000915054906101000a900473ffffffffffffffffffffffffffffffffffffffff1681565b6000809054906101000a900473ffffffffffffffffffffffffffffffffffffffff1673ffffffffffffffffffffffffffffffffffffffff163373ffffffffffffffffffffffffffffffffffffffff1614151561195f576040517f08c379a00000000000000000000000000000000000000000000000000000000081526004018080602001828103825260218152602001807f6f6e6c79206f776e65722063616e2063616c6c20746869732066756e6374696f81526020017f6e0000000000000000000000000000000000000000000000000000000000000081525060400191505060405180910390fd5b61196881611b2f565b50565b60008073ffffffffffffffffffffffffffffffffffffffff168273ffffffffffffffffffffffffffffffffffffffff1614156119aa5760009050611a47565b60008090505b600680549050811015611a41578273ffffffffffffffffffffffffffffffffffffffff166006828154811015156119e357fe5b9060005260206000200160009054906101000a900473ffffffffffffffffffffffffffffffffffffffff1673ffffffffffffffffffffffffffffffffffffffff161415611a34576001915050611a47565b80806001019150506119b0565b50600090505b919050565b60006001541115611b0a5760006301e13380600154019050611a6c611b27565b81101515611b08576040517f08c379a00000000000000000000000000000000000000000000000000000000081526004018080602001828103825260248152602001807f796f75206d7573742072656e657720746f6b656e73206166746572206f6e652081526020017f796561720000000000000000000000000000000000000000000000000000000081525060400191505060405180910390fd5b505b611b1681600254611c92565b611b1e611b27565b60018190555050565b600042905090565b600073ffffffffffffffffffffffffffffffffffffffff168173ffffffffffffffffffffffffffffffffffffffff1614151515611bd4576040517f08c379a000000000000000000000000000000000000000000000000000000000815260040180806020018281038252601b8152602001807f6f776e6572206d7573742062652076616c69642061646472657373000000000081525060200191505060405180910390fd5b8073ffffffffffffffffffffffffffffffffffffffff166000809054906101000a900473ffffffffffffffffffffffffffffffffffffffff1673ffffffffffffffffffffffffffffffffffffffff167f8be0079c531659141344cd1fd0a4f28419497f9722a3daafe3b4186f6b6457e060405160405180910390a3806000806101000a81548173ffffffffffffffffffffffffffffffffffffffff021916908373ffffffffffffffffffffffffffffffffffffffff16021790555050565b60008090505b8251811015611d095781600360008584815181101515611cb457fe5b9060200190602002015173ffffffffffffffffffffffffffffffffffffffff1673ffffffffffffffffffffffffffffffffffffffff168152602001908152602001600020819055508080600101915050611c98565b505050565b6101406040519081016040528060608152602001600081526020016000815260200160008152602001600073ffffffffffffffffffffffffffffffffffffffff16815260200160608152602001600080191681526020016000815260200160008152602001600081525090565b828054600181600116156101000203166002900490600052602060002090601f016020900481019282601f10611dbc57805160ff1916838001178555611dea565b82800160010185558215611dea579182015b82811115611de9578251825591602001919060010190611dce565b5b509050611df79190611dfb565b5090565b611e1d91905b80821115611e19576000816000905550600101611e01565b5090565b9056fea165627a7a72305820abbceaaa51b2fb280e6d897505abfa767d903265d8cc570913dc44a393cf3bd30029",
  "source": "pragma solidity >=0.4.21 <0.6.0;\r\n\r\nimport \"./Ownable.sol\";\r\nimport \"./AccessToken.sol\";\r\n\r\ncontract Voting is Ownable, AccessToken {\r\n\r\n  struct Proposal {\r\n      string title;\r\n      uint ProposalType;\r\n      uint startDate;\r\n      uint endDate;\r\n      address author;\r\n      string url;\r\n      bytes32 hashCode;\r\n      uint registerDate;\r\n      uint up;\r\n      uint down;\r\n  }\r\n\r\n  Proposal[] proposals;\r\n\r\n  mapping (uint => mapping(address => int8)) public votesReceived;\r\n\r\n  address[] public voters;\r\n\r\n  constructor(address[] memory _voters, uint _voterTokensCount) AccessToken(_voterTokensCount) public {\r\n    voters = _voters;\r\n    renewToken(voters);\r\n  }\r\n\r\n  function renewYearTokens() public onlyVoters  {\r\n    renewToken(voters);\r\n  }\r\n\r\n  modifier onlyVoters() {\r\n    require(inVoters(msg.sender),\"only valid voters can do this transaction\");\r\n    _;\r\n  }\r\n\r\n  function voteForProposal(uint _proposalIndex, int8 _vote) public onlyVoters {\r\n      Proposal memory proposal = proposals[_proposalIndex];\r\n      require(proposal.author != address(0), \"proposal not found\");\r\n      require(proposal.startDate < getTime(), \"voting is not started\");\r\n      require(proposal.endDate > getTime(), \"voting was finished\");\r\n      require(votesReceived[_proposalIndex][msg.sender] == 0, \"your vote registered later\");\r\n      require(_vote != 0, \"you must set up or down with 1 or -1 value\");\r\n      if(_vote > 0) {\r\n          votesReceived[_proposalIndex][msg.sender] = 1;\r\n          proposals[_proposalIndex].up += 1;\r\n      } else {\r\n          votesReceived[_proposalIndex][msg.sender] = -1;\r\n          proposals[_proposalIndex].down += 1;\r\n      }\r\n  }\r\n\r\n  function votersCount() public view returns (uint) {\r\n      return voters.length;\r\n  }\r\n\r\n  function getProposalsCount() public view returns (uint) {\r\n      return proposals.length;\r\n  }\r\n\r\n  function getProposal(uint index) public view returns (string memory, uint , uint, uint, address, string memory, bytes32, uint, uint, uint ) {\r\n      Proposal memory proposal = proposals[index];\r\n      return (\r\n          proposal.title,\r\n          proposal.ProposalType,\r\n          proposal.startDate,\r\n          proposal.endDate,\r\n          proposal.author,\r\n          proposal.url,\r\n          proposal.hashCode,\r\n          proposal.registerDate,\r\n          proposal.up,\r\n          proposal.down);\r\n  }\r\n\r\n\r\n   function votersList() public view returns (address[] memory) {\r\n      return voters;\r\n  }\r\n\r\n  function registerProposal(\r\n      string memory title,\r\n      uint ProposalType,\r\n      uint startDate,\r\n      uint endDate,\r\n      string memory url,\r\n      bytes32 hashCode) public onlyVoters useToken(1) {\r\n          proposals.push(Proposal(title, ProposalType, startDate, endDate, msg.sender, url,hashCode, getTime(), 0, 0));\r\n  }\r\n\r\n  function inVoters(address caller) private view returns (bool) {\r\n      if(caller == address(0)){\r\n          return false;\r\n      }\r\n      for(uint i = 0; i < voters.length; i++) {\r\n          if (voters[i] == caller) {\r\n             return true;\r\n          }\r\n      }\r\n    return false;\r\n  }\r\n}",
  "sourcePath": "D:/projects/blockchain/kuknos-dao/contracts/Voting.sol",
  "compiler": {
    "name": "solc",
    "version": "0.5.0+commit.1d4f565a.Emscripten.clang"
  },
  "schemaVersion": "3.0.9",
  "updatedAt": "2019-05-20T09:15:36.488Z",
  "devdoc": {
    "methods": {
      "renounceOwnership()": {
        "details": "Allows the current owner to relinquish control of the contract."
      },
      "transferOwnership(address)": {
        "details": "Allows the current owner to transfer control of the contract to a newOwner.",
        "params": {
          "_newOwner": "The address to transfer ownership to."
        }
      }
    }
  },
  "userdoc": {
    "methods": {
      "renounceOwnership()": {
        "notice": "Renouncing to ownership will leave the contract without an owner. It will not be possible to call the functions with the `onlyOwner` modifier anymore."
      }
    }
  }
}