{
  "contractName": "Voting",
  "abi": [
    {
      "constant": true,
      "inputs": [],
      "name": "membersCount",
      "outputs": [
        {
          "name": "",
          "type": "uint256"
        }
      ],
      "payable": false,
      "stateMutability": "view",
      "type": "function"
    },
    {
      "constant": true,
      "inputs": [
        {
          "name": "",
          "type": "uint256"
        },
        {
          "name": "",
          "type": "address"
        }
      ],
      "name": "votesReceived",
      "outputs": [
        {
          "name": "",
          "type": "int8"
        }
      ],
      "payable": false,
      "stateMutability": "view",
      "type": "function"
    },
    {
      "constant": true,
      "inputs": [
        {
          "name": "",
          "type": "uint256"
        }
      ],
      "name": "anchors",
      "outputs": [
        {
          "name": "nameHash",
          "type": "bytes32"
        },
        {
          "name": "name",
          "type": "string"
        },
        {
          "name": "url",
          "type": "string"
        }
      ],
      "payable": false,
      "stateMutability": "view",
      "type": "function"
    },
    {
      "constant": true,
      "inputs": [],
      "name": "accessTokensCount",
      "outputs": [
        {
          "name": "",
          "type": "uint256"
        }
      ],
      "payable": false,
      "stateMutability": "view",
      "type": "function"
    },
    {
      "constant": true,
      "inputs": [
        {
          "name": "",
          "type": "uint256"
        }
      ],
      "name": "members",
      "outputs": [
        {
          "name": "",
          "type": "address"
        }
      ],
      "payable": false,
      "stateMutability": "view",
      "type": "function"
    },
    {
      "constant": true,
      "inputs": [
        {
          "name": "",
          "type": "address"
        }
      ],
      "name": "balanceOf",
      "outputs": [
        {
          "name": "",
          "type": "uint256"
        }
      ],
      "payable": false,
      "stateMutability": "view",
      "type": "function"
    },
    {
      "constant": false,
      "inputs": [],
      "name": "renounceOwnership",
      "outputs": [],
      "payable": false,
      "stateMutability": "nonpayable",
      "type": "function"
    },
    {
      "constant": true,
      "inputs": [],
      "name": "owner",
      "outputs": [
        {
          "name": "",
          "type": "address"
        }
      ],
      "payable": false,
      "stateMutability": "view",
      "type": "function"
    },
    {
      "constant": true,
      "inputs": [
        {
          "name": "",
          "type": "bytes32"
        },
        {
          "name": "",
          "type": "uint256"
        }
      ],
      "name": "anchorMembers",
      "outputs": [
        {
          "name": "",
          "type": "address"
        }
      ],
      "payable": false,
      "stateMutability": "view",
      "type": "function"
    },
    {
      "constant": true,
      "inputs": [],
      "name": "lastTokenIssueDate",
      "outputs": [
        {
          "name": "",
          "type": "uint256"
        }
      ],
      "payable": false,
      "stateMutability": "view",
      "type": "function"
    },
    {
      "constant": true,
      "inputs": [],
      "name": "getAnchorsCount",
      "outputs": [
        {
          "name": "",
          "type": "uint256"
        }
      ],
      "payable": false,
      "stateMutability": "view",
      "type": "function"
    },
    {
      "constant": true,
      "inputs": [],
      "name": "membersList",
      "outputs": [
        {
          "name": "",
          "type": "address[]"
        }
      ],
      "payable": false,
      "stateMutability": "view",
      "type": "function"
    },
    {
      "constant": false,
      "inputs": [
        {
          "name": "_newOwner",
          "type": "address"
        }
      ],
      "name": "transferOwnership",
      "outputs": [],
      "payable": false,
      "stateMutability": "nonpayable",
      "type": "function"
    },
    {
      "inputs": [
        {
          "name": "_voterTokensCount",
          "type": "uint256"
        }
      ],
      "payable": false,
      "stateMutability": "nonpayable",
      "type": "constructor"
    },
    {
      "anonymous": false,
      "inputs": [
        {
          "indexed": true,
          "name": "previousOwner",
          "type": "address"
        }
      ],
      "name": "OwnershipRenounced",
      "type": "event"
    },
    {
      "anonymous": false,
      "inputs": [
        {
          "indexed": true,
          "name": "previousOwner",
          "type": "address"
        },
        {
          "indexed": true,
          "name": "newOwner",
          "type": "address"
        }
      ],
      "name": "OwnershipTransferred",
      "type": "event"
    },
    {
      "constant": false,
      "inputs": [],
      "name": "renewYearTokens",
      "outputs": [],
      "payable": false,
      "stateMutability": "nonpayable",
      "type": "function"
    },
    {
      "constant": false,
      "inputs": [
        {
          "name": "_proposalIndex",
          "type": "uint256"
        },
        {
          "name": "_vote",
          "type": "int8"
        }
      ],
      "name": "voteForProposal",
      "outputs": [],
      "payable": false,
      "stateMutability": "nonpayable",
      "type": "function"
    },
    {
      "constant": true,
      "inputs": [
        {
          "name": "index",
          "type": "uint256"
        }
      ],
      "name": "getProposal",
      "outputs": [
        {
          "name": "",
          "type": "string"
        },
        {
          "name": "",
          "type": "uint32"
        },
        {
          "name": "",
          "type": "uint32"
        },
        {
          "name": "",
          "type": "uint32"
        },
        {
          "name": "",
          "type": "address"
        },
        {
          "name": "",
          "type": "string"
        },
        {
          "name": "",
          "type": "string"
        },
        {
          "name": "",
          "type": "uint32"
        },
        {
          "name": "",
          "type": "address"
        },
        {
          "name": "",
          "type": "uint8"
        },
        {
          "name": "",
          "type": "uint256"
        }
      ],
      "payable": false,
      "stateMutability": "view",
      "type": "function"
    },
    {
      "constant": true,
      "inputs": [],
      "name": "getProposalsCount",
      "outputs": [
        {
          "name": "",
          "type": "uint256"
        }
      ],
      "payable": false,
      "stateMutability": "view",
      "type": "function"
    },
    {
      "constant": true,
      "inputs": [
        {
          "name": "index",
          "type": "uint256"
        }
      ],
      "name": "getProposalStatus",
      "outputs": [
        {
          "name": "",
          "type": "uint256"
        },
        {
          "name": "",
          "type": "uint256"
        },
        {
          "name": "",
          "type": "uint256"
        },
        {
          "name": "",
          "type": "address"
        },
        {
          "name": "",
          "type": "bool"
        },
        {
          "name": "",
          "type": "bool"
        },
        {
          "name": "",
          "type": "uint256"
        },
        {
          "name": "",
          "type": "uint256"
        },
        {
          "name": "",
          "type": "bool"
        }
      ],
      "payable": false,
      "stateMutability": "view",
      "type": "function"
    },
    {
      "constant": false,
      "inputs": [
        {
          "name": "title",
          "type": "string"
        },
        {
          "name": "proposalType",
          "type": "uint32"
        },
        {
          "name": "startDate",
          "type": "uint32"
        },
        {
          "name": "endDate",
          "type": "uint32"
        },
        {
          "name": "url",
          "type": "string"
        },
        {
          "name": "hashCode",
          "type": "string"
        },
        {
          "name": "contractAddress",
          "type": "address"
        },
        {
          "name": "threshold",
          "type": "uint8"
        }
      ],
      "name": "registerProposal",
      "outputs": [],
      "payable": false,
      "stateMutability": "nonpayable",
      "type": "function"
    }
  ],
  "bytecode": "0x60806040526032600255600260055534801561001a57600080fd5b506040516020806130418339810180604052602081101561003a57600080fd5b810190808051906020019092919050505080336000806101000a81548173ffffffffffffffffffffffffffffffffffffffff021916908373ffffffffffffffffffffffffffffffffffffffff160217905550806002819055505050612f9d806100a46000396000f3fe608060405234801561001057600080fd5b50600436106101205760003560e01c806370a08231116100ad578063c7f758a811610071578063c7f758a8146107d1578063cededb3014610a16578063d4c8ca9b14610a34578063dd5042f414610a52578063f2fde38b14610ab157610120565b806370a082311461068f578063715018a6146106e75780638da5cb5b146106f157806398e527d31461073b578063a773693f1461075957610120565b8063401853b7116100f4578063401853b7146102cf57806355de8c7e146103815780635ab09f591461039f5780635daf08ca146103da57806366c2b2b91461044857610120565b8062f18f5614610125578063297f9af01461012f57806333dd6bed1461014d578063368b733e146101b5575b600080fd5b61012d610af5565b005b610137610c60565b6040518082815260200191505060405180910390f35b6101996004803603604081101561016357600080fd5b8101908080359060200190929190803573ffffffffffffffffffffffffffffffffffffffff169060200190929190505050610c6d565b604051808260000b60000b815260200191505060405180910390f35b6101e1600480360360208110156101cb57600080fd5b8101908080359060200190929190505050610c9c565b604051808481526020018060200180602001838103835285818151815260200191508051906020019080838360005b8381101561022b578082015181840152602081019050610210565b50505050905090810190601f1680156102585780820380516001836020036101000a031916815260200191505b50838103825284818151815260200191508051906020019080838360005b83811015610291578082015181840152602081019050610276565b50505050905090810190601f1680156102be5780820380516001836020036101000a031916815260200191505b509550505050505060405180910390f35b6102fb600480360360208110156102e557600080fd5b8101908080359060200190929190505050610e03565b604051808a81526020018981526020018881526020018773ffffffffffffffffffffffffffffffffffffffff1673ffffffffffffffffffffffffffffffffffffffff168152602001861515151581526020018515151515815260200184815260200183815260200182151515158152602001995050505050505050505060405180910390f35b6103896112ad565b6040518082815260200191505060405180910390f35b6103d8600480360360408110156103b557600080fd5b8101908080359060200190929190803560000b90602001909291905050506112b3565b005b610406600480360360208110156103f057600080fd5b8101908080359060200190929190505050611bdd565b604051808273ffffffffffffffffffffffffffffffffffffffff1673ffffffffffffffffffffffffffffffffffffffff16815260200191505060405180910390f35b61068d600480360361010081101561045f57600080fd5b810190808035906020019064010000000081111561047c57600080fd5b82018360208201111561048e57600080fd5b803590602001918460018302840111640100000000831117156104b057600080fd5b91908080601f016020809104026020016040519081016040528093929190818152602001838380828437600081840152601f19601f820116905080830192505050505050509192919290803563ffffffff169060200190929190803563ffffffff169060200190929190803563ffffffff1690602001909291908035906020019064010000000081111561054357600080fd5b82018360208201111561055557600080fd5b8035906020019184600183028401116401000000008311171561057757600080fd5b91908080601f016020809104026020016040519081016040528093929190818152602001838380828437600081840152601f19601f820116905080830192505050505050509192919290803590602001906401000000008111156105da57600080fd5b8201836020820111156105ec57600080fd5b8035906020019184600183028401116401000000008311171561060e57600080fd5b91908080601f016020809104026020016040519081016040528093929190818152602001838380828437600081840152601f19601f820116905080830192505050505050509192919290803573ffffffffffffffffffffffffffffffffffffffff169060200190929190803560ff169060200190929190505050611c19565b005b6106d1600480360360208110156106a557600080fd5b81019080803573ffffffffffffffffffffffffffffffffffffffff16906020019092919050505061215d565b6040518082815260200191505060405180910390f35b6106ef612175565b005b6106f96122c1565b604051808273ffffffffffffffffffffffffffffffffffffffff1673ffffffffffffffffffffffffffffffffffffffff16815260200191505060405180910390f35b6107436122e6565b6040518082815260200191505060405180910390f35b61078f6004803603604081101561076f57600080fd5b8101908080359060200190929190803590602001909291905050506122f3565b604051808273ffffffffffffffffffffffffffffffffffffffff1673ffffffffffffffffffffffffffffffffffffffff16815260200191505060405180910390f35b6107fd600480360360208110156107e757600080fd5b810190808035906020019092919050505061233e565b60405180806020018c63ffffffff1663ffffffff1681526020018b63ffffffff1663ffffffff1681526020018a63ffffffff1663ffffffff1681526020018973ffffffffffffffffffffffffffffffffffffffff1673ffffffffffffffffffffffffffffffffffffffff16815260200180602001806020018863ffffffff1663ffffffff1681526020018773ffffffffffffffffffffffffffffffffffffffff1673ffffffffffffffffffffffffffffffffffffffff1681526020018660ff1660ff16815260200185815260200184810384528f818151815260200191508051906020019080838360005b838110156109035780820151818401526020810190506108e8565b50505050905090810190601f1680156109305780820380516001836020036101000a031916815260200191505b5084810383528a818151815260200191508051906020019080838360005b8381101561096957808201518184015260208101905061094e565b50505050905090810190601f1680156109965780820380516001836020036101000a031916815260200191505b50848103825289818151815260200191508051906020019080838360005b838110156109cf5780820151818401526020810190506109b4565b50505050905090810190601f1680156109fc5780820380516001836020036101000a031916815260200191505b509e50505050505050505050505050505060405180910390f35b610a1e61277a565b6040518082815260200191505060405180910390f35b610a3c612780565b6040518082815260200191505060405180910390f35b610a5a61278d565b6040518080602001828103825283818151815260200191508051906020019060200280838360005b83811015610a9d578082015181840152602081019050610a82565b505050509050019250505060405180910390f35b610af360048036036020811015610ac757600080fd5b81019080803573ffffffffffffffffffffffffffffffffffffffff16906020019092919050505061281b565b005b610afd6128cc565b610b6f576040517f08c379a000000000000000000000000000000000000000000000000000000000815260040180806020018281038252601f8152602001807f7468697320636f6e747261637420697320696e20636f6e666967206d6f64650081525060200191505060405180910390fd5b610b7833612923565b610bcd576040517f08c379a000000000000000000000000000000000000000000000000000000000815260040180806020018281038252602a815260200180612f24602a913960400191505060405180910390fd5b610c5e6004805480602002602001604051908101604052809291908181526020018280548015610c5257602002820191906000526020600020905b8160009054906101000a900473ffffffffffffffffffffffffffffffffffffffff1673ffffffffffffffffffffffffffffffffffffffff1681526020019060010190808311610c08575b505050505060006129bf565b565b6000600480549050905090565b60096020528160005260406000206020528060005260406000206000915091509054906101000a900460000b81565b60068181548110610ca957fe5b9060005260206000209060030201600091509050806000015490806001018054600181600116156101000203166002900480601f016020809104026020016040519081016040528092919081815260200182805460018160011615610100020316600290048015610d5b5780601f10610d3057610100808354040283529160200191610d5b565b820191906000526020600020905b815481529060010190602001808311610d3e57829003601f168201915b505050505090806002018054600181600116156101000203166002900480601f016020809104026020016040519081016040528092919081815260200182805460018160011615610100020316600290048015610df95780601f10610dce57610100808354040283529160200191610df9565b820191906000526020600020905b815481529060010190602001808311610ddc57829003601f168201915b5050505050905083565b6000806000806000806000806000610e19612d44565b60088b81548110610e2657fe5b9060005260206000209060060201604051806101a0016040529081600082018054600181600116156101000203166002900480601f016020809104026020016040519081016040528092919081815260200182805460018160011615610100020316600290048015610ed95780601f10610eae57610100808354040283529160200191610ed9565b820191906000526020600020905b815481529060010190602001808311610ebc57829003601f168201915b505050505081526020016001820160009054906101000a900463ffffffff1663ffffffff1663ffffffff1681526020016001820160049054906101000a900463ffffffff1663ffffffff1663ffffffff1681526020016001820160089054906101000a900463ffffffff1663ffffffff1663ffffffff16815260200160018201600c9054906101000a900473ffffffffffffffffffffffffffffffffffffffff1673ffffffffffffffffffffffffffffffffffffffff1673ffffffffffffffffffffffffffffffffffffffff168152602001600282018054600181600116156101000203166002900480601f0160208091040260200160405190810160405280929190818152602001828054600181600116156101000203166002900480156110435780601f1061101857610100808354040283529160200191611043565b820191906000526020600020905b81548152906001019060200180831161102657829003601f168201915b50505050508152602001600382018054600181600116156101000203166002900480601f0160208091040260200160405190810160405280929190818152602001828054600181600116156101000203166002900480156110e55780601f106110ba576101008083540402835291602001916110e5565b820191906000526020600020905b8154815290600101906020018083116110c857829003601f168201915b505050505081526020016004820160009054906101000a900463ffffffff1663ffffffff1663ffffffff1681526020016004820160049054906101000a900461ffff1661ffff1661ffff1681526020016004820160069054906101000a900461ffff1661ffff1661ffff1681526020016004820160089054906101000a900473ffffffffffffffffffffffffffffffffffffffff1673ffffffffffffffffffffffffffffffffffffffff1673ffffffffffffffffffffffffffffffffffffffff16815260200160048201601c9054906101000a900460ff1660ff1660ff168152602001600582015481525050905060008161012001518261010001510161ffff1690508161010001518261012001518360200151846101400151856040015163ffffffff16611212612a60565b10866060015163ffffffff16611226612a60565b10158660648961010001510261ffff168161123d57fe5b048760648a61010001510261ffff168161125357fe5b0489610160015160ff168960648c61010001510261ffff168161127257fe5b0410158861ffff1698508761ffff1697508663ffffffff1696509a509a509a509a509a509a509a509a509a5050509193959799909294969850565b60025481565b6112bb6128cc565b61132d576040517f08c379a000000000000000000000000000000000000000000000000000000000815260040180806020018281038252601f8152602001807f7468697320636f6e747261637420697320696e20636f6e666967206d6f64650081525060200191505060405180910390fd5b61133633612923565b61138b576040517f08c379a000000000000000000000000000000000000000000000000000000000815260040180806020018281038252602a815260200180612f24602a913960400191505060405180910390fd5b611393612d44565b600883815481106113a057fe5b9060005260206000209060060201604051806101a0016040529081600082018054600181600116156101000203166002900480601f0160208091040260200160405190810160405280929190818152602001828054600181600116156101000203166002900480156114535780601f1061142857610100808354040283529160200191611453565b820191906000526020600020905b81548152906001019060200180831161143657829003601f168201915b505050505081526020016001820160009054906101000a900463ffffffff1663ffffffff1663ffffffff1681526020016001820160049054906101000a900463ffffffff1663ffffffff1663ffffffff1681526020016001820160089054906101000a900463ffffffff1663ffffffff1663ffffffff16815260200160018201600c9054906101000a900473ffffffffffffffffffffffffffffffffffffffff1673ffffffffffffffffffffffffffffffffffffffff1673ffffffffffffffffffffffffffffffffffffffff168152602001600282018054600181600116156101000203166002900480601f0160208091040260200160405190810160405280929190818152602001828054600181600116156101000203166002900480156115bd5780601f10611592576101008083540402835291602001916115bd565b820191906000526020600020905b8154815290600101906020018083116115a057829003601f168201915b50505050508152602001600382018054600181600116156101000203166002900480601f01602080910402602001604051908101604052809291908181526020018280546001816001161561010002031660029004801561165f5780601f106116345761010080835404028352916020019161165f565b820191906000526020600020905b81548152906001019060200180831161164257829003601f168201915b505050505081526020016004820160009054906101000a900463ffffffff1663ffffffff1663ffffffff1681526020016004820160049054906101000a900461ffff1661ffff1661ffff1681526020016004820160069054906101000a900461ffff1661ffff1661ffff1681526020016004820160089054906101000a900473ffffffffffffffffffffffffffffffffffffffff1673ffffffffffffffffffffffffffffffffffffffff1673ffffffffffffffffffffffffffffffffffffffff16815260200160048201601c9054906101000a900460ff1660ff1660ff1681526020016005820154815250509050600073ffffffffffffffffffffffffffffffffffffffff16816080015173ffffffffffffffffffffffffffffffffffffffff1614156117f4576040517f08c379a00000000000000000000000000000000000000000000000000000000081526004018080602001828103825260128152602001807f70726f706f73616c206e6f7420666f756e64000000000000000000000000000081525060200191505060405180910390fd5b6117fc612a60565b816040015163ffffffff161061187a576040517f08c379a00000000000000000000000000000000000000000000000000000000081526004018080602001828103825260158152602001807f766f74696e67206973206e6f742073746172746564000000000000000000000081525060200191505060405180910390fd5b611882612a60565b816060015163ffffffff1611611900576040517f08c379a00000000000000000000000000000000000000000000000000000000081526004018080602001828103825260138152602001807f766f74696e67207761732066696e69736865640000000000000000000000000081525060200191505060405180910390fd5b60006009600085815260200190815260200160002060003373ffffffffffffffffffffffffffffffffffffffff1673ffffffffffffffffffffffffffffffffffffffff16815260200190815260200160002060009054906101000a900460000b60000b146119d6576040517f08c379a000000000000000000000000000000000000000000000000000000000815260040180806020018281038252601a8152602001807f796f757220766f74652072656769737465726564206c6174657200000000000081525060200191505060405180910390fd5b60008260000b1415611a33576040517f08c379a000000000000000000000000000000000000000000000000000000000815260040180806020018281038252602a815260200180612ea1602a913960400191505060405180910390fd5b60008260000b1315611afe5760016009600085815260200190815260200160002060003373ffffffffffffffffffffffffffffffffffffffff1673ffffffffffffffffffffffffffffffffffffffff16815260200190815260200160002060006101000a81548160ff021916908360000b60ff160217905550600160088481548110611abb57fe5b906000526020600020906006020160040160048282829054906101000a900461ffff160192506101000a81548161ffff021916908361ffff160217905550611bd8565b7fffffffffffffffffffffffffffffffffffffffffffffffffffffffffffffffff6009600085815260200190815260200160002060003373ffffffffffffffffffffffffffffffffffffffff1673ffffffffffffffffffffffffffffffffffffffff16815260200190815260200160002060006101000a81548160ff021916908360000b60ff160217905550600160088481548110611b9957fe5b906000526020600020906006020160040160068282829054906101000a900461ffff160192506101000a81548161ffff021916908361ffff1602179055505b505050565b60048181548110611bea57fe5b906000526020600020016000915054906101000a900473ffffffffffffffffffffffffffffffffffffffff1681565b611c216128cc565b611c93576040517f08c379a000000000000000000000000000000000000000000000000000000000815260040180806020018281038252601f8152602001807f7468697320636f6e747261637420697320696e20636f6e666967206d6f64650081525060200191505060405180910390fd5b611c9c33612923565b611cf1576040517f08c379a000000000000000000000000000000000000000000000000000000000815260040180806020018281038252602a815260200180612f24602a913960400191505060405180910390fd5b600180600360003373ffffffffffffffffffffffffffffffffffffffff1673ffffffffffffffffffffffffffffffffffffffff168152602001908152602001600020541015611da8576040517f08c379a00000000000000000000000000000000000000000000000000000000081526004018080602001828103825260198152602001807f796f752068617665206e6f7420656e6f75676820746f6b656e0000000000000081525060200191505060405180910390fd5b3073ffffffffffffffffffffffffffffffffffffffff168373ffffffffffffffffffffffffffffffffffffffff161415611e2d576040517f08c379a0000000000000000000000000000000000000000000000000000000008152600401808060200182810382526038815260200180612ecb6038913960400191505060405180910390fd5b6008604051806101a001604052808b81526020018a63ffffffff1681526020018963ffffffff1681526020018863ffffffff1681526020013373ffffffffffffffffffffffffffffffffffffffff168152602001878152602001868152602001611e95612a60565b63ffffffff168152602001600061ffff168152602001600061ffff1681526020018573ffffffffffffffffffffffffffffffffffffffff1681526020018460ff1681526020016000815250908060018154018082558091505090600182039060005260206000209060060201600090919290919091506000820151816000019080519060200190611f27929190612dfb565b5060208201518160010160006101000a81548163ffffffff021916908363ffffffff16021790555060408201518160010160046101000a81548163ffffffff021916908363ffffffff16021790555060608201518160010160086101000a81548163ffffffff021916908363ffffffff160217905550608082015181600101600c6101000a81548173ffffffffffffffffffffffffffffffffffffffff021916908373ffffffffffffffffffffffffffffffffffffffff16021790555060a0820151816002019080519060200190612000929190612dfb565b5060c082015181600301908051906020019061201d929190612dfb565b5060e08201518160040160006101000a81548163ffffffff021916908363ffffffff1602179055506101008201518160040160046101000a81548161ffff021916908361ffff1602179055506101208201518160040160066101000a81548161ffff021916908361ffff1602179055506101408201518160040160086101000a81548173ffffffffffffffffffffffffffffffffffffffff021916908373ffffffffffffffffffffffffffffffffffffffff16021790555061016082015181600401601c6101000a81548160ff021916908360ff160217905550610180820151816005015550505080600360003373ffffffffffffffffffffffffffffffffffffffff1673ffffffffffffffffffffffffffffffffffffffff16815260200190815260200160002060008282540392505081905550505050505050505050565b60036020528060005260406000206000915090505481565b6000809054906101000a900473ffffffffffffffffffffffffffffffffffffffff1673ffffffffffffffffffffffffffffffffffffffff163373ffffffffffffffffffffffffffffffffffffffff161461221a576040517f08c379a0000000000000000000000000000000000000000000000000000000008152600401808060200182810382526021815260200180612f036021913960400191505060405180910390fd5b6000809054906101000a900473ffffffffffffffffffffffffffffffffffffffff1673ffffffffffffffffffffffffffffffffffffffff167ff8df31144d9c2f0f6b59d69b8b98abd5459d07f2742c4df920b25aae33c6482060405160405180910390a260008060006101000a81548173ffffffffffffffffffffffffffffffffffffffff021916908373ffffffffffffffffffffffffffffffffffffffff160217905550565b6000809054906101000a900473ffffffffffffffffffffffffffffffffffffffff1681565b6000600880549050905090565b6007602052816000526040600020818154811061230c57fe5b906000526020600020016000915091509054906101000a900473ffffffffffffffffffffffffffffffffffffffff1681565b6060600080600080606080600080600080612357612d44565b60088d8154811061236457fe5b9060005260206000209060060201604051806101a0016040529081600082018054600181600116156101000203166002900480601f0160208091040260200160405190810160405280929190818152602001828054600181600116156101000203166002900480156124175780601f106123ec57610100808354040283529160200191612417565b820191906000526020600020905b8154815290600101906020018083116123fa57829003601f168201915b505050505081526020016001820160009054906101000a900463ffffffff1663ffffffff1663ffffffff1681526020016001820160049054906101000a900463ffffffff1663ffffffff1663ffffffff1681526020016001820160089054906101000a900463ffffffff1663ffffffff1663ffffffff16815260200160018201600c9054906101000a900473ffffffffffffffffffffffffffffffffffffffff1673ffffffffffffffffffffffffffffffffffffffff1673ffffffffffffffffffffffffffffffffffffffff168152602001600282018054600181600116156101000203166002900480601f0160208091040260200160405190810160405280929190818152602001828054600181600116156101000203166002900480156125815780601f1061255657610100808354040283529160200191612581565b820191906000526020600020905b81548152906001019060200180831161256457829003601f168201915b50505050508152602001600382018054600181600116156101000203166002900480601f0160208091040260200160405190810160405280929190818152602001828054600181600116156101000203166002900480156126235780601f106125f857610100808354040283529160200191612623565b820191906000526020600020905b81548152906001019060200180831161260657829003601f168201915b505050505081526020016004820160009054906101000a900463ffffffff1663ffffffff1663ffffffff1681526020016004820160049054906101000a900461ffff1661ffff1661ffff1681526020016004820160069054906101000a900461ffff1661ffff1661ffff1681526020016004820160089054906101000a900473ffffffffffffffffffffffffffffffffffffffff1673ffffffffffffffffffffffffffffffffffffffff1673ffffffffffffffffffffffffffffffffffffffff16815260200160048201601c9054906101000a900460ff1660ff1660ff1681526020016005820154815250509050806000015181602001518260400151836060015184608001518560a001518660c001518760e001518861014001518961016001518a61018001518a9a508595508494509b509b509b509b509b509b509b509b509b509b509b505091939597999b90929496989a50565b60015481565b6000600680549050905090565b6060600480548060200260200160405190810160405280929190818152602001828054801561281157602002820191906000526020600020905b8160009054906101000a900473ffffffffffffffffffffffffffffffffffffffff1673ffffffffffffffffffffffffffffffffffffffff16815260200190600101908083116127c7575b5050505050905090565b6000809054906101000a900473ffffffffffffffffffffffffffffffffffffffff1673ffffffffffffffffffffffffffffffffffffffff163373ffffffffffffffffffffffffffffffffffffffff16146128c0576040517f08c379a0000000000000000000000000000000000000000000000000000000008152600401808060200182810382526021815260200180612f036021913960400191505060405180910390fd5b6128c981612a68565b50565b60008073ffffffffffffffffffffffffffffffffffffffff166000809054906101000a900473ffffffffffffffffffffffffffffffffffffffff1673ffffffffffffffffffffffffffffffffffffffff1614905090565b6000806129b660048054806020026020016040519081016040528092919081815260200182805480156129ab57602002820191906000526020600020905b8160009054906101000a900473ffffffffffffffffffffffffffffffffffffffff1673ffffffffffffffffffffffffffffffffffffffff1681526020019060010190808311612961575b505050505084612bc9565b12159050919050565b60006001541180156129cf575080155b15612a425760006301e133806001540190506129e9612a60565b8110612a40576040517f08c379a0000000000000000000000000000000000000000000000000000000008152600401808060200182810382526024815260200180612f4e6024913960400191505060405180910390fd5b505b612a4e82600254612cbe565b612a56612a60565b6001819055505050565b600042905090565b600073ffffffffffffffffffffffffffffffffffffffff168173ffffffffffffffffffffffffffffffffffffffff161415612b0b576040517f08c379a000000000000000000000000000000000000000000000000000000000815260040180806020018281038252601b8152602001807f6f776e6572206d7573742062652076616c69642061646472657373000000000081525060200191505060405180910390fd5b8073ffffffffffffffffffffffffffffffffffffffff166000809054906101000a900473ffffffffffffffffffffffffffffffffffffffff1673ffffffffffffffffffffffffffffffffffffffff167f8be0079c531659141344cd1fd0a4f28419497f9722a3daafe3b4186f6b6457e060405160405180910390a3806000806101000a81548173ffffffffffffffffffffffffffffffffffffffff021916908373ffffffffffffffffffffffffffffffffffffffff16021790555050565b60008073ffffffffffffffffffffffffffffffffffffffff168273ffffffffffffffffffffffffffffffffffffffff161415612c27577fffffffffffffffffffffffffffffffffffffffffffffffffffffffffffffffff9050612cb8565b60008090505b8351811015612c93578273ffffffffffffffffffffffffffffffffffffffff16848281518110612c5957fe5b602002602001015173ffffffffffffffffffffffffffffffffffffffff161415612c865780915050612cb8565b8080600101915050612c2d565b507fffffffffffffffffffffffffffffffffffffffffffffffffffffffffffffffff90505b92915050565b60008090505b8251811015612cf757612cea838281518110612cdc57fe5b602002602001015183612cfc565b8080600101915050612cc4565b505050565b80600360008473ffffffffffffffffffffffffffffffffffffffff1673ffffffffffffffffffffffffffffffffffffffff168152602001908152602001600020819055505050565b604051806101a0016040528060608152602001600063ffffffff168152602001600063ffffffff168152602001600063ffffffff168152602001600073ffffffffffffffffffffffffffffffffffffffff1681526020016060815260200160608152602001600063ffffffff168152602001600061ffff168152602001600061ffff168152602001600073ffffffffffffffffffffffffffffffffffffffff168152602001600060ff168152602001600081525090565b828054600181600116156101000203166002900490600052602060002090601f016020900481019282601f10612e3c57805160ff1916838001178555612e6a565b82800160010185558215612e6a579182015b82811115612e69578251825591602001919060010190612e4e565b5b509050612e779190612e7b565b5090565b612e9d91905b80821115612e99576000816000905550600101612e81565b5090565b9056fe796f75206d75737420736574207570206f7220646f776e20776974682031206f72202d312076616c75657573696e6720696e7465726e616c20636f6e747261637420666f722065787465726e616c2070726f706f73616c20697320696e76616c69646f6e6c79206f776e65722063616e2063616c6c20746869732066756e6374696f6e6f6e6c792076616c6964206d656d626572732063616e20646f2074686973207472616e73616374696f6e796f75206d7573742072656e657720746f6b656e73206166746572206f6e652079656172a165627a7a7230582024330c818aae4078f9795a0a335c036fc1c184f9bd7e8fec7d3a157e5209ef210029",
  "source": "pragma solidity >=0.4.21 <0.6.0;\n\nimport \"./Ownable.sol\";\nimport \"./AccessToken.sol\";\nimport \"./Anchors.sol\";\n\ncontract Voting is Ownable, AccessToken, Anchors {\n\n  struct Proposal {\n    string title;\n    uint32 proposalType;\n    uint32 startDate;\n    uint32 endDate;\n    address author;\n    string url;\n    string hashCode;\n    uint32 registerDate;\n    uint16 up;\n    uint16 down;\n    address contractAddress;\n    uint8 threshold;\n    uint id;\n  }\n\n  Proposal[] proposals;\n\n  mapping (uint => mapping(address => int8)) public votesReceived;\n\n  constructor(uint _voterTokensCount) AccessToken(_voterTokensCount) public {\n  }\n\n  modifier onlyMembers() {\n    require(contractHasNoOwener(), \"this contract is in config mode\");\n    require(inMembers(msg.sender), \"only valid members can do this transaction\");\n    _;\n  }\n\n  function renewYearTokens() public onlyMembers  {\n    renewToken(members, false);\n  }\n\n  function voteForProposal(uint _proposalIndex, int8 _vote) public onlyMembers {\n    Proposal memory proposal = proposals[_proposalIndex];\n    require(proposal.author != address(0), \"proposal not found\");\n    require(proposal.startDate < getTime(), \"voting is not started\");\n    require(proposal.endDate > getTime(), \"voting was finished\");\n    require(votesReceived[_proposalIndex][msg.sender] == 0, \"your vote registered later\");\n    require(_vote != 0, \"you must set up or down with 1 or -1 value\");\n    if(_vote > 0) {\n      votesReceived[_proposalIndex][msg.sender] = 1;\n      proposals[_proposalIndex].up += 1;\n    } else {\n      votesReceived[_proposalIndex][msg.sender] = -1;\n      proposals[_proposalIndex].down += 1;\n    }\n  }\n\n  function getProposal(uint index) public view returns ( \n    string memory,\n    uint32,\n    uint32,\n    uint32,\n    address,\n    string memory,\n    string memory,\n    uint32,\n    address,\n    uint8,\n    uint\n    ) {\n    Proposal memory proposal = proposals[index];\n    return (\n      proposal.title,\n      proposal.proposalType,\n      proposal.startDate,\n      proposal.endDate,\n      proposal.author,\n      proposal.url,\n      proposal.hashCode,\n      proposal.registerDate,\n      proposal.contractAddress,\n      proposal.threshold,\n      proposal.id\n    );\n  }\n\n  function getProposalsCount() public view returns (uint) {\n    return proposals.length;\n  }\n\n  function getProposalStatus(uint index) public view returns ( uint, uint, uint, address, bool, bool,uint,uint, bool ) {\n    Proposal memory proposal = proposals[index];\n    uint total = proposal.up + proposal.down;\n    return (\n      proposal.up,\n      proposal.down,\n      proposal.proposalType,\n      proposal.contractAddress,\n      getTime() < proposal.startDate, // isNotStarted\n      getTime() >= proposal.endDate, // isExpired\n      proposal.up * 100 / total,\n      proposal.up * 100 / total,\n      (proposal.up * 100 / total) >= proposal.threshold\n    );\n  }\n\n  function registerProposal(\n    string memory title,\n    uint32 proposalType,\n    uint32 startDate,\n    uint32 endDate,\n    string memory url,\n    string memory hashCode,\n    address contractAddress,\n    uint8 threshold\n    ) public onlyMembers useToken(1) {\n        require(contractAddress != address(this), \"using internal contract for external proposal is invalid\");\n        proposals.push(\n          Proposal(title, proposalType, startDate, endDate, msg.sender, url,hashCode, uint32(getTime()), 0, 0, contractAddress, threshold,0)\n        );\n  }\n\n  function registerInternalProposal(\n    string memory title,\n    uint32 proposalType,\n    uint32 startDate,\n    uint32 endDate,\n    string memory url,\n    string memory hashCode,\n    uint8 threshold\n    ) internal onlyMembers useToken(1) returns (uint) {\n        return proposals.push(\n          Proposal(title, proposalType, startDate, endDate, msg.sender, url,hashCode, uint32(getTime()), 0, 0, address(this), threshold,0)\n        );\n  }\n}",
  "sourcePath": "C:\\Users\\javad\\projects\\kuknus\\kuknos-dao\\contracts\\Voting.sol",
  "compiler": {
    "name": "solc",
    "version": "0.5.8+commit.23d335f2.Emscripten.clang"
  },
  "schemaVersion": "3.0.11",
  "updatedAt": "2019-06-20T11:39:24.809Z",
  "devdoc": {
    "methods": {
      "renounceOwnership()": {
        "details": "Allows the current owner to relinquish control of the contract."
      },
      "transferOwnership(address)": {
        "details": "Allows the current owner to transfer control of the contract to a newOwner.",
        "params": {
          "_newOwner": "The address to transfer ownership to."
        }
      }
    }
  },
  "userdoc": {
    "methods": {
      "renounceOwnership()": {
        "notice": "Renouncing to ownership will leave the contract without an owner. It will not be possible to call the functions with the `onlyOwner` modifier anymore."
      }
    }
  }
}